:020000040800F2
:1000000000200020716B0008856A00088D6A0008D6
:1000100000000000000000000000000000000000E0
:10002000000000000000000000000000956A0008C9
:1000300000000000000000009F6A0008A96A000894
:10004000C16B0008C16B0008C16B0008C16B0008E0
:10005000C16B0008C16B0008B76A0008C16B0008DB
:10006000C16B0008C16B0008C96A0008C16B0008B9
:10007000C16B0008C16B0008C16B0008E16A000891
:10008000C16B0008C16B000800000000C16B0008D4
:10009000C16B0008C16B0008C16B0008C16B000890
:1000A000C16B0008C16B0008C16B0008C16B000880
:1000B000C16B000800000000C16B000800000000D8
:1000C00010B5064C2378002B07D1054B002B02D02E
:1000D000044800E000BF0123237010BD7800002019
:1000E00000000000ACB10008044B10B5002B03D099
:1000F0000349044800E000BF10BDC04600000000F6
:100100007C000020ACB1000803B4714649084000EF
:100110004900095E49008E4403BC70470022430831
:100120008B4274D303098B425FD3030A8B4244D3BF
:10013000030B8B4228D3030C8B420DD3FF22090201
:1001400012BA030C8B4202D31212090265D0030BC0
:100150008B4219D300E0090AC30B8B4201D3CB03B6
:10016000C01A5241830B8B4201D38B03C01A5241F8
:10017000430B8B4201D34B03C01A5241030B8B42FA
:1001800001D30B03C01A5241C30A8B4201D3CB02E5
:10019000C01A5241830A8B4201D38B02C01A5241CA
:1001A000430A8B4201D34B02C01A5241030A8B42CD
:1001B00001D30B02C01A5241CDD2C3098B4201D3E5
:1001C000CB01C01A524183098B4201D38B01C01A63
:1001D000524143098B4201D34B01C01A52410309DA
:1001E0008B4201D30B01C01A5241C3088B4201D389
:1001F000CB00C01A524183088B4201D38B00C01A36
:10020000524143088B4201D34B00C01A5241411A5C
:1002100000D20146524110467047FFE701B5002069
:1002200000F006F802BDC0460029F7D076E7704717
:100230007047C0468446100062468C4619006346EB
:1002400000E0C0461FB502F061F8002801D400218B
:10025000C8421FBD10B501F0A5FF4042013010BDDE
:1002600010B502F053F8002801DB002010BD01207A
:1002700010BDC04610B502F049F8002801DD00208D
:1002800010BD012010BDC04610B501F0CFFF002801
:1002900001DC002010BD012010BDC04610B501F0EA
:1002A000C5FF002801DA002010BD012010BDC046A6
:1002B000844608006146FFE71FB500F0C3FB002835
:1002C00001D40021C8421FBD10B500F04BFB4042D5
:1002D000013010BD10B500F0B5FB002801DB002097
:1002E00010BD012010BDC04610B500F0ABFB0028CA
:1002F00001DD002010BD012010BDC04610B500F08A
:1003000059FB002801DC002010BD012010BDC046B3
:1003100010B500F04FFB002801DA002010BD0120CD
:1003200010BDC0469E2110B5C905041CFFF7F0FFA3
:10033000002803D1201C00F0A1FF10BD9E21201C2D
:10034000C90500F021FD00F099FF80231B069C46A3
:100350006044F2E7F8B54B025A0A94464A00C90FC6
:10036000CE4647468946450046022D0E120E80B500
:100370009909770AC40FB609AB1A4C4520D0002B57
:100380000CDD002A34D100292AD05A1E012B00D1BD
:100390008FE0FF2B00D1CDE013002FE0002B60D0C9
:1003A000531B002D00D0EEE0002E00D13EE15C1E7C
:1003B000012B00D16BE1FF2B00D1B9E02300E7E076
:1003C000002B00DCA4E0002A69D0FF2D00D1B1E0B1
:1003D0008022D20411431B2B00DCE9E02B00053600
:1003E000F708FF2B00D1A5E07A02520AD8B230E01C
:1003F000FF2D00D19EE08022D204114301201B2B4F
:1004000008DC08002022D840D31A99400B005A1E5D
:1004100093411843361A730100D471E0B601B7094D
:10042000380002F0BFFF3B000538834085424DDDB8
:10043000B44E2D1A1E405A0768D00F221340042BC9
:1004400064D00436730161D5681CFE2D54D1FF20A1
:100450000022C0051043E4072043C0BCB946B046A3
:10046000F8BDFE229046681C0200404610426BD147
:10047000002D00D0DDE0002E00D102E10029B3D034
:100480008022771AD204174200D136E14C468E1BE7
:1004900061D00120164230D10023F708A4E70029DB
:1004A0009ED05A1E012B00D1CAE0FF2B42D0130070
:1004B00091E7711A4B0100D4D1E08F01BF093800D8
:1004C00002F070FF3B000538834001252022401BCD
:1004D0000130121A1E009340C6405A1E93411E431B
:1004E00039D0730700D11BE10F2300253340042BC3
:1004F000A7D1012072017CD5C0B2B201520AA8E78F
:10050000730703D00F233340042B9AD12B0067E7E6
:10051000002B23D0531B002D7BD1002E00D186E071
:100520005D1E012B00D18BE0FF2B02D02B0075E06C
:100530004C466746002F00D189E78022D2033A4318
:100540005202FF20520A84E7771A7B016BD4002FF6
:1005500000D065E70024002000227AE7FE226B1C11
:100560001A4249D1002D00D09FE0002E00D1BAE000
:10057000002900D1CFE07218530100D4CDE09201E0
:100580000120520A65E7FF2AD2D08020C00406432A
:1005900001201B2B08DC30002024D840E31A9E40A9
:1005A00033005C1EA34118434C4615000E1A32E777
:1005B00008002022D840D31A99400B005A1E9341BC
:1005C0000343F61873019BD50135FF2D00D13EE79B
:1005D00001234D49720833400A401A43160053075D
:1005E00004D00F231340042B00D02AE7730100D559
:1005F0002AE72B00F708F7E6FF2B00D127E7711851
:1006000049084A072FD00F220A40042A2BD00E1D7A
:10061000E6E6FF2A8DD08020C00406431B2B24DD94
:1006200013004E1DDCE64C468F1BF9E64C460E00CF
:10063000D6E6002E49D1002968D067464C467CE7B3
:100640007018430174D5304940080140430709D070
:100650000F230340042B05D002230E1DC0E6012307
:10066000CF08C1E60223CF08BEE620253000D840DF
:10067000EB1A9E4033005D1EAB41034315005E182C
:10068000A0E7002900D165E74C466746ACE68F1B22
:100690007B012ED5BF01BF09380002F083FE3B006D
:1006A000053883404C46013510E7002E00D140E765
:1006B000002900D141E78023DB039F4200D23CE7C1
:1006C0009C4500D339E7674637E7002900D134E776
:1006D0008023DB039F4200D22FE79C4500D32CE709
:1006E0004C46674629E7002900D134E70023CF08AC
:1006F0007AE64C460123FF0876E6002F00D129E771
:10070000FF0871E6FFFFFFFBFFFFFF7D8022002453
:10071000FF20D2039DE6002366E60023D70863E6A8
:100720000120720100D5E7E631000023CF085BE627
:100730000123C70858E6C046F0B546464F46D646A0
:100740004502C0B5C30F470098460E1C6D0A3F0E08
:100750005BD0FF2F21D08023ED00DB041D4300235D
:1007600099469A467F3F74027300640A1B0EF60F87
:10077000002B20D0FF2B43D080220020E400D204A5
:1007800014437F3B4246FF1A4B4672400F2B00D961
:100790009DE071499B00CB589F46002D5AD10823FC
:1007A0009946063B74029A467300FF27640A1B0EA3
:1007B000F60F002BDED1002C3BD1012342464946E7
:1007C000724019430E2918D86448890041588F4651
:1007D0005346022B00D1B8E0032B6ED042462C00CA
:1007E000012B40D100200024C0052043D207104334
:1007F000E0BCBA46B146A846F0BDFF200024F3E7AE
:10080000002C20D10223FF3FD8E7002D05D104237F
:100810009946033B00279A46A5E7280002F0C2FD4F
:100820007627431F9D4000237F4299469A463F1AF0
:1008300099E7200002F0B6FD431F9C4076235B42FF
:100840001B1A00209EE703234A461A4391460320C1
:10085000FC3397E70C239946093BFF279A4682E72A
:1008600003282CD0320038007F30002847DD630792
:1008700004D00F232340042B00D00434230103D5DC
:100880003800374B80301C40FE28B6DCA401640AD7
:10089000C0B2A9E780240022FF20E403A4E780235C
:1008A000DB031D4201D01C420BD08024E4032C4307
:1008B00064024246FF20640A96E746462C008023E5
:1008C000DB031C4364023200FF20640A8CE76D01E5
:1008D000600185422DD21B230024013F01262900FF
:1008E00064006D00002901DB854201D32D1A3443D9
:1008F000013B002BF3D16B1E9D412C43B3E7012339
:100900001B1A1B2B00DD6DE721009E37D940BC4030
:100910000B00611E8C412343590704D00F2119405D
:10092000042900D00433590113D49B0100205C0A30
:100930005AE71A2301242D1AD0E7981E4342584142
:10094000404232000024C0B24EE74246FF2000245D
:100950004AE70120002447E704B3000844B3000835
:10096000FFFFFFF770B542004E024C0045026D0AD2
:10097000120EC30F760A240EC90FFF2A10D0FF2CC7
:100980000CD00120A2420AD1B54208D18B420FD02F
:10099000002A04D12800431E984100E0012070BDC8
:1009A0000120FF2CFBD13543F9D14B401800F6E76D
:1009B0000020F4E730B5420044024D02C30F480066
:1009C000640A120E6D0A000EC90FFF2A18D0FF2804
:1009D0000AD0002A1ED100280AD1002D29D0002CCF
:1009E0002DD14800013830BD002D25D1002A01D17C
:1009F000002CF6D08B4219D001205B421843F2E75D
:100A0000002C19D1FF28F7D1002D15D100208B42E1
:100A1000F2D1E8E70028EFD08B42EDD18242EBDC47
:100A200004DBAC42E8D80020AC42DCD258000138EC
:100A3000D9E7002CD7D0DFE702204042D3E78B4232
:100A4000DAD1EEE730B5420044024D02C30F480050
:100A5000640A120E6D0A000EC90FFF2A17D0FF2874
:100A60000AD0002A1BD100280AD1002D1DD0002C4D
:100A70002DD14800013811E0002D0ED1002A01D1FE
:100A8000002CF6D08B420CD15800013806E0002C27
:100A900003D1FF2805D1002D15D0022030BD00283C
:100AA00006D101205B421843F8E7002CF6D0F8E7A6
:100AB0008B42F6D18242F4DCE6DBAC42F1D8002076
:100AC000AC42EBD2E0E700208B42EAD1E6E78B4272
:100AD000E7D1F2E7F0B54F464646D6464400C0B5EA
:100AE00046020F1C760A240EC50F002C00D1DAE056
:100AF000FF2C74D08023F600DB041E4300239946AC
:100B00009A467F3C7B025B0A98467B001B0EFF0FD8
:100B1000002B74D0FF2B00D18EE042468021D20002
:100B2000C90411437F3B2A00E4184B467A408846AB
:100B3000D2B20A2B75DC4B460020022B0FDD494652
:100B400001238B40A621C9000B4269D19021890065
:100B50000B4200D000E18821194200D0F5E0414667
:100B60000904090C43460800350C36041B0C360CEE
:100B7000704369435E435D437618030C9B199942A9
:100B800003D9802149028C46654400041904000CF5
:100B900009188E01701E86411B0C890E5B190E43CD
:100BA0009B011E431B016CD423007F33002B00DC10
:100BB000B1E0150071070BD00F2021003040042850
:100BC00006D00436320103D56E4B1E400B00803335
:100BD000FE2B00DDBDE0B201520ADBB248E0002E80
:100BE00000D092E008239946063B9A467B025B0AB6
:100BF00098467B00FF241B0EFF0F002B8AD1424634
:100C0000002A64D149460132114389460A2908DC89
:100C10007D400120EAB2022991DC1500002227E084
:100C200015005346022B00D193E0032B1AD0012B61
:100C30002CD1002300221BE04346FF34002B55D06B
:100C400003214B460B4319000A2B00DC92E00F2BCB
:100C500000D08CE08022D203164203D043461342D8
:100C600000D17DE08022D20332435202520AFF2398
:100C7000D805ED0710432843E0BCBA46B146A84664
:100C8000F0BD0123150071081E400E432300803380
:100C9000611C002B41DD720794D00F223240042AE0
:100CA00000D08EE78EE7002E05D104239946033B42
:100CB00000249A4626E7300002F074FB7624431F96
:100CC0009E400023644299469A46241A1AE74046F9
:100CD00002F068FB4B46241A763C0A2BA1DC434603
:100CE000053883407D409846EAB224E74A460233FD
:100CF00013432A007A40D2B20A2B92DC49461500EF
:100D0000002926D09946022019E70C239946093B71
:100D1000FF249A46F6E6150021000122D31A1B2B68
:100D200000DD86E79E3132008E40DA40731E9E4120
:100D30003243530704D00F231340042B00D0043256
:100D4000530110D50123002292E73D00464682461A
:100D500067E7FF2300228BE780220025D20386E786
:100D60003D001A4383E792010023520A80E73D00C9
:100D7000464677E72A0001237A408B400320D2B20F
:100D8000E9E6C046FFFFFFF7F8B54746CE46430207
:100D900080B55F0A9B0945004A009C464B02C40F80
:100DA000CE0F2D0E580A120E9909FF2A6BD001237F
:100DB0005E40AB1AB4424BD0002B00DCFFE0002AAF
:100DC00000D188E0FF2D00D1EFE08022D204114352
:100DD00001201B2B08DC08002022D840D31A9940A0
:100DE0000B005A1E9341184363461B1A9C466346E8
:100DF0005B0100D4CDE063469F01BF09380002F0DB
:100E0000D1FA3B0005388340854200DCA2E0B74AB6
:100E10002D1A1A4094465A0700D1C3E00F221340FE
:100E2000042B00D1BEE004239846C44463465B0112
:100E300000D4B7E0681CFE2D00D0A5E0FF20002202
:100E4000C0051043E4072043C0BCB946B046F8BD16
:100E5000002B00DCEBE1002A46D0FF2D00D1A4E0FE
:100E60008022D20411431B2B00DCFBE005239846B3
:100E70002B00C4446246D708FF2B00D195E07A02CC
:100E8000520AD8B2DCE72B00FF3B9946002918D163
:100E900001235E40B44200D1CAE04B46002B2DD066
:100EA000002D00D03CE1FF236446002C00D15FE11F
:100EB0005D1E012B00D174E13400FF2B74D02B0098
:100EC00003E1B44200D19CE0002B17D0002DEAD002
:100ED000070034006CE00029CCD05A1E012B2BD027
:100EE000FF2B62D0130073E70029C3D05A1E012BD9
:100EF00000D11EE1FF2B58D01300B4E7FE226B1C7B
:100F00001A420DD1002D60D06346002B00D020E1A5
:100F1000002900D028E180220024FF20D2038FE79F
:100F200063465F1A7B0100D5FEE0002F00D065E725
:100F300000240020002283E76346591A4B0100D4A5
:100F400019E18F01BF09380002F02CFA3B00053887
:100F5000834001252022401B0130121A19009340C2
:100F6000C1405A1E934119438C460B1EE1D05B07CA
:100F700000D152E10F2300250B40042B00D052E793
:100F800001204A0100D492E0C0B263469A01520A9D
:100F900056E763465B0705D00F2362461340042BD8
:100FA00000D040E72B0065E70700002F00D145E7A0
:100FB0008022D2033A435202FF20520A40E7002B1C
:100FC00079D1FE226B1C1A42AAD16346002B00D1B4
:100FD000F5E0002900D1D1E05F1A8023DB041F4235
:100FE00000D10EE1624601248A1A94460020344062
:100FF000002A00D124E701201A42C6D10023D708D5
:101000003DE7002B17D0002D00D0AFE0FF23654651
:10101000002D00D1ADE05E1E012B00D189E0FF2B39
:10102000C2D01B2E00DCABE04B1D9C46130021E719
:101030004B46002B70D1FE226B1C1A425ED1002D54
:1010400000D0C3E06346002B00D1D0E0002900D1DE
:1010500094E00A006244530100D4D8E092010120D8
:10106000520AEDE608002022D840D31A99400B001E
:101070005A1E934103439C4463465B0189D5013565
:10108000FF2D00D1DAE662460123194913405208C8
:101090000A401A43130094465B0704D00F23134001
:1010A000042B00D0BFE663465B0100D5C2E6634671
:1010B000DF082B00E3E6531B002D00D1F4E680206F
:1010C0006446C0040443A446340001201B2B09DC01
:1010D00020256046D840EB1A65469D402B005D1EDA
:1010E000AB4118430B1A9C46150080E6FFFFFFFB3F
:1010F000FFFFFF7DFE226B1C1342A3D0FF2B00D10C
:101100009CE6614449084A0749D00F220A40042A54
:1011100045D00A1D9446ADE6002D00D176E78DE658
:101120003400FF2000228BE663460124CF1A3440AE
:1011300064E661444B016DD54808444901404307CA
:101140002CD00F230340042B28D00B1D9C460223D8
:1011500090E6002900D12BE78023DB039F4200D2D9
:1011600026E7984200D323E70124344007001FE715
:1011700034008C467EE60123CF0880E600237EE61D
:1011800020206546801B854063462800F340451EAD
:10119000A84103439C4615008C446DE70223CF0809
:1011A0006DE60F1B7B0128D5BF01BF09380002F097
:1011B000F9F83B000538834034000125CAE60029D0
:1011C00000D1B5E601240700344058E66346002B01
:1011D00000D1E9E6002900D1EAE68023DB039F4243
:1011E00000D2E5E6984200D3E2E60700E0E60029F7
:1011F00000D19EE60023CF0841E634000123FF081A
:101200003DE6002F00D193E60023FF0837E60023D8
:10121000D70834E60123CF0831E680220B00D20440
:1012200001201340114200D0AEE6CF0827E6002B84
:1012300000D15FE7561B002D01D13300E7E6802384
:101240006046DB0418438446EBE6C046FFFFFF7DA3
:1012500043024A02400049005B0A520A090E000E8E
:10126000FF2806D00020FF2902D1531E9A4110000A
:101270007047FE38002BFBD1F4E7C0464102420024
:10128000C30F490A0020120E7E2A03DD9D2A02DDCB
:10129000094A98187047802000040143952A07DC0A
:1012A0009620821AD1404842002BF3D10800F1E782
:1012B000963A9140F7E7C046FFFFFF7F70B50028E0
:1012C00012D0C317C5185D40C40F280002F06AF899
:1012D0009E231B1A962B0FDC082838D0083885402F
:1012E0006D026D0AD8B202E0002400200025C0057E
:1012F0002843E407204370BD992B14DC421F95401E
:101300002A001549114055071CD00F252A40042AF0
:1013100018D00431CA08490115D59F235202181A62
:10132000550AC0B2E3E705222900121AD140020093
:101330001B3295402A00551EAA410A430649114016
:101340005507E2D1CA085202550AD8B2CFE76D025A
:101350006D0A8E30CBE7C046FFFFFFFB10B5041EC1
:101360000DD002F01FF89E231B1A962B0CDC0828C8
:1013700034D0083884406402640AD8B201E0002006
:101380000024C005204310BD992B13DC421F94405C
:10139000144A224061071CD00F212140042918D093
:1013A0000432D408520115D59F236402181A640A26
:1013B000C0B2E6E7020021001B3291400A00511E34
:1013C0008A410521091ACC401443064A224061078C
:1013D000E2D1D4086402640AD8B2D2E76402640A93
:1013E0008E30CEE7FFFFFFFBF0B54F464646D646B0
:1013F000C0B582B0009001910E034C00CD0F710A70
:10140000009E5F00760F0E43009900920193C90081
:10141000894619037B0D9846019B490ADB0F9C46C0
:10142000009B009A5B0F0B434146640DD200611A8A
:10143000654500D1A6E0002972DD4746002F00D1A6
:10144000DDE0CC4FBC4200D19AE10127382917DCFE
:1014500080273F043B431F2900DDDDE12027781A68
:101460001F008740BA461700CF40844638005746D1
:10147000074360468240CB40501E8241F61A174314
:101480004B46DF1BB94580414042361A330200D437
:10149000FFE07602760A002E00D13CE1300001F038
:1014A00081FF0300083B20213800CA1AD0409E402B
:1014B00002009F4032439C4200DDA6E1181B013030
:1014C000091A3E008F40C6407B1E9F4113008B408F
:1014D00037431F43C2403B0016000024134300D192
:1014E000DFE17B0700D132E30F233A003B40042BBE
:1014F00004D03A1DBA42BF417F42F619330200D4EC
:1015000023E39C4B01349C4200D1B4E09A4B640528
:101510001E40640D7707D20876021743360BACE005
:10152000002900D17EE04146091B002C00D060E17B
:1015300034004846044300D1C9E14C1E012900D1C2
:101540002EE28C4DA94200D124E20127382C11DC77
:1015500021001F2900DD0BE2202437004846641AD1
:10156000A740C84007434846A040CE40441EA04183
:101570009B1B0743D71BBA429241524265464446E1
:101580009E1A83E7002900DC9CE04746002F67D1C4
:101590001F00174300D1E4E0481E012900D19BE160
:1015A000744FB94200D1EBE001270100382811DC6B
:1015B0001F2900DDC7E12027781A1F0084468740D5
:1015C0001000C840074360468240CB40501E824115
:1015D000F61817434F444F458041404236183302B6
:1015E00057D5644B01349C4245D00121624B7A08A7
:1015F0001E4039400A43F7071743760871E71F007A
:10160000174300D1ADE04F1EBC46012900D182E155
:10161000584FB94200D190E161460127382900DDD9
:101620002EE718E7554F611C394200D0D0E0310059
:1016300048461F0001431743002C00D03DE100291C
:1016400000D1BCE1002F00D0BFE14B460021D808FB
:1016500077070743F00806034C05360B640D0CE0D2
:10166000444FBC4200D18BE001273829B2DC8027EF
:101670003F043B439CE70026002724053443ED0745
:101680002C433800210002B0E0BCBA46B146A8465F
:10169000F0BD7B0704D00F233B40042B00D028E78C
:1016A000F808344B77070743F0089C4200D04AE221
:1016B0003B00034359D080263603064336032D4CA6
:1016C000360BDAE7002961D04146091B002C00D116
:1016D000B9E0284CA04500D1A5E10127382913DC49
:1016E0008024240426431F2900DDC8E1202437007C
:1016F0004846641AA740C84007434846A040CE4029
:10170000441EA0419B190743BF1897429241524281
:101710004446D61863E7380001F044FE030018334E
:101720001F2B00DCBFE63A00083882409C4200DDF7
:1017300083E01B1B581C1F2800DCB4E117001F3B73
:10174000DF40202805D040231B1A9A40531E9A419F
:1017500017430024002F0AD07B0700D0C4E62600E0
:101760009EE74B460C00D8089BE70027014C00265B
:1017700083E7C046FF070000FFFF7FFFFE07000072
:101780004B467707D8080743F00891E7CD4F611C17
:1017900039426BD1310048460143002C00D04BE167
:1017A0001F001743002900D181E1002F00D14CE731
:1017B0004A444A458041F61840423618330200D563
:1017C000B0E117009146374300D03EE7002654E7CA
:1017D0004946891A8846C145BF41F11A7F42C91B53
:1017E0000F0261D447460F4300D1BDE00E004746CB
:1017F00051E6B54CA04500D100E10127382900DDB4
:10180000B8E6802424042643A3E6B04EE41A16402A
:101810007B0700D03FE743E70F001800203FF84068
:101820008446202903D04027791A8B401A43531E3F
:101830009A41634617001F4322E6A448E11A10406C
:101840004707C00807E734004846044300D1FAE0E0
:101850004C1E012900D1D7E09B4FB94200D1E2E0F4
:101860000127382C00DD4FE721003CE7964CA142D0
:1018700000D1DDE04A444A458041F318404218183F
:10188000C707520817434608520705D00F220C001D
:101890003A40042A00D02CE67607FF0837430009B7
:1018A000D9E600270026E8E64946571ABA4292418F
:1018B0009E1B52426546B61AEDE5002900D0C6E0EF
:1018C000002F67D1802600257F4C3603D5E665467C
:1018D0000C001E00D008E4E64A444A458041F31853
:1018E000404218181100030200D496E0774B4908D3
:1018F0001840C3070B434408490700D129E10F22D0
:101900001A40042A00D1EAE01F1D9F42B6417642E8
:1019100036190224C4E649468F1AB9458041F61AA1
:101920004042361A330206D47307FF0801211F43D1
:10193000F00890E665460124ABE54B467707D808EA
:101940000743F008B4E60F001800203FF840844633
:10195000202903D04027791A8B401A43531E9A41FD
:10196000634617001F4335E600250024002684E661
:101970000C003500203CE540202905D04024611AA8
:101980008E404946314389464846411E88410700FA
:101990002F43EFE5D2085F0765461743D80887E66F
:1019A000171ABA4292419E1B5242B61A3302C1D450
:1019B0007307FF08654601211F43F0084BE6002F1F
:1019C0007BD065461E0091463FE6811A8846C14598
:1019D000A441F11A6442091B80242404214277D0D7
:1019E000101A8242924107009E1B5242B61A374398
:1019F00000D0A0E06546002400263EE65F07D2083E
:101A000065461743D80853E6811891429241F01871
:101A100052428018030200D568E74707C9080F4300
:101A2000C008012117E6D2085F071743D8083FE630
:101A30000C000026002720E6002956D15F07D208B7
:101A40001743D80834E60C001E00D00829E6C10868
:101A500070070143F008002F62D080242403204245
:101A600007D0DE08264204D165463000D1085B0766
:101A700019434F0FC900C9087F070F4318E60C0030
:101A80003000203CE0408446202905D04024611AE3
:101A90008E404946314389464846411E8841614649
:101AA00007000F4330E620210027091A0EE51E002B
:101AB000002F00D022E5002458E70025002400264E
:101AC000DBE5C046FE070000FF070000FFFF7FFFC9
:101AD00047460F4300D147E70E00C146B5E5DF0892
:101AE0006407022127430009B5E51900C0087707FC
:101AF00007431143F008002900D1D9E580210903EB
:101B0000084207D0DC080C4204D1D2085B071A4314
:101B1000170020007B0FFF00FF085B071F43C7E58E
:101B20000F00C5E5124BD20833405F075B0201246A
:101B300017431E0BA1E5264212D00D4B654602004D
:101B400001241E40E6E4210085E51700A8E53A00DF
:101B5000D4E4DB0864071C432700022100097AE56E
:101B6000C0087707074365460021F00873E5C046C3
:101B7000FFFF7FFFF0B5DE46454657464E46E0B5CF
:101B800087B0009201930B031B0B9B46CA0F4B00BF
:101B9000040080465B0D029200D198E07C4A93429B
:101BA00037D05946420FC9000A4380210904114326
:101BB000C2009046774A894692469A440023002400
:101BC0000393009E019F3B031B0B9B467B00300051
:101BD0005B0DFD0F002B59D06D4A934248D05946FA
:101BE000720FC9000A438021090411438B466949D9
:101BF000F2008C4651466344CB1A9A460021029E5D
:101C00006E40F6B20F2C00D9CEE0634BA4001B59F6
:101C10009F465A460243914600D090E09A460223DE
:101C2000904608240393CCE7CB464246029D039995
:101C3000022900D1DEE1032900D18DE0012900D085
:101C400079E12E0000220023002490461B05234347
:101C5000F60733434046190007B0F0BCBB46B24616
:101C6000A946A046F0BD002200249046484BEDE76F
:101C70005A46009B1A43494B9C46E244002A59D1DC
:101C800002231C43002302219B46B8E75A46009BCF
:101C90001A4349D05B46002B00D19CE1584601F025
:101CA00081FB020003000B3A1D27009EBA1A19009F
:101CB0005846D64008398840320002439346009A7D
:101CC0008A40374953448A4600219A4497E75B4645
:101CD0000343994621D05B46002B00D169E1584669
:101CE00001F060FB0B235B429C4602008444664685
:101CF0001D239B1B260011005846DE4008398840F2
:101D000033000343994623008B409846254B00241B
:101D10009B1A9A460023039353E7002398469A465A
:101D20000133042403934CE701231C4300230121C6
:101D30009B4664E70323320003211C435FE79A4676
:101D40000323D9460C2403933BE7002380249846C1
:101D500000260F4B240379E780245B4624031C43B1
:101D600024032E0090460A4B240B6FE780244B4639
:101D70002403234202D05B462342F0D080244B460A
:101D800024031C432403029E014B240B5EE7C04640
:101D9000FF07000001FCFFFF80B3000801F8FFFF10
:101DA000F30300000DFCFFFFCB4500D2F8E000D1AB
:101DB000F3E001235B429C46444648460025E2444A
:101DC0005B46170E1B021F43190C3B0412020097BF
:101DD0001F0C914602910397FEF726FA02007A4300
:101DE0000B04210C804619438A4209D9009F012324
:101DF000BC465B4261449C46E0448F4200D85CE1B3
:101E0000881A0299FEF710FA039A2404424309043F
:101E1000240C03000C43A24206D90099013B8C46D6
:101E20006444A14200D842E1A01A424612041A4377
:101E300093464B4659461B0C1F0004930B0449461E
:101E40000904090C0C001B0C5C43120C7B438846F4
:101E500051437A43270CBC465B186344994203D92B
:101E6000802149028C466244190C24041B04240C72
:101E70008A181C19904202D316D1A54214D25B468F
:101E8000009F013B4D4405934D459B41BC465B4241
:101E90006344C018874200D302E1824200D929E19D
:101EA00000D124E1059B9B462C1BA542AD41009B24
:101EB000801A6D42401B834200D10FE10299FEF768
:101EC000B3F9039A0B044243210C050019438A42DB
:101ED00000D9CBE0881A0299FEF7A6F9039A2404E8
:101EE00042430904240C03000C43A24200D9CAE077
:101EF0004146A41A2A041A43049F13041B0C594395
:101F000040467B439C46150C68430B0C8444634459
:101F10007D43984203D98020400284466544180CD2
:101F200009041B04090C40195B18844227D323D0F1
:101F3000012335001A43944B5344002B60DD5107B5
:101F400000D086E02E00D1085A46D20106D55A4666
:101F50008E4B1A4080239346DB0053448C4A9342B5
:101F600000DD80E65A4652070A4390465A465B0512
:101F70005402240B5B0D69E63500002BDBD0009D7D
:101F8000511EAC466444AC4200D29EE0844200D272
:101F9000E1E000D1EEE00A00CAE7424500D908E7D7
:101FA0004B46DC07580843465B081C434346DD07A5
:101FB00006E701F0F7F915239C46844402006346C6
:101FC00020321C2B00DC92E623000838834099461F
:101FD000002398469AE601F0E5F902000300153265
:101FE00020331C2A00DC5FE600990838814000227B
:101FF0008B4666E600222E0000249046654B25E6BF
:102000002E000121C91A382900DD1BE61F297EDCBC
:102010006148140050445B4682408340CC40501ECF
:10202000824123431A435B46CB40510709D00F211D
:102030001140042905D0111D9142924152429B1832
:102040000A00190200D49BE00022012300249046DC
:10205000FCE50F211140042900D173E7111D9142C5
:10206000924152422E00C90893446DE7009B013D06
:102070009C4661448B4200D92CE78A4200D829E76C
:10208000851E614426E70099013B8C466444A142C9
:1020900000D92DE7A24200D82AE7831E644427E72F
:1020A000874200D0FEE6A94500D9FBE6F5E6A2424C
:1020B00000D8B9E6831E6444B6E68A4200D89FE69B
:1020C000BC46831E984661449AE60A00844200D0CA
:1020D0002EE74B4500D02BE735002CE72A4B2F4A43
:1020E0005344924543DB0122002193442CE7AC4248
:1020F00000D8D7E602235B429C4600994D444D45EB
:102100009B41E3448C465B426344C018CCE61F20ED
:102110004042C31A5846D840202904D05946204B83
:10212000534499400A43531E9A410723190002431E
:1021300000241140134209D008331340042B1DD052
:10214000131D934289411A0049424907D2080A43A4
:10215000904600237AE54946009F4D004D45894150
:10216000BC4649426144A946023A6418AEE70122DE
:10217000524246E79945EED30A00AAE70021E5E777
:1021800059075B021C0BE1E7FF030000FFFFFFFEA6
:10219000FE070000FF0700001E04000002FCFFFF16
:1021A0003E040000F0B55746DE464E464546E0B5D3
:1021B0000D000400E80F83460903D80F090B82467F
:1021C00019488C461F0369005E00490D3F0B760DD0
:1021D000814218D086420FD00120B1420DD1BC45BA
:1021E0000BD1944209D1D3451CD0002905D16046BA
:1021F0002043431E984100E00120F0BCBB46B2469C
:10220000A946A046F0BD01208E42F6D16146394371
:102210000F0017432743F0D15B465246981A431EDE
:102220009841EAE70020E8E7FF070000F0B55746CD
:102230004E464546DE46E0B50D000E034900490D09
:102240008A46DF0FE90FBC4683B02F4F040080465B
:102250000191580019039146360B090B400DBA4500
:102260001DD0B8420DD05746002F2AD13443002844
:1022700024D10A4336D0002C41D16346580001389E
:1022800015E0114338D15346002B01D12643F4D039
:10229000019B634507D1019B5800013807E02643A5
:1022A0002AD1504521D00120019B5F42384303B021
:1022B000F0BCBB46B246A946A046F0BD002CDCD01F
:1022C000E6E70028EFD0019B6345ECD18245EADCCC
:1022D000E1DB8E42E7D8DED1C845E4D80020C8450E
:1022E000E5D2D8E7002CE2D0DDE7114304D1019B11
:1022F0006345D8D10020DAE702204042D7E7019BAE
:102300006345E6D0CFE7C046FF070000F0B557466B
:102310004E464546DE46E0B50D000E034900490D28
:102320008A46DF0FE90FBC4683B02E4F040080467B
:102330000191580019039146360B090B400DBA451F
:102340001ED0B8420DD05746002F27D13443002865
:1023500033D10A4334D0002C40D1634658000138B1
:1023600015E0114312D15346002B01D12643F4D07E
:10237000019B63451DD00120019B5F42384306E06D
:10238000264303D15045F6D111431CD0022003B09F
:10239000F0BCBB46B246A946A046F0BD0028EAD034
:1023A000019B6345E7D18245E5DC02DB8E42E2D842
:1023B0000ED0019B58000138E9E7002CCDD0D7E7BB
:1023C000002CE4D0D7E7019B00206345DFD0D2E7A3
:1023D000C845D0D80020C845D9D2EAE7019B63455B
:1023E000E4D0C8E7FF070000F0B557464E46DE468A
:1023F0004546E0B51F000B031B0B16009A46CA0F9B
:102400004B000400914685B05B0D00D1CFE1CD4A71
:10241000934255D05146420FC9000A438021090416
:102420001143C2009046C84A8A4693469B44002303
:10243000002502933C037B00FA0F0196240B5B0DF1
:10244000009200D188E1BF4A934200D192E0BE4A97
:10245000944663449B440A2D42DCE400730F2343FB
:102460008024494624041C43F3000193009B002070
:102470005940CBB20393022D00DC94E00123AB4022
:102480001D00A6232A00DB001A401D4200D029E2CD
:1024900090239B001D4200D14DE2002380249946E9
:1024A0002403A84B10004A461B052343D2071343BD
:1024B000190005B0F0BCBB46B246A946A046F0BD27
:1024C00052460243904600D0ACE19B46022392461E
:1024D00008250293AEE7009BA2469946019B9846C9
:1024E000029B022B00D1CAE1032B00D192E1012B08
:1024F00010D1002300240022D4E701227B083A40B7
:1025000013435246D2071343984653465B089A46F4
:10251000039B99465B46581C8023DB005B44002BE1
:1025200000DCB1E1424652070BD00F2241460A407F
:10253000042A06D04246111D414592418846524226
:1025400092445246D20106D55246804B1A4080230F
:102550009246DB00C3187E4A934200DD8FE142467B
:10256000D108524652070A4351465B054C02240BE0
:102570005B0D97E7734B26439C46E344002E00D146
:102580006FE1032349461D43009B5940CBB203939F
:102590000A2D00DD33E10123AB401D00032302932C
:1025A00088222A4297D1424643461204120C160052
:1025B00001981D0C030C0004000C4643B4461E0099
:1025C0006E430096160007005E436146B0466F43B7
:1025D0000E0CB8444644B74205D9802149028846CA
:1025E000009F4744009761460904090C370C3604E4
:1025F0008C463100614401911100260C2404240C06
:1026000061438C462100694389466146090C88462E
:1026100072434A4442447543914503D9802149029B
:1026200088464544110C884661460904090C8C46CD
:1026300012046244B91802915146090C8C46514665
:102640000F043F0C390041434544884661464143ED
:102650008A4641466046090C894658437B435344A9
:102660004B449A4503D98021490289464844190CB4
:10267000894641460904090C8846390061431B0418
:102680004344884661464C4371438C4641467743F8
:102690000E0C3F19F6194844B44203D9802149026F
:1026A0008946CC440299009F894631044F448946AB
:1026B0004146974292410C04240C4C44FF1852426C
:1026C0006419A1189F429B41884682465B42994605
:1026D00090459241AC42A441C244D144524264422A
:1026E000144399459B41824592415B4252421343B8
:1026F0004A46360CA419E31863445B02D20D1A4310
:10270000019992467A020A43501E8241FF0D1743F7
:102710004A4652021743B846DB0100D5EDE60D4BA1
:10272000039A5B449146002B00DCACE03A00520770
:1027300000D110E70F2258463A40042A00D0F9E6AB
:1027400009E7C046FF07000001FCFFFFFFFFFFFE97
:10275000FE070000FF030000220032436FD0002C70
:1027600000D1C2E0200000F01DFE020003000B3A81
:102770001D20821A30001900D04008398C40020018
:10278000224334008C405946CB1A86498B469B44E1
:102790000A2D00DDA4E64946009B01945940CBB2C6
:1027A000140000200393022D00DD67E6FBE653468C
:1027B000034398463CD05346002B00D1A3E050463B
:1027C00000F0F0FD0B235B429C46020084441100A4
:1027D0005046083988401D23804660461B1A200059
:1027E000D8400300404603439A4623008B40984656
:1027F0006C4B00259B1A9B46002302931AE60F2D73
:1028000000D0C9E0802352461B031A4202D01C426A
:1028100000D192E08024534624031C432403424603
:10282000240B3EE69B46032380460C25029301E6DB
:1028300000239A469B46013304250293FAE50121C1
:102840000D430A2D00DD4BE6494600984140C9B2D0
:102850000391022D00DC96E0002300240120019367
:102860000CE649460223009A2B435140CAB2039218
:102870000A2B00DD34E6002D57D1039B9946002436
:102880000022494B0EE658460121C91A382900DDBD
:102890002FE61F2956DD1F2254465242D31ADC4030
:1028A000202907D0414B42469C4653466044834012
:1028B0001A43904642460721531E9A410B00224379
:1028C00013400024114209D00F231340042B5DD084
:1028D000111D91429B410A005B425B07D2081A43DB
:1028E0000023DFE5039B9946FAE5019800F05AFDC5
:1028F00002000300153220331C2A00DC38E7019A5D
:10290000083882403FE700F04DFD15239C46844483
:102910000200634620321C2B00DC58E70023984657
:102920002300083883409A4662E71D0000230024F4
:1029300002200193A2E5029032E61C43009B019A1B
:102940009946AEE51A4B5246C31840469A40C840D5
:102950000243404698400300581E834154461A43A0
:10296000CC40530709D00F231340042B05D0131D6F
:10297000934292415242A4181A00230208D501231F
:10298000002400228EE5894600248BE50023A5E77C
:1029900063076402240BA1E7009BA2469946019BB2
:1029A000984637E70DFCFFFFFF0700003E040000DC
:1029B0001E040000F0B557464E464546DE46E0B5DB
:1029C00083B0009001910C034D00CE0F610A009C72
:1029D0005F00640F0C43009900920193C800190333
:1029E0007B0D9946019BCC4FDB0F9C464B0A00990F
:1029F0008046490F1943009B8B46DA0092466D0DC5
:102A0000B94500D1BFE00123614659404B468C4691
:102A1000EB1A8E4275D0002B00DCA3E24946002958
:102A200000D1CEE0BD4200D100E20127382B19DCF5
:102A3000802759463F0439438B461F2B00DDFAE1BE
:102A40002027F91A8C4659466746B9400F001100F5
:102A5000D9400F4361468A40511E8A415946D940A8
:102A60001743641AC71BB84280414042241A23020C
:102A700000D440E16402640A002C00D154E120003B
:102A800000F090FC0300083B20213800CA1AD04017
:102A90009C4002009F4022439D4200DDA6E1581B5E
:102AA0000130091A3C008F40C4407B1E9F41130037
:102AB0008B4027431F43C2403B00140000251343B3
:102AC00000D1F7E17B0700D177E30F2338003B40CB
:102AD000042B04D0381DB842BF417F42E4192302C1
:102AE00000D468E38C4B01359D4200D1F4E08B4B60
:102AF0006D051C406D0D6707C00864020743240B79
:102B0000ECE0002B00DC29E34946002900D0D6E0A8
:102B10005946114300D12EE1591E012B00D1E6E1A7
:102B2000BB4200D182E101270B00382914DC1F2BA6
:102B300000DD3CE22027F91A8C4659466746B94029
:102B40000F001100D9400F4361468A40511E8A414F
:102B50005946D940174364183F1887428041404284
:102B60002418230200D4C6E06B4B01359D4200D1EE
:102B7000B2E00121694B7A081C4039400A43E7075B
:102B8000174364089EE7664B11438A46EB180029F9
:102B900028D066452CD0002B5BD0002D00D12CE135
:102BA0005B4666465F07D2081743DD083B002B43B0
:102BB00000D1E2E0802424032C432403564D240B4F
:102BC0008CE05946114300D1D5E0591E012B00D1AC
:102BD000B9E1BB4200D1B1E101270B00382900DD8A
:102BE00040E72AE76146012779408C466645D2D105
:102BF000002B00D1C5E0002D00D055E14B4625004B
:102C0000054300D112E2591E8C46012B00D149E246
:102C1000414DAB4200D18FE20127382911DC6346D8
:102C20001F2B00DD5BE26146202327005B1A0500B5
:102C300098409F40CD40431E9841CC402F430743CE
:102C4000A344BF189742924152425A4414004D4641
:102C500087E7344F6B1C3B4200D0B6E05946230057
:102C600011430F000343002D00D026E1002B00D1BB
:102C7000C0E1002900D1A1E0831A98465B46404597
:102C8000AD41E31A6D425B1B80252D042B4200D120
:102C90004BE15B46101A824292411C1B0700012641
:102CA00063465242A41A27431E40002F00D142E13E
:102CB0002C4200D16DE2194B01251C401BE7BD429F
:102CC00000D13BE10127382B00DD45E7802759463D
:102CD0003F0439438B462AE7002400272D0525436E
:102CE000F60735433800290003B0F0BCBB46B246B6
:102CF000A946A046F0BD7B0704D00F233B40042B20
:102D000000D0E7E62B00F808034A67070743E50809
:102D1000934200D14AE7A5E0FF070000FFFF7FFFD5
:102D200001F8FFFFFE070000380000F03BFB030046
:102D300018331F2B00DCA7E63A00083882409D427A
:102D400000DD8AE05B1B581C1F2800DCD8E117005F
:102D50001F3BDF40202805D040231B1A9A40531EFA
:102D60009A4117430025002F00D1E5E07B0700D0F2
:102D7000ABE62C00C6E7C008C6E700270024D14D0B
:102D8000ACE7D14F6B1C3B4271D123000343002DB4
:102D900000D04EE15746002B00D1B5E1002F0DD0F9
:102DA0008318834280415C4440422418220200D5AB
:102DB000C8E11F009846274300D1BCE0434667079F
:102DC000DB081F43E50800234CE0831A98465B4666
:102DD0004045BF41E31A7F42DB1B1F027CD44746BC
:102DE0001F4300D1A6E01C00474645E6B74CED1A4C
:102DF00014407B0700D080E784E74B46250005435D
:102E000066D05F1E012B00D1FCE0AE4DAB4200D17D
:102E10005EE16646382F00DCB4E00120171ABA42A2
:102E200092415B4652424D469C1A20E66707C00815
:102E30000743E508BAE61F005946203FF9400F0056
:102E4000202B05D04021CB1A594699400A4392467F
:102E500053465A1E93411F4304E6EB1A9B4D1540FF
:102E60006F07ED082C035D05240B6D0D36E7954DBE
:102E7000AB4200D1D6E08218210082428041594401
:102E800040420818C707520817434408520700D4A5
:102E900085E10F221D003A40042A00D01AE6FF08FF
:102EA000640727430509DDE75B46D2085F07174340
:102EB000DD087BE60027002410E7002B00D0D6E0D9
:102EC000002900D02FE1802400267E4D240305E751
:102ED00066465C46D00817E75B46171ABA4292412D
:102EE0001C1B012663465242A41A1E40C4E58318E7
:102EF000834280415C44404225182A0200D4DAE033
:102F0000724A5B081540EA071A4369085B0700D458
:102F10004AE10F231340042B00D1FCE0171D974218
:102F2000A441644202256418ECE647461C001F4396
:102F300000D043E7002600250024CFE6C00867073D
:102F40000743E50832E6871A5B46B8428041E41A37
:102F50004042241A230228D46307FF081F43E508D0
:102F600001237FE7002B00D173E64B465F1B3B003C
:102F7000002D00D142E7382F00DDECE080230E0069
:102F80001B041C431F2F25DC20252300ED1B010003
:102F9000A840AB40F940451EA8410B43FC401843F4
:102FA0005B461B1B9B4639E76646012562E51F0011
:102FB0005946203FF9408C46202B05D040275946E2
:102FC000FB1A99400A43924657467B1E9F4163462F
:102FD0001F43C1E53B002500203BDD40202F04D0EE
:102FE0004023DB1B9C40204380464046431E9841C3
:102FF000284313E700299DD0012663465C4690468E
:103000001E40DBE6171A5B46BA4292411C1B524235
:10301000A41A2302C8D46307FF081F43664601238E
:10302000E5081FE71D000024002757E65C46D0088E
:103030006AE6002B00D137E75346C008670707430D
:10304000E508002B00D1B1E580231B031D4208D009
:103050005946C808184204D1D20849070A43170044
:1030600005007B0FFF00FF085B071F439EE5C008BC
:1030700063071843E508002953D080231B031D4232
:103080000AD05946CC081C4206D1012663462500C9
:10309000D008490708431E40470FC000C0087F07FB
:1030A000074383E58318934292415C445242A5183A
:1030B0002A0200D524E76F07DB081F43ED08012330
:1030C000D0E6C046FF070000FE070000FFFF7FFFBD
:1030D0005B46D2085F0766461743DD0866E52500B4
:1030E000203BDD406346202B05D0402361465B1A20
:1030F0009C402043804647467B1E9F412F43A0E5CE
:1031000020210027091AD2E4002F00D113E75C46E2
:1031100017000025F6E5D708490702230F432D09BC
:10312000A0E6070042E55B4601265F07DD0863462F
:10313000D20817431E4039E55B46D2085F071743A4
:10314000DD0833E51E4ADB082240570752020125FD
:103150001F43140BC2E50E0001205FE6002B0DD0CB
:103160004B465B1B9C46002D00D148E50127382BC0
:1031700000DD66E580231B041C4350E56B1C114DEC
:103180002B4200D073E65946230011438A4603437D
:1031900000E66707C00800230743E50862E6640706
:1031A000FF08274305095DE6D208490711430F00D0
:1031B00002232D0956E60700A4E538008FE4C04637
:1031C000FFFF7FFFFE07000010B5041E10D000F0C7
:1031D000E9F80E4B1B1A5B055B0D0A280FDC0B226E
:1031E0002100121AD14015300A038440120B01E06D
:1031F000002300221B0513432000190010BD2200EC
:103200000B38824012030024120BF3E71E04000067
:1032100070B542024300C40FFE201B0E591C550A14
:1032200008420CD0E02189008C466D07120B6344E4
:103230001B051343E40723432800190070BD002B2E
:1032400014D1002D1BD0280000F0ACF80A281CDC9B
:103250000B232A001B1ADA40030015339D400E4B46
:1032600012031B1A5B05120B5B0DE1E7002D09D061
:10327000130B802212031A436D07084BD8E7002373
:103280000022D5E70022054BD2E703002A000B3BC2
:103290009A400025E3E7C04689030000FF070000CD
:1032A000F0B54B000F035B0D3A4C450F83B07F0A1E
:1032B0005E1C2F4300900191CA0FC50026420BD01F
:1032C00035495C18FE2C13DDFF200023C005184390
:1032D000D207104303B0F0BD3D43002B01D10020C5
:1032E000F4E7002DF0D08023DB03FF203B43EDE724
:1032F000002C0CDD009BFF009B01581E8341690FD1
:103300003B430B43590727D1DB08E0B2DEE721003E
:10331000173131DB80211E2009043943001B1F288F
:103320002DDD02267642341B0E00E64034002028B4
:1033300004D01A488446634499400D432B00591E1B
:103340008B412343590703D00F21194004290BD186
:103350009B0100205B0AB9E70F211940042904D121
:103360009B015B0AE0B2B1E7002404335901F7D5B1
:1033700001340023E0B2A9E700200023A6E7084CAF
:103380001C192B00A540C340A140681E854129435C
:103390000B43D7E7FE07000080FCFFFFA2FCFFFF06
:1033A00082FCFFFF1C2101231B04984201D3000C67
:1033B00010391B0A984201D3000A08391B099842A8
:1033C00001D30009043902A2105C40187047C046BE
:1033D00004030202010101010000000000000000DE
:1033E00080B500AF254B1B78012B44D1244B012223
:1033F0001021180004F039FD502003F047FC204B49
:1034000000221021180004F030FD282003F03EFCBB
:103410001B4B01221021180004F027FD502003F05F
:1034200035FC174B00221021180004F01EFD282047
:1034300003F02CFC124B01221021180004F015FDA2
:10344000642003F023FC0E4B00221021180004F02E
:103450000CFD322003F01AFC094B01221021180048
:1034600004F003FD962003F011FC054B002210210F
:10347000180004F0FAFCC046BD4680BD13000020D1
:103480000004004880B500AF184B1B78012B29D1F0
:10349000174B01221021180004F0E7FC322003F042
:1034A000F5FB134B00221021180004F0DEFC322043
:1034B00003F0ECFB0E4B01221021180004F0D5FCA8
:1034C000322003F0E3FB0A4B01221021180004F024
:1034D000CCFC322003F0DAFB054B0022102118004F
:1034E00004F0C3FCC046BD4680BDC04613000020AA
:1034F0000004004880B500AF0A4B012210211800DB
:1035000004F0B3FC322003F0C1FB064B0022102173
:10351000180004F0AAFC322003F0B8FBC046BD46F8
:1035200080BDC0460004004880B500AF244B1B7826
:10353000012B41D1234B01221021180004F095FCEE
:10354000FA235B00180003F0A1FB1E4B00221021A0
:10355000180004F08AFCFA239B00180003F096FB85
:10356000184B01221021180004F07FFCFA235B00A5
:10357000180003F08BFB134B00221021180004F0FD
:1035800074FCFA239B00180003F080FB0D4B012212
:103590001021180004F069FCFA235B00180003F006
:1035A00075FB084B00221021180004F05EFCFA2382
:1035B0009B00180003F06AFBC046BD4680BDC046B4
:1035C000130000200004004880B500AF1E4B1B789C
:1035D000012B35D11D4B01221021180004F045FCB0
:1035E000322003F053FB194B00221021180004F085
:1035F0003CFC642003F04AFB144B0122102118000C
:1036000004F033FC322003F041FB104B0022102168
:10361000180004F02AFC642003F038FB0B4B012255
:103620001021180004F021FC322003F02FFB074B7F
:1036300000221021180004F018FC642003F026FB7F
:10364000C046BD4680BDC0461300002000040048AF
:1036500080B584B004AF514B01221A70002002F0F3
:1036600063FB4F4B009373236E220521052002F06C
:10367000C5FC4B4B00937323EB220521782002F00D
:10368000BDFC474B0093EB23EB227D21052002F08C
:10369000B5FC444B444800220292414A01926A46DA
:1036A000596811601B6802003C21112002F010FED5
:1036B0003C4B3E4800220292394A01926A465968C0
:1036C00011601B6802005621112002F001FE354BEB
:1036D000374800220292324A01926A4659681160C4
:1036E0001B6802003A21892002F0F2FD2D4B31487F
:1036F000002202922A4A01926A46596811601B68A8
:1037000002008721502002F0E3FD264B2A480022C8
:103710000292234A01926A46596811601B680200AE
:10372000AA21382002F0D4FD1E4B24480022029228
:103730001B4A01926A46596811601B680200CD213C
:10374000382002F0C5FD1E4B00933223322208219F
:10375000242002F0B1FC1B4B00932A2338220C21B9
:10376000962002F0A9FC0E4B02939C2301930F2399
:1037700000938C230F229421192002F039FE084B6C
:1037800002939C230193E12300938C23E122942153
:10379000D72002F02DFEC046BD4680BDA800002007
:1037A000FFFF000008000020C4B10008C8B10008F5
:1037B000CCB10008D4B10008DCB10008E8B10008C1
:1037C000D4B300085CC70008F0B597B004AF04009C
:1037D00008001100BB1D221C1A803B1D021C1A8010
:1037E000BB1C0A1C1A80BB1D1B88632B0ED8354BD3
:1037F000354800220292354A01926A4659681160A2
:103800001B6802003C21522002F062FDBB1C1B8899
:10381000632B0ED82B4B2C48002202922B4A01928C
:103820006A46596811601B6802005621B92002F0EF
:103830004FFDBB1D1A88264934243B19180006F099
:10384000B7FE3B1D1A88224920257B19180006F077
:10385000AFFEBB1C1A881E490C26BB19180006F0C7
:10386000A7FE184B381900220292184A01926A46A4
:10387000596811601B6802003C21322002F028FDCB
:10388000104B781900220292104A01926A46596838
:1038900011601B6802005621322002F019FD094B0D
:1038A000B81900220292094A01926A4659681160C9
:1038B0001B6802005621992002F00AFDC046BD4651
:1038C00013B0F0BD08000020F4B10008FFFF0000B5
:1038D000F8B1000880B586B004AF0200FB1D1A7075
:1038E000002302939C2301930F2300938C230F2228
:1038F0009421192002F07CFD002302939C23019364
:10390000E12300938C23E1229421D72002F070FD63
:1039100000230293BF2301930F230093AF230F22B1
:10392000B721192002F064FD00230293BF23019305
:10393000E1230093AF23E122B721D72002F058FD05
:1039400000230293E22301930F230093D2230F223B
:10395000DA21192002F04CFD00230293E2230193A7
:10396000E1230093D223E122DA21D72002F040FDA7
:10397000FB1D1B78022B37D04FDC002B02D0012B14
:1039800019D04AE0274B02939C2301930F23009305
:103990008C230F229421192002F02AFD214B02933F
:1039A0009C230193E12300938C23E1229421D720CF
:1039B00002F01EFD31E01B4B0293BF2301930F2346
:1039C0000093AF230F22B721192002F011FD154BF0
:1039D0000293BF230193E1230093AF23E122B72198
:1039E000D72002F005FD18E00E4B0293E22301936D
:1039F0000F230093D2230F22DA21192002F0F8FCC2
:103A0000084B0293E2230193E1230093D223E122A6
:103A1000DA21D72002F0ECFCC046C046BD4602B019
:103A200080BDC046FFFF000080B584B004AF4F4B9F
:103A300002221A70002002F077F94D4B00932D23DB
:103A4000EB220521052002F0D9FA4A4B4A48002210
:103A50000292474A01926A46596811601B68020047
:103A60000D213C2002F034FC414B0093EB23EB2270
:103A70003221052002F0C2FA404B41480022029256
:103A80003B4A01926A46596811601B6802003E2158
:103A9000412002F01DFC394B3A4800220292344A80
:103AA00001926A46596811601B6802006121412039
:103AB00002F00EFC314B3448002202922C4A019253
:103AC0006A46596811601B6802008421412002F097
:103AD000FFFB2A4B2D4800220292254A01926A469A
:103AE000596811601B680200A721412002F0F0FB19
:103AF000224B2748002202921D4A01926A465968C9
:103B000011601B680200C821412002F0E1FB184B44
:103B100000935023DC223721962002F06FFA144BD9
:103B200000937323DC225A21962002F067FA104B8F
:103B300000939623DC227D21962002F05FFA0C4B45
:103B40000093B923DC22A021962002F057FA084BFB
:103B500002934E2301931E2300933E231E224621EF
:103B6000282002F045FCC046BD4680BDA8000020CC
:103B7000FFFF000008000020E8B10008000000205E
:103B8000FCB10008CCB1000804B200080CB2000877
:103B900014B20008B0B590B004AF05000C001000DE
:103BA0001900BB1D2A1C1A803B1D221C1A80FB1CFD
:103BB000021C1A70BB1C0A1C1A70BB1D1A883D49D6
:103BC0001C243B19180006F0F3FC3B1D1A883949E8
:103BD00008257B19180006F0EBFC374B381900223A
:103BE0000292364A01926A46596811601B680200C7
:103BF0003C21AA2002F06CFB2F4B78190022029284
:103C00002E4A01926A46596811601B6802005F21C2
:103C1000AA2002F05DFBFB1C1B78002B10D0264B6A
:103C2000274800220292FC22D20001926A4659687B
:103C300011601B6802008021AA2002F049FB0FE0FE
:103C40001D4B204800220292F822120201926A467D
:103C5000596811601B6802008021AA2002F038FB1D
:103C6000BB1C1B78002B10D0134B1548002202926E
:103C7000FC22D20001926A46596811601B6802005A
:103C8000A321AA2002F024FB0FE00B4B0D480022D9
:103C90000292F822120201926A46596811601B686A
:103CA0000200A321AA2002F013FBC046BD460CB0BF
:103CB000B0BDC04620B2000800000020FFFF000099
:103CC00024B2000828B2000880B586B004AF020014
:103CD000FB1D1A70002302934E2301931E230093B1
:103CE0003E231E224621282002F082FB002302935D
:103CF000712301931E23009361231E226921282032
:103D000002F076FB00230293942301931E23009379
:103D100084231E228C21282002F06AFB00230293B8
:103D2000B72301931E230093A7231E22AF2128202F
:103D300002F05EFB00230293DA2301931E2300931B
:103D4000CA231E22D221282002F052FBFB1D1B7821
:103D5000042B45D89A00244BD3181B689F46234B4D
:103D600002934E2301931E2300933E231E224621DD
:103D7000282002F03DFB33E01C4B0293712301939A
:103D80001E23009361231E226921282002F030FBAC
:103D900026E0164B0293942301931E230093842361
:103DA0001E228C21282002F023FB19E00F4B0293E6
:103DB000B72301931E230093A7231E22AF2128209F
:103DC00002F016FB0CE0094B0293DA2301931E2349
:103DD0000093CA231E22D221282002F009FBC046EC
:103DE000C046BD4602B080BDC0B30008FFFF000062
:103DF00090B58DB000AF0200BB1D1A802F4BFB6247
:103E00002F4BBB622F4B7B622F4B3B622F4BFB61D7
:103E1000BB1D1B881800FDF7A1FA031C2C49181CB8
:103E2000FCF78AFC031C191CF86AFCF753FE031C00
:103E3000BB61B969B86AFCF74DFE031C1C1CB9696B
:103E4000F86AFCF7A1FF031C191C201CFCF774FC8A
:103E5000031C7B61796AFE208005FCF76DFC031C66
:103E60001C1C396A7869FCF767FC031C181C07F0F6
:103E70003BF8031C191C201CFCF72CFE031C1C1C0B
:103E8000F969FE208005FCF757FC031C191C201C57
:103E9000FCF760FA031C191CFE208005FCF74CFCA3
:103EA000031C3B610B493869FCF76EFF031CFB6088
:103EB000FB68181CBD460DB090BDC046333353405F
:103EC00000401C4600E076450050C347331395433D
:103ED00000F07F453393884390B585B000AF78609C
:103EE0007B68180003F036F801235A427B68110002
:103EF000180003F0C3F87B68180003F057F90200BC
:103F00000E243B191A807B68180003F077F83B19E0
:103F10001B881800BD4605B090BD000080B584B078
:103F200000AF78607B681A688023DB059A4200D076
:103F3000A4E07B681B685B6ABB60524B1B68BA6875
:103F4000D31AFB60FA6880231B029A4205DBFB68E8
:103F50004D4A94466344FB6009E0FB684B4A934238
:103F600005DAFB688022520294466344FB60484BAA
:103F70001A68FB68D218464B1A60454B1B68002B29
:103F800000DA01335B101A00424B1A603D4BBA68ED
:103F90001A60414B1B78DBB2012B23D13F4B1B78BE
:103FA000DBB2002B1ED13E4B1B78DBB2002B19D1AC
:103FB000384B1B68022B05DD364B00221A60344B50
:103FC00000221A60334B1B68002B05DA314B0222AA
:103FD0001A602F4B04221A602E4B1B68DBB21800AC
:103FE000FFF778FC2C4B1B78DBB2012B23D12B4B3A
:103FF0001B78DBB2002B1ED1294B1B78DBB2012BC7
:1040000019D1244B1B68012B05DD224B00221A60BD
:104010001F4B00221A601F4B1B68002B05DA1D4B3B
:1040200001221A601A4B02221A601A4B1B68DBB27B
:104030001800FFF74FFC184B1B78DBB2022B1DD189
:10404000184B1B78DBB2002B18D1124B1B68042BCA
:1040500005DD104B00221A600D4B00221A600D4B3B
:104060001B68002B05DA0B4B04221A60084B082250
:104070001A60084B1B681800FFF726FEC046BD46B5
:1040800004B080BD940000200000FFFF0080FFFF0F
:10409000980000209C000020A8000020AA0000201A
:1040A000AB000020A900002080B584B000AF020062
:1040B000BB1D1A80BB1D1B88042B0FD102F0DCFD39
:1040C0000300FB60074B1B68FA68D31AC82B05D99D
:1040D000054B01221A70034BFA681A60C046BD46B0
:1040E00004B080BDF8020020A000002080B586B09A
:1040F00000AF0200FB1D1A70FB1D1A7813009B0015
:104100009B185B007B610F4B3B612F23FB60796940
:104110000D48FCF703F80300013BBB600B4B1B6829
:10412000FA689A62094B1B68BA68DA62074BBA6888
:10413000DA60064B1B68BA6852089A63C046BD46EF
:1041400006B080BD006CDC0240420F00200200205F
:1041500090B585B000AF0200FB1D1A700F23FB184D
:1041600002221A700E23FB1802221A700D23FB186C
:1041700032221A7018E00F243B191B781800FFF741
:10418000B5FF114B0421180005F0B6F80D23FB18FC
:104190001B78180002F07AFD3B1939190E22BA1863
:1041A000097812788A181A700F23FA18FB1D1278F2
:1041B0001B789A42DFD3FB1D1B781800FFF796FF90
:1041C000C046BD4605B090BD2002002090B585B028
:1041D00000AF786000217868FCF77CF8031E01D0FE
:1041E00000237B6013497868FCF788F8031E01D030
:1041F000104B7B60104B1B68DB6AFB600D497868D5
:10420000FCF79AFA031C1C1CF868FDF7A7F8031CBE
:10421000191C201CFCF75EFC031C181CFCF782F820
:104220000300BB60044B1B68BA685A63C046BD46B6
:1042300005B090BD0000C842B0020020B0B58CB0FF
:1042400008AF02F0BFFC00F083FD01F003F800F0BE
:10425000E3FF00F027FE00F065FE00F0C7FD00F070
:1042600017FF00F077FFE64B3C21180005F020FA1D
:10427000E44B0021180005F03FF801F0ADFCFFF71A
:10428000AFF8FFF7E5F98023D9009023DB05012281
:10429000180003F0EAFD802359009023DB0501227A
:1042A000180003F0E2FDD84B1B881800FEF78CFFC6
:1042B00002000B00D5490A604B60D54B1B68181CE7
:1042C000FEF7A6FF02000B00D2490A604B60D249FC
:1042D000002200230A604B60CC4DCF4CCD49CF4823
:1042E0000023079301230693CD4ACE4B04920593F6
:1042F000CD4ACE4B02920393CD4ACE4B009201930E
:104300002B00220001F080F800200021C34C002285
:10431000C94B0092019302000B00200001F0CAF982
:10432000BE4B0121180001F0A0F9FA2002F0AEFC0A
:104330009023DB050821180003F07AFD03001A0022
:10434000BE4B1A70BE4B1800FFF7C6FD03001A00E3
:10435000BC4B1A80BB4B1B881800FFF749FD021CA1
:10436000AB4B1A60B84B1B78DBB2012B0DD1A84BBD
:104370001B68181CFBF7D6FF030098B2A24B1988E4
:10438000B24B1B781A00FFF71FFAAF4B1B78DBB25A
:10439000022B0CD19C4B1B881800AC4B1B781900CE
:1043A000AB4B1B781A00AB4B1B78FFF7F3FBAA4B08
:1043B0001B785BB2012B12D1A84B1B68002B0ED1CE
:1043C000A14B1B78DBB2012B09D1A54B1B78DBB2CB
:1043D000002B04D1A34B1B78DBB2002B04D0A24BE3
:1043E0001B78DBB2012B44D19B4B00221A709E4BF1
:1043F00000221A709B4B01221A70802359009023CF
:10440000DB050022180003F030FD984B984800228D
:104410000292984A01926A46596811601B6802002C
:1044200087213C2001F054FFFFF72CF88F4B924876
:10443000002202928F4A01926A46596811601B68F5
:10444000020087213C2001F043FF6F4B1B880A3B91
:104450001800FCF733FF021C6D4B1B68191C101C65
:10446000FBF742FF031E04D0784B1B781800FFF7C0
:104470006FFE7C4B1B78DBB2012B00D05EE17B4BE7
:104480007E48002202927B4A01926A465968116076
:104490001B6802008721582001F01AFF684B1800A2
:1044A000FFF71AFD03001A00664B1A80654B1B8844
:1044B0001800FFF79DFC021C554B1A60544B1B68FB
:1044C000181CFBF72FFF030098B24F4B19885F4B66
:1044D0001B781A00FFF778F94D4B1B68181CFEF784
:1044E00097FE02000B004B490A604B60464B1B884D
:1044F0001800FEF769FE02000B0044490A604B6099
:10450000464B180000F0CCFF031E0AD0424B1A683D
:104510005B6810001900FEF7C3FE031C181CFFF7B0
:1045200055FE394B1B88043B1800FCF7C7FE021CE4
:10453000374B1B68191C101CFBF7D6FE031E0CD052
:10454000424B1B781800FFF7D1FD4D4B042118009A
:1045500004F0D2FE4B4B01221A702B4B1B880F3BF1
:104560001800FCF7ABFE021C294B1B68191C101C21
:10457000FBF7CEFE031E07D0424B1B78DBB2012BAC
:1045800002D1404B00221A702C4B1B78002B03D118
:10459000304B1B78012B05D03A4B1B78DBB2002B3C
:1045A00000D086E02F4B00221A70154B1B680022AA
:1045B0005A62354B00221A60284B00221A60334B96
:1045C00000221A60254B1B68DBB21800FFF782F946
:1045D0002B4B0421180004F047FF8023590090233F
:1045E000DB050122180003F040FC0023181CFFF734
:1045F000EDFD0949002200230A604B6048E0C046F7
:1046000068020020B00200201000002030010020CD
:10461000A40000202001002028010020B00000207C
:10462000666666666666E63FFA7E6ABC7493783FA5
:104630009A9999999999E93F00005940AF00002053
:1046400038010020A2000020A80000201200002055
:1046500013000020AE000020A00000209C000020DD
:10466000AB000020AA000020AC00002008000020C1
:104670002CB20008FFFF000038B2000844B2000866
:1046800020020020AD0000209800002094000020AF
:10469000C64BC74800220292C64A01926A46596830
:1046A00011601B6802008721502001F011FEFEF707
:1046B0003BFFC14B1B785BB2012B3FD1BE4B0022AD
:1046C0001A70BE4B00221A70BD4B1B6800225A6242
:1046D000BC4B00221A60BC4B00221A60BB4B00226C
:1046E0001A60B94B1B68DBB21800FFF7F3F8B84B40
:1046F0000421180004F0B8FE802359009023DB0544
:104700000122180003F0B1FB0023181CFFF75EFD27
:10471000B049002200230A604B60A44BA448002249
:104720000292A44A01926A46596811601B6802000D
:104730008721502001F0CCFDFEF746FF9E4B1B78F1
:104740005BB2012B38D1A04B1B68012B34D1A24B9B
:104750001B78DBB2012B2FD1984B1B78DBB2002BDF
:104760002AD19E4B1B78DBB2002B25D1924B002225
:104770001A709A4B01221A708C4B994800220292AF
:104780008C4A01926A46596811601B680200AA218E
:10479000382001F09DFD854B924800220292854A07
:1047A00001926A46596811601B680200AA214C20D8
:1047B00001F08EFDFEF766FE884B1B78DBB2012B05
:1047C00000D0A9E0884B1B68181CFEF721FD0200F1
:1047D0000B0086490A604B60854B1B881800FEF76A
:1047E000F3FC02000B0083490A604B60824B180007
:1047F00000F056FE031E0AD0764B1A685B68100064
:104800001900FEF74DFD031C181CFFF7DFFC784B69
:104810001B88043B1800FCF751FD021C724B1B68FF
:10482000191C101CFBF760FD031E02D0734B012204
:104830001A70614B1B785BB2012B31D1624B1B6844
:10484000002B2DD1594B6E4800220292594A0192F9
:104850006A46596811601B680200AA21382001F0DD
:1048600037FD684B01221A70534B00221A705B4BC4
:1048700000221A70514B01221A70514B1B68002202
:104880005A62504B00221A604F4B00221A604F4B65
:1048900000221A604C4B1B68DBB21800FFF71AF8B5
:1048A000454B1B785BB2012B36D1474B1B68012B64
:1048B00032D1414B00221A70484B00221A7000235B
:1048C000181CFFF783FC4349002200230A604B6059
:1048D0003B4B1B6800225A623A4B00221A603A4B4B
:1048E00000221A60394B00221A60374B1B68DBB27A
:1048F0001800FEF7EFFF2D4B4148002202922D4A8F
:1049000001926A46596811601B680200AA2138208A
:1049100001F0DEFCFEF758FE274B1B785BB2012B43
:1049200022D1294B1B68022B1ED12B4B1B78DBB2EB
:10493000012B19D1204B00221A70204B00221A7033
:10494000264B00221A70FEF7D5FDFFF76DF81C4BC1
:104950001B6800225A621D4B00221A60194B00226C
:104960001A60194B00221A60134B1B785BB2012BA3
:1049700000D0A3E0144B1B68002B00D09EE0164B28
:104980001B78DBB2022B00D098E00B4B00221A7090
:104990001D4B01221A700E23FB18154A12881A802B
:1049A000094B1A680C23FB181A8082E008000020CB
:1049B0004CB20008FFFF0000A0000020AA00002069
:1049C00068020020980000209C0000209400002035
:1049D0002002002028010020A8000020AB000020B9
:1049E00054B2000858B20008A400002020010020A2
:1049F0001000002030010020B0000020AD00002099
:104A000060B20008AC000020A9000020642002F081
:104A10003DF9C44B1B689AB20C203B181B88D31A73
:104A20009AB2BB1D1A80BB1D00229B5E002B0BD0CF
:104A3000BB1D19880E22BB18BA1812888A181A8052
:104A4000B84B1A683B181A800E217B181A888223EB
:104A50005B009A4203D97B18822252001A800E22F0
:104A6000BB181B88B32B02D8BB18B4221A800E24A3
:104A70003B191888AC4B1B781900AC4B1B781A00FB
:104A8000AB4B1B78FFF786F8AA4B1B785BB2012B68
:104A90000FD1A84B00221A70A74B3A1912881A801E
:104AA000A64B00221A70A64B00221A609D4B0022D2
:104AB0001A60A24B1B78DBB2012BA7D09D4B1B7851
:104AC0005BB2012B00D06FE0964B1B68012B6BD1C2
:104AD0009C4B1B78DBB2022B66D1964B00221A70DE
:104AE000964B01221A700B23FB188F4A12781A700A
:104AF0008C4B1A680823FB181A8050E0642002F0DF
:104B0000C5F8884B1B689AB208203B181B88D31A3B
:104B10009AB23B1D1A803B1D00229B5E002B0CD0DD
:104B20003B1D1B88D9B20B22BB18BA1812788A1801
:104B30001A707C4B1A683B181A800B22BB181B7822
:104B4000642B02D9BB1864221A700B22BB181B7885
:104B5000032B02D8BB1804221A70774B1B8818004D
:104B60000B243B191978714B1B781A00704B1B787A
:104B7000FFF710F86F4B1B785BB2012B0FD16D4B19
:104B800000221A70684B3A1912781A706B4B002287
:104B90001A706B4B02221A60624B01221A60674B3B
:104BA0001B78DBB2012BA9D0624B1B785BB2012BC7
:104BB00044D15C4B1B68022B40D1624B1B78DBB2AB
:104BC000022B3BD15B4B00221A705C4B01221A7006
:104BD0002FE0642002F05AF8524B1B68022B17D0CA
:104BE000524B1B785A425341DBB21A004F4B1A709A
:104BF0004C4B02221A60504B1B8818004A4B1B7802
:104C000019004A4B1B781A00494B1B78FEF7C2FF6C
:104C1000484B1B785BB2012B0BD1464B00221A701C
:104C2000464B00221A70464B04221A603D4B02226A
:104C30001A60424B1B78DBB2012BCAD03D4B1B786C
:104C40005BB2012B44D1374B1B68032B40D13D4B4A
:104C50001B78DBB2022B3BD1364B00221A70374B4C
:104C600001221A702FE0642002F010F82D4B1B680F
:104C7000032B17D02E4B1B785A425341DBB21A003C
:104C80002B4B1A70274B03221A602B4B1B881800E2
:104C9000254B1B781900254B1B781A00244B1B78D9
:104CA000FEF778FF234B1B785BB2012B0BD1214B16
:104CB00000221A70214B00221A70214B08221A6020
:104CC000184B04221A601D4B1B78DBB2012BCAD093
:104CD000184B1B785BB2012B01D0FFF726FB114B61
:104CE0001B68042B01D0FFF720FB164B1B78DBB2AF
:104CF000022B01D0FFF719FB0E4B00221A70FEF7B2
:104D0000F9FBFEF7A5FC104B1B6800225A620F4B03
:104D100000221A600A4B00221A60024B00221A601D
:104D2000FFF703FB9C00002012000020130000206E
:104D3000AE000020A000002010000020A9000020EC
:104D400098000020A80000206802002094000020A5
:104D500090B591B000AF10243B19180030231A0011
:104D6000002105F047FC3B00180010231A00002129
:104D700005F040FC21007B1811221A607B180122EB
:104D80005A607B1801225A617B1810229A617B18A5
:104D900002221A627B18802252025A627B188022F9
:104DA000D2029A627B180022DA627B18180003F0A4
:104DB00095F8031E01D000F0E9FA3B0007221A60C3
:104DC0003B0002225A603B0000229A603B00002216
:104DD000DA603B000121180003F09AFB031E01D0AA
:104DE00000F0D4FAC046BD4611B090BD80B584B085
:104DF00000AF3B1D18000C231A00002105F0FAFB40
:104E0000264B274A1A60254B00225A60234B00226A
:104E10009A60224B0022DA60204B01221A611F4B5C
:104E200004225A611D4B00221A761C4B00225A762E
:104E30001A4B00229A76194B0022DA76174BC222BF
:104E4000FF32DA61154B00221A62144B2422002132
:104E50009954124B01229A62104B180001F03AFF4C
:104E6000031E01D000F092FA3B1D04221A603B1D84
:104E7000802252015A603B1D802252059A603A1DE1
:104E8000064B1100180002F09DF9031E01D000F03E
:104E90007DFAC046BD4604B080BDC0463801002042
:104EA0000024014080B500AF1C4B1D4A1A601B4B0B
:104EB000822252005A60194B802212029A60174BCC
:104EC000E022D200DA60154B02221A61134B012254
:104ED0005A61124B802292009A61104B0822DA61CB
:104EE0000E4B00221A620D4B00225A620B4B00221D
:104EF0009A620A4B0722DA62084B00221A63074BB8
:104F000000225A63054B180003F028FC031E01D051
:104F100000F03CFAC046BD4680BDC0467801002086
:104F20000030014080B596B000AF4823FB18180050
:104F300010231A00002105F05DFB4023FB18180028
:104F400008231A00002105F055FB2423FB18180044
:104F50001C231A00002105F04DFB3B1D18002023E7
:104F60001A00002105F046FB464B474A1A60454BA4
:104F700000225A60434B00229A60424B434ADA6057
:104F8000404B00221A613F4B00225A613D4B0022E8
:104F90009A613C4B180004F00FF9031E01D000F099
:104FA000F5F948217B18802252011A607A18354B96
:104FB0001100180004F0F4FD031E01D000F0E6F922
:104FC000304B180004F048F9031E01D000F0DEF960
:104FD00040217B1800221A607B1800225A607A1840
:104FE000284B1100180005F017FA031E01D000F03D
:104FF000CDF924217B1860221A607B1800225A60A8
:105000007B1800229A607B180022DA607B1800224D
:105010001A617B1800225A617B1800229A61791864
:10502000184B0422180004F0F5FC031E01D000F018
:10503000ADF93B1D00221A603B1D00225A603B1D4A
:1050400000229A603B1D0022DA603B1D00221A619B
:105050003B1D802292015A613B1D0022DA613A1DFC
:10506000084B1100180005F035FA031E01D000F0BE
:105070008DF9044B180001F099FCC046BD4616B0EE
:1050800080BDC04620020020002C0140FFFF000030
:1050900090B58DB000AF0C243B19180024231A00E2
:1050A000002105F0A7FA3B1D180008231A00002173
:1050B00005F0A0FA264B8022D2051A60244B00226C
:1050C0005A60234B00229A60214B01225242DA603F
:1050D0001F4B00221A611E4B00229A6121007B188F
:1050E00001221A607B1802225A607B1801229A6002
:1050F0007B180022DA607B1800221A617B180022DC
:105100005A617B1801229A617B180022DA617B18B0
:1051100000221A627A180E4B1100180004F020FACF
:10512000031E01D000F032F93B1D00221A603B1D26
:1051300000225A603A1D064B1100180005F06CF968
:10514000031E01D000F022F9C046BD460DB090BD4F
:105150006802002080B58AB000AF2023FB18180039
:1051600008231A00002105F045FA3B1D18001C23F6
:105170001A00002105F03EFA244B254A1A60234B01
:1051800000225A60214B00229A60204B214ADA60AB
:105190001E4B00221A611D4B00229A611B4B180006
:1051A00004F05AF8031E01D000F0F0F820217B181B
:1051B00000221A607B1800225A607A18134B1100E3
:1051C000180005F029F9031E01D000F0DFF83B1D9F
:1051D00060221A603B1D00225A603B1D00229A602B
:1051E0003B1D00221A61391D084B0022180004F0F3
:1051F00011FC031E01D000F0C9F8044B180001F0A7
:10520000D5FBC046BD460AB080BDC046B0020020F6
:1052100000040040FFFF000080B582B000AF0C4BDF
:105220005A690B4B01210A435A61094B5B69012200
:1052300013407B607B68002200210A2002F0BEFA46
:105240000A2002F0D0FAC046BD4602B080BDC0467A
:105250000010024090B589B000AF0C243B19180033
:1052600014231A00002105F0C5F9464B5A69454B35
:105270008021C9030A435A61424B5A698023DB03E8
:105280001340BB60BB683F4B5A693E4B802189028B
:105290000A435A613B4B5A6980239B0213407B604F
:1052A0007B68384B5A69374B8021C9020A435A61DF
:1052B000344B5A698023DB0213403B603B68324B1E
:1052C0000022D121180002F0D0FDA023D9009023A4
:1052D000DB050022180002F0C8FD3B1904221A6009
:1052E0003B19882252035A603B1900229A603A19EE
:1052F0009023DB051100180002F02AFC3B1908225C
:105300001A603B1900225A603B1900229A603A1930
:105310009023DB051100180002F01AFC3B19D12282
:105320001A603B1901225A603B1900229A603B190E
:105330000022DA603B19144A1900100002F008FC40
:1053400021007B18A022D2001A607B1801225A602B
:105350007B1800229A607B180022DA607A1890236A
:10536000DB051100180002F0F3FB002200210620EB
:1053700002F024FA062002F036FAC046BD4609B013
:1053800090BDC046001002400004004880B500AF48
:1053900072B6C046C046FDE780B582B000AF786007
:1053A0007B685B6C1A685B6879680A654B657B682B
:1053B0001B6C1A685B6879688A65CB657B68186DB9
:1053C000596D7B689A6EDB6EFAF75EFF031E06D09E
:1053D0007B689A6EDB6E79680A654B6510E07B68C6
:1053E000186D596D7B681A6E5B6EFAF739FF031EF4
:1053F00000D105E07B681A6E5B6E79680A654B65C3
:10540000C046BD4602B080BD90B58BB006AFF86017
:10541000B9607A603B60FB687A685A64FB68BA6876
:105420001A64FB683A689A64FB6800225A7000208C
:105430000021FC680022194B0092019302000B002E
:10544000200000F037F9FB6864229A603C23FB18C7
:105450001A78FB681100180000F028FA386A796A97
:10546000FC683823FB181B7804933A6B7B6B029221
:105470000393BA6AFB6A0092019302000B002000BA
:1054800000F080F901F0F8FB0200FB689B68D21A7B
:10549000FB685A60C046BD4605B090BD00E06F4055
:1054A000B0B58CB000AF78607B685B78002B01D121
:1054B0000023D6E001F0E0FB03007B627B685B68C1
:1054C0007A6AD31A3B627B689B683A6A9A4200D236
:1054D000C6E07B681B6C1A685B68BA61FB617B681D
:1054E0009B6C18685968BA69FB69FDF763FA02009A
:1054F0000B003A617B617B689A6DDB6DB869F96975
:10550000FDF758FA02000B00BA60FB607B681C6D67
:105510005D6D7B68186B596B3A697B69FCF764FFBA
:1055200002000B0020002900FBF75EFF02000B00C9
:1055300079680A654B657B681B78002B14D17B6802
:105540001C6D5D6D7B68986AD96ABA68FB68FCF768
:105550004BFF02000B0020002900FDF72BFA020090
:105560000B0079680A654B657B68186D596D7B681F
:105570009A6EDB6EFAF788FE031E06D07B689A6E81
:10558000DB6E79680A654B650FE07B68186D596DB5
:105590007B681A6E5B6EFAF763FE031E05D07B68AC
:1055A0001A6E5B6E79680A654B657B681B78002B09
:1055B0000BD07B689A6ADB6A38697969FCF714FF5B
:1055C00002000B00BA62FB6203E000220023BA6211
:1055D000FB627B681C6D5D6D7B68986BD96BBA68EC
:1055E000FB68FCF701FF02000B0020002900FDF71B
:1055F000E1F902000B00B86AF96AFBF7F5FE020058
:105600000B00BA62FB627B689A6EDB6EB86AF96A5D
:10561000FAF73AFE031E05D07B689A6EDB6EBA621B
:10562000FB620DE07B681A6E5B6EB86AF96AFAF786
:1056300017FE031E04D07B681A6E5B6EBA62FB62B3
:105640007B68596CBA6AFB6A0A604B607968BA6910
:10565000FB698A65CB657B687A6A5A60012300E042
:1056600000231800BD460CB0B0BD80B584B000AFBB
:1056700078600A00FB1C1A70FB1C1B78013B5A4225
:105680005341DAB20F217B181A707B181B78002B5C
:1056900007D07B685B78002B03D17B681800FFF78D
:1056A0007BFE7B680F22BA1812785A70C046BD463E
:1056B00004B080BD80B584B000AFF8603A607B6014
:1056C000BA69FB6938687968FAF7E8FD031E54D1B6
:1056D000F9683A687B680A664B66F968BA69FB69DB
:1056E0008A66CB66FB685B78002B47D0FB685B6CF7
:1056F00018685968FB689A6EDB6EFAF7C5FD031EE1
:1057000007D0FB68596CFB689A6EDB6E0A604B60D1
:1057100011E0FB685B6C18685968FB681A6E5B6E79
:10572000FAF79EFD031E06D0FB68596CFB681A6EE3
:105730005B6E0A604B60FB68186D596DFB689A6E72
:10574000DB6EFAF7A1FD031E06D0FB689A6EDB6ED6
:10575000F9680A654B6511E0FB68186D596DFB68C7
:105760001A6E5B6EFAF77CFD031E07D0FB681A6E9B
:105770005B6EF9680A654B6500E0C046BD4604B043
:1057800080BD000080B586B000AFF8603A607B60F5
:105790000022002338687968FAF762FD031E00D002
:1057A0007EE000220023386A796AFAF759FD031E69
:1057B00000D075E000220023B86AF96AFAF750FDBC
:1057C000031E6DD1FB6830217A1812789A707B180D
:1057D0001B78013B5A425341DBB21A00FB681A7036
:1057E000F9683A687B680A614B61F9683A6A7B6AD2
:1057F0008A61CB61F968BA6AFB6A0A624B62FB682C
:105800009B681800FDF7E0FC0022274BFCF7B2F97B
:1058100002000B003A617B61F9683A687B688A6232
:10582000CB623A697B69386A796AFCF7DDFD020070
:105830000B00F9680A634B633A697B69B86AF96AD5
:10584000FCF798F902000B00F9688A63CB63FB68E8
:10585000DB78012B25D1FB689A6ADB6A00200021E6
:10586000FDF7A8F802000B00F9688A62CB62FB68BA
:105870001A6B5B6B00200021FDF79CF802000B0007
:10588000F9680A634B63FB689A6BDB6B00200021AD
:10589000FDF790F802000B00F9688A63CB6300E023
:1058A000C046BD4606B080BD00408F4080B582B086
:1058B00000AF78600A00FB1C1A707B685B78002BD5
:1058C00029D07B68DB78FA1C12789A4223D07B6857
:1058D0009A6ADB6A00200021FDF76CF802000B00D9
:1058E00079688A62CB627B681A6B5B6B002000214F
:1058F000FDF760F802000B0079680A634B637B6870
:105900009A6BDB6B00200021FDF754F802000B00BE
:1059100079688A63CB637B68FA1C1278DA70C046B8
:10592000BD4602B080BD000080B582B000AF02006D
:10593000FB1D1A700E4B00220121180002F095FA8F
:105940000B4B00228021180002F08FFA01235B42EA
:10595000F91D0848012202F0B9FF054B012201217F
:10596000180002F082FAC046BD4602B080BDC046B3
:10597000000400487801002090B585B000AF786041
:105980003960274B00220121180002F06EFA244BE7
:1059900001228021180002F068FA33E03B6880227F
:1059A0005202934200D31F4B0E217A1813801E4BD4
:1059B0001B881A003B6893420FD37B181A887968BA
:1059C0001A4B180003F0E2F8C046184B5B6D212219
:1059D0009B5CDBB2012BF8D109E001235C420E2372
:1059E000FB181A8879681148230002F06FFF0E2116
:1059F0007B181B887A68D3187B607B181B883A68F1
:105A0000D31A3B603B68002BC8D1054B0122012112
:105A1000180002F02AFAC046BD4605B090BDC04647
:105A200000040048FFFF000014000020780100205F
:105A300080B582B000AF0200FB1D1A700E4B002231
:105A40000121180002F011FA0B4B012280211800ED
:105A500002F00BFA01235B42F91D0848012202F013
:105A600035FF054B01220121180002F0FEF9C04666
:105A7000BD4602B080BDC046000400487801002049
:105A800080B582B000AF0200FB1D1A703620FFF710
:105A90004BFFFB1D1B78032B14D017DC022B0DD002
:105AA00014DC002B02D0012B04D00FE0C020FFF744
:105AB000BFFF0CE0A020FFF7BBFF08E00020FFF7CE
:105AC000B7FF04E06020FFF7B3FF00E0C046C04628
:105AD000BD4602B080BD0000F0B587B000AF050044
