:020000040800F2
:1000000000500020C51F0008E11C0008E91C000882
:10001000F11C0008F91C0008011D00080000000088
:10002000000000000000000000000000091D0008A2
:10003000151D000800000000211D00082D1D0008EE
:100040000D2000080D2000080D2000080D200008DC
:100050000D2000080D2000080D2000080D200008CC
:100060000D2000080D2000080D2000080D200008BC
:100070000D2000080D2000080D2000080D200008AC
:100080000D2000080D2000080D2000080D2000089C
:100090000D2000080D2000080D2000080D2000088C
:1000A0000D2000080D2000080D2000080D2000087C
:1000B0000D200008391D00080D2000080D20000843
:1000C0000D2000080D2000080D2000080D2000085C
:1000D0000D2000080D2000080D2000080D2000084C
:1000E0000D2000080D2000080D2000080000000071
:1000F0000000000000000000000000000000000000
:0C01000000000000000000005FF808F1A3
:1001100010B5054C237833B9044B13B10448AFF341
:1001200000800123237010BDDC01002000000000CE
:100130005896000808B5034B1BB103490348AFF3B9
:10014000008008BD00000000E00100205896000873
:10015000034613F8012B002AFBD1181A0138704707
:1001600081F0004102E000BF83F0004330B54FEA68
:1001700041044FEA430594EA050F08BF90EA020FD5
:100180001FBF54EA000C55EA020C7FEA645C7FEA68
:10019000655C00F0E2804FEA5454D4EB5555B8BF8B
:1001A0006D420CDD2C4480EA020281EA030382EAFC
:1001B000000083EA010180EA020281EA0303362D8E
:1001C00088BF30BD11F0004F4FEA01314FF4801C61
:1001D0004CEA113102D0404261EB410113F0004F73
:1001E0004FEA03334CEA133302D0524263EB43032A
:1001F00094EA050F00F0A780A4F10104D5F1200EC8
:100200000DDB02FA0EFC22FA05F2801841F1000122
:1002100003FA0EF2801843FA05F359410EE0A5F1F6
:1002200020050EF1200E012A03FA0EFC28BF4CF027
:10023000020C43FA05F3C01851EBE37101F00045DD
:1002400007D54FF0000EDCF1000C7EEB00006EEBEA
:100250000101B1F5801F1BD3B1F5001F0CD3490874
:100260005FEA30004FEA3C0C04F101044FEA4452CB
:1002700012F5800F80F09A80BCF1004F08BF5FEA52
:10028000500C50F1000041EB045141EA050130BD32
:100290005FEA4C0C404141EB0101013C28BFB1F544
:1002A000801FE9D291F0000F04BF01460020B1FA8F
:1002B00081F308BF2033A3F10B03B3F120020CDA62
:1002C0000C3208DD02F1140CC2F10C0201FA0CF040
:1002D00021FA02F10CE002F11402D8BFC2F1200CA5
:1002E00001FA02F120FA0CFCDCBF41EA0C0190405B
:1002F000E41AA2BF01EB0451294330BD6FEA0404A4
:100300001F3C1CDA0C340EDC04F11404C4F120028E
:1003100020FA04F001FA02F340EA030021FA04F3A0
:1003200045EA030130BDC4F10C04C4F1200220FAF7
:1003300002F001FA04F340EA0300294630BD21FA35
:1003400004F0294630BD94F0000F83F4801306BFFB
:1003500081F480110134013D4EE77FEA645C18BFEF
:100360007FEA655C29D094EA050F08BF90EA020F86
:1003700005D054EA000C04BF1946104630BD91EA7E
:10038000030F1EBF0021002030BD5FEA545C05D181
:100390004000494128BF41F0004130BD14F58004C0
:1003A0003CBF01F5801130BD01F0004545F0FE4134
:1003B00041F470014FF0000030BD7FEA645C1ABF69
:1003C000194610467FEA655C1CBF0B46024650EAA0
:1003D000013406BF52EA033591EA030F41F40021CC
:1003E00030BD00BF90F0000F04BF0021704730B552
:1003F0004FF4806404F132044FF000054FF0000127
:1004000050E700BF90F0000F04BF0021704730B5E7
:100410004FF4806404F1320410F0004548BF4042BC
:100420004FF000013EE700BF42004FEAE2014FEA11
:1004300031014FEA02701FBF12F07F4393F07F4FEC
:1004400081F06051704732F07F4208BF704793F0EF
:100450007F4F04BF41F40021704730B54FF4607402
:1004600001F0004521F000411CE700BF50EA010205
:1004700008BF704730B54FF000050AE050EA0102AE
:1004800008BF704730B511F0004502D5404261EB1E
:1004900041014FF4806404F132045FEA915C3FF45F
:1004A000D8AE4FF003025FEADC0C18BF03325FEAFC
:1004B000DC0C18BF033202EBDC02C2F1200300FAAD
:1004C00003FC20FA02F001FA03FE40EA0E0021FAD2
:1004D00002F11444BDE600BF70B54FF0FF0C4CF4C0
:1004E000E06C1CEA11541DBF1CEA135594EA0C0F72
:1004F00095EA0C0F00F0DEF82C4481EA030621EAAD
:100500004C5123EA4C5350EA013518BF52EA0335E7
:1005100041F4801143F4801338D0A0FB02CE4FF099
:100520000005E1FB02E506F00042E0FB03E54FF0C9
:100530000006E1FB03569CF0000F18BF4EF0010EC1
:10054000A4F1FF04B6F5007F64F5407404D25FEABD
:100550004E0E6D4146EB060642EAC62141EA555170
:100560004FEAC52040EA5E504FEACE2EB4F1FD0CB2
:1005700088BFBCF5E06F1ED8BEF1004F08BF5FEA30
:10058000500E50F1000041EB045170BD06F00046E2
:1005900046EA010140EA020081EA0301B4EB5C048F
:1005A000C2BFD4EB0C0541EA045170BD41F4801187
:1005B0004FF0000E013C00F3AB8014F1360FDEBFAC
:1005C000002001F0004170BDC4F10004203C35DA88
:1005D0000C341BDC04F11404C4F1200500FA05F30B
:1005E00020FA04F001FA05F240EA020001F00042AC
:1005F00021F0004110EBD37021FA04F642EB060122
:100600005EEA430E08BF20EAD37070BDC4F10C044B
:10061000C4F1200500FA04F320FA05F001FA04F20F
:1006200040EA020001F0004110EBD37041F10001FB
:100630005EEA430E08BF20EAD37070BDC4F1200506
:1006400000FA05F24EEA020E20FA04F301FA05F26E
:1006500043EA020321FA04F001F0004121FA04F216
:1006600020EA020000EBD3705EEA430E08BF20EAE6
:10067000D37070BD94F0000F0FD101F00046400020
:1006800041EB010111F4801F08BF013CF7D041EAA2
:10069000060195F0000F18BF704703F000465200A6
:1006A00043EB030313F4801F08BF013DF7D043EA77
:1006B0000603704794EA0C0F0CEA135518BF95EA2D
:1006C0000C0F0CD050EA410618BF52EA4306D1D1B4
:1006D00081EA030101F000414FF0000070BD50EAD3
:1006E000410606BF1046194652EA430619D094EA5D
:1006F0000C0F02D150EA013613D195EA0C0F05D147
:1007000052EA03361CBF104619460AD181EA03019A
:1007100001F0004141F0FE4141F470014FF0000052
:1007200070BD41F0FE4141F4780170BD70B54FF0ED
:10073000FF0C4CF4E06C1CEA11541DBF1CEA13556D
:1007400094EA0C0F95EA0C0F00F0A7F8A4EB05044F
:1007500081EA030E52EA03354FEA013100F0888046
:100760004FEA03334FF0805545EA131343EA12630F
:100770004FEA022245EA111545EA10654FEA0026C4
:100780000EF000419D4208BF964244F1FD0404F57D
:10079000407402D25B084FEA3202B61A65EB0305D9
:1007A0005B084FEA32024FF480104FF4002CB6EB96
:1007B000020E75EB030E22BFB61A754640EA0C0016
:1007C0005B084FEA3202B6EB020E75EB030E22BF56
:1007D000B61A754640EA5C005B084FEA3202B6EB97
:1007E000020E75EB030E22BFB61A754640EA9C0056
:1007F0005B084FEA3202B6EB020E75EB030E22BF26
:10080000B61A754640EADC0055EA060E18D04FEAE3
:10081000051545EA16754FEA06164FEAC30343EA83
:1008200052734FEAC2025FEA1C1CC0D111F4801F50
:100830000BD141EA00014FF000004FF0004CB6E749
:1008400011F4801F04BF01430020B4F1FD0C88BFE8
:10085000BCF5E06F3FF6AFAEB5EB030C04BFB6EBF3
:10086000020C5FEA500C50F1000041EB045170BDE6
:100870000EF0004E4EEA113114EB5C04C2BFD4EB13
:100880000C0541EA045170BD41F480114FF0000E97
:10089000013C90E645EA060E8DE60CEA135594EA13
:1008A0000C0F08BF95EA0C0F3FF43BAF94EA0C0F16
:1008B0000AD150EA01347FF434AF95EA0C0F7FF48B
:1008C00025AF104619462CE795EA0C0F06D152EADF
:1008D00003353FF4FDAE1046194622E750EA4106C3
:1008E00018BF52EA43067FF4C5AE50EA41047FF4D4
:1008F0000DAF52EA43057FF4EBAE12E74FF0FF3C39
:1009000006E000BF4FF0010C02E000BF4FF0010C09
:100910004DF804CD4FEA410C7FEA6C5C4FEA430C82
:1009200018BF7FEA6C5C1BD001B050EA410C0CBFD1
:1009300052EA430C91EA030F02BF90EA020F002033
:10094000704710F1000F91EA030F58BF994208BF9A
:1009500090422CBFD8176FEAE37040F00100704757
:100960004FEA410C7FEA6C5C02D150EA013C07D1AE
:100970004FEA430C7FEA6C5CD6D152EA033CD3D0F9
:100980005DF8040B704700BF8446104662468C46F3
:100990001946634600E000BF01B5FFF7B7FF002826
:1009A00048BF10F1000F01BD4DF808EDFFF7F4FF4F
:1009B0000CBF012000205DF808FB00BF4DF808EDDA
:1009C000FFF7EAFF34BF012000205DF808FB00BFFD
:1009D0004DF808EDFFF7E0FF94BF012000205DF81F
:1009E00008FB00BF4DF808EDFFF7CEFF94BF0120D4
:1009F00000205DF808FB00BF4DF808EDFFF7C4FFCD
:100A000034BF012000205DF808FB00BF4FEA410C15
:100A10007FEA6C5C02D150EA013C0AD14FEA430CF8
:100A20007FEA6C5C02D152EA033C02D14FF0000035
:100A300070474FF0010070474FEA410212F5001273
:100A400015D211D56FF47873B3EB625212D94FEA15
:100A5000C12343F0004343EA505311F0004F23FAFF
:100A600002F018BF404270474FF00000704750EA54
:100A7000013005D111F0004008BF6FF00040704711
:100A80004FF00000704700BF4A0011D212F500126B
:100A900011D20DD56FF47873B3EB62520ED44FEAD6
:100AA000C12343F0004343EA505323FA02F0704756
:100AB0004FF00000704750EA013002D14FF0FF3094
:100AC00070474FF0000070474FEA4102B2F1E04337
:100AD00024BFB3F5001CDCF1FE5C0DD901F0004C25
:100AE0004FEAC0024CEA5070B2F1004F40EB830075
:100AF00008BF20F00100704711F0804F21D113F1A1
:100B00003872BCBF01F00040704741F480114FEAD9
:100B10005252C2F11802C2F1200C10FA0CF320FA62
:100B200002F018BF40F001004FEAC1234FEAD3237F
:100B300003FA0CFC40EA0C0023FA02F34FEA4303E9
:100B4000CCE77FEA625307D150EA01331EBF4FF072
:100B5000FE4040F44000704701F0004040F0FE408D
:100B600040F40000704700BF80F0004002E000BF8A
:100B700081F0004142001FBF5FEA410392EA030F88
:100B80007FEA226C7FEA236C6AD04FEA1262D2EBD2
:100B90001363C1BFD218414048404140B8BF5B42D7
:100BA000192B88BF704710F0004F40F4000020F070
:100BB0007F4018BF404211F0004F41F4000121F086
:100BC0007F4118BF494292EA030F3FD0A2F10102D0
:100BD00041FA03FC10EB0C00C3F1200301FA03F10E
:100BE00000F0004302D5494260EB4000B0F5000F31
:100BF00013D3B0F1807F06D340084FEA310102F1F0
:100C00000102FE2A51D2B1F1004F40EBC25008BFA1
:100C100020F0010040EA03007047490040EB00006B
:100C2000013A28BFB0F5000FEDD2B0FA80FCACF16C
:100C3000080CB2EB0C0200FA0CF0AABF00EBC25099
:100C400052421843BCBFD0401843704792F0000F87
:100C500081F4000106BF80F400000132013BB5E7DA
:100C60004FEA41037FEA226C18BF7FEA236C21D050
:100C700092EA030F04D092F0000F08BF08467047B5
:100C800090EA010F1CBF0020704712F07F4F04D183
:100C9000400028BF40F00040704712F100723CBF96
:100CA00000F50000704700F0004343F0FE4040F4C0
:100CB000000070477FEA226216BF08467FEA23637E
:100CC0000146420206BF5FEA412390EA010F40F469
:100CD000800070474FF0000304E000BF10F00043B5
:100CE00048BF40425FEA000C08BF704743F096439C
:100CF00001464FF000001CE050EA010208BF7047B7
:100D00004FF000030AE000BF50EA010208BF70473D
:100D100011F0004302D5404261EB41015FEA010C52
:100D200002BF84460146002043F0B64308BFA3F14A
:100D30008053A3F50003BCFA8CF2083AA3EBC2532C
:100D400010DB01FA02FC634400FA02FCC2F120024B
:100D5000BCF1004F20FA02F243EB020008BF20F082
:100D60000100704702F1200201FA02FCC2F12002E8
:100D700050EA4C0021FA02F243EB020008BF20EADD
:100D8000DC7070474FF0FF0C1CEAD0521EBF1CEA0B
:100D9000D15392EA0C0F93EA0C0F6FD01A4480EAF9
:100DA000010C400218BF5FEA41211ED04FF00063E2
:100DB00043EA501043EA5111A0FB01310CF000400E
:100DC000B1F5000F3EBF490041EAD3715B0040EA34
:100DD000010062F17F02FD2A1DD8B3F1004F40EB04
:100DE000C25008BF20F00100704790F0000F0CF0D7
:100DF000004C08BF49024CEA502040EA51207F3A9B
:100E0000C2BFD2F1FF0340EAC250704740F4000075
:100E10004FF00003013A5DDC12F1190FDCBF00F066
:100E200000407047C2F10002410021FA02F1C2F114
:100E3000200200FA02FC5FEA310040F1000053EAB0
:100E40004C0308BF20EADC70704792F0000F00F0FE
:100E5000004C02BF400010F4000F013AF9D040EA04
:100E60000C0093F0000F01F0004C02BF490011F498
:100E7000000F013BF9D041EA0C018FE70CEAD15396
:100E800092EA0C0F18BF93EA0C0F0AD030F0004C16
:100E900018BF31F0004CD8D180EA010000F00040CA
:100EA000704790F0000F17BF90F0004F084691F088
:100EB000000F91F0004F14D092EA0C0F01D14202C2
:100EC0000FD193EA0C0F03D14B0218BF084608D18B
:100ED00080EA010000F0004040F0FE4040F40000D5
:100EE000704740F0FE4040F4400070474FF0FF0C68
:100EF0001CEAD0521EBF1CEAD15392EA0C0F93EAAF
:100F00000C0F69D0A2EB030280EA010C49024FEA00
:100F1000402037D04FF0805343EA111143EA1013B9
:100F20000CF000408B4238BF5B0042F17D024FF471
:100F3000000C8B4224BF5B1A40EA0C00B3EB510F4C
:100F400024BFA3EB510340EA5C00B3EB910F24BF35
:100F5000A3EB910340EA9C00B3EBD10F24BFA3EBBA
:100F6000D10340EADC001B0118BF5FEA1C1CE0D182
:100F7000FD2A3FF650AF8B4240EBC25008BF20F035
:100F8000010070470CF0004C4CEA50207F32C2BF89
:100F9000D2F1FF0340EAC250704740F400004FF026
:100FA0000003013A37E792F0000F00F0004C02BF57
:100FB000400010F4000F013AF9D040EA0C0093F021
:100FC000000F01F0004C02BF490011F4000F013B7B
:100FD000F9D041EA0C0195E70CEAD15392EA0C0FE3
:100FE00008D142027FF47DAF93EA0C0F7FF470AF1B
:100FF000084676E793EA0C0F04D14B023FF44CAF5E
:1010000008466EE730F0004C18BF31F0004CCAD1F2
:1010100030F000427FF45CAF31F000437FF43CAF2E
:101020005FE700BF4FF0FF3C06E000BF4FF0010C50
:1010300002E000BF4FF0010C4DF804CD4FEA400232
:101040004FEA41037FEA226C18BF7FEA236C11D07C
:1010500001B052EA530C18BF90EA010F58BFB2EB2F
:10106000030088BFC81738BF6FEAE17018BF40F0AF
:10107000010070477FEA226C02D15FEA402C05D163
:101080007FEA236CE4D15FEA412CE1D05DF8040BE8
:10109000704700BF844608466146FFE70FB5FFF77B
:1010A000C9FF002848BF10F1000F0FBD4DF808ED33
:1010B000FFF7F4FF0CBF012000205DF808FB00BF24
:1010C0004DF808EDFFF7EAFF34BF012000205DF87E
:1010D00008FB00BF4DF808EDFFF7E0FF94BF0120CB
:1010E00000205DF808FB00BF4DF808EDFFF7D2FFC8
:1010F00094BF012000205DF808FB00BF4DF808ED0B
:10110000FFF7C8FF34BF012000205DF808FB00BFD7
:101110004FEA40024FEA41037FEA226C02D15FEAC4
:10112000402C08D17FEA236C02D15FEA412C02D126
:101130004FF0000070474FF00100704738B50022B3
:10114000002304460D46FFF739FC28B920462946FE
:10115000BDE8384000F00AB8204605F1004100F033
:1011600005F8404261EB410138BD00BFD0B5002217
:101170000B4B06460F46FFF7AFF9FFF785FC044619
:10118000FFF730F90022074BFFF7A6F902460B469E
:1011900030463946FEF7E8FFFFF776FC2146D0BD22
:1011A0000000F03D0000F04180B584B000AF3B1D71
:1011B00000221A605A609A60184B194A1A60174B3D
:1011C00000229A60154B00221A73144B00221A75E4
:1011D000124B4FF46022DA61104B00225A600F4B21
:1011E00001221A610D4800F099FF0346002B01D03F
:1011F00000F03EFD00237B600123BB600723FB6002
:101200003B1D1946054801F04DFA0346002B01D05D
:1012100000F02EFD00BF1037BD4680BDF801002054
:101220000024014080B588B000AF786007F110035A
:1012300000221A605A609A60DA607B681B68144A60
:10124000934221D1134B9B69124A43F4007393617B
:10125000104B9B6903F40073FB60FB680D4B9B69AB
:101260000C4A43F0040393610A4B9B6903F00403A7
:10127000BB60BB6801233B6103237B6107F1100363
:101280001946054801F05EFD00BF2037BD4680BD10
:1012900000240140001002400008014080B588B0E1
:1012A00000AF07F1100300221A605A609A60DA60FA
:1012B0002D4B9B692C4A43F0100393612A4B9B6989
:1012C00003F01003FB60FB68274B9B69264A43F041
:1012D00020039361244B9B6903F02003BB60BB6830
:1012E000214B9B69204A43F0040393611E4B9B6989
:1012F00003F004037B607B681B4B9B691A4A43F035
:1013000008039361184B9B6903F008033B603B683B
:1013100000224FF40051154801F098FE00222021D0
:10132000134801F093FE4FF400533B6101237B61AE
:101330000023BB610223FB6107F1100319460B4830
:1013400001F000FD20233B6101237B610023BB6191
:101350000223FB6107F110031946054801F0F2FC76
:1013600000BF2037BD4680BD001002400010014084
:10137000000C014080B586B002AF0346FB71FB79DB
:1013800023F00F03FB73FB791B01BB73FB7B43F063
:101390000C03DBB23B72FB7B43F00803DBB27B72D6
:1013A000BB7B43F00C03DBB2BB72BB7B43F0080397
:1013B000DBB2FB7207F108026423009304234E2181
:1013C000034801F09FFF00BF1037BD4680BD00BF3E
:1013D0002802002080B586B002AF0346FB71FB797E
:1013E00023F00F03FB73FB791B01BB73FB7B43F003
:1013F0000D03DBB23B72FB7B43F00903DBB27B7274
:10140000BB7B43F00D03DBB2BB72BB7B43F0090334
:10141000DBB2FB7207F108026423009304234E2120
:10142000034801F06FFF00BF1037BD4680BD00BF0D
:101430002802002080B582B000AF8020FFF79AFF1D
:1014400000237B6005E02020FFF7C4FF7B680133A9
:101450007B607B68452BF6DD00BF00BF0837BD46CB
:1014600080BD80B582B000AF786039607B68002BAA
:1014700003D07B68012B05D009E03B6843F0800373
:101480003B6004E03B6843F0C0033B6000BF3B6847
:10149000DBB21846FFF76EFF00BF0837BD4680BDC0
:1014A00080B500AF322000F015FE3020FFF762FF5C
:1014B000052000F00FFE3020FFF75CFF012000F058
:1014C00009FE3020FFF756FF0A2000F003FE20201F
:1014D000FFF750FF0A2000F0FDFD2820FFF74AFF2C
:1014E000012000F0F7FD0820FFF744FF012000F085
:1014F000F1FD0120FFF73EFF012000F0EBFD012090
:1015000000F0E8FD0620FFF735FF012000F0E2FDC6
:101510000C20FFF72FFF00BF80BD80B582B000AF69
:10152000786006E07B685A1C7A601B781846FFF7E3
:1015300051FF7B681B78002BF4D100BF00BF083738
:10154000BD4680BD80B500AF124B134A1A60114BE7
:10155000124A5A600F4B00229A600E4B0022DA604A
:101560000C4B4FF480421A610A4B00225A61094B1E
:1015700000229A61074B0022DA61064B00221A62B0
:10158000044801F07BFD0346002B01D000F070FB06
:1015900000BF80BD2802002000540040A08601004A
:1015A00080B588B000AF786007F1100300221A60A0
:1015B0005A609A60DA607B681B68154A934223D1AF
:1015C000144B9B69134A43F008039361114B9B69C9
:1015D00003F00803FB60FB68C0233B6112237B61BF
:1015E0000323FB6107F1100319460B4801F0AAFB26
:1015F000084BDB69074A43F40013D361054BDB69F1
:1016000003F40013BB60BB6800BF2037BD4680BD3C
:101610000054004000100240000C014080B582B030
:1016200000AF0346FB80FB881846FFF757FB0346D5
:1016300006491846FFF7A6FB034605491846FFF77B
:1016400055FC034618460837BD4680BD333353402A
:1016500000F07F4580B582B000AF0346FB71FB7997
:101660001A462021034801F0F1FC00BF0837BD46AF
:1016700080BD00BF000C014080B582B000AF0A48B9
:1016800000F024FE4FF0FF31074800F0F9FE064855
:1016900000F0FCFF0346FB80034800F0C5FEFB881A
:1016A00018460837BD4680BDF801002080B586B0D9
:1016B00000AF0346FB7100237B614FF6FF737B8213
:1016C00000233B820023FB7316E0FFF7D5FF0346A0
:1016D000BB81BA897B8A9A4201D2BB897B82BA8953
:1016E0003B8A9A4201D9BB893B82BB897A69134400
:1016F0007B61FB7B0133FB73FA7BFB799A42E4D37A
:10170000FB79022B0ED97A8A3B8A13441A467B69ED
:101710009B1A7B61FB79023B1A467B69B3FBF2F3B0
:101720009BB204E0FB797A69B2FBF3F39BB21846F3
:101730001837BD4680BD000080B586B000AF0346B7
:10174000FB80FB881846FFF769FF78614FF00001C6
:101750007869FFF7BFFC0346002B06D11E49786964
:10176000FFF7C2FC0346002B01D01C4B2FE0796928
:101770001948FFF7FDF9034619467869FFF7B6FBEC
:10178000034617491846FFF7FDFA03463B61154922
:101790003869FFF7ABFB0346184607F007FE034620
:1017A00011491846FFF7EEFA034610491846FFF7AD
:1017B000E1F90346FB60F9684FF07E50FFF796FBB6
:1017C0000346BB600A49B868FFF7D2F903461846DA
:1017D0001837BD4680BD00BF333353400000C07F83
:1017E00000401C460050C3472CBB84390FCF5B3BE5
:1017F0003393884390B595B002AF00F009FC00F038
:101800008DF9FFF74BFDFFF7CFFCFFF79BFE00F0D4
:1018100065FB964801F0DAF8FFF742FEFFF70AFE93
:1018200000210020FFF71DFE9148FFF776FE002102
:101830000120FFF716FE8F48FFF76FFE4FF4487048
:1018400000F048FCFFF7F6FD8B4802F07FFE8B4B63
:101850004FF000021A608A4B1B78DBB2002BFAD0E3
:10186000874B00221A702020FFF720FF0346A7F8BD
:101870004630B7F846301846FFF7D0FE3864814B43
:10188000FB63F96B4FF07E50FFF772F903461A467F
:101890007A4B1B6819461046FFF774FA03461C463C
:1018A000396CF86BFFF76EFA034619462046FFF7CE
:1018B00061F903461A46714B1A60B7F8463018466C
:1018C000FFF73AFFB8636F4B7B636F4B1B6819469A
:1018D0001846FFF71DFC0346002B03D06A4ABB6B7A
:1018E000136016E0684B1B681946B86BFFF740F9A8
:1018F0000346796B1846FFF745FA03461A46624BD2
:101900001B6819461046FFF735F903461A465E4B29
:101910001A605D4B1B680022144619461846FFF7F3
:10192000F7FB0346002B01D101231C4687F8334007
:1019300097F83330002B0AD0534B1B685349184695
:10194000FFF7DCFB0346002B01D0012300E000235E
:1019500087F8323097F8323003F0010387F83230DD
:1019600097F8333083F00103DBB2002B03D197F8F3
:101970003230002B03D0464B00221A7023E0444B38
:101980001B7883F00103DBB2002B0CD03E4B1B68AD
:1019900040491846FFF79EFB0346002B03D03C4B03
:1019A00001221A700FE03A4B1B78002B0BD0364BFC
:1019B0001B6839491846FFF797FB0346002B02D0F6
:1019C000334B00221A70324B1B781846FFF742FE49
:1019D00000F076FBF862314B1B6819461846FFF79A
:1019E00097FB0346002B18D1274B1B682B4A126824
:1019F00011461846FFF7BCF8034623F0004321497F
:101A00001846FFF771FB0346002B06D1244B1B68D9
:101A1000FA6AD31AB3F57A7F01D3012300E00023D9
:101A200087F82B3097F82B3003F0010387F82B3021
:101A300097F82B30002B3FF40EAF134B1B68174A5F
:101A40001360174AFB6A1360144B1B68194618464B
:101A5000FFF75EFB0346002B26D007F11803114A5F
:101A60001121184604F03AF82DE000BFF8010020DB
:101A700070960008809600089802002080020020DE
:101A80007D020020CDCCCC3D00000020000087432B
:101A9000840200200000734300007743040000200C
:101AA0008802002088960008184B1B681846FEF72D
:101AB000BBFC02460B4607F11800CDE90023144A8F
:101AC000112104F00BF8B7F84640124B1B6818467A
:101AD000FEF7AAFC02460B46381DCDE9002323463B
:101AE0000D4A112103F0FAFF00210020FFF7B9FC95
:101AF00007F118031846FFF710FD00210120FFF73A
:101B0000B0FC3B1D1846FFF708FDA4E604000020CA
:101B10009896000880020020A896000880B594B02E
:101B200000AF07F1280328220021184604F071F8BD
:101B300007F1140300221A605A609A60DA601A6191
:101B40003B1D00221A605A609A60DA600123BB6272
:101B50004FF48033FB6200233B630123BB6302230A
:101B60007B644FF48033BB644FF4E013FB6407F1F4
:101B70002803184601F01EFF0346002B01D000F099
:101B800077F80F237B610223BB610023FB614FF4D5
:101B900080633B6200237B6207F114030221184635
:101BA00002F08AF90346002B01D000F061F802230D
:101BB0007B604FF40043FB603B1D184602F00AFBBC
:101BC0000346002B01D000F053F800BF5037BD464C
:101BD00080BD000080B483B000AF78607B681B6874
:101BE0001C4A934230D11C4B1B8801339AB21A4BCA
:101BF0001A80194B1B88092B05D9174B00221A8014
:101C0000164B01221A70164B1B8801339AB2144BE3
:101C10001A80134B1B88632B05D9114B00221A80A5
:101C2000104B01221A70104B1B8801339AB20E4BD5
:101C30001A800D4B1B88B3F57A7F05D30A4B00221F
:101C40001A800A4B01221A7000BF0C37BD4680BCB7
:101C5000704700BF000400408C0200207C0200207E
:101C60008E0200207D020020900200207E020020D3
:101C700080B400AF72B600BF00BFFDE780B485B08E
:101C800000AF154B9B69144A43F001039361124B5B
:101C90009B6903F00103BB60BB680F4BDB690E4A15
:101CA00043F08053D3610C4BDB6903F080537B60BE
:101CB0007B680A4B5B68FB60FB6823F0E063FB60BA
:101CC000FB6843F00073FB60044AFB68536000BF8D
:101CD0001437BD4680BC7047001002400000014030
:101CE00080B400AF00BFFDE780B400AF00BFFDE7E8
:101CF00080B400AF00BFFDE780B400AF00BFFDE7D8
:101D000080B400AF00BFFDE780B400AF00BFBD46A8
:101D100080BC704780B400AF00BFBD4680BC704738
:101D200080B400AF00BFBD4680BC704780B500AF37
:101D300000F0B4F900BF80BD80B500AF024802F0EA
:101D400057FC00BF80BD00BF9802002080B400AFE8
:101D500001231846BD4680BC704780B582B000AFF5
:101D60007860396003F0A8FF034616221A604FF02E
:101D7000FF3318460837BD4680BD80B582B000AF3E
:101D800078604FF0FF317868FFF7E7FF00BFFDE7AD
:101D900080B586B000AFF860B9607A6000237B61DF
:101DA0000AE0AFF300800146BB685A1CBA60CAB2B1
:101DB0001A707B6901337B617A697B689A42F0DB38
:101DC0007B6818461837BD4680BD80B586B000AF29
:101DD000F860B9607A6000237B6109E0BB685A1C37
:101DE000BA601B781846AFF300807B6901337B61D2
:101DF0007A697B689A42F1DB7B6818461837BD46E2
:101E000080BD80B483B000AF78604FF0FF331846D8
:101E10000C37BD4680BC704780B483B000AF78609B
:101E200039603B684FF400525A60002318460C3763
:101E3000BD4680BC704780B483B000AF786001239A
:101E400018460C37BD4680BC704780B485B000AFE3
:101E5000F860B9607A60002318461437BD4680BC2C
:101E60007047000080B586B000AF7860144A154B0B
:101E7000D31A7B617B693B61134B1B68002B02D13A
:101E8000114B124A1A60104B1A687B6813443A6966
:101E90009A4207D203F010FF03460C221A604FF05B
:101EA000FF3309E0084B1B68FB60074B1A687B682F
:101EB0001344054A1360FB6818461837BD4680BDB9
:101EC0000050002000040000940200203004002094
:101ED00080B400AF00BFBD4680BC704780B586B0FF
:101EE00000AF07F1080300221A605A609A60DA60B6
:101EF0003B4600221A605A601D4B1E4A1A601C4B5A
:101F000041F61F425A601A4B00229A60184B092270
:101F1000DA60174B00221A61154B00229A611448AF
:101F200002F0C4FA0346002B01D0FFF7A1FE4FF4E4
:101F30008053BB6007F1080319460D4802F048FCC6
:101F40000346002B01D0FFF793FE00233B600023E4
:101F50007B603B461946064802F02AFE0346002BEA
:101F600001D0FFF785FE00BF1837BD4680BD00BF1A
:101F7000980200200004004080B584B000AF786073
:101F80007B681B680D4A934213D10D4BDB690C4AE9
:101F900043F00203D3610A4BDB6903F00203FB60E9
:101FA000FB68002200211D2000F095FE1D2000F09E
:101FB000AEFE00BF1037BD4680BD00BF000400402C
:101FC00000100240FFF784FF0B480C490C4A002325
:101FD00002E0D458C4500433C4188C42F9D3094ADF
:101FE000094C002301E013600432A242FBD303F04A
:101FF00069FEFFF7FFFB704700000020DC010020B6
:102000002C9B0008DC01002030040020FEE70000CB
:1020100080B500AF084B1B68074A43F010031360FC
:10202000032000F04DFE0F2000F008F8FFF726FE19
:102030000023184680BD00BF0020024080B582B05A
:1020400000AF7860124B1A68124B1B7819464FF498
:102050007A73B3FBF1F3B2FBF3F3184600F065FEBD
:102060000346002B01D001230EE07B680F2B0AD81A
:10207000002279684FF0FF3000F02DFE064A7B68A1
:102080001360002300E0012318460837BD4680BDD9
:1020900008000020100000200C00002080B400AFD9
:1020A000054B1B781A46054B1B681344034A136003
:1020B00000BFBD4680BC704710000020E002002039
:1020C00080B400AF024B1B681846BD4680BC704709
:1020D000E002002080B584B000AF7860FFF7F0FF29
:1020E000B8607B68FB60FB68B3F1FF3F05D00A4B2B
:1020F0001B781A46FB681344FB6000BFFFF7E0FF44
:102100000246BB68D31AFA689A42F7D800BF00BFEC
:102110001037BD4680BD00BF1000002080B586B0DE
:1021200000AF78600023FB7500233B610023BB6098
:102130000023FB607B68002B01D10123BEE07B689C
:102140009B68002B7B689B6A002B09D17B6800226F
:10215000DA627B68002283F824207868FFF762F84F
:10216000786800F0F1FB0346FB757B689B6A03F01F
:102170001003002B40F09980FB7D002B40F09580F0
:102180007B689B6A23F4885323F0020343F0020226
:102190007B689A627B685A687B68DB691A437B6854
:1021A0001B7B5B001343BA681343BB607B689B686F
:1021B000B3F5807F03D07B689B68012B02D14FF47D
:1021C000807300E000233A6913433B617B681B7D09
:1021D000012B19D17B681B7B002B09D17B689B6984
:1021E000013B5A033B69134343F400633B610BE03B
:1021F0007B689B6A43F020027B689A627B68DB6A9B
:1022000043F001027B68DA627B681B685B6823F439
:1022100069417B681B683A690A435A607B681B689E
:102220009A68284B13407A681268B9680B43936028
:102230007B689B68B3F5807F03D07B689B68012B2C
:1022400004D17B681B69013B1B05FB607B681B6835
:10225000DB6A23F470017B681B68FA680A43DA6260
:102260007B681B689A68184B1340BA689A420BD176
:102270007B680022DA627B689B6A23F0030343F0E9
:1022800001027B689A6218E07B689B6A23F0120364
:1022900043F010027B689A627B68DB6A43F00102BC
:1022A0007B68DA620123FB7507E07B689B6A43F079
:1022B00010027B689A620123FB75FB7D1846183774
:1022C000BD4680BDFDF7E1FFFE0E1FFF80B584B067
:1022D00000AF78600023FB737B6893F82430012BF8
:1022E00001D1022398E07B68012283F824207868DA
:1022F00000F0D0FA0346FB73FB7B002B40F0878095
:102300007B689B6A23F4407323F0010343F48072DB
:102310007B689A627B681B68414A934205D1414BB6
:102320005B6803F47023002B15D17B689B6A23F450
:1023300080127B689A627B681B685B6803F4806329
:10234000002B26D07B689B6A23F4405343F48052D1
:102350007B689A621DE07B689B6A43F480127B680D
:102360009A627B681B682F4A934204D07B681B6883
:102370002B4A93420DD12B4B5B6803F48063002BF7
:1023800007D07B689B6A23F4405343F480527B68F8
:102390009A627B689B6A03F48053002B06D07B68AB
:1023A000DB6A23F006027B68DA6202E07B680022C7
:1023B000DA627B68002283F824207B681B686FF058
:1023C00002021A607B681B689B6803F46023B3F504
:1023D000602F13D17B681B68114A934205D1114BC2
:1023E0005B6803F47023002B08D17B681B689A6834
:1023F0007B681B6842F4A0029A600CE07B681B6853
:102400009A687B681B6842F480129A6003E07B68DC
:10241000002283F82420FB7B18461037BD4680BD80
:10242000002801400024014080B584B000AF7860EE
:102430000023FB737B6893F82430012B01D1022326
:102440001AE07B68012283F82420786800F07CFA87
:102450000346FB73FB7B002B09D17B689B6A23F44B
:10246000885323F0010343F001027B689A627B6882
:10247000002283F82420FB7B18461037BD4680BD20
:1024800090B587B000AF7860396000237B6100238E
:10249000FB6000233B61FFF713FE78617B681B68DC
:1024A0009B6803F48073002B0BD07B689B6A43F01E
:1024B00020027B689A627B68002283F82420012333
:1024C000D3E07B681B685B6803F48073002B31D119
:1024D0007B681B68DB6A03F47003002B2AD121E0C0
:1024E0003B68B3F1FF3F1DD03B68002B07D0FFF7DF
:1024F000E7FD02467B69D31A3A689A4212D27B689A
:102500001B681B6803F00203002B0BD17B689B6ADE
:1025100043F004027B689A627B68002283F82420DF
:102520000323A2E07B681B681B6803F00203002BF7
:10253000D6D070E04F4B1C68022001F001FF03462B
:10254000B4FBF3F27B681B6819694B4B0B40002B03
:1025500018D17B681B68D968484B0B40002B11D100
:102560007B681B681969464B0B40002B08D17B68C0
:102570001B68D968434B0B40002B01D1142320E08A
:1025800029231EE07B681B6819693D4B0B40002B1B
:1025900006D17B681B68D9683A4B0B40002B0DD0E5
:1025A0007B681B681969384B0B40002B08D17B688E
:1025B0001B68D968344B0B40002B01D1542300E039
:1025C000FC2302FB03F33B6121E03B68B3F1FF3FD7
:1025D0001AD03B68002B07D0FFF772FD02467B69DB
:1025E000D31A3A689A420FD2FB683A699A420BD9D9
:1025F0007B689B6A43F004027B689A627B680022D6
:1026000083F82420032330E0FB680133FB60FB6880
:102610003A699A42D9D87B681B686FF012021A6037
:102620007B689B6A43F400727B689A627B681B68D4
:102630009B6803F46023B3F5602F15D17B681B7B87
:10264000002B11D17B689B6A23F480727B689A62AD
:102650007B689B6A03F48053002B05D17B689B6ADF
:1026600043F001027B689A62002318461C37BD467E
:1026700090BD00BF08000020244992242449920004
:1026800092244912922449004992240080B483B0D4
:1026900000AF78607B681B68DB6C18460C37BD4662
:1026A00080BC704780B485B000AF7860396000238B
:1026B000FB730023BB607B6893F82430012B01D1AE
:1026C0000223DCE07B68012283F824203B685B68FE
:1026D000062B1CD87B681B68596B3B685A681346ED
:1026E0009B001344053B1F2202FA03F3DB4319400E
:1026F0003B6818683B685A6813469B001344053BC7
:1027000000FA03F27B681B680A435A633CE03B68AB
:102710005B680C2B1CD87B681B68196B3B685A687C
:1027200013469B001344233B1F2202FA03F3DB43AF
:1027300019403B6818683B685A6813469B0013446D
:10274000233B00FA03F27B681B680A431A631BE011
:102750007B681B68D96A3B685A6813469B00134420
:10276000413B1F2202FA03F3DB4319403B68186820
:102770003B685A6813469B001344413B00FA03F23E
:102780007B681B680A43DA623B681B68092B1CD90B
:102790007B681B68D9683B681A6813465B00134462
:1027A0001E3B072202FA03F3DB4319403B6898689B
:1027B0003B681A6813465B0013441E3B00FA03F2A1
:1027C0007B681B680A43DA6019E07B681B6819693B
:1027D0003B681A6813465B001344072202FA03F3AE
:1027E000DB4319403B6898683B681A6813465B00F6
:1027F000134400FA03F27B681B680A431A613B68C2
:102800001B68102B03D03B681B68112B32D17B68EF
:102810001B681D4A934225D17B681B689B6803F4A3
:102820000003002B26D17B681B689A687B681B68B5
:1028300042F400029A603B681B68102B1AD1134BBC
:102840001B68134AA2FB03239A0C13469B001344F4
:102850005B00BB6002E0BB68013BBB60BB68002B58
:10286000F9D107E07B689B6A43F020027B689A629B
:102870000123FB737B68002283F82420FB7B18462E
:102880001437BD4680BC704700240140080000207A
:1028900083DE1B4380B584B000AF78600023FB600B
:1028A0000023BB607B681B689B6803F00103012B5E
:1028B00040D07B681B689A687B681B6842F0010205
:1028C0009A601F4B1B681F4AA2FB03239B0CBB6033
:1028D00002E0BB68013BBB60BB68002BF9D1FFF78E
:1028E000EFFBF8601FE0FFF7EBFB0246FB68D31A33
:1028F000022B18D97B681B689B6803F00103012B2E
:1029000011D07B689B6A43F010027B689A627B68F7
:10291000DB6A43F001027B68DA627B68002283F89D
:102920002420012307E07B681B689B6803F00103F8
:10293000012BD8D1002318461037BD4680BD00BFFB
:102940000800002083DE1B4380B584B000AF7860B0
:102950000023FB607B681B689B6803F00103012B6D
:102960002ED17B681B689A687B681B6822F0010285
:102970009A60FFF7A5FBF8601BE0FFF7A1FB02469A
:10298000FB68D31A022B14D97B681B689B6803F081
:102990000103012B0DD17B689B6A43F010027B6819
:1029A0009A627B68DB6A43F001027B68DA6201238A
:1029B00007E07B681B689B6803F00103012BDCD0F8
:1029C000002318461037BD4680BD000090B587B083
:1029D00000AF78600023FB750023FB607B6893F8F1
:1029E0002430012B01D1022397E07B68012283F878
:1029F00024207868FFF7A8FF0346FB757868FFF787
:102A000049FF0346FB75FB7D002B40F081807B680E
:102A10009B6A23F4885323F0020343F002027B688D
:102A20009A62404B1C68022001F08AFC0346B4FB0A
:102A3000F3F35B00FB6002E0FB68013BFB60FB68BB
:102A4000002BF9D17B681B689A687B681B6842F091
:102A500008029A60FFF734FB38611BE0FFF730FB98
:102A600002463B69D31A0A2B14D97B681B689B6802
:102A700003F00803002B0DD07B689B6A23F0120340
:102A800043F010027B689A627B68002283F824205E
:102A9000012342E07B681B689B6803F00803002B5E
:102AA000DCD17B681B689A687B681B6842F0040273
:102AB0009A60FFF705FB38611BE0FFF701FB024658
:102AC0003B69D31A0A2B14D97B681B689B6803F0F7
:102AD0000403002B0DD07B689B6A23F0120343F0A4
:102AE00010027B689A627B68002283F8242001230D
:102AF00013E07B681B689B6803F00403002BDCD1A8
:102B00007B689B6A23F0030343F001027B689A62AF
:102B10007B68002283F82420FB7D18461C37BD46C5
:102B200090BD00BF0800002080B485B000AF786081
:102B30007B6803F00703FB600C4BDB68BB60BA6883
:102B40004FF6FF031340BB60FB681A02BB681343D8
:102B500043F0BF6343F40033BB60044ABB68D360F7
:102B600000BF1437BD4680BC704700BF00ED00E0D9
:102B700080B400AF044BDB681B0A03F00703184660
:102B8000BD4680BC704700BF00ED00E080B483B05C
:102B900000AF0346FB7197F90730002B0BDBFB7985
:102BA00003F01F02064997F907305B09012000FA7C
:102BB00002F241F8232000BF0C37BD4680BC7047AD
:102BC00000E100E080B483B000AF03463960FB71E0
:102BD00097F90730002B0ADB3B68DAB20C4997F90A
:102BE00007301201D2B20B4483F800230AE03B689D
:102BF000DAB20849FB7903F00F03043B1201D2B2A9
:102C00000B441A7600BF0C37BD4680BC704700BF2E
:102C100000E100E000ED00E080B489B000AFF860B2
:102C2000B9607A60FB6803F00703FB61FB69C3F1DD
:102C30000703042B28BF0423BB61FB690433062B65
:102C400002D9FB69033B00E000237B614FF0FF32B8
:102C5000BB6902FA03F3DA43BB681A407B699A4006
:102C60004FF0FF317B6901FA03F3D9437B680B40D6
:102C7000134318462437BD4680BC704780B582B0E8
:102C800000AF78607B68013BB3F1807F01D3012303
:102C90000FE00A4A7B68013B53600F214FF0FF3081
:102CA000FFF790FF054B00229A60044B07221A6041
:102CB000002318460837BD4680BD00BF10E000E085
:102CC00080B582B000AF78607868FFF72DFF00BF55
:102CD0000837BD4680BD80B586B000AF0346B960F9
:102CE0007A60FB7300237B61FFF742FF78617A68AB
:102CF000B9687869FFF790FF024697F90F301146DF
:102D00001846FFF75FFF00BF1837BD4680BD80B58E
:102D100082B000AF0346FB7197F907301846FFF702
:102D200035FF00BF0837BD4680BD80B582B000AF1B
:102D300078607868FFF7A2FF034618460837BD465B
:102D400080BD000080B48BB000AF78603960002394
:102D50007B6200233B6269E101227B6A02FA03F392
:102D6000FB613B681B68FA691340BB61BA69FB6988
:102D70009A4240F058813B685B689A4A93425ED021
:102D8000984A934275D8984A934258D0964A9342AB
:102D90006FD8964A934252D0944A934269D8944A43
:102DA00093424CD0924A934263D8924A934246D07F
:102DB000904A93425DD8122B2AD8122B59D801A2DF
:102DC00052F823F03F2E0008192E00082B2E000881
:102DD0006D2E0008732E0008732E0008732E000855
:102DE000732E0008732E0008732E0008732E00083F
:102DF000732E0008732E0008732E0008732E00082F
:102E0000732E0008732E0008212E0008352E0008AE
:102E1000794A934213D02CE03B68DB683B6229E09F
:102E20003B68DB6804333B6224E03B68DB680833C3
:102E30003B621FE03B68DB680C333B621AE03B6897
:102E40009B68002B02D104233B6213E03B689B6824
:102E5000012B05D108233B627B68FA691A6109E0FE
:102E600008233B627B68FA695A6103E000233B62F6
:102E700000E000BFBB69FF2B01D87B6801E07B68E5
:102E800004337B61BB69FF2B02D87B6A9B0002E0A5
:102E90007B6A083B9B003B617B691A680F213B6999
:102EA00001FA03F3DB431A40396A3B6901FA03F381
:102EB0001A437B691A603B685B6803F08053002B00
:102EC00000F0B1804D4B9B694C4A43F00103936184
:102ED0004A4B9B6903F00103BB60BB68484A7B6AAD
:102EE0009B08023352F82330FB607B6A03F0030334
:102EF0009B000F2202FA03F3DB43FA681340FB60E6
:102F00007B68404A934213D07B683F4A93420DD07E
:102F10007B683E4A934207D07B683D4A934201D189
:102F2000032306E0042304E0022302E0012300E07F
:102F300000237A6A02F0030292009340FA68134376
:102F4000FB602F497B6A9B080233FA6841F8232013
:102F50003B685B6803F48013002B06D02D4B9A6806
:102F60002C49BB6913438B6006E02A4B9A68BB6906
:102F7000DB43284913408B603B685B6803F4001314
:102F8000002B06D0234BDA682249BB691343CB6080
:102F900006E0204BDA68BB69DB431E491340CB6077
:102FA0003B685B6803F40033002B06D0194B5A686A
:102FB0001849BB6913434B6006E0164B5A68BB695E
:102FC000DB43144913404B603B685B6803F4803378
:102FD000002B21D00F4B1A680E49BB6913430B60BD
:102FE00021E000BF0000321000003110000022106C
:102FF000000021100000121000001110001002400B
:103000000000014000080140000C01400010014098
:1030100000140140000401400B4B1A68BB69DB43FC
:10302000094913400B607B6A01337B623B681A6875
:103030007B6A22FA03F3002B7FF48EAE00BF00BF41
:103040002C37BD4680BC70470004014080B483B07B
:1030500000AF78600B467B8013467B707B78002B3B
:1030600003D07A887B681A6103E07B881A047B6846
:103070001A6100BF0C37BD4680BC704780B584B074
:1030800000AF78607B68002B01D101232BE17B68C6
:1030900093F83D30DBB2002B06D17B68002283F829
:1030A0003C207868FEF77CFA7B68242283F83D2078
:1030B0007B681B681A687B681B6822F001021A6033
:1030C0007B681B681A687B681B6842F400421A60C0
:1030D0007B681B681A687B681B6822F400421A60D0
:1030E00001F032F8F8607B685B68814A934207D848
:1030F000FB68804A934294BF01230023DBB206E0C1
:10310000FB687D4A934294BF01230023DBB2002B6E
:1031100001D00123E7E0FB68784AA2FB03239B0C64
:10312000BB607B681B685B6823F03F017B681B68A2
:10313000BA680A435A607B681B681B6A23F03F0128
:103140007B685B686A4A934202D8BB68013309E036
:10315000BB684FF4967202FB03F3694AA2FB032398
:103160009B0901337A6812680B4313627B681B6802
:10317000DB6923F44F4222F0FF027B685B685C4905
:103180008B4219D8FB68591E7B685B685B00B1FBFA
:10319000F3F3591C40F6FC730B40002B0AD0FB687C
:1031A000591E7B685B685B00B1FBF3F30133C3F32B
:1031B0000B0351E004234FE07B689B68002B11D187
:1031C000FB68581E7B6859680B465B000B44B0FBDC
:1031D000F3F30133C3F30B03002B0CBF01230023D4
:1031E000DBB212E0FB68581E7B6859680B469B00F7
:1031F0000B4499000B44B0FBF3F30133C3F30B030F
:10320000002B0CBF01230023DBB2002B01D00123D4
:1032100022E07B689B68002B0ED1FB68581E7B6800
:1032200059680B465B000B44B0FBF3F30133C3F367
:103230000B0343F400430FE0FB68581E7B6859689A
:103240000B469B000B4499000B44B0FBF3F3013396
:10325000C3F30B0343F44043796809681343CB611C
:103260007B681B681B6823F0C0017B68DA697B6898
:103270001B6A1A437B681B680A431A607B681B68D9
:103280009B6823F4034323F0FF037A6811697A688B
:10329000D26811437A6812680B4393607B681B689D
:1032A000DB6823F0FF017B685A697B689B691A43DE
:1032B0007B681B680A43DA607B681B681A687B6856
:1032C0001B6842F001021A607B6800221A647B6866
:1032D000202283F83D207B6800221A637B6800224D
:1032E00083F83E20002318461037BD4680BD00BF3E
:1032F000A08601007F841E00FF083D0083DE1B4383
:10330000D34D621080B588B002AFF8607A601A467B
:103310000B467B8113463B81FEF7D2FE7861FB684A
:1033200093F83D30DBB2202B40F0E0807B690093C6
:10333000192301227049F86800F064F90346002B54
:1033400001D00223D3E0FB6893F83C30012B01D17C
:103350000223CCE0FB68012283F83C20FB681B6859
:103360001B6803F00103012B07D0FB681B681A6878
:10337000FB681B6842F001021A60FB681B681A6850
:10338000FB681B6822F400621A60FB68212283F844
:103390003D20FB68102283F83E20FB6800221A645F
:1033A000FB687A685A62FB683A895A85FB685B8DCC
:1033B0009AB2FB681A85FB68504ADA6279897B69A0
:1033C0003A6AF86800F09CF80346002B01D001230C
:1033D0008DE000233B61FB681B685B693B61FB6818
:1033E0001B689B693B613B6966E07A69396AF868EA
:1033F00000F022FA0346002B0DD0FB681B6C042B57
:1034000007D1FB681B681A68FB681B6842F40072EE
:103410001A6001236BE0FB685B6A1A78FB681B6823
:103420001A61FB685B6A5A1CFB685A62FB685B8D19
:103430009BB2013B9AB2FB685A85FB681B8D013B2E
:103440009AB2FB681A85FB681B685B6903F004038A
:10345000042B1BD1FB681B8D002B17D0FB685B6A0C
:103460001A78FB681B681A61FB685B6A5A1CFB6868
:103470005A62FB685B8D9BB2013B9AB2FB685A852E
:10348000FB681B8D013B9AB2FB681A857A69396A21
:10349000F86800F019FA0346002B0DD0FB681B6C8E
:1034A000042B07D1FB681B681A68FB681B6842F491
:1034B00000721A6001231AE0FB681B8D002B94D167
:1034C000FB681B681A68FB681B6842F400721A608C
:1034D000FB68202283F83D20FB68002283F83E2011
:1034E000FB68002283F83C20002300E002231846FA
:1034F0001837BD4680BD00BF020010000000FFFF6E
:1035000080B588B002AFF8607A603B600B467B8183
:10351000FB68DB6A7B617B69082B06D07B69012B2A
:1035200003D07B6913F5803F08D1FB681B681A68DC
:10353000FB681B6842F480721A600BE0FB681B6B2F
:10354000122B07D1FB681B681A68FB681B6842F4E2
:1035500080721A603B6800937B6800224FF0011173
:10356000F86800F04FF80346002B0DD0FB681B688D
:103570001B6803F48073B3F5807F03D1FB684FF4BD
:1035800000721A64032335E0FB681B69B3F5804FB2
:1035900008D17B89DBB21A46FB681B6802F0FE0289
:1035A0001A611BE07B89DB11DBB203F00603DBB29F
:1035B00063F00F03DAB2FB681B681A613B687A6834
:1035C0000E49F86800F098F80346002B01D001235B
:1035D00010E07B89DAB2FB681B681A613B687A6885
:1035E0000749F86800F088F80346002B01D0012352
:1035F00000E0002318461837BD4680BD08000100D2
:103600000200010080B584B000AFF860B9603B6093
:103610001346FB7148E03B68B3F1FF3F44D0FEF72F
:103620004FFD0246BB69D31A3A689A4202D33B68FF
:10363000002B39D1BB681B0CDBB2012B0DD1FB6811
:103640001B685B69DA43BB6813409BB2002B0CBF5D
:1036500001230023DBB21A460CE0FB681B689B6960
:10366000DA43BB6813409BB2002B0CBF012300233D
:10367000DBB21A46FB799A4216D1FB6800221A6324
:10368000FB68202283F83D20FB68002283F83E205F
:10369000FB681B6C43F02002FB681A64FB68002285
:1036A00083F83C20012323E0BB681B0CDBB2012B19
:1036B0000DD1FB681B685B69DA43BB6813409BB2A2
:1036C000002B0CBF01230023DBB21A460CE0FB6881
:1036D0001B689B69DA43BB6813409BB2002B0CBF8D
:1036E00001230023DBB21A46FB799A4293D00023D0
:1036F00018461037BD4680BD80B584B000AFF86075
:10370000B9607A603B6071E0FB681B685B6903F439
:103710008063B3F5806F23D1FB681B681A68FB6870
:103720001B6842F400721A60FB681B686FF48062C9
:103730005A61FB6800221A63FB68202283F83D204F
:10374000FB68002283F83E20FB681B6C43F00402F8
:10375000FB681A64FB68002283F83C20012367E0C1
:103760007B68B3F1FF3F41D0FEF7AAFC02463B68FD
:10377000D31A7A689A4202D37B68002B36D1BB6891
:103780001B0CDBB2012B0CD1FB681B685B69DA43B5
:10379000BB6813409BB2002B14BF01230023DBB294
:1037A0000BE0FB681B689B69DA43BB6813409BB264
:1037B000002B14BF01230023DBB2002B16D0FB68C3
:1037C00000221A63FB68202283F83D20FB68002258
:1037D00083F83E20FB681B6C43F02002FB681A64F0
:1037E000FB68002283F83C20012321E0BB681B0C0E
:1037F000DBB2012B0CD1FB681B685B69DA43BB6849
:1038000013409BB2002B14BF01230023DBB20BE05B
:10381000FB681B689B69DA43BB6813409BB2002BB3
:1038200014BF01230023DBB2002B7FF46DAF002314
:1038300018461037BD4680BD80B584B000AFF86033
:10384000B9607A6034E0F86800F086F80346002B2F
:1038500001D0012334E0BB68B3F1FF3F28D0FEF76D
:103860002FFC02467B68D31ABA689A4202D3BB681F
:10387000002B1DD1FB681B685B6903F08003802B64
:1038800016D0FB6800221A63FB68202283F83D20D3
:10389000FB68002283F83E20FB681B6C43F020028B
:1038A000FB681A64FB68002283F83C20012307E0D0
:1038B000FB681B685B6903F08003802BC3D1002386
:1038C00018461037BD4680BD80B584B000AFF860A3
:1038D000B9607A6034E0F86800F03EF80346002BE7
:1038E00001D0012334E0BB68B3F1FF3F28D0FEF7DD
:1038F000E7FB02467B68D31ABA689A4202D3BB68D8
:10390000002B1DD1FB681B685B6903F00403042BCB
:1039100016D0FB6800221A63FB68202283F83D2042
:10392000FB68002283F83E20FB681B6C43F02002FA
:10393000FB681A64FB68002283F83C20012307E03F
:10394000FB681B685B6903F00403042BC3D10023ED
:1039500018461037BD4680BD80B483B000AF786094
:103960007B681B685B6903F48063B3F5806F1BD1D0
:103970007B681B686FF480625A617B6800221A635F
:103980007B68202283F83D207B68002283F83E205C
:103990007B681B6C43F004027B681A647B6800221E
:1039A00083F83C20012300E0002318460C37BD4675
:1039B00080BC704780B586B000AF78607B68002B14
:1039C00001D1012372E27B681B6803F00103002B25
:1039D00000F08780924B5B6803F00C03042B0CD043
:1039E0008F4B5B6803F00C03082B12D18C4B5B6888
:1039F00003F48033B3F5803F0BD1894B1B6803F48C
:103A00000033002B6CD07B685B68002B68D10123EE
:103A10004CE27B685B68B3F5803F06D1804B1B6846
:103A20007F4A43F4803313602EE07B685B68002B91
:103A30000CD17B4B1B687A4A23F480331360784B9C
:103A40001B68774A23F4802313601DE07B685B6862
:103A5000B3F5A02F0CD1724B1B68714A43F480233D
:103A600013606F4B1B686E4A43F4803313600BE0A6
:103A70006B4B1B686A4A23F480331360684B1B68E6
:103A8000674A23F4802313607B685B68002B13D0A4
:103A9000FEF716FB386108E0FEF712FB02463B69B1
:103AA000D31A642B01D9032300E25D4B1B6803F496
:103AB0000033002BF0D014E0FEF702FB386108E081
:103AC000FEF7FEFA02463B69D31A642B01D90323A1
:103AD000ECE1534B1B6803F40033002BF0D100E002
:103AE00000BF7B681B6803F00203002B63D04C4BC4
:103AF0005B6803F00C03002B0BD0494B5B6803F0B1
:103B00000C03082B1CD1464B5B6803F48033002B5D
:103B100016D1434B1B6803F00203002B05D07B68D2
:103B20001B69012B01D00123C0E13D4B1B6823F031
:103B3000F8027B685B69DB00394913430B603AE0AC
:103B40007B681B69002B20D0364B01221A60FEF7E0
:103B5000B7FA386108E0FEF7B3FA02463B69D31AB8
:103B6000022B01D90323A1E12D4B1B6803F00203B3
:103B7000002BF0D02A4B1B6823F0F8027B685B69AE
:103B8000DB00274913430B6015E0264B00221A6027
:103B9000FEF796FA386108E0FEF792FA02463B69B2
:103BA000D31A022B01D9032380E11D4B1B6803F0BC
:103BB0000203002BF0D17B681B6803F00803002B85
:103BC0003AD07B689B69002B19D0174B01221A60F1
:103BD000FEF776FA386108E0FEF772FA02463B69B2
:103BE000D31A022B01D9032360E10D4B5B6A03F06A
:103BF0000203002BF0D0012000F0CEFA1CE00A4BAB
:103C000000221A60FEF75CFA38610FE0FEF758FAFE
:103C100002463B69D31A022B08D9032346E100BFB1
:103C2000001002400000424280044242924B5B6A14
:103C300003F00203002BE9D17B681B6803F0040347
:103C4000002B00F0A6800023FB758B4BDB6903F093
:103C50008053002B0DD1884BDB69874A43F080539A
:103C6000D361854BDB6903F08053BB60BB680123E4
:103C7000FB75824B1B6803F48073002B18D17F4BBC
:103C80001B687E4A43F480731360FEF719FA3861AB
:103C900008E0FEF715FA02463B69D31A642B01D9F6
:103CA000032303E1754B1B6803F48073002BF0D0F2
:103CB0007B68DB68012B06D16F4B1B6A6E4A43F0B1
:103CC000010313622DE07B68DB68002B0CD16A4B8B
:103CD0001B6A694A23F001031362674B1B6A664A39
:103CE00023F0040313621CE07B68DB68052B0CD116
:103CF000614B1B6A604A43F0040313625E4B1B6A0C
:103D00005D4A43F0010313620BE05B4B1B6A5A4AA6
:103D100023F001031362584B1B6A574A23F0040334
:103D200013627B68DB68002B15D0FEF7C9F9386198
:103D30000AE0FEF7C5F902463B69D31A41F2883220
:103D4000934201D90323B1E04B4B1B6A03F00203FA
:103D5000002BEED014E0FEF7B3F938610AE0FEF76D
:103D6000AFF902463B69D31A41F28832934201D936
:103D700003239BE0404B1B6A03F00203002BEED1B0
:103D8000FB7D012B05D13C4BDB693B4A23F0805383
:103D9000D3617B68DB69002B00F08780364B5B6862
:103DA00003F00C03082B61D07B68DB69022B46D142
:103DB000334B00221A60FEF783F9386108E0FEF702
:103DC0007FF902463B69D31A022B01D903236DE028
:103DD000294B1B6803F00073002BF0D17B681B6A32
:103DE000B3F5803F08D1244B5B6823F400327B6835
:103DF0009B68214913434B601F4B5B6823F474128B
:103E00007B68196A7B685B6A0B431B4913434B60F1
:103E10001B4B01221A60FEF753F9386108E0FEF7E8
:103E20004FF902463B69D31A022B01D903233DE027
:103E3000114B1B6803F00073002BF0D035E0104BE2
:103E400000221A60FEF73CF9386108E0FEF738F905
:103E500002463B69D31A022B01D9032326E0064B05
:103E60001B6803F00073002BF0D11EE07B68DB6958
:103E7000012B07D1012319E000100240007000401F
:103E8000600042420B4B5B68FB60FB6803F48032CE
:103E90007B681B6A9A4206D1FB6803F470127B6848
:103EA0005B6A9A4201D0012300E0002318461837CC
:103EB000BD4680BD0010024080B584B000AF786080
:103EC00039607B68002B01D10123D0E06A4B1B686D
:103ED00003F007033A689A4210D9674B1B6823F036
:103EE000070265493B6813430B60634B1B6803F093
:103EF00007033A689A4201D00123B8E07B681B6847
:103F000003F00203002B20D07B681B6803F004033E
:103F1000002B05D0594B5B68584A43F4E06353606B
:103F20007B681B6803F00803002B05D0534B5B68CC
:103F3000524A43F460535360504B5B6823F0F002E5
:103F40007B689B684D4913434B607B681B6803F09B
:103F50000103002B40D07B685B68012B07D1474BE6
:103F60001B6803F40033002B15D101237FE07B682D
:103F70005B68022B07D1414B1B6803F00073002BD9
:103F800009D1012373E03D4B1B6803F00203002BB2
:103F900001D101236BE0394B5B6823F003027B689E
:103FA0005B68364913434B60FEF78AF8F8600AE015
:103FB000FEF786F80246FB68D31A41F28832934234
:103FC00001D9032353E02D4B5B6803F00C027B689F
:103FD0005B689B009A42EBD1274B1B6803F00703F9
:103FE0003A689A4210D2244B1B6823F007022249F8
:103FF0003B6813430B60204B1B6803F007033A68D0
:104000009A4201D0012332E07B681B6803F004036D
:10401000002B08D0194B5B6823F4E0627B68DB68F7
:10402000164913434B607B681B6803F00803002BA1
:1040300009D0124B5B6823F460527B681B69DB007C
:104040000E4913434B6000F021F802460B4B5B68AE
:104050001B0903F00F030A49CB5C22FA03F3094A58
:104060001360094B1B681846FDF7E8FF002318464C
:104070001037BD4680BD00BF002002400010024046
:10408000B8960008080000200C00002080B487B01B
:1040900000AF0023FB600023BB6000237B61002393
:1040A0007B6000233B611E4B5B68FB60FB6803F099
:1040B0000C03042B02D0082B03D027E0194B3B61E3
:1040C00027E0FB689B0C03F00F03174AD35C7B606F
:1040D000FB6803F48033002B10D0114B5B685B0C42
:1040E00003F00103114AD35CBB607B680D4A03FBFC
:1040F00002F2BB68B2FBF3F37B6104E07B680C4A1D
:1041000002FB03F37B617B693B6102E0054B3B6192
:1041100000BF3B6918461C37BD4680BC704700BFD6
:104120000010024000127A00D0960008E0960008C5
:1041300000093D0080B400AF024B1B681846BD4625
:1041400080BC70470800002080B500AFFFF7F2FF89
:104150000246054B5B681B0A03F007030349CB5C6F
:1041600022FA03F3184680BD00100240C8960008EA
:1041700080B500AFFFF7DEFF0246054B5B68DB0A48
:1041800003F007030349CB5C22FA03F3184680BD12
:1041900000100240C896000880B485B000AF786077
:1041A0000A4B1B680A4AA2FB03235B0A7A6802FBDC
:1041B00003F3FB6000BFFB685A1EFA60002BF9D1C5
:1041C00000BF00BF1437BD4680BC70470800002008
:1041D000D34D621080B586B000AF786000233B619C
:1041E0000023FB607B681B6803F00103002B7DD07C
:1041F0000023FB754F4BDB6903F08053002B0DD17F
:104200004C4BDB694B4A43F08053D361494BDB692C
:1042100003F08053BB60BB680123FB75464B1B68F2
:1042200003F48073002B18D1434B1B68424A43F4BC
:1042300080731360FDF744FF386108E0FDF740FF2D
:1042400002463B69D31A642B01D903236DE03A4B34
:104250001B6803F48073002BF0D0364B1B6A03F409
:104260004073FB60FB68002B2ED07B685B6803F417
:104270004073FA689A4227D02E4B1B6A23F440738E
:10428000FB602E4B01221A602C4B00221A60294A37
:10429000FB681362FB6803F00103002B14D0FDF7E9
:1042A0000FFF38610AE0FDF70BFF02463B69D31AA6
:1042B00041F28832934201D9032336E01D4B1B6A39
:1042C00003F00203002BEED01A4B1B6A23F440725A
:1042D0007B685B68174913430B62FB7D012B05D19B
:1042E000144BDB69134A23F08053D3617B681B684E
:1042F00003F00203002B08D00E4B5B6823F440420E
:104300007B689B680B4913434B607B681B6803F019
:104310001003002B08D0074B5B6823F480027B68F6
:10432000DB68044913434B60002318461837BD4629
:1043300080BD00BF001002400070004040044242B7
:1043400080B588B000AF786000237B610023FB61FB
:1043500000233B610023FB600023BB617B68102BC3
:104360000AD07B68102B00F28A807B68012B45D035
:104370007B68022B75D082E0464B5B68FB60454B47
:104380001B6803F08073002B7BD0FB689B0C03F051
:104390000F03414AD35C3B61FB6803F48033002B7D
:1043A00015D03C4B5B685B0C03F001033B4AD35CCC
:1043B0007B61FB6803F48033002B0DD0384A7B69A6
:1043C000B2FBF3F23B6902FB03F3FB6104E03B69E0
:1043D000344A02FB03F3FB612E4B5B6803F480035A
:1043E000B3F5800F02D1FB69BB614AE0FB695B005A
:1043F0002D4AA2FB03235B08BB6142E0254B1B6AED
:10440000FB60FB6803F44073B3F5807F08D1FB6861
:1044100003F00203002B03D04FF40043BB611FE005
:10442000FB6803F44073B3F5007F09D1194B5B6A55
:1044300003F00203002B03D049F64043BB610FE0B9
:10444000FB6803F44073B3F5407F1CD1114B1B682C
:1044500003F40033002B16D04FF22443BB6112E06B
:1044600011E0FFF785FE02460A4B5B689B0B03F0E9
:10447000030301335B00B2FBF3F3BB6104E000BF55
:1044800002E000BF00E000BFBB6918462037BD4610
:1044900080BD00BF00100240E4960008F4960008BA
:1044A00000127A0000093D00ABAAAAAA80B582B02A
:1044B00000AF78607B68002B01D1012341E07B686D
:1044C00093F83D30DBB2002B06D17B68002283F8E5
:1044D0003C207868FDF750FD7B68022283F83D2080
:1044E0007B681A687B6804331946104600F05CFA52
:1044F0007B68012283F846207B68012283F83E20F6
:104500007B68012283F83F207B68012283F84020EA
:104510007B68012283F841207B68012283F84220D6
:104520007B68012283F843207B68012283F84420C2
:104530007B68012283F845207B68012283F83D20B7
:10454000002318460837BD4680BD000080B485B002
:1045500000AF78607B6893F83D30DBB2012B01D06F
:1045600001233AE07B68022283F83D207B681B68C8
:10457000DA687B681B6842F00102DA607B681B68BE
:10458000184A93420ED07B681B68B3F1804F09D064
:104590007B681B68144A934204D07B681B68134AEB
:1045A000934211D17B681B689B6803F00703FB6093
:1045B000FB68062B10D07B681B681A687B681B6839
:1045C00042F001021A6007E07B681B681A687B688A
:1045D0001B6842F001021A60002318461437BD46DA
:1045E00080BC7047002C01400004004000080040DF
:1045F00080B584B000AF78607B681B68DB68FB60C7
:104600007B681B681B69BB60BB6803F00203002B5F
:1046100020D0FB6803F00203002B1BD07B681B68D3
:104620006FF002021A617B6801221A777B681B68AF
:104630009B6903F00303002B03D0786800F098F91E
:1046400005E0786800F08BF9786800F09AF97B68EB
:1046500000221A77BB6803F00403002B20D0FB680C
:1046600003F00403002B1BD07B681B686FF004026F
:104670001A617B6802221A777B681B689B6903F4C6
:104680004073002B03D0786800F072F905E0786879
:1046900000F065F9786800F074F97B6800221A77F9
:1046A000BB6803F00803002B20D0FB6803F008036D
:1046B000002B1BD07B681B686FF008021A617B68B7
:1046C00004221A777B681B68DB6903F00303002B65
:1046D00003D0786800F04CF905E0786800F03FF905
:1046E000786800F04EF97B6800221A77BB6803F007
:1046F0001003002B20D0FB6803F01003002B1BD00D
:104700007B681B686FF010021A617B6808221A77B9
:104710007B681B68DB6903F44073002B03D0786867
:1047200000F026F905E0786800F019F9786800F0E3
:1047300028F97B6800221A77BB6803F00103002B7D
:104740000CD0FB6803F00103002B07D07B681B68CB
:104750006FF001021A617868FDF73CFABB6803F05C
:104760008003002B0CD0FB6803F08003002B07D0E4
:104770007B681B686FF080021A61786800F07FFA2E
:10478000BB6803F04003002B0CD0FB6803F0400330
:10479000002B07D07B681B686FF040021A617868B5
:1047A00000F0F8F8BB6803F02003002B0CD0FB6886
:1047B00003F02003002B07D07B681B686FF02002FA
:1047C0001A61786800F052FA00BF1037BD4680BD0C
:1047D00080B584B000AF786039600023FB737B68DC
:1047E00093F83C30012B01D10223B4E07B68012215
:1047F00083F83C207B68022283F83D207B681B689D
:104800009B68BB60BB6823F07703BB60BB6823F485
:104810007F43BB607B681B68BA689A603B681B6813
:10482000B3F5005F3ED0B3F5005F00F28780B3F5CB
:10483000805F00F08680B3F5805F7FD8702B1AD040
:10484000702B7BD8602B50D0602B77D8502B3CD06E
:10485000502B73D8402B58D0402B6FD8302B64D0BE
:10486000302B6BD8202B60D0202B67D8002B5CD04E
:10487000102B5AD062E07B6818683B6899683B68E7
:104880005A683B68DB6800F074F97B681B689B68BA
:10489000BB60BB6843F07703BB607B681B68BA688A
:1048A0009A604FE07B6818683B6899683B685A6873
:1048B0003B68DB6800F05DF97B681B689A687B6881
:1048C0001B6842F480429A603CE07B6818683B6851
:1048D00059683B68DB681A4600F0D4F87B681B68AF
:1048E0005021184600F02BF92CE07B6818683B68D3
:1048F00059683B68DB681A4600F0F2F87B681B6871
:104900006021184600F01BF91CE07B6818683B68C2
:1049100059683B68DB681A4600F0B4F87B681B688E
:104920004021184600F00BF90CE07B681A683B68E0
:104930001B681946104600F002F903E00123FB73DF
:1049400000E000BF7B68012283F83D207B680022E5
:1049500083F83C20FB7B18461037BD4680BD80B4F1
:1049600083B000AF786000BF0C37BD4680BC704795
:1049700080B483B000AF786000BF0C37BD4680BC08
:10498000704780B483B000AF786000BF0C37BD467D
:1049900080BC704780B483B000AF786000BF0C3734
:1049A000BD4680BC7047000080B485B000AF786021
:1049B00039607B681B68FB607B682F4A93420BD091
:1049C0007B68B3F1804F07D07B682C4A934203D0B9
:1049D0007B682B4A934208D1FB6823F07003FB608D
:1049E0003B685B68FA681343FB607B68224A93422A
:1049F0000BD07B68B3F1804F07D07B681F4A93428E
:104A000003D07B681E4A934208D1FB6823F44073AD
:104A1000FB603B68DB68FA681343FB60FB6823F0CC
:104A200080023B685B691343FB607B68FA681A602D
:104A30003B689A687B68DA623B681A687B689A62AE
:104A40007B680D4A934203D13B681A697B681A63FD
:104A50007B6801225A617B681B6903F00103002B0C
:104A600005D07B681B6923F001027B681A6100BFD7
:104A70001437BD4680BC7047002C01400004004044
:104A80000008004080B487B000AFF860B9607A6079
:104A9000FB681B6A7B61FB681B6A23F00102FB68F1
:104AA0001A62FB689B693B613B6923F0F0033B6141
:104AB0007B681B013A6913433B617B6923F00A035E
:104AC0007B617A69BB6813437B61FB683A699A61D1
:104AD000FB687A691A6200BF1C37BD4680BC70470C
:104AE00080B487B000AFF860B9607A60FB681B6A79
:104AF0007B61FB681B6A23F01002FB681A62FB688B
:104B00009B693B613B6923F470433B617B681B03FA
:104B10003A6913433B617B6923F0A0037B61BB6867
:104B20001B017A6913437B61FB683A699A61FB68F0
:104B30007A691A6200BF1C37BD4680BC704780B4DA
:104B400085B000AF786039607B689B68FB60FB686C
:104B500023F07003FB603A68FB68134343F00703DC
:104B6000FB607B68FA689A6000BF1437BD4680BC62
:104B7000704780B487B000AFF860B9607A603B607E
:104B8000FB689B687B617B6923F47F437B613B68A7
:104B90001A027B681A43BB6813437A6913437B612B
:104BA000FB687A699A6000BF1C37BD4680BC7047BD
:104BB00080B485B000AF786039607B6893F83C3092
:104BC000012B01D1022346E07B68012283F83C20BF
:104BD0007B68022283F83D207B681B685B68FB6072
:104BE0007B681B689B68BB60FB6823F07003FB60FD
:104BF0003B681B68FA681343FB607B681B68FA68B4
:104C00005A607B681B68164A93420ED07B681B680B
:104C1000B3F1804F09D07B681B68124A934204D0DD
:104C20007B681B68104A93420CD1BB6823F0800359
:104C3000BB603B685B68BA681343BB607B681B68FA
:104C4000BA689A607B68012283F83D207B68002265
:104C500083F83C20002318461437BD4680BC7047BB
:104C6000002C0140000400400008004080B483B0E4
:104C700000AF786000BF0C37BD4680BC704780B481
:104C800083B000AF786000BF0C37BD4680BC704772
:104C9000002B2DE9F0471D46BBBF03F100431D4625
:104CA00000232D2388B01446B8BF1446129A109ED4
:104CB0001370149BDDF84CA023F02008B8F1460FC8
:104CC00005D0B8F1450F00D10136022300E00323DF
:104CD00007AA049206AACDE902A2CDE9003622462F
:104CE0002B4601F0B1F8B8F1470F074619D1119BD7
:104CF000DB070ED500EB06090022002320462946DB
:104D0000FBF752FE08B1CDF81C903022079B4B45B3
:104D10001ED33846079B159ADB1B136008B0BDE80D
:104D2000F087B8F1460F00EB0609E5D10378302B88
:104D30000AD10022002320462946FBF735FE18B988
:104D4000C6F10106CAF80060DAF800309944D3E7EA
:104D5000591C07911A70D9E7F7B50029B6BF2D2362
:104D60002B23494209290270437029DD0DF1070305
:104D70001D460A27B1FBF7F61A4607FB1614303416
:104D800002F8014C0C46632C314603F1FF33F1DC91
:104D90003031941E03F8011C2346411CAB420AD358
:104DA0000DF109039B1AAC4288BF00230233034470
:104DB000181A03B0F0BD13F8016B01F8016FEDE7AD
:104DC000302330318370C170031DF1E72DE9F04FBE
:104DD00091B00C46DDF8688016461F46054600F087
:104DE00021FF036818460893FBF7B2F900230E93DE
:104DF000D8F800300990073323F0070303F10802C5
:104E000094F818A0D4F800B0C8F80020D3E90089BD
:104E100029F000430B93CDF828804FF0FF32DDE9F5
:104E20000A01C4E912899C4BFBF7F0FD70BBDDE978
:104E30000A014FF0FF32984BFBF7CAFD30BB00224E
:104E4000002340464946FBF7B9FD10B12D2384F8F5
:104E50004330924A924BBAF1470F8CBF9046984626
:104E600003234FF0000923612BF004032360334632
:104E70002146284600970FAA00F0D4F9013040F0EF
:104E800090804FF0FF3011B0BDE8F08F42464B46A6
:104E900040464946FBF7BAFD48B14B46002BB8BF28
:104EA0002D23804AB8BF84F843307F4BD3E7636833
:104EB0000AF0DF015A1C3FD10623636000224BF445
:104EC0008063236006920EAACDE904A20DAA039284
:104ED0000DF13302CDE90132636842460093284662
:104EE0004B460A91FFF7D4FE0A99804647290D994F
:104EF00028D1C81C02DB6368994240DDAAF1020A8E
:104F00005FFA8AFA5246013904F150000D91FFF719
:104F100023FF0E9A81461318012A236102DC2268BE
:104F2000D20701D5013323619DF83330002B9ED089
:104F30002D2384F843309AE74729BFD1002BBDD1F8
:104F40000123BAE7BAF1650FDCD9BAF1660F18D1BF
:104F5000002963680BDD216113B92268D00702D5EF
:104F600001330B4423614FF00009A165DCE713B95D
:104F70002268D20701D50233F4E70123F2E74FF0AC
:104F8000670A0E9B994205DB23682161D807EAD5A1
:104F90004B1CE7E70029CCBF0122C1F102021344F8
:104FA000E0E723685A0507D423694246314628467C
:104FB000B84701302BD164E7BAF1650F40F2DC80CD
:104FC000D4E9120100220023FBF7EEFC002833D0C5
:104FD000012331462846354AB84701303FF451AFE6
:104FE000DDE90D38434502DB2368D8070FD5DDE93D
:104FF000082331462846B84701303FF442AF4FF00E
:10500000000908F1FF3804F11A0AC84509DC2368D1
:105010009B0700F10281E0680F9B9842B8BF1846D9
:1050200031E70123524631462846B84701303FF464
:1050300028AF09F10109E8E70D9B002B38DC0123BB
:1050400031462846194AB84701303FF41AAFDDE926
:105050000D3959EA030302D12368D907D7D5DDE911
:10506000082331462846B84701303FF40AAF4FF0D5
:10507000000A04F11A0B0D9B5B42534501DC4B46C1
:1050800093E701235A4631462846B84701303FF49A
:10509000F8AE0AF1010AEEE7FFFFEF7FFA9600088B
:1050A000F696000802970008FE960008069700088A
:1050B000A36DDDF838A05345A8BF5346002B994691
:1050C00036DC4FF0000B29EAE97904F11A02A36DEE
:1050D0000A93A3EB09035B4531DC0D9B9A453ADC4F
:1050E0002368DA0737D40D9BAAEB03090A9BAAEBC6
:1050F00003039945A8BF9946B9F1000F33DC4FF07F
:10510000000829EAE97904F11A0B0D9BAAEB0303C5
:10511000A3EB090343457FF77AAF01235A46314693
:105120002846B84701303FF4ACAE08F10108ECE77F
:10513000424631462846B8470130C2D1A1E6012394
:10514000314628460A92B84701303FF49AAE0A9A8F
:105150000BF1010BBBE73146DDE908232846B847D0
:105160000130C0D18DE60A9A4B463146284642446A
:10517000B8470130C3D184E6DDF838A0BAF1010F99
:1051800001DCDB0736D50123424631462846B847C5
:1051900001303FF476AEDDE9082331462846B847B2
:1051A00001303FF46EAED4E91201002200230AF16F
:1051B000FF3AFBF7F9FBC0B9534608F1010231464B
:1051C0002846B84701300CD15BE601235A463146E8
:1051D0002846B84701303FF454AE08F10108D045E5
:1051E000F3DB4B4604F15002E0E64FF0000804F117
:1051F0001A0BF4E701234246E1E701234A46314610
:105200002846B84701303FF43CAE08F10108E36896
:105210000F995B1A4345F0DCFDE64FF0000804F1FE
:105220001909F4E72DE9F047164698468A680B6994
:1052300007469342B8BF1346336091F843200C46AB
:10524000DDF820900AB1013333602368990642BF2C
:10525000336802333360256815F0060506D104F182
:10526000190AE36832689B1AAB422BDC94F843308E
:105270002268003B18BF0123920630D441463846CD
:1052800004F14302C847013023D02368226903F0A8
:105290000603042B14BF002533684FF0000608BF37
:1052A000E56804F11A0408BFED1A54F8123C08BF6F
:1052B00025EAE5759342C4BF9B1AED18B5421AD191
:1052C000002008E00123524641463846C8470130D5
:1052D00003D14FF0FF30BDE8F0870135C1E7302042
:1052E000E11881F843005A1C94F845102244023317
:1052F00082F84310C2E70123224641463846C84798
:105300000130E6D00136D9E72DE9FF470F7E9146FF
:10531000782F80460C469A460C9E01F1430207D82E
:10532000622F0AD8002F00F0D180582F00F0B880EB
:1053300004F1420684F842703AE0A7F16303152BAA
:10534000F6D801A151F823F0A1530008B553000885
:10535000315300083153000831530008315300081D
:10536000B553000831530008315300083153000889
:1053700031530008B3540008DF5300086D5400088F
:105380003153000831530008D55400083153000848
:10539000DF530008315300083153000875540008EA
:1053A00033681A1D1B68326004F1420684F84230EB
:1053B00001239CE033682068191D3160060601D581
:1053C0001D6803E04506FBD5B3F90050002D03DA54
:1053D0002D236D4284F843300A23584811E0216898
:1053E0003368080653F8045B02D4490648BFADB2DF
:1053F0006F2F336014BF0A2308235048002184F81C
:1054000043106668002EA66005DB21682E4321F05C
:10541000040121604BD01646B5FBF3F103FB115795
:10542000C75D06F8017D2F46BB420D46F4D9082B17
:105430000BD12368DF0708D5236961689942DEBF75
:10544000302306F8013C06F1FF36921B22614B46E1
:1054500021464046CDF800A003AAFFF7E3FE013045
:105460004AD14FF0FF3004B0BDE8F087236843F025
:10547000200323607827324884F845702368316818
:105480001F0651F8045B02D45F0648BFADB231601D
:10549000D90744BF43F0200323601DB11023ADE7BB
:1054A0002648E9E7236823F020032360F6E7164641
:1054B000BDE733682568181D616930602E061B68DA
:1054C00001D5196002E06806FBD519800023164655
:1054D0002361BCE7336800211A1D32601E686268D0
:1054E000304600F016FC08B1801B606063682361E1
:1054F000002384F84330AAE73246494640462369F0
:10550000D0470130ADD023689B0713D4E068039BDC
:105510009842B8BF1846A6E701233246494640469E
:10552000D04701309DD00135E36803995B1AAB4247
:10553000F2DCEBE7002504F11906F5E7089700080F
:10554000199700082DE9F04F87B003938B689146B7
:105550005A1EB2F5AE7F82BF6FF4AE7503EB050B3A
:1055600040F25D130A464FF0000588BF8B600B6860
:10557000804643F4F06342F81C3B0C4698BF4FF062
:10558000000B1646AA462F46CDE904550192029516
:10559000A2685AB1D9F800301B784E2B62D8402B44
:1055A0003AD8A3F12B01C8B20E2838D91FB123680D
:1055B00023F4807323600AF1FF3ABAF1010F00F27D
:1055C0001481019B9E4200F20581012007B0BDE8D5
:1055D000F08FA3F161020D2AE8D801A151F822F061
:1055E00029570008AD550008AD550008AD55000815
:1055F000855700085F570008AD550008AD550008F5
:1056000037570008AD550008AD550008AD550008E6
:10561000AD550008F3560008A3F14102DBE70E295F
:10562000C4D801A050F821F0E3560008AD55000899
:10563000E356000873570008AD550008855600086A
:10564000C9560008C9560008C9560008C9560008BE
:10565000C9560008C9560008C9560008C9560008AE
:10566000C95600086E2B09D8602BB2D8542B7BD0BA
:10567000592B9BD1072D99D108252FE0742B73D07E
:10568000792BF6E72168C8051ED521F0800121603D
:105690000137BBF1000F03D001320BF1FF3BA260D9
:1056A000A368013BA360236901332361D9F8043067
:1056B000013B002BC9F8043040F38380D9F8003057
:1056C0000133C9F8003063E71AEB05017FF46EAFD0
:1056D0000D468A46226822F4C072226006F8013B19
:1056E000DEE7226810067FF561AF22F080022260BB
:1056F000F4E7BAF1000F0CD177B9226802F4E06147
:10570000B1F5E06F08D122F4F0624FF0010A226097
:10571000E4E7BAF1020F51D0012D02D0042D7FF43D
:1057200045AF0135EDB2D9E7BAF1010F7FF43EAFD5
:105730004FF0020AD2E775B9002F7FF438AF226824
:1057400002F4E061B1F5E06F40F0FF8022F4F06216
:1057500001252260C2E7032DE3D0052DDFE7022DEE
:105760007FF424AF0325B9E7062D7FF41FAF07258B
:10577000B4E7226891057FF519AF22F42072226008
:105780000297ABE7226802F4A061B1F5806F05D003
:1057900050057FF50BAF002F00F0D780910558BF63
:1057A000029922F4F06258BF791A42F4C0724FF0A5
:1057B000000758BFCDE9041622608FE74FF0030AB7
:1057C0008CE749464046D4F88031984700283FF49A
:1057D000DFAEEBE6D4F87C314A46404616F8011DB0
:1057E00098472369013B2361EBE66B1E062B24D807
:1057F000022D36D8019B9E427FF6E7AED4F87C316D
:105800004A46404616F8011D98472369013B23612B
:10581000F0E7D4F87C314A4640461BF8011D984712
:105820002369013B23610AF1FF3A5FFA8AFABAF170
:10583000020FEED1033DEDB2761B2368DA0530D5B9
:105840005B0511D5019B9E427FF6BFAED4F87C313B
:105850004A46404616F8011D98472369013B2361DB
:10586000F0E7AA46B346DEE716F8011C236965296E
:1058700003F1FF3306F1FF3523610CD045290AD02F
:10588000D4F87C314A4640469847236916F8021CF2
:10589000013BB51E23614A464046D4F87C31984707
:1058A0002E46226812F0100201D000208EE63270DF
:1058B000236803F4C063B3F5806F25D1029B9F4238
:1058C0000AD0DA1B04F26F139E4228BF04F5B776A4
:1058D00030461F4900F038F900224046019902F095
:1058E0001FFC039B25681B6815F0020F06460F4638
:1058F00003F1040215D003990A601B68C3E900672D
:10590000E3680133E360D0E7049B002BE4D0059902
:105910000A234046013102F083FC049B059EC21A13
:10592000D0E76D07E7D4039D2A601D6802460B4649
:10593000FBF76CF820B1074800F0FAF92860DFE7C0
:1059400030463946FBF7C0F8F8E7002733E600BFDA
:105950002A9700086B980008002310B50446C0E998
:105960000033C0E90433836081814366C28183616F
:10597000194608225C3000F04CF90D4B246263623A
:105980000C4BA3620C4BE3620C4B23630C4B9C420D
:1059900006D003F16802944202D0D0339C4205D174
:1059A00004F15800BDE8104000F0B0B910BD00BFD0
:1059B0008D5B0008AF5B0008E75B00080B5C00082C
:1059C000E4020020024A0349034800F069B800BF1E
:1059D00014000020D58500082400002041680C4BED
:1059E00010B59942044601D002F0F4FDA168094BBC
:1059F000994202D0204602F0EDFDE168064B994243
:105A000004D02046BDE8104002F0E4BD10BD00BF48
:105A1000E40200204C030020B403002010B50B4B1F
:105A20000B4C0C4A20461A6004210022FFF794FF19
:105A300004F1680001220921FFF78EFF04F1D00074
:105A40000222BDE810401221FFF786BF1C0400208F
:105A5000E4020020C5590008014800F058B900BF11
:105A600025040020014800F053B900BF25040020A0
:105A700010B50446FFF7F0FF236A1BB1BDE81040E4
:105A8000FFF7F0BF044B2362044B1B68002BF5D1DA
:105A9000FFF7C4FFF2E700BFDD5900081C04002037
:105AA0002DE9F8430746884614460026D4E90195B7
:105AB000B9F1010905D52468002CF7D13046BDE8BD
:105AC000F883AB89012B07D9B5F90E30013303D028
:105AD00029463846C04706436835E9E70CB430B577
