:020000040800F2
:10000000005000200949000809410008114100087A
:1000100019410008214100082941000800000000A2
:100020000000000000000000000000003141000856
:100030003D4100080000000049410008554100080A
:100040005149000851490008514900085149000828
:100050005149000851490008514900085149000818
:100060005149000851490008514900086141000800
:1000700051490008514900087541000851490008DC
:1000800051490008514900085149000851490008E8
:1000900051490008514900085149000851490008D8
:1000A00051490008514900085149000851490008C8
:1000B0005149000889410008514900085149000888
:1000C00051490008514900085149000851490008A8
:1000D00051490008454200085149000851490008AB
:1000E0005942000851490008514900080000000029
:1000F0000000000000000000000000000000000000
:0C01000000000000000000005FF808F1A3
:1001100010B5054C237833B9044B13B10448AFF341
:1001200000800123237010BDC005002000000000E6
:1001300094E1000808B5034B1BB103490348AFF332
:10014000008008BD00000000C405002094E1000804
:10015000034613F8012B002AFBD1181A0138704707
:1001600081F0004102E000BF83F0004330B54FEA68
:1001700041044FEA430594EA050F08BF90EA020FD5
:100180001FBF54EA000C55EA020C7FEA645C7FEA68
:10019000655C00F0E2804FEA5454D4EB5555B8BF8B
:1001A0006D420CDD2C4480EA020281EA030382EAFC
:1001B000000083EA010180EA020281EA0303362D8E
:1001C00088BF30BD11F0004F4FEA01314FF4801C61
:1001D0004CEA113102D0404261EB410113F0004F73
:1001E0004FEA03334CEA133302D0524263EB43032A
:1001F00094EA050F00F0A780A4F10104D5F1200EC8
:100200000DDB02FA0EFC22FA05F2801841F1000122
:1002100003FA0EF2801843FA05F359410EE0A5F1F6
:1002200020050EF1200E012A03FA0EFC28BF4CF027
:10023000020C43FA05F3C01851EBE37101F00045DD
:1002400007D54FF0000EDCF1000C7EEB00006EEBEA
:100250000101B1F5801F1BD3B1F5001F0CD3490874
:100260005FEA30004FEA3C0C04F101044FEA4452CB
:1002700012F5800F80F09A80BCF1004F08BF5FEA52
:10028000500C50F1000041EB045141EA050130BD32
:100290005FEA4C0C404141EB0101013C28BFB1F544
:1002A000801FE9D291F0000F04BF01460020B1FA8F
:1002B00081F308BF2033A3F10B03B3F120020CDA62
:1002C0000C3208DD02F1140CC2F10C0201FA0CF040
:1002D00021FA02F10CE002F11402D8BFC2F1200CA5
:1002E00001FA02F120FA0CFCDCBF41EA0C0190405B
:1002F000E41AA2BF01EB0451294330BD6FEA0404A4
:100300001F3C1CDA0C340EDC04F11404C4F120028E
:1003100020FA04F001FA02F340EA030021FA04F3A0
:1003200045EA030130BDC4F10C04C4F1200220FAF7
:1003300002F001FA04F340EA0300294630BD21FA35
:1003400004F0294630BD94F0000F83F4801306BFFB
:1003500081F480110134013D4EE77FEA645C18BFEF
:100360007FEA655C29D094EA050F08BF90EA020F86
:1003700005D054EA000C04BF1946104630BD91EA7E
:10038000030F1EBF0021002030BD5FEA545C05D181
:100390004000494128BF41F0004130BD14F58004C0
:1003A0003CBF01F5801130BD01F0004545F0FE4134
:1003B00041F470014FF0000030BD7FEA645C1ABF69
:1003C000194610467FEA655C1CBF0B46024650EAA0
:1003D000013406BF52EA033591EA030F41F40021CC
:1003E00030BD00BF90F0000F04BF0021704730B552
:1003F0004FF4806404F132044FF000054FF0000127
:1004000050E700BF90F0000F04BF0021704730B5E7
:100410004FF4806404F1320410F0004548BF4042BC
:100420004FF000013EE700BF42004FEAE2014FEA11
:1004300031014FEA02701FBF12F07F4393F07F4FEC
:1004400081F06051704732F07F4208BF704793F0EF
:100450007F4F04BF41F40021704730B54FF4607402
:1004600001F0004521F000411CE700BF50EA010205
:1004700008BF704730B54FF000050AE050EA0102AE
:1004800008BF704730B511F0004502D5404261EB1E
:1004900041014FF4806404F132045FEA915C3FF45F
:1004A000D8AE4FF003025FEADC0C18BF03325FEAFC
:1004B000DC0C18BF033202EBDC02C2F1200300FAAD
:1004C00003FC20FA02F001FA03FE40EA0E0021FAD2
:1004D00002F11444BDE600BF70B54FF0FF0C4CF4C0
:1004E000E06C1CEA11541DBF1CEA135594EA0C0F72
:1004F00095EA0C0F00F0DEF82C4481EA030621EAAD
:100500004C5123EA4C5350EA013518BF52EA0335E7
:1005100041F4801143F4801338D0A0FB02CE4FF099
:100520000005E1FB02E506F00042E0FB03E54FF0C9
:100530000006E1FB03569CF0000F18BF4EF0010EC1
:10054000A4F1FF04B6F5007F64F5407404D25FEABD
:100550004E0E6D4146EB060642EAC62141EA555170
:100560004FEAC52040EA5E504FEACE2EB4F1FD0CB2
:1005700088BFBCF5E06F1ED8BEF1004F08BF5FEA30
:10058000500E50F1000041EB045170BD06F00046E2
:1005900046EA010140EA020081EA0301B4EB5C048F
:1005A000C2BFD4EB0C0541EA045170BD41F4801187
:1005B0004FF0000E013C00F3AB8014F1360FDEBFAC
:1005C000002001F0004170BDC4F10004203C35DA88
:1005D0000C341BDC04F11404C4F1200500FA05F30B
:1005E00020FA04F001FA05F240EA020001F00042AC
:1005F00021F0004110EBD37021FA04F642EB060122
:100600005EEA430E08BF20EAD37070BDC4F10C044B
:10061000C4F1200500FA04F320FA05F001FA04F20F
:1006200040EA020001F0004110EBD37041F10001FB
:100630005EEA430E08BF20EAD37070BDC4F1200506
:1006400000FA05F24EEA020E20FA04F301FA05F26E
:1006500043EA020321FA04F001F0004121FA04F216
:1006600020EA020000EBD3705EEA430E08BF20EAE6
:10067000D37070BD94F0000F0FD101F00046400020
:1006800041EB010111F4801F08BF013CF7D041EAA2
:10069000060195F0000F18BF704703F000465200A6
:1006A00043EB030313F4801F08BF013DF7D043EA77
:1006B0000603704794EA0C0F0CEA135518BF95EA2D
:1006C0000C0F0CD050EA410618BF52EA4306D1D1B4
:1006D00081EA030101F000414FF0000070BD50EAD3
:1006E000410606BF1046194652EA430619D094EA5D
:1006F0000C0F02D150EA013613D195EA0C0F05D147
:1007000052EA03361CBF104619460AD181EA03019A
:1007100001F0004141F0FE4141F470014FF0000052
:1007200070BD41F0FE4141F4780170BD70B54FF0ED
:10073000FF0C4CF4E06C1CEA11541DBF1CEA13556D
:1007400094EA0C0F95EA0C0F00F0A7F8A4EB05044F
:1007500081EA030E52EA03354FEA013100F0888046
:100760004FEA03334FF0805545EA131343EA12630F
:100770004FEA022245EA111545EA10654FEA0026C4
:100780000EF000419D4208BF964244F1FD0404F57D
:10079000407402D25B084FEA3202B61A65EB0305D9
:1007A0005B084FEA32024FF480104FF4002CB6EB96
:1007B000020E75EB030E22BFB61A754640EA0C0016
:1007C0005B084FEA3202B6EB020E75EB030E22BF56
:1007D000B61A754640EA5C005B084FEA3202B6EB97
:1007E000020E75EB030E22BFB61A754640EA9C0056
:1007F0005B084FEA3202B6EB020E75EB030E22BF26
:10080000B61A754640EADC0055EA060E18D04FEAE3
:10081000051545EA16754FEA06164FEAC30343EA83
:1008200052734FEAC2025FEA1C1CC0D111F4801F50
:100830000BD141EA00014FF000004FF0004CB6E749
:1008400011F4801F04BF01430020B4F1FD0C88BFE8
:10085000BCF5E06F3FF6AFAEB5EB030C04BFB6EBF3
:10086000020C5FEA500C50F1000041EB045170BDE6
:100870000EF0004E4EEA113114EB5C04C2BFD4EB13
:100880000C0541EA045170BD41F480114FF0000E97
:10089000013C90E645EA060E8DE60CEA135594EA13
:1008A0000C0F08BF95EA0C0F3FF43BAF94EA0C0F16
:1008B0000AD150EA01347FF434AF95EA0C0F7FF48B
:1008C00025AF104619462CE795EA0C0F06D152EADF
:1008D00003353FF4FDAE1046194622E750EA4106C3
:1008E00018BF52EA43067FF4C5AE50EA41047FF4D4
:1008F0000DAF52EA43057FF4EBAE12E74FF0FF3C39
:1009000006E000BF4FF0010C02E000BF4FF0010C09
:100910004DF804CD4FEA410C7FEA6C5C4FEA430C82
:1009200018BF7FEA6C5C1BD001B050EA410C0CBFD1
:1009300052EA430C91EA030F02BF90EA020F002033
:10094000704710F1000F91EA030F58BF994208BF9A
:1009500090422CBFD8176FEAE37040F00100704757
:100960004FEA410C7FEA6C5C02D150EA013C07D1AE
:100970004FEA430C7FEA6C5CD6D152EA033CD3D0F9
:100980005DF8040B704700BF8446104662468C46F3
:100990001946634600E000BF01B5FFF7B7FF002826
:1009A00048BF10F1000F01BD4DF808EDFFF7F4FF4F
:1009B0000CBF012000205DF808FB00BF4DF808EDDA
:1009C000FFF7EAFF34BF012000205DF808FB00BFFD
:1009D0004DF808EDFFF7E0FF94BF012000205DF81F
:1009E00008FB00BF4DF808EDFFF7CEFF94BF0120D4
:1009F00000205DF808FB00BF4DF808EDFFF7C4FFCD
:100A000034BF012000205DF808FB00BF4FEA410C15
:100A10007FEA6C5C02D150EA013C0AD14FEA430CF8
:100A20007FEA6C5C02D152EA033C02D14FF0000035
:100A300070474FF0010070474FEA410212F5001273
:100A400015D211D56FF47873B3EB625212D94FEA15
:100A5000C12343F0004343EA505311F0004F23FAFF
:100A600002F018BF404270474FF00000704750EA54
:100A7000013005D111F0004008BF6FF00040704711
:100A80004FF00000704700BF4A0011D212F500126B
:100A900011D20DD56FF47873B3EB62520ED44FEAD6
:100AA000C12343F0004343EA505323FA02F0704756
:100AB0004FF00000704750EA013002D14FF0FF3094
:100AC00070474FF0000070474FEA4102B2F1E04337
:100AD00024BFB3F5001CDCF1FE5C0DD901F0004C25
:100AE0004FEAC0024CEA5070B2F1004F40EB830075
:100AF00008BF20F00100704711F0804F21D113F1A1
:100B00003872BCBF01F00040704741F480114FEAD9
:100B10005252C2F11802C2F1200C10FA0CF320FA62
:100B200002F018BF40F001004FEAC1234FEAD3237F
:100B300003FA0CFC40EA0C0023FA02F34FEA4303E9
:100B4000CCE77FEA625307D150EA01331EBF4FF072
:100B5000FE4040F44000704701F0004040F0FE408D
:100B600040F40000704700BF80F0004002E000BF8A
:100B700081F0004142001FBF5FEA410392EA030F88
:100B80007FEA226C7FEA236C6AD04FEA1262D2EBD2
:100B90001363C1BFD218414048404140B8BF5B42D7
:100BA000192B88BF704710F0004F40F4000020F070
:100BB0007F4018BF404211F0004F41F4000121F086
:100BC0007F4118BF494292EA030F3FD0A2F10102D0
:100BD00041FA03FC10EB0C00C3F1200301FA03F10E
:100BE00000F0004302D5494260EB4000B0F5000F31
:100BF00013D3B0F1807F06D340084FEA310102F1F0
:100C00000102FE2A51D2B1F1004F40EBC25008BFA1
:100C100020F0010040EA03007047490040EB00006B
:100C2000013A28BFB0F5000FEDD2B0FA80FCACF16C
:100C3000080CB2EB0C0200FA0CF0AABF00EBC25099
:100C400052421843BCBFD0401843704792F0000F87
:100C500081F4000106BF80F400000132013BB5E7DA
:100C60004FEA41037FEA226C18BF7FEA236C21D050
:100C700092EA030F04D092F0000F08BF08467047B5
:100C800090EA010F1CBF0020704712F07F4F04D183
:100C9000400028BF40F00040704712F100723CBF96
:100CA00000F50000704700F0004343F0FE4040F4C0
:100CB000000070477FEA226216BF08467FEA23637E
:100CC0000146420206BF5FEA412390EA010F40F469
:100CD000800070474FF0000304E000BF10F00043B5
:100CE00048BF40425FEA000C08BF704743F096439C
:100CF00001464FF000001CE050EA010208BF7047B7
:100D00004FF000030AE000BF50EA010208BF70473D
:100D100011F0004302D5404261EB41015FEA010C52
:100D200002BF84460146002043F0B64308BFA3F14A
:100D30008053A3F50003BCFA8CF2083AA3EBC2532C
:100D400010DB01FA02FC634400FA02FCC2F120024B
:100D5000BCF1004F20FA02F243EB020008BF20F082
:100D60000100704702F1200201FA02FCC2F12002E8
:100D700050EA4C0021FA02F243EB020008BF20EADD
:100D8000DC7070474FF0FF0C1CEAD0521EBF1CEA0B
:100D9000D15392EA0C0F93EA0C0F6FD01A4480EAF9
:100DA000010C400218BF5FEA41211ED04FF00063E2
:100DB00043EA501043EA5111A0FB01310CF000400E
:100DC000B1F5000F3EBF490041EAD3715B0040EA34
:100DD000010062F17F02FD2A1DD8B3F1004F40EB04
:100DE000C25008BF20F00100704790F0000F0CF0D7
:100DF000004C08BF49024CEA502040EA51207F3A9B
:100E0000C2BFD2F1FF0340EAC250704740F4000075
:100E10004FF00003013A5DDC12F1190FDCBF00F066
:100E200000407047C2F10002410021FA02F1C2F114
:100E3000200200FA02FC5FEA310040F1000053EAB0
:100E40004C0308BF20EADC70704792F0000F00F0FE
:100E5000004C02BF400010F4000F013AF9D040EA04
:100E60000C0093F0000F01F0004C02BF490011F498
:100E7000000F013BF9D041EA0C018FE70CEAD15396
:100E800092EA0C0F18BF93EA0C0F0AD030F0004C16
:100E900018BF31F0004CD8D180EA010000F00040CA
:100EA000704790F0000F17BF90F0004F084691F088
:100EB000000F91F0004F14D092EA0C0F01D14202C2
:100EC0000FD193EA0C0F03D14B0218BF084608D18B
:100ED00080EA010000F0004040F0FE4040F40000D5
:100EE000704740F0FE4040F4400070474FF0FF0C68
:100EF0001CEAD0521EBF1CEAD15392EA0C0F93EAAF
:100F00000C0F69D0A2EB030280EA010C49024FEA00
:100F1000402037D04FF0805343EA111143EA1013B9
:100F20000CF000408B4238BF5B0042F17D024FF471
:100F3000000C8B4224BF5B1A40EA0C00B3EB510F4C
:100F400024BFA3EB510340EA5C00B3EB910F24BF35
:100F5000A3EB910340EA9C00B3EBD10F24BFA3EBBA
:100F6000D10340EADC001B0118BF5FEA1C1CE0D182
:100F7000FD2A3FF650AF8B4240EBC25008BF20F035
:100F8000010070470CF0004C4CEA50207F32C2BF89
:100F9000D2F1FF0340EAC250704740F400004FF026
:100FA0000003013A37E792F0000F00F0004C02BF57
:100FB000400010F4000F013AF9D040EA0C0093F021
:100FC000000F01F0004C02BF490011F4000F013B7B
:100FD000F9D041EA0C0195E70CEAD15392EA0C0FE3
:100FE00008D142027FF47DAF93EA0C0F7FF470AF1B
:100FF000084676E793EA0C0F04D14B023FF44CAF5E
:1010000008466EE730F0004C18BF31F0004CCAD1F2
:1010100030F000427FF45CAF31F000437FF43CAF2E
:101020005FE700BF4FF0FF3C06E000BF4FF0010C50
:1010300002E000BF4FF0010C4DF804CD4FEA400232
:101040004FEA41037FEA226C18BF7FEA236C11D07C
:1010500001B052EA530C18BF90EA010F58BFB2EB2F
:10106000030088BFC81738BF6FEAE17018BF40F0AF
:10107000010070477FEA226C02D15FEA402C05D163
:101080007FEA236CE4D15FEA412CE1D05DF8040BE8
:10109000704700BF844608466146FFE70FB5FFF77B
:1010A000C9FF002848BF10F1000F0FBD4DF808ED33
:1010B000FFF7F4FF0CBF012000205DF808FB00BF24
:1010C0004DF808EDFFF7EAFF34BF012000205DF87E
:1010D00008FB00BF4DF808EDFFF7E0FF94BF0120CB
:1010E00000205DF808FB00BF4DF808EDFFF7D2FFC8
:1010F00094BF012000205DF808FB00BF4DF808ED0B
:10110000FFF7C8FF34BF012000205DF808FB00BFD7
:101110004FEA40024FEA41037FEA226C02D15FEAC4
:10112000402C08D17FEA236C02D15FEA412C02D126
:101130004FF0000070474FF0010070474FEA400247
:10114000B2F1FE4F0FD34FF09E03B3EB12620DD9F5
:101150004FEA002343F0004310F0004F23FA02F05F
:1011600018BF404270474FF00000704712F1610F06
:1011700001D1420205D110F0004008BF6FF00040DD
:1011800070474FF00000704742000ED2B2F1FE4FA0
:101190000BD34FF09E03B3EB126209D44FEA002346
:1011A00043F0004323FA02F070474FF0000070470D
:1011B00012F1610F01D1420202D14FF0FF307047AE
:1011C0004FF00000704700BF38B5002200230446EE
:1011D0000D46FFF7F3FB28B920462946BDE8384005
:1011E00000F00AB8204605F1004100F005F8404241
:1011F00061EB410138BD00BFD0B500220B4B064664
:101200000F46FFF769F9FFF73FFC0446FFF7EAF8DE
:101210000022074BFFF760F902460B46304639467D
:10122000FEF7A2FFFFF730FC2146D0BD0000F03DE5
:101230000000F04180B584B000AF3B1D00221A6071
:101240005A609A60184B194A1A60174B00229A602C
:10125000154B01221A73144B00221A75124B4FF4CE
:101260006022DA61104B00225A600F4B01221A6192
:101270000D4803F0F5FB0346002B01D002F024FAE1
:1012800000237B600123BB600723FB603B1D1946E5
:10129000054803F0ADFD0346002B01D002F014FA1F
:1012A00000BF1037BD4680BDDC0500200024014092
:1012B00080B588B000AF786007F1100300221A6093
:1012C0005A609A60DA607B681B68284A934249D169
:1012D000274B9B69264A43F400739361244B9B6917
:1012E00003F40073FB60FB68214B9B69204A43F0C9
:1012F000040393611E4B9B6903F00403BB60BB684E
:1013000001233B6103237B6107F110031946194850
:1013100004F018FD184B194A1A60174B00225A6046
:10132000154B00229A60144B8022DA60124B4FF466
:1013300080721A61104B4FF480625A610E4B00228A
:101340009A610D4B0022DA610B4804F059F803460C
:10135000002B01D002F0B8F97B68074A1A62064AEE
:101360007B68536200BF2037BD4680BD002401402A
:1013700000100240000801400C0600200800024056
:1013800080B582B000AF104B5B690F4A43F0010398
:1013900053610D4B5B6903F001037B607B680022A6
:1013A00000210B2003F0F5FF0B2004F00EF80022C3
:1013B00000210E2003F0EDFF0E2004F006F800BF20
:1013C0000837BD4680BD00BF0010024080B500AFA9
:1013D000114B00221A60114B00221A70104B002290
:1013E0001A70104B00221A700F4B00221A600F4B1C
:1013F00000221A700E4B00221A704FF480410D48E3
:1014000004F024FE0346002B14BF01230023DAB2AC
:10141000094B1A7000BF80BD500600205406002002
:101420005506002056060020580600205C060020C5
:101430005D060020000C01400000002080B400AFD9
:10144000024B1B681846BD4680BC70475006002002
:1014500080B400AF034B00221A6000BFBD4680BCC1
:10146000704700BF5006002080B400AF074B1B78C8
:10147000DBB2002B04D0054B00221A70012300E0E0
:1014800000231846BD4680BC704700BF55060020AB
:1014900080B400AF074B1B78DBB2002B04D0054BA8
:1014A00000221A70012300E000231846BD4680BCCC
:1014B000704700BF5606002080B582B000AF244BB5
:1014C0001B680133224A136003F09CFA7860214BB9
:1014D0001B687A68D31A012B36D91E4A7B681360C1
:1014E0004FF480411C4804F0B1FD0346002B14BFAB
:1014F00001230023FB704FF40041174804F0A6FDC0
:101500000346002B14BF01230023BB70134B1B7831
:10151000FA789A4219D0FA78BB789A4208D1104BDF
:101520001B68013B0E4A13600E4B02221A7007E043
:101530000B4B1B6801330A4A13600A4B01221A70D5
:10154000064AFB78137000E000BF0837BD4680BD37
:101550006406002060060020000C0140000000200E
:10156000500600205406002080B400AF044B1B68D6
:101570000133034A136000BFBD4680BC704700BF03
:101580006806002080B584B000AF03F03BFAF86035
:101590004FF40051344804F059FD0346002B14BFAA
:1015A00001230023FB72FB7A002B14BF01230023CD
:1015B000DBB283F00103DBB2BB72BB7A03F0010341
:1015C000BB72BB7A002B10D0284B1B7883F0010331
:1015D000DBB2002B09D0254B01221A70244AFB688C
:1015E0001360244B00221A701EE0BB7A83F00103C3
:1015F000DBB2002B18D01D4B1B78002B14D01B4BDB
:1016000000221A701B4B1B7883F00103DBB2002B06
:101610000AD0174B1B68FA68D31A7B607B68322BA1
:1016200002D9154B01221A70104B1B78002B16D0D3
:10163000104B1B7883F00103DBB2002B0FD00C4B57
:101640001B68FA68D31A3B603B6840F2DB52934256
:1016500005D90A4B01221A70064B01221A7000BFED
:101660001037BD4680BD00BF000C01405C06002065
:10167000580600205D060020550600205606002072
:1016800080B588B000AF07F1100300221A605A60DD
:101690009A60DA60514B9B69504A43F02003936192
:1016A0004E4B9B6903F02003FB60FB684B4B9B692F
:1016B0004A4A43F004039361484B9B6903F00403D7
:1016C000BB60BB68454B9B69444A43F00803936188
:1016D000424B9B6903F008037B607B680022222158
:1016E0003F4804F0CAFC002220213E4804F0C5FC1B
:1016F00002233B6101237B610023BB610223FB6169
:1017000007F110031946364804F01CFB10233B6117
:1017100000237B610123BB6107F1100319463048A8
:1017200004F010FB20233B6101237B610223BB619A
:101730000223FB6107F110031946294804F002FB5C
:101740004FF418433B6100237B610123BB6107F128
:1017500010031946234804F0F5FA4FF400533B6197
:10176000214B7B610123BB6107F1100319461D4822
:1017700004F0E8FA4FF480433B611C4B7B6101238A
:10178000BB6107F110031946164804F0DBFA4FF469
:1017900000633B61144B7B610123BB6107F11003C4
:1017A00019460F4804F0CEFA20233B6101237B61E8
:1017B0000023BB610223FB6107F1100319460948AE
:1017C00004F0C0FA00220021282003F0E2FD2820C6
:1017D00003F0FBFD00BF2037BD4680BD0010024076
:1017E00000080140000C01400000211000003110F1
:1017F00080B586B002AF0346FB71FB7923F00F037F
:10180000FB73FB791B01BB73FB7B43F00C03DBB267
:101810003B72FB7B43F00803DBB27B72BB7B43F084
:101820000C03DBB2BB72BB7B43F00803DBB2FB7281
:1018300007F108026423009304234E21034804F0B7
:101840009BFD00BF1037BD4680BD00BF6C06002069
:1018500080B586B002AF0346FB71FB7923F00F031E
:10186000FB73FB791B01BB73FB7B43F00D03DBB206
:101870003B72FB7B43F00903DBB27B72BB7B43F023
:101880000D03DBB2BB72BB7B43F00903DBB2FB721F
:1018900007F108026423009304234E21034804F057
:1018A0006BFD00BF1037BD4680BD00BF6C06002039
:1018B00080B582B000AF8020FFF79AFF00237B60E5
:1018C00005E02020FFF7C4FF7B6801337B607B6865
:1018D000452BF6DD00BF00BF0837BD4680BD80B593
:1018E00082B000AF786039607B68002B03D07B68E2
:1018F000012B05D009E03B6843F080033B6004E026
:101900003B6843F0C0033B6000BF3B68DBB2184656
:10191000FFF76EFF00BF0837BD4680BD80B500AF42
:10192000322003F079F83020FFF762FF052003F042
:1019300073F83020FFF75CFF012003F06DF83020D2
:10194000FFF756FF0A2003F067F82020FFF750FF4B
:101950000A2003F061F82820FFF74AFF012003F076
:101960005BF80820FFF744FF012003F055F8012041
:10197000FFF73EFF012003F04FF8012003F04CF881
:101980000620FFF735FF012003F046F80C20FFF793
:101990002FFF00BF80BD80B582B000AF786006E049
:1019A0007B685A1C7A601B781846FFF751FF7B68EA
:1019B0001B78002BF4D100BF00BF0837BD4680BDA7
:1019C00080B500AF124B134A1A60114B124A5A608D
:1019D0000F4B00229A600E4B0022DA600C4B4FF442
:1019E00080421A610A4B00225A61094B00229A6117
:1019F000074B0022DA61064B00221A62044804F009
:101A000077FB0346002B01D001F05EFE00BF80BDD6
:101A10006C06002000540040A086010080B588B00C
:101A200000AF786007F1100300221A605A609A60D4
:101A3000DA607B681B68154A934223D1144B9B697B
:101A4000134A43F008039361114B9B6903F00803A9
:101A5000FB60FB68C0233B6112237B610323FB61B6
:101A600007F1100319460B4804F06CF9084BDB69C9
:101A7000074A43F40013D361054BDB6903F40013F9
:101A8000BB60BB6800BF2037BD4680BD005400402E
:101A900000100240000C014080B500AF094B0A4A1B
:101AA0001A60084B04225A60064B40F6C4129A6032
:101AB000044804F0B9FF0346002B01D001F004FEF6
:101AC00000BF80BDC00600200030004080B582B05D
:101AD00000AF0346FB80FB881846FFF7FFF803467C
:101AE00006491846FFF74EF9034605491846FFF721
:101AF000FDF9034618460837BD4680BD33335340D1
:101B000000F07F4590B587B000AF0346FB80FB88AF
:101B10001846FFF7DBFF78612F497869FFF7D0FAA5
:101B20000346002B06D12D497869FFF7E7FA0346F3
:101B3000002B01D02A4B4BE079692A48FFF7D6F9F0
:101B400003464FF07E511846FFF712F80346194638
:101B50002548FFF7CBF903463B614FF00001386998
:101B6000FFF7B8FA0346002B01D01D4B30E01F49A8
:101B70003869FFF7C3FA0346002B01D01C4B00E085
:101B80001C4BFB60F9684FF07E50FFF7AFF903463E
:101B90001C4619493869FFF7A9F9034618460BF0A6
:101BA000DFFB034619462046FFF7ECF803461349CE
:101BB0001846FEF7DFFF0346BB60B9684FF07E5062
:101BC000FFF794F903460E491846FEF7D1FF034686
:101BD00018461C37BD4690BDCDCC4C3D0000504052
:101BE0000000C07F3333534000007A440080BB4480
:101BF00000E0764500D08945004AC4470FCF5B3BE3
:101C00003393884380B582B000AF0346FB71FB7904
:101C10001A462021034804F030FA00BF0837BD46B9
:101C200080BD00BF000C014080B582B000AF03460C
:101C3000FB71FB7983F00103DBB21A4620210348D4
:101C400004F01BFA00BF0837BD4680BD0008014004
:101C500080B485B000AF0346FB80FB88312B01D8F0
:101C60003223FB80FB8844F62062934202D944F67B
:101C70002063FB80FB880B4AB2FBF3F3013BFB6064
:101C8000094B1B68FA68DA62074AFB68D360064BA7
:101C90001B68FA6852085A6300BF1437BD4680BCFF
:101CA000704700BF40420F0048080020B0B58EB01A
:101CB00000AF03F0B7FE0023FB61254B7B620123DD
:101CC000BB6207F1180207F11C031146184603F026
:101CD00091FF0346002B02D003F0CAFE35E01D4BF6
:101CE0001B683B601C4B1B687B601C4B1B68BB600C
:101CF0001A4B5B68FB60194B9B683B61184B7B611F
:101D00003B467B63124B3B630023FB6216E07B6B1D
:101D10001B6800221C46154622462B46396B0220C2
:101D200003F010FE0346002B0CD13B6B04333B63E6
:101D30007B6B04337B63FB6A0133FB62FB6A052B1D
:101D4000E5D900E000BF03F093FE3837BD46B0BDD3
:101D500000FC0008040000202800002010000020E3
:101D6000BEBAFECA80B483B000AF104B7B607B6804
:101D70005B690F4A934213D17B681B680D4A13605D
:101D80007B685B680C4A13607B689B680B4A136036
:101D90007B68DB68094A53607B681B69074A93606C
:101DA00000BF0C37BD4680BC704700BF00FC000878
:101DB000BEBAFECA04000020280000201000002047
:101DC00080B500AF094B0A4A1A600A4B0A4A1A60EA
:101DD0000A4B4FF081421A60084B094A5A60074B80
:101DE000084A9A60FFF762FF00BF80BD0400002030
:101DF00000007A432800002000004040100000202E
:101E00009A99193E0000204190B5ADB008AF704BD3
:101E10001B681846FFF792F90346C7F88C306C4BE5
:101E20001C68D7F88C00FEF759FF03461946204678
:101E3000FEF79EFE034623F000431846FEF7F4FA31
:101E40004FF00002634BFEF747FB02460B4610467D
:101E50001946FEF7F1FD0346C7F888305E4B1B6854
:101E60001846FFF76BF90346C7F884305A4B1C68D5
:101E7000D7F88400FEF732FF034619462046FEF7E6
:101E800077FE034623F000431846FEF7CDFA4FF0E5
:101E90000002504BFEF720FB02460B461046194647
:101EA000FEF7CAFD0346C7F880304C4B1B68184646
:101EB000FFF744F90346FB67484B1C68F86FFEF7D1
:101EC0000DFF034619462046FEF752FE034623F057
:101ED00000431846FEF7A8FA4FF00002404BFEF709
:101EE000FBFA02460B4610461946FEF7A5FD0346CF
:101EF000BB673A4B5B681846FFF720F903467B67E0
:101F0000364B5C68786FFEF7E9FE034619462046BB
:101F1000FEF72EFE034623F000431846FEF784FA30
:101F20004FF000022E4BFEF7D7FA02460B46104642
:101F30001946FEF781FD03463B67284B9B68184610
:101F4000FFF7FCF80346FB66244B9C68F86EFEF72F
:101F5000C5FE034619462046FEF70AFE034623F057
:101F600000431846FEF760FA4FF000021C4BFEF7E4
:101F7000B3FA02460B4610461946FEF75DFD0346CE
:101F8000BB663846BB6E0793FB6E06933B6F0593AB
:101F90007B6F0493BB6F0393FB6F0293D7F8803082
:101FA0000193D7F884300093D7F88830D7F88C2085
:101FB0000C4908F01FFC78667B6E9AB239466423A0
:101FC000094806F0A2FA00BF9437BD4690BD00BF95
:101FD0000400002000002440280000201000002001
:101FE00000005940B0E100082009002080B582B00F
:101FF00000AF78604FF000017868FFF76BF8034698
:10200000002B02D04FF000031FE04FF07E517868A4
:10201000FFF76AF80346002B02D04FF07E5314E01E
:102020000C497868FEF7AEFE034618460BF0C0F97F
:10203000034619464FF07E50FEF79AFD03464FF0D7
:1020400080411846FEF752FF034618460837BD4642
:1020500080BD00BFDB0F494080B584B000AF786021
:102060004FF000017868FFF735F80346002B01D0E8
:10207000002312E00B497868FEF784FE0346FB60FC
:102080000949F868FFF73AF80346002B01D0064BE0
:10209000FB60F868FFF778F8034618461037BD462E
:1020A00080BD00BFA5CDD74400409C4680B58AB016
:1020B00002AF0023FB610023BB610AE0614ABB69F8
:1020C00032F813301A46FB691344FB61BB690133D4
:1020D000BB61BB693F2BF1DDFB699B09FB82FB8A7E
:1020E000312B04D9FB8A40F6CD72934224D9564B4A
:1020F00001221A70554B4FF000025A610020FFF781
:1021000081FD534B00221A700020FFF78DFD002146
:10211000504805F037FBFFF7CBFB00210020FFF70D
:10212000DEFB4D48FFF737FC00210120FFF7D7FB0E
:102130004A48FFF730FC81E0494B1B6819461846B6
:10214000FEF7E6FF0346002B3CD1454B1B68454993
:102150001846FEF7D3FF0346002B33D03A4B02223A
:102160001A703A4B4FF000025A610020FFF74AFD07
:10217000374B00221A700020FFF756FD002135482A
:1021800005F000FBFFF794FB00210020FFF7A7FB01
:102190003548FFF700FC00210120FFF7A0FB304B82
:1021A0001B681846FEF740F902460B46381DCDE97C
:1021B00000232E4A112108F0E7FA3B1D1846FFF7CD
:1021C000EAFB3BE02A4B1B78002B30D0244B1B68EA
:1021D00028491846FEF788FF0346002B03D0244BFE
:1021E00000221A7023E002F00DFC0246224B1B680D
:1021F000D31A224A93421AD9134B03221A70134B53
:102200004FF000025A610020FFF7FCFCFFF750FB83
:1022100000210020FFF763FB1948FFF7BCFB0021FA
:102220000120FFF75CFB1748FFF7B5FB06E0064B04
:102230001B78002B02D0044B00221A702037BD46B9
:1022400080BD00BFD0060020B30700201000002092
:102250005407002048080020E4E10008F4E10008E9
:10226000080000200080894304E2000810E2000812
:10227000B80700200000C842B4070020E093040023
:102280001CE200082CE2000890B585B000AF0023E6
:10229000FB600023BB600AE0234ABB6832F81330BE
:1022A0001A46FB681344FB60BB680133BB60BB6824
:1022B0003F2BF1DDFB689B09FB80FB881846FFF78D
:1022C00021FC386039683868FEF722FF0346002B8E
:1022D00003D0164B164A1A6021E0144B1B681946AE
:1022E0001846FEF715FF0346002B03D00F4A3B6844
:1022F000136014E00F493868FEF744FD03461C469E
:102300000A4B1B680C491846FEF73CFD034619466C
:102310002046FEF72FFC03461A46044B1A6000BF06
:102320001437BD4690BD00BFD00600200800002035
:102330000000C07FCDCCCC3D6666663F90B589B0CD
:1023400000AFA24B1B680022144619461846FEF740
:10235000DFFE0346002B01D101231C46FC76FB7EE9
:10236000002B0AD0994B1B6899491846FEF7BCFE12
:102370000346002B01D0012300E00023BB76BB7E87
:1023800003F00103BB76934B1B681846FFF764FE0E
:10239000F861FB69312B01D83223FB618E4B1B782E
:1023A000032B00F27B8101A252F823F0BD23000829
:1023B0005F2400081F250008052600080020FFF7FD
:1023C00033FC864B00221A70854B00221A80854B05
:1023D0001B78002B04D1844B1B78DBB2002B1ED062
:1023E000BB7E002B1BD07C4B01221A707B4B012241
:1023F0001A700120FFF718FC794B32221A80784BB3
:102400001B881846FFF724FC0021784805F018F9CE
:10241000774B00221A60744B00221A7042E1714B14
:102420001B78002B05D1704B1B78DBB2002B00F022
:102430003981BB7E83F00103DBB2002B00F03281D7
:1024400000210120FFF74BFA6A48FFF7A4FA664B18
:1024500000221A704FF47A7002F0DEFA22E10120B5
:10246000FFF7E2FB5D4B01221A70614B1B68B3F56D
:10247000FA6F2ED25E4B1B681846FEF72BFC034604
:102480005D491846FEF732FD03467B607868FFF72A
:10249000ADFD3860FB69323B1846FEF71BFC034676
:1024A00039681846FEF76EFC03461846FEF76CFEC8
:1024B00003469BB232339AB2494B1A80484B1B8871
:1024C0001846FFF7C5FB4A4B1B680133484A1360A7
:1024D0000BE0414B02221A70FB699AB2404B1A8002
:1024E0003F4B1B881846FFF7B3FB444B1B78002B70
:1024F0000BD1434B1B78DBB2002B06D1BB7E83F0A4
:102500000103DBB2002B00F0CF80334B03221A70A3
:10251000374B00221A603A4B00221A70C4E00120A7
:10252000FFF782FB2D4B01221A70FB692C4A12889F
:102530009B1AFB600523BB60FB68002BB8BF5B42A6
:102540001A46BB68934219D2FB68002B08DDBB68B2
:102550009AB2234B1B8813449AB2214B1A8007E08E
:102560001F4B1A88BB689BB2D31A9AB21C4B1A80B5
:102570001B4B1B881846FFF76BFB0EE0FB68002B1C
:10258000B8BF5B42002B08DDFB699AB2144B1A807E
:10259000134B1B881846FFF75BFB184B1B78002B6F
:1025A0000AD1174B1B78DBB2002B05D1BB7E83F021
:1025B0000103DBB2002B79D0074B03221A700C4BBE
:1025C00000221A600E4B00221A706FE008000020F3
:1025D0000000C84228000020540700205C070020AB
:1025E0000C000020C8070020CE070020480800206B
:1025F000580700203CE200080000FA44C907002008
:10260000CF0700202C4B1B68B3F5FA6F35D22A4B4D
:102610001B681846FEF75EFB034628491846FEF77E
:1026200065FC03467B617869FFF7E0FC03461946C9
:102630004FF07E50FEF79CFA03463B61FB69323B4C
:102640001846FEF747FB034639691846FEF79AFB22
:1026500003461846FEF798FD03469BB232339AB202
:10266000174B1A80164B1B881846FFF7F1FA124BCE
:102670001B680133104A136019E00021114805F06E
:1026800081F8114B00221A700020FFF7CDFA0F4B92
:1026900000221A700A4B00221A8008E00020FFF77F
:1026A000C3FA04E000BF02E000BF00E000BF00BFCB
:1026B0002437BD4690BD00BF580700200000FA44F3
:1026C0000C00002048080020540700205C07002070
:1026D000F0B59FB006AF744B1B78002B20D0724B27
:1026E0001B78012B07D107F14C03704A11211846C2
:1026F00008F04AF874E06C4B1B78022B07D107F105
:102700004C036B4A1121184608F03EF868E0664B0E
:102710001B7807F14C00674A112108F035F85FE09B
:10272000654B1B6819461846FEF7F2FC0346002B62
:102730000FD0624B1B681846FDF776FE02460B462B
:1027400007F14C00CDE900235D4A112108F01CF887
:1027500046E05C4B1B78022B0ED0022B10DC002BCA
:1027600002D0012B04D00BE02D2387F85F300BE063
:102770005E2387F85F3007E02A2387F85F3003E0A5
:102780003F2387F85F3000BF4B4B1B681846FDF7AF
:102790004BFE04460D46494B1B681846FDF744FEA8
:1027A00002460B4697F85F1047480078002801D092
:1027B000482000E0202007F1240605900491CDE98F
:1027C0000223CDE90045414A1121304607F0DCFFE4
:1027D00007F1240307F14C003D4A112107F0D4FF13
:1027E0003C4B1B78002B30D1364B1B78002B07D18C
:1027F00007F13803384A1121184607F0C5FF3CE0BD
:10280000304B1B78012B0CD1344B5B691846FEF71B
:1028100095FC034607F13800314A112107F0B4FF57
:102820002BE0284B1B78022B07D107F138032D4AE8
:102830001121184607F0A8FF1FE007F138032A4AC4
:102840001121184607F0A0FF17E0284B1B68184617
:10285000FDF7EAFD02460B4625490988381D02911D
:10286000CDE90023234A202107F08EFF3B1D07F10D
:102870003800174A112107F087FF00210020FFF7D9
:102880002EF807F14C031846FFF785F800210120C8
:10289000FFF725F807F138031846FFF77CF800BF6B
:1028A0006437BD46F0BD00BFB307002050E200080A
:1028B00064E2000878E2000808000020040000201C
:1028C0008CE200085507002053070020A0E2000812
:1028D000B4E2000854070020C0E200081000002005
:1028E000CCE20008E0E20008F4E200082800002042
:1028F0000C00002008E3000890B599B00AAF02F080
:1029000029F800F02DFBFEF7BBFEFEF739FDFEF7C0
:1029100091FC01F02DFEFFF753F801F075FE01F078
:102920004BFF01F0A1FDFFF7B7F8FEF7F7FFFEF749
:10293000BFFFFEF74BFD01F031F8FFF713FA40221D
:102940008C498D4802F064F98C4804F0D7FD0020D2
:10295000FFF76AF98A4B1B781A460221894803F06F
:102960008CFB0020FFF74EF901228749874805F0CC
:1029700057FE874804F09CF8FEF704FE00F02AFD9D
:10298000844B1B78DBB2002B04D0FFF7D7FC814BC4
:1029900000221A7001F076FB0346002B12D001F0E2
:1029A00059FA01F0ADFAFEF75FFD0346002B01D0A6
:1029B00001F072F9FEF76CFD0346002BD9D001F04F
:1029C000FDF9D6E7FEF764FD0346002B02D001F0C7
:1029D0002FF8B5E2704B1B78DBB2002B07D06E4BA3
:1029E00000221A7040226349634802F011F96B4BD0
:1029F0001B78DBB2002B03D0FFF746FCFFF756FB3A
:102A0000674B1B78032B00F2578101A252F823F089
:102A1000212A00088F2A0008E52B00087B2C0008DB
:102A2000604B4FF000025A615F4B00221A705F4BFF
:102A30001B78002B05D15E4B1B78DBB2002B00F01E
:102A400034815C4B1B6819461846FEF761FB034650
:102A5000002B40F02A81524B01221A70564B012262
:102A60001A7001F0CFFF0346544A1360504B002206
:102A70001A70464B93F84130DBB2202B40F01581A1
:102A800064230C224E49414805F03FFD0DE1434BC4
:102A90001B78DBB2002B48D04A4B1968454B1A68AB
:102AA000494B404800F03CFD03463E4A53613D4BD4
:102AB0005B69012214464FF07E511846FEF71EFB5B
:102AC0000346002B01D100231C46E2B2364B1A709C
:102AD000384B1B6819461846FEF71AFB0346002BB5
:102AE00023D1344B1B68374A126811461846FEF74B
:102AF0003FF8034623F0004334491846FEF7E0FA56
:102B00000346002B11D0264B02221A702A4B0022BA
:102B10001A701E4B93F84130DBB2202B05D1642391
:102B20000C222B49194805F0F0FC2A4B1B78002B8E
:102B300004D1294B1B78DBB2002B11D0184B00229B
:102B40001A70254B00221A70104B93F84130DBB2FB
:102B5000202B05D164230C2220490C4805F0D5FC1C
:102B60001F4B1B78002B00F0A2800D4B03221A7024
:102B70009DE000BFD0060020DC050020D808002022
:102B80000E00002000080140A407002020090020BA
:102B9000C0060020520700205107002050070020E7
:102BA000550700201000002053070020CA0700200E
:102BB000CC07002008000020B8070020B407002040
:102BC00018E3000804000020CDCCCC3D0000A0405C
:102BD00028E30008CB070020CD07002038E30008D9
:102BE000B3070020994B1B78DBB2002B1BD0984B0E
:102BF0001968984B1A68984B984800F091FC034666
:102C0000964A5361954B5B69012214464FF07E5101
:102C10001846FEF773FA0346002B01D100231C4629
:102C2000E2B28F4B1A708F4B1B78002B04D18E4B66
:102C30001B78DBB2002B18D08C4B00221A70874B0C
:102C40004FF000025A61864B00221A70864B002218
:102C50001A70874B93F84130DBB2202B05D16423E7
:102C60000C228449824805F050FC834B1B78002BD2
:102C70001FD07E4B03221A701BE0784B4FF00002EE
:102C80005A61774B00221A707C4B1B78002B03D1C2
:102C9000744B1B78002B0ED0774B00221A70734BAD
:102CA00000221A70FEF704FE05E000BF04E000BF3A
:102CB00002E000BF00E000BF694B1B781846FEF73A
:102CC000A1FF624B1B78DBB2002B00F02E81604B22
:102CD0001B68604A126811461846FDF749FF034613
:102CE0003B63624B1B78002B06D05C4B5B6918463C
:102CF000FEF724FA034600E00023FB62604B1B88CA
:102D00001846FDF7E7FF03465E491846FEF7EEF862
:102D10000346BB624F4B1B681846FEF70FFA03468B
:102D20007B624C4B1C68786AFDF7D8FF0346194656
:102D30002046FDF71DFF034623F000431846FDF72C
:102D400073FB4FF00002504BFDF7C6FB02460B46EB
:102D500010461946FDF770FE03463B623C4B1B686C
:102D60001846FEF7EBF90346FB61394B1C68F8691E
:102D7000FDF7B4FF034619462046FDF7F9FE03466A
:102D800023F000431846FDF74FFB4FF000023E4B87
:102D9000FDF7A2FB02460B4610461946FDF74CFE16
:102DA0000346BB61B86AFEF7C9F903467B617869DF
:102DB000FDF794FF03461946B86AFDF7D9FE0346AE
:102DC00023F000431846FDF72FFB4FF000022E4B77
:102DD000FDF782FB02460B4610461946FDF72CFE16
:102DE00003463B61386BFEF7A9F90346FB60F868C0
:102DF000FDF774FF03461946386BFDF7B9FE03462D
:102E000023F000431846FDF70FFB4FF000021E4B66
:102E1000FDF762FB02460B4610461946FDF70CFE15
:102E20000346BB600B4B1B6819461846FEF770F94A
:102E30000346002B2CD1074B1B6814491846FEF79C
:102E400053F90346002B23D0012322E05007002032
:102E50000400002008000020CDCCCC3D1000002054
:102E600053070020CB070020CD0700205507002086
:102E70002009002038E30008B3070020C90700201C
:102E80000C000020A5CDD744000059400000C842E6
:102E90000023FB71FB7903F00103FB71002387F82A
:102EA0003730284B1B78002B05D097F8373043F08C
:102EB000010387F83730244B1B78002B05D097F897
:102EC000373043F0020387F83730FB79002B05D009
:102ED00097F8373043F0040387F8373001F092FD5C
:102EE00002461A4B1B78194697F837300993089118
:102EF000BB680793FB6806933B6905937B69049362
:102F0000FB6A0393BB690293FB6901933B6A0093DD
:102F10007B6A0F490F4807F06DFC38603B689AB236
:102F200032230C490C4805F0F0FA0C4B1B78DBB24D
:102F3000002B3FF41EAD094B00221A70FFF7C8FBAF
:102F400017E500BF530700205C070020B3070020EF
:102F500044E30008600700202009002050070020FB
:102F600080B594B000AF07F128032822002118464D
:102F700007F0A5FC07F1140300221A605A609A605A
:102F8000DA601A613B1D00221A605A609A60DA60AA
:102F90000923BB624FF48033FB6200233B630123B0
:102FA000BB6301233B6402237B644FF48033BB6427
:102FB0004FF4E013FB6407F12803184603F088FD83
:102FC0000346002B01D000F07FFB0F237B6102231F
:102FD000BB610023FB614FF480633B6200237B6293
:102FE00007F114030221184603F0F4FF0346002BF7
:102FF00001D000F069FB02237B604FF40043FB60CB
:103000003B1D184604F074F90346002B01D000F074
:103010005BFB00BF5037BD4680BD000080B590B05F
:1030200000AF78607B681B68AA4A934240F0C28177
:10303000A94B1B780A2B04D0A74B1B780D2B40F013
:10304000A181A64B1B781A46A54B00219954A34B8E
:103050001B78002B00F09281A14B1B7887F83F3042
:1030600097F83F30742B03D097F83F30542B25D17D
:103070009C4806F065F802460B4610461946FDF7D7
:1030800023FD0346BB624FF00001B86AFEF72CF83F
:103090000346002B00D171E19349B86AFEF71AF894
:1030A0000346002B00D169E1904ABB6A1360642398
:1030B00012228F498F4805F028FA5FE197F83F30D8
:1030C000682B03D097F83F30482B17D1844B5B789F
:1030D000312B09D1884B01221A7064230F228749B2
:1030E000844805F012FA49E1854B01221A706423E5
:1030F000102284497F4805F008FA3FE197F83F30F5
:10310000762B03D097F83F30562B37D1754806F011
:1031100017F802460B4610461946FDF7D5FC034644
:10312000FB627949F86AFDF7DFFF0346002B00D107
:1031300024E17649F86AFDF7CDFF0346002B00D164
:103140001CE1734AFB6A1360714B1B681846FDF75C
:103150006BF902460B4607F108006E4907F04AFB7F
:1031600007F108031846FCF7F3FF03469AB207F18C
:10317000080164235F4805F0C8F9FFE097F83F3085
:10318000732B03D097F83F30532B09D1624B0122A8
:103190001A70642310226149564805F0B6F9EDE033
:1031A00097F83F30722B03D097F83F30522B09D15C
:1031B0005B4B01221A70642311225A494D4805F0D5
:1031C000A4F9DBE097F83F30702B03D097F83F303D
:1031D000502B1DD1434805F0B3FF02460B46104665
:1031E0001946FDF771FC03463B634FF00001386B55
:1031F000FDF77AFF0346002B00D1BFE04A4A3B6B44
:1032000013606423102249493A4805F07EF9B5E07D
:1032100097F83F30692B03D097F83F30492B21D1E5
:10322000304805F08DFF02460B4610461946FDF763
:103230004BFC03467B634FF00001786BFDF754FFB6
:103240000346002B00D199E0374A7B6B5360364B25
:103250004FF000021A61642310223549254805F019
:1032600054F98BE097F83F30642B03D097F83F3048
:10327000442B1DD11B4805F063FF02460B46104648
:103280001946FDF721FC0346BB634FF00001B86B04
:10329000FDF72AFF0346002B00D16FE0224ABB6BEB
:1032A0009360642310222349124805F02EF965E04B
:1032B00097F83F30772B03D097F83F30572B3DD10D
:1032C000FEF7F4FC642312221B490A4805F01DF99D
:1032D00054E000BF00380140A4070020B2070020DE
:1032E000A8070020A90700200080894304000020CF
:1032F00074E3000820090020CC07002088E30008C0
:10330000CD07002098E30008CDCCCC3D00007041F3
:1033100028000020ACE30008CF070020C0E300082D
:10332000CE070020D4E3000810000020E8E30008E6
:10333000FCE3000810E4000824E4000897F83F309C
:10334000782B03D097F83F30582B0AD1FEF738FD81
:10335000FEF75AFD642317221849194805F0D5F8DD
:103360000CE097F83F303F2B02D1FEF74DFD05E012
:1033700064230E221349124805F0C7F8124B0022AD
:103380001A7012E0104B1B78082B0BD80E4B1B78D1
:103390005A1CD1B20C4A11701A460C4B19780C4BBE
:1033A000995402E0084B00221A7001220749044890
:1033B00005F036F900BF4037BD4680BD38E400084F
:1033C0002009002050E40008B2070020A4070020D4
:1033D000A807002080B582B000AF444B00221A70CD
:1033E000434B00221A70434B00221A70424B0022BA
:1033F0001A7001F007FB78601021404802F026FEA9
:103400000346002B0BD13E4B1B687A68D31AC82B9E
:1034100005D9364B01221A70394A7B6813604FF484
:103420008051384802F012FE0346002B0BD1364B78
:103430001B687A68D31AC82B05D92D4B01221A7044
:10344000314A7B6813604FF400612E4802F0FEFDA4
:103450000346002B0CBF01230023FB70FB78002BDD
:1034600036D02A4B1B78002B32D0294B1B687A6848
:10347000D31AB3F5967F27D9264B1B78002B03D0A0
:10348000244B1B78032B0ED11A4B01221A700021FA
:103490000120FEF724FA2048FEF77DFA4FF4FA7077
:1034A00001F0BAFA0DE0144B01221A70002101203C
:1034B000FEF715FA1948FEF76EFA4FF4FA7001F0AC
:1034C000ABFA134A7B681360104B00221A7008E0B5
:1034D000FB7883F00103DBB2002B02D00B4B0122FF
:1034E0001A7000BF0837BD4680BD00BFC807002066
:1034F000C9070020CA070020CB07002000080140B0
:10350000BC070020000C0140C00700202C00002058
:10351000C40700205507002060E4000874E4000898
:1035200090B58BB000AFF860B9607A603B607968A5
:10353000B868FDF71DFB0346FB61FB681B68194675
:10354000F869FDF71FFC0346BB61FB6923F00043EC
:1035500043491846FDF7B4FD0346002B0FD0FB6826
:103560001C693968F869FDF70DFC034619462046C9
:10357000FDF700FB03461A46FB681A6103E0FB688F
:103580004FF000021A61FB685A68FB681B69194614
:103590001046FDF7F7FB03467B623249786AFDF778
:1035A000ADFD0346002B0CD02E4B7B62FB685B68A5
:1035B00019462C48FDF79AFC03461A46FB681A6127
:1035C00012E02949786AFDF77BFD0346002B0BD0FA
:1035D000254B7B62FB685B6819462348FDF786FC38
:1035E00003461A46FB681A61FB68DB681946F869EE
:1035F000FDF7BEFA034639681846FDF777FC034627
:103600007B61FB689B6819467869FDF7BBFB034645
:103610003B61FB68FA69DA60796AB869FDF7AAFA72
:10362000034619463869FDF7A5FA03463B620D4982
:10363000386AFDF763FD0346002B01D0094B3B625E
:103640004FF00001386AFDF73BFD0346002B02D026
:103650004FF000033B623B6A18462C37BD4690BDD5
:10366000000070410000C8420000A0C180B483B0D7
:1036700000AF78607B681B680E4A934214D10E4BF2
:1036800001221A700D4B1B6801330C4A13600B4B5F
:103690001B68632B08D90A4B01221A70094B0122BF
:1036A0001A70064B00221A6000BF0C37BD4680BC62
:1036B000704700BF0004004052070020D0070020E0
:1036C000510700205007002080B400AF72B600BF41
:1036D00000BFFDE780B500AFFEF7EAF8002100204B
:1036E000FEF7FDF80A48FEF756F9FEF7DFFA4FF449
:1036F000FA7001F091F900210120FEF7F0F8054879
:10370000FEF749F94FF47A7001F086F900BF80BDE9
:10371000A8E50008B8E5000880B500AF084B002216
:103720001A60FEF7C5F800210020FEF7D8F805481A
:10373000FEF731F940F2DC5001F06EF900BF80BDB8
:10374000CC060020C8E5000880B500AF0A4B1B6816
:103750000A4A1360FEF758FBFEF7AAF80021002082
:10376000FEF7BDF80648FEF716F940F2DC5001F00E
:1037700053F900BF80BD00BF3400002028000020A6
:10378000DCE5000880B500AF124B1B681846FDF75A
:10379000A5FA0346104A1360104B1B68104A1360C9
:1037A000104B1B680E4A53600F4B1B680C4A93600A
:1037B000FEF72AFBFEF77CF800210020FEF78FF8C9
:1037C0000A48FEF7E8F840F2DC5001F025F900BFA6
:1037D00080BD00BF30000020040000203800002021
:1037E000100000203C00002040000020DCE5000824
:1037F00080B500AFFEF75CF800210020FEF76FF8FF
:103800000B48FEF7C8F8FEF7DBFAFEF7FDFA4FF4B7
:103810007A7001F001F900210120FEF760F80548F7
:10382000FEF7B9F84FF47A7001F0F6F800BF80BDEA
:10383000ECE5000800E60008B0B586B004AF374BF1
:103840005B68374A93422BD1364B1B681846FCF70E
:10385000EBFD04460D46344B1B681846FCF7E4FDAF
:1038600002460B46CDE90223CDE900452F4A10213F
:103870002F4806F089FF2A4B2D4A1A602D4B1B68F2
:103880001846FCF7D1FD02460B46CDE900232A4A33
:1038900010212A4806F078FF214B284A1A6238E0A6
:1038A0001E4B5B68264A934233D101F0ABF80346C6
:1038B000244AA2FB03239B097B6001F0A3F8034683
:1038C000214A1021214806F05FFF7B683B2B06D878
:1038D0007B681F4A10211D4806F056FF09E07B68EF
:1038E0001C4AA2FB03235B091B4A1021174806F060
:1038F0004BFF134B154A1A60184B1B68184A127875
:103900000092184A1021184806F03EFF0C4B164A48
:103910001A6200BF0837BD46B0BD00BFD407002003
:1039200048000020080000200400002014E60008E1
:10393000F40700202800002024E6000808080020E2
:1039400048020020D34D621030E600081C08002019
:103950003CE600088988888848E60008CC060020F4
:10396000B307002054E600083008002080B485B07A
:1039700000AF78600023FB7302E0FB7B0133FB7335
:10398000FB7B5B017A6813441B68002BF5D1FB7B42
:1039900018461437BD4680BC7047000080B500AFA4
:1039A000194B00221A70184B00225A60164B002245
:1039B0001A72154B00225A72134B0022DA60124B16
:1039C00000221A74104B00225A61FDF737FD03469E
:1039D0000E4A13600E4B1B681846FDF7AFFB0346FB
:1039E0000C4A13600C4B1B680C4A13600C4B1B6891
:1039F0000C4A13600A4B5B680B4A1360084B9B68C8
:103A00000A4A136000BF80BDD4070020F0070020E1
:103A10000400002030000020280000203400002096
:103A200010000020380000203C0000204000002052
:103A300080B500AF1C4B1B78002B33D11A4B0122F1
:103A40001A70194B194A5A60174B00221A721748FC
:103A5000FFF78CFF03461A46134B5A7200F0D2FF51
:103A60000346114AD360124B1B681846FDF766FBEC
:103A70000346104A1360104B1B68104A1360104B2A
:103A80001B68104A13600E4B5B680F4A13600C4BA7
:103A90009B680E4A1360FDF7DBFC0D4B00221A6099
:103AA000FDF706FF00BF80BDD4070020E80200201C
:103AB00004000020300000202800002034000020F6
:103AC00010000020380000203C00002040000020B2
:103AD000F007002080B500AF044B00221A70034BA2
:103AE00000225A60FDF7E4FE00BF80BDD40700202D
:103AF00090B58BB000AF786000F084FF0346644A55
:103B0000D360634B1B78012B1AD1614B1B7A1A4689
:103B10007B6813447B627B6A002B04DA5C4B5B7A24
:103B2000013B7B6207E05A4B5B7A1A467B6A934201
:103B300001DB00237B627B6ADAB2554B1A72A2E08A
:103B4000534B1B78022B40F09E80514B5A68504BD0
:103B50001B7A5B011344BB61BB691B79022B1FD12C
:103B6000BB699B68FB60FB681A68BB695B69796825
:103B700001FB03F313443B62BB69DB683A6A9A4278
:103B800002DABB69DB683B62BB691B693A6A9A422D
:103B900002DDBB691B693B62FB683A6A1A6072E02E
:103BA000BB691B79032B58D1BB699B683B613B699F
:103BB0001C68BB695B697A6802FB03F31846FDF772
:103BC0008DF8034633491846FDF7DCF803461946DD
:103BD0002046FCF7CFFF0346FB61BB69DB68184654
:103BE000FDF77CF803462B491846FDF7CBF8034652
:103BF0001946F869FDF764FA0346002B0BD0BB6940
:103C0000DB681846FDF76AF8034622491846FDF7B7
:103C1000B9F80346FB61BB691B691846FDF75EF8FE
:103C200003461C491846FDF7ADF803461946F869E6
:103C3000FDF764FA0346002B0BD0BB691B691846DD
:103C4000FDF74CF8034613491846FDF79BF8034669
:103C5000FB613B69FA691A6015E0BB691B79042BAB
:103C600011D1BB699B687B617B691B78002B14BFFA
:103C700001230023DBB283F00103DBB203F0010375
:103C8000DAB27B691A7000BF2C37BD4690BD00BF09
:103C9000D4070020CDCCCC3D80B582B000AF00F081
:103CA000B1FE0346434AD360424B1B78002B7BD0C6
:103CB000404B1B78012B68D13E4B5A683D4B1B7A19
:103CC0005B0113447B607B681B79052B6FD801A2D5
:103CD00052F823F0ED3C00081D3D00082D3D000882
:103CE0002D3D00082D3D00084D3D00087B689B6878
:103CF000304A53602F4B00221A727B689B6818462B
:103D0000FFF734FE03461A462A4B5A72FDF7A0FB12
:103D1000294B00221A60FDF7CBFD48E07B689B68C9
:103D2000002B43D07B689B6898473FE0214B0222E1
:103D30001A707B689B681B681E4A9361FDF788FBBD
:103D40001D4B00221A60FDF7B3FD30E07B68DB6994
:103D5000002B10D07B68DB69164A5360154B00229C
:103D60001A727B68DB691846FFF700FE03461A46A5
:103D7000104B5A7201E0FFF7ADFEFDF769FB0E4BE9
:103D800000221A60FDF794FD11E00A4B1B78022B0C
:103D90000DD1084B01221A70FDF75AFB064B002289
:103DA0001A60FDF785FD02E000BF00E000BF0837A4
:103DB000BD4680BDD4070020F007002080B582B04A
:103DC00000AF224B1B78022B16D1204B5A681F4B99
:103DD0001B7A5B0113443B603B689B681B4A9269FA
:103DE0001A601A4B01221A70FDF732FB184B0022A1
:103DF0001A60FDF75DFD24E0144B1B78012B20D1E8
:103E0000124B5B687B607B68DB69002B10D07B68A2
:103E1000DB690E4A53600D4B00221A727B68DB6926
:103E20001846FFF7A3FD03461A46084B5A7201E0F5
:103E3000FFF750FEFDF70CFB054B00221A60FDF763
:103E400037FD00BF0837BD4680BD00BFD407002046
:103E5000F007002080B582B000AF274B1B78002B05
:103E600001D0FFF7E9FC244B1B78002B3FD000F07A
:103E7000C9FD0246204BDB68D31A47F23052934209
:103E800002D9FFF727FE33E01B4B1B78022B1CD116
:103E900000F0B8FD0246184B5B69D31AB3F5FA7F00
:103EA00013D9154B1B7C002B14BF01230023DBB25D
:103EB00083F00103DBB203F00103DAB20E4B1A7494
:103EC00000F0A0FD03460C4A5361FDF7B7FA786095
:103ED0000A4B1B687A68D31A3B603B68002B07D0FB
:103EE0003868FFF705FE054A7B68136000E000BFF5
:103EF0000837BD4680BD00BFD4070020F007002072
:103F000080B598B004AF554B1B78002B00F0A18012
:103F1000524B5A68514B1B7A5B011344FB644F4B65
:103F20001B78012B35D100210020FDF7D8FCFB6C5C
:103F30001B6807F128004A4A112106F025FC07F109
:103F400028031846FDF727FD00210120FDF7C7FCD7
:103F5000424B1B7A0133414A527A934215DA3F4B66
:103F60005A683E4B1B7A01335B011344FB63FB6BC6
:103F70001B6807F114003B4A112106F005FC07F10C
:103F800014031846FDF707FD64E03748FDF703FD0D
:103F900060E0324B1B78022B5CD100210020FDF742
:103FA0009EFCFB6C1B681846FDF7F5FC2F48FDF7DF
:103FB000F2FC00210120FDF792FCFB6C1B79022B27
:103FC0000DD1FB6C9B681B683B64FB6C9B6938469E
:103FD00000933B6C264A112106F0D6FB2CE0FB6CCB
:103FE0001B79032B13D1FB6C9B681B687B64786C7B
:103FF000FCF71AFA02460B46F96C896938460291B9
:10400000CDE900231B4A112106F0BEFB14E0FB6C36
:104010001B79042B10D1FB6C9B681B7887F84B3005
:1040200097F84B30002B01D0134B00E0134B384670
:10403000134A112106F0A8FB084B1B7C002B04D06F
:104040003B461846FDF7A7FC04E00748FDF7A3FC34
:1040500000E000BF5037BD4680BD00BFD407002040
:1040600060E6000868E6000870E6000884E60008DC
:1040700088E6000894E60008A0E60008A4E6000828
:10408000A8E6000880B400AF054B1B78002B14BFD6
:1040900001230023DBB21846BD4680BC704700BF39
:1040A000D407002080B485B000AF154B9B69144A3B
:1040B00043F001039361124B9B6903F00103BB6062
:1040C000BB680F4BDB690E4A43F08053D3610C4B46
:1040D000DB6903F080537B607B680A4B5B68FB60A5
:1040E000FB6823F0E063FB60FB6843F08063FB60E8
:1040F000044AFB68536000BF1437BD4680BC70475C
:10410000001002400000014080B400AF00BFFDE796
:1041100080B400AF00BFFDE780B400AF00BFFDE793
:1041200080B400AF00BFFDE780B400AF00BFFDE783
:1041300080B400AF00BFBD4680BC704780B400AF04
:1041400000BFBD4680BC704780B400AF00BFBD4615
:1041500080BC704780B500AF00F042FC00BF80BD5E
:1041600080B500AF024801F0B9FA00BF80BD00BFC2
:104170000C06002080B500AF024801F0AFFA00BF86
:1041800080BD00BF6809002080B582B000AF244B1D
:1041900001221A70234B1B780133DAB2214B1A70BB
:1041A000204B1B78632B05D91E4B00221A701E4B27
:1041B00001221A7000F026FC02461C4B1B68D31A21
:1041C0007B607B68132B04D900F01CFC0346174A64
:1041D0001360174B1B78002B16D0164B5B691649E2
:1041E0001846FCF7CFFD03461846FCF7CDFF024604
:1041F0007B68934234BF01230023DBB21A4620219F
:104200000E4801F03AFF04E0002220210B4801F0A3
:1042100034FF0B4803F01AFB00BF0837BD4680BDD2
:10422000520700204108002051070020A00700206D
:104230005307002010000020CDCC4C3E000C014064
:10424000D808002080B500AF024804F00FFA00BF84
:1042500080BD00BF2009002080B500AF124B5B6914
:1042600003F48043002B05D0FDF726F90E4B4FF4E5
:1042700080425A610C4B5B6903F40053002B05D05C
:10428000FDF772F9084B4FF400525A614FF4006089
:1042900001F00CFF4FF4005001F008FF4FF4804094
:1042A00001F004FF00BF80BD0004014080B483B072
:1042B00000AF78607B681B68054A934202D1054BCA
:1042C00001221A7000BF0C37BD4680BC704700BF8A
:1042D000002401405007002080B400AF012318469D
:1042E000BD4680BC704780B582B000AF7860396051
:1042F00006F04AFB034616221A604FF0FF331846B9
:104300000837BD4680BD80B582B000AF78604FF001
:10431000FF317868FFF7E7FF00BFFDE780B586B0A3
:1043200000AFF860B9607A6000237B610AE0AFF308
:1043300000800146BB685A1CBA60CAB21A707B6919
:1043400001337B617A697B689A42F0DB7B681846AF
:104350001837BD4680BD80B586B000AFF860B96043
:104360007A6000237B6109E0BB685A1CBA601B7845
:104370001846AFF300807B6901337B617A697B6803
:104380009A42F1DB7B6818461837BD4680BD80B481
:1043900083B000AF78604FF0FF3318460C37BD464E
:1043A00080BC704780B483B000AF786039603B68F0
:1043B0004FF400525A60002318460C37BD4680BCAB
:1043C000704780B483B000AF7860012318460C3783
:1043D000BD4680BC704780B485B000AFF860B9605E
:1043E0007A60002318461437BD4680BC7047000031
:1043F00080B586B000AF7860144A154BD31A7B6144
:104400007B693B61134B1B68002B02D1114B124A95
:104410001A60104B1A687B6813443A699A4207D2B3
:1044200006F0B2FA03460C221A604FF0FF3309E09F
:10443000084B1B68FB60074B1A687B681344054AEE
:104440001360FB6818461837BD4680BD0050002039
:104450000004000044080020200B002080B400AFBE
:1044600000BFBD4680BC704780B592B000AF07F179
:10447000400300221A605A6007F1240300221A60E8
:104480005A609A60DA601A615A619A613B1D202273
:104490000021184606F013FA334B344A1A60324BA7
:1044A00047225A60304B00229A602F4B4FF6FF7222
:1044B000DA602D4B00221A612B4B00225A612A4BE5
:1044C00000229A61284803F06BF80346002B01D0C4
:1044D000FFF7FAF800233B6400237B6407F14003F5
:1044E0001946214803F000FF0346002B01D0FFF7D7
:1044F000EBF860237B620023BB620023FB62002396
:104500003B6300237B630023BB630023FB6307F152
:10451000240300221946144803F088FA0346002BAE
:1045200001D0FFF7D1F800237B600023BB6000239C
:10453000FB6000233B6100237B614FF40053BB61B0
:1045400000233B623B1D1946074803F02BFF03463F
:10455000002B01D0FFF7B8F8034800F0F9F800BFCE
:104560004837BD4680BD00BF48080020002C0140F0
:1045700080B586B000AF07F1080300221A605A60C8
:104580009A60DA603B4600221A605A601D4B4FF079
:1045900080421A601B4B47225A601A4B00229A60D5
:1045A000184B40F2CF72DA60164B00221A61154B9D
:1045B00080229A61134802F051FF0346002B01D07C
:1045C000FFF782F84FF48053BB6007F108031946E8
:1045D0000C4803F0EDFA0346002B01D0FFF774F806
:1045E00000233B6000237B603B461946054803F0EF
:1045F0007BFE0346002B01D0FFF766F800BF18379B
:10460000BD4680BD9008002080B586B000AF07F1A0
:10461000080300221A605A609A60DA603B46002262
:104620001A605A601D4B1E4A1A601C4B41F61F420D
:104630005A601A4B00229A60184B0922DA60174B15
:1046400000221A61154B80229A61144802F006FF7D
:104650000346002B01D0FFF737F84FF48053BB60BF
:1046600007F1080319460D4803F0A2FA0346002B90
:1046700001D0FFF729F800233B6000237B603B4615
:104680001946064803F030FE0346002B01D0FFF721
:104690001BF800BF1837BD4680BD00BFD8080020FA
:1046A0000004004080B485B000AF78607B681B6870
:1046B000094A93420BD1094B9B69084A43F40063B2
:1046C0009361064B9B6903F40063FB60FB6800BFCA
:1046D0001437BD4680BC7047002C014000100240DA
:1046E00080B584B000AF78607B681B68B3F1804F01
:1046F0000CD1154BDB69144A43F00103D361124B13
:10470000DB6903F00103FB60FB6818E07B681B6852
:104710000E4A934213D10C4BDB690B4A43F0020360
:10472000D361094BDB6903F00203BB60BB68002265
:1047300000211D2000F02DFE1D2000F046FE00BFD0
:104740001037BD4680BD00BF00100240000400408D
:1047500080B588B000AF786007F1100300221A60BE
:104760005A609A60DA607B681B68104A934218D1DD
:104770000F4B9B690E4A43F0040393610C4B9B69FA
:1047800003F00403FB60FB684FF480733B6102237A
:104790007B610223FB6107F110031946054801F014
:1047A000D1FA00BF2037BD4680BD00BF002C0140BC
:1047B000001002400008014080B500AF114B124AC2
:1047C0001A60104B4FF4E1325A600E4B00229A608F
:1047D0000C4B0022DA600B4B00221A61094B0C22B1
:1047E0005A61084B00229A61064B0022DA610548A3
:1047F00003F03BFE0346002B01D0FEF765FF00BF30
:1048000080BD00BF200900200038014080B588B07D
:1048100000AF786007F1100300221A605A609A60B6
:10482000DA607B681B68334A93425FD1324B9B69E5
:10483000314A43F4804393612F4B9B6903F48043D7
:10484000FB60FB682C4B9B692B4A43F0040393618C
:10485000294B9B6903F00403BB60BB684FF40073F2
:104860003B6102237B610323FB6107F110031946BF
:10487000224801F067FA4FF480633B6100237B61BB
:104880000023BB6107F1100319461C4801F05AFAD6
:104890001B4B1C4A1A601A4B10225A60184B0022FC
:1048A0009A60174B8022DA60154B00221A61144B74
:1048B00000225A61124B00229A61114B0022DA61E8
:1048C0000F4800F09DFD0346002B01D0FEF7FCFED3
:1048D0007B680B4A9A630A4A7B6853620022002174
:1048E000252000F056FD252000F06FFD00BF203789
:1048F000BD4680BD00380140001002400008014064
:104900006809002044000240FFF7A8FD0B480C494D
:104910000C4A002302E0D458C4500433C4188C421B
:10492000F9D3094A094C002301E013600432A24282
:10493000FBD306F02FF8FDF7DFFF704700000020E3
:10494000BC050020E4EE0008C00500201C0B002080
:10495000FEE7000080B500AF084B1B68074A43F034
:1049600010031360032000F009FD0F2000F008F889
:10497000FFF798FB0023184680BD00BF00200240CF
:1049800080B582B000AF7860124B1A68124B1B786A
:1049900019464FF47A73B3FBF1F3B2FBF3F3184605
:1049A00000F021FD0346002B01D001230EE07B68BF
:1049B0000F2B0AD8002279684FF0FF3000F0E9FC95
:1049C000064A7B681360002300E00123184608377D
:1049D000BD4680BDE8030020F0030020EC0300206A
:1049E00080B400AF054B1B781A46054B1B68134477
:1049F000034A136000BFBD4680BC7047F00300202F
:104A0000AC09002080B400AF024B1B681846BD46BD
:104A100080BC7047AC09002080B584B000AF7860DE
:104A2000FFF7F0FFB8607B68FB60FB68B3F1FF3F06
:104A300005D00A4B1B781A46FB681344FB6000BF85
:104A4000FFF7E0FF0246BB68D31AFA689A42F7D82C
:104A500000BF00BF1037BD4680BD00BFF00300207F
:104A600080B586B000AF78600023FB7500233B6102
:104A70000023BB600023FB607B68002B01D1012376
:104A8000BEE07B689B68002B7B689B6A002B09D18A
:104A90007B680022DA627B68002283F82420786831
:104AA000FCF706FC786800F0F5FA0346FB757B68B6
:104AB0009B6A03F01003002B40F09980FB7D002BD4
:104AC00040F095807B689B6A23F4885323F00203AF
:104AD00043F002027B689A627B685A687B68DB69F4
:104AE0001A437B681B7B5B001343BA681343BB60AC
:104AF0007B689B68B3F5807F03D07B689B68012B44
:104B000002D14FF4807300E000233A6913433B6104
:104B10007B681B7D012B19D17B681B7B002B09D186
:104B20007B689B69013B5A033B69134343F4006371
:104B30003B610BE07B689B6A43F020027B689A62D2
:104B40007B68DB6A43F001027B68DA627B681B6882
:104B50005B6823F469417B681B683A690A435A60C1
:104B60007B681B689A68284B13407A681268B9689A
:104B70000B4393607B689B68B3F5807F03D07B68B1
:104B80009B68012B04D17B681B69013B1B05FB6003
:104B90007B681B68DB6A23F470017B681B68FA681A
:104BA0000A43DA627B681B689A68184B1340BA683C
:104BB0009A420BD17B680022DA627B689B6A23F001
:104BC000030343F001027B689A6218E07B689B6AEA
:104BD00023F0120343F010027B689A627B68DB6A61
:104BE00043F001027B68DA620123FB7507E07B6812
:104BF0009B6A43F010027B689A620123FB75FB7D80
:104C000018461837BD4680BDFDF7E1FFFE0E1FFFB9
:104C100080B586B000AFF860B9607A600023FB759C
:104C2000FB681B68644A934204D0FB681B68634AB4
:104C3000934206D1604B5B6803F47023002B40F075
:104C4000B380FB6893F82430012B01D10223AEE03E
:104C5000FB68012283F82420F86800F0C1F90346BC
:104C6000FB75FB7D002B40F09A80FB689B6A23F468
:104C7000706323F0010343F48072FB689A62FB685F
:104C80001B684E4A934205D14B4B5B6803F470237B
:104C9000002B15D1FB689B6A23F48012FB689A6293
:104CA000FB681B685B6803F48063002B26D0FB68FD
:104CB0009B6A23F4405343F48052FB689A621DE0E0
:104CC000FB689B6A43F48012FB689A62FB681B686E
:104CD000394A934204D0FB681B68384A93420DD18D
:104CE000354B5B6803F48063002B07D0FB689B6A3D
:104CF00023F4405343F48052FB689A62FB689B6A3A
:104D000003F48053002B06D0FB68DB6A23F0060215
:104D1000FB68DA6202E0FB680022DA62FB680022CC
:104D200083F82420FB681B6A254A9A62FB681B6A89
:104D3000244ADA62FB681B6A234A1A63FB681B6811
:104D40006FF002021A60FB681B689A68FB681B68B8
:104D500042F480729A60FB68186AFB681B684C33E7
:104D60001946BA687B6800F0A5FBFB681B689B6866
:104D700003F46023B3F5602F08D1FB681B689A68C1
:104D8000FB681B6842F4A0029A600FE0FB681B6896
:104D90009A68FB681B6842F480129A6006E0FB6820
:104DA000002283F8242001E00123FB75FB7D1846D7
:104DB0001837BD4680BD00BF0024014000280140D7
:104DC0001751000893510008AF51000880B483B018
:104DD00000AF786000BF0C37BD4680BC704780B420
:104DE00083B000AF786000BF0C37BD4680BC704711
:104DF00080B485B000AF786039600023FB73002376
:104E0000BB607B6893F82430012B01D10223DCE0E6
:104E10007B68012283F824203B685B68062B1CD842
:104E20007B681B68596B3B685A6813469B001344A8
:104E3000053B1F2202FA03F3DB4319403B68186865
:104E40003B685A6813469B001344053B00FA03F283
:104E50007B681B680A435A633CE03B685B680C2B29
:104E60001CD87B681B68196B3B685A6813469B000B
:104E70001344233B1F2202FA03F3DB4319403B6830
:104E800018683B685A6813469B001344233B00FA9A
:104E900003F27B681B680A431A631BE07B681B688C
:104EA000D96A3B685A6813469B001344413B1F2252
:104EB00002FA03F3DB4319403B6818683B685A6801
:104EC00013469B001344413B00FA03F27B681B68C6
:104ED0000A43DA623B681B68092B1CD97B681B6894
:104EE000D9683B681A6813465B0013441E3B0722CF
:104EF00002FA03F3DB4319403B6898683B681A6881
:104F000013465B0013441E3B00FA03F27B681B68E8
:104F10000A43DA6019E07B681B6819693B681A6804
:104F200013465B001344072202FA03F3DB431940E4
:104F30003B6898683B681A6813465B00134400FAA4
:104F400003F27B681B680A431A613B681B68102BDD
:104F500003D03B681B68112B32D17B681B681D4A4C
:104F6000934225D17B681B689B6803F40003002BE8
:104F700026D17B681B689A687B681B6842F4000234
:104F80009A603B681B68102B1AD1134B1B68134A9D
:104F9000A2FB03239A0C13469B0013445B00BB60E7
:104FA00002E0BB68013BBB60BB68002BF9D107E0A6
:104FB0007B689B6A43F020027B689A620123FB7343
:104FC0007B68002283F82420FB7B18461437BD46FB
:104FD00080BC704700240140E803002083DE1B43AF
:104FE00080B584B000AF78600023FB600023BB6015
:104FF0007B681B689B6803F00103012B40D07B6832
:105000001B689A687B681B6842F001029A601F4B1C
:105010001B681F4AA2FB03239B0CBB6002E0BB681A
:10502000013BBB60BB68002BF9D1FFF7EBFCF860DC
:105030001FE0FFF7E7FC0246FB68D31A022B18D9E2
:105040007B681B689B6803F00103012B11D07B6810
:105050009B6A43F010027B689A627B68DB6A43F0CC
:1050600001027B68DA627B68002283F82420012336
:1050700007E07B681B689B6803F00103012BD8D114
:10508000002318461037BD4680BD00BFE80300204E
:1050900083DE1B4380B584B000AF78600023FB60E3
:1050A0007B681B689B6803F00103012B2ED17B6892
:1050B0001B689A687B681B6822F001029A60FFF700
:1050C000A1FCF8601BE0FFF79DFC0246FB68D31AC9
:1050D000022B14D97B681B689B6803F00103012B2A
:1050E0000DD17B689B6A43F010027B689A627B68F3
:1050F000DB6A43F001027B68DA62012307E07B6828
:105100001B689B6803F00103012BDCD000231846C9
:105110001037BD4680BD80B584B000AF78607B6835
:105120005B6AFB60FB689B6A03F05003002B27D18E
:10513000FB689B6A43F40072FB689A62FB681B6819
:105140009B6803F46023B3F5602F15D1FB681B7BCC
:10515000002B11D1FB689B6A23F48072FB689A6272
:10516000FB689B6A03F48053002B05D1FB689B6AA4
:1051700043F00102FB689A62F868FFF797F804E0D1
:10518000FB681B6A1B6B7868984700BF1037BD46E9
:1051900080BD80B584B000AF78607B685B6AFB60DF
:1051A000F868FFF713FE00BF1037BD4680BD80B51D
:1051B00084B000AF78607B685B6AFB60FB689B6AC9
:1051C00043F04002FB689A62FB68DB6A43F004022A
:1051D000FB68DA62F868FFF702FE00BF1037BD46D1
:1051E00080BD000080B485B000AF78607B6803F0BC
:1051F0000703FB600C4BDB68BB60BA684FF6FF032C
:105200001340BB60FB681A02BB68134343F0BF63E3
:1052100043F40033BB60044ABB68D36000BF14375B
:10522000BD4680BC704700BF00ED00E080B400AF19
:10523000044BDB681B0A03F007031846BD4680BC1D
:10524000704700BF00ED00E080B483B000AF0346BC
:10525000FB7197F90730002B0BDBFB7903F01F0282
:10526000064997F907305B09012000FA02F241F87C
:10527000232000BF0C37BD4680BC704700E100E032
:1052800080B483B000AF03463960FB7197F90730F3
:10529000002B0ADB3B68DAB20C4997F907301201A0
:1052A000D2B20B4483F800230AE03B68DAB2084923
:1052B000FB7903F00F03043B1201D2B20B441A76C0
:1052C00000BF0C37BD4680BC704700BF00E100E066
:1052D00000ED00E080B489B000AFF860B9607A609A
:1052E000FB6803F00703FB61FB69C3F10703042BB1
:1052F00028BF0423BB61FB690433062B02D9FB6979
:10530000033B00E000237B614FF0FF32BB6902FAF0
:1053100003F3DA43BB681A407B699A404FF0FF31D0
:105320007B6901FA03F3D9437B680B4013431846AA
:105330002437BD4680BC704780B582B000AF78602E
:105340007B68013BB3F1807F01D301230FE00A4A60
:105350007B68013B53600F214FF0FF30FFF790FF58
:10536000054B00229A60044B07221A60002318465E
:105370000837BD4680BD00BF10E000E080B582B0B8
:1053800000AF78607868FFF72DFF00BF0837BD4693
:1053900080BD80B586B000AF0346B9607A60FB730C
:1053A00000237B61FFF742FF78617A68B96878690A
:1053B000FFF790FF024697F90F3011461846FFF7A6
:1053C0005FFF00BF1837BD4680BD80B582B000AF1B
:1053D0000346FB7197F907301846FFF735FF00BF0A
:1053E0000837BD4680BD80B582B000AF7860786870
:1053F000FFF7A2FF034618460837BD4680BD0000F0
:1054000080B485B000AF78600023FB607B68002B20
:1054100001D1012343E07B681B681A46224B1344E9
:10542000224AA2FB03231B099A007B681A647B684B
:105430001F4ADA637B68022283F821207B681B689D
:105440001B68FB60FB6823F47F5323F03003FB6091
:105450007B685A687B689B681A437B68DB681A43E1
:105460007B681B691A437B685B691A437B689B698D
:105470001A437B68DB691343FA681343FB607B685C
:105480001B68FA681A607B6800229A637B680122B5
:1054900083F821207B68002283F82020002318460F
:1054A0001437BD4680BC7047F8FFFDBFCDCCCCCCD7
:1054B0000000024080B586B000AFF860B9607A6045
:1054C0003B600023FB75FB6893F82030012B01D172
:1054D00002234BE0FB68012283F82020FB6893F84D
:1054E0002130DBB2012B3AD1FB68022283F8212064
:1054F000FB6800229A63FB681B681A68FB681B68DC
:1055000022F001021A603B687A68B968F86800F016
:10551000EBF9FB68DB6A002B08D0FB681B681A6894
:10552000FB681B6842F00E021A600FE0FB681B6804
:105530001A68FB681B6822F004021A60FB681B688B
:105540001A68FB681B6842F00A021A60FB681B6855
:105550001A68FB681B6842F001021A6005E0FB68EC
:10556000002283F820200223FB75FB7D18461837A4
:10557000BD4680BD80B485B000AF78600023FB736A
:105580007B6893F82130DBB2022B08D07B680422C1
:105590009A637B68002283F82020012320E07B6847
:1055A0001B681A687B681B6822F00E021A607B6811
:1055B0001B681A687B681B6822F001021A607B680E
:1055C0001A6C7B68DB6B012101FA02F25A607B687E
:1055D000012283F821207B68002283F82020FB7BB6
:1055E00018461437BD4680BC7047000080B584B0B3
:1055F00000AF78600023FB737B6893F82130DBB247
:10560000022B05D07B6804229A630123FB7351E0CF
:105610007B681B681A687B681B6822F00E021A60A0
:105620007B681B681A687B681B6822F001021A609D
:105630007B681B68224A934229D07B681B68214AF9
:10564000934222D07B681B681F4A93421AD07B6822
:105650001B681E4A934212D07B681B681C4A934207
:105660000AD07B681B681B4A934202D14FF4801317
:105670000EE04FF080730BE04FF4803308E04FF4FE
:10568000805305E04FF4807302E0102300E0012313
:10569000114A53607B68012283F821207B68002235
:1056A00083F820207B685B6B002B03D07B685B6BEF
:1056B00078689847FB7B18461037BD4680BD00BF11
:1056C000080002401C00024030000240440002403A
:1056D000580002406C0002400000024080B584B0D7
:1056E00000AF78607B68DB6B1B68FB607B681B68C6
:1056F0001B68BB607B681B6C04229A40FB681340EC
:10570000002B4FD0BB6803F00403002B4AD07B680A
:105710001B681B6803F02003002B07D17B681B6804
:105720001A687B681B6822F004021A607B681B6899
:10573000664A934229D07B681B68654A934222D00F
:105740007B681B68634A93421AD07B681B68624A75
:10575000934212D07B681B68604A93420AD07B68F0
:105760001B685F4A934202D14FF480030EE04FF072
:1057700080630BE04FF4802308E04FF4804305E0A2
:105780004FF4806302E0402300E00423554A536055
:105790007B68DB6A002B00F094807B68DB6A7868AA
:1057A00098478EE07B681B6C02229A40FB6813408E
:1057B000002B56D0BB6803F00203002B51D07B684E
:1057C0001B681B6803F02003002B0BD17B681B6850
:1057D0001A687B681B6822F00A021A607B68012243
:1057E00083F821207B681B68384A934229D07B6864
:1057F0001B68374A934222D07B681B68354A934224
:105800001AD07B681B68344A934212D07B681B68AD
:10581000324A93420AD07B681B68314A934202D1D4
:105820004FF400130EE04FF000730BE04FF4003321
:1058300008E04FF4005305E04FF4007302E020232A
:1058400000E00223274A53607B68002283F820206F
:105850007B689B6A002B34D07B689B6A786898478A
:105860002FE07B681B6C08229A40FB681340002BDA
:1058700028D0BB6803F00803002B23D07B681B688B
:105880001A687B681B6822F00E021A607B681A6C2B
:105890007B68DB6B012101FA02F25A607B6801220E
:1058A0009A637B68012283F821207B68002283F8B9
:1058B00020207B681B6B002B04D07B681B6B7868F7
:1058C000984700BF00BF1037BD4680BD08000240AA
:1058D0001C000240300002404400024058000240D8
:1058E0006C0002400000024080B485B000AFF86058
:1058F000B9607A603B60FB681A6CFB68DB6B012166
:1059000001FA02F25A60FB681B683A685A60FB6849
:105910005B68102B08D1FB681B687A689A60FB688B
:105920001B68BA68DA6007E0FB681B68BA689A60AF
:10593000FB681B687A68DA6000BF1437BD4680BC1C
:1059400070470000F0B587B000AFF860B960C7E9F4
:1059500000230123FB750023BB7500237B752F4BB0
:105960001B7E012B01D1022354E02C4B01221A761D
:105970004CF2503000F0A8F80346FB75FB7D002B7D
:1059800044D1FB68012B02D101237B7507E0FB6842
:10599000022B02D102237B7501E004237B750023D7
:1059A000BB752DE0BB7D5A00BB6802EB030CBB7DD1
:1059B0001901D7E90023C1F12006A1F1200022FA44
:1059C00001F403FA06F6344323FA00F0044323FA01
:1059D00001F5A3B21946604600F05AF84CF2503077
:1059E00000F072F80346FB750D4B1B690C4A23F05F
:1059F00001031361FB7D002B07D1BB7D0133BB7518
:105A0000BA7D7B7D9A42CDD300E000BF034B0022DC
:105A10001A76FB7D18461C37BD46F0BDB009002044
:105A20000020024080B483B000AF0023FB710D4B17
:105A30001B6903F08003002B0DD00A4B0A4A5A6001
:105A4000084B0A4A5A60074B1B6903F08003002B7E
:105A500001D00123FB71FB7918460C37BD4680BC91
:105A6000704700BF0020024023016745AB89EFCD9E
:105A700080B400AF054B1B69044A43F080031361F7
:105A800000231846BD4680BC704700BF002002407E
:105A900080B483B000AF78600B467B80084B002257
:105AA000DA61084B1B69074A43F0010313617B6805
:105AB0007A881A8000BF0C37BD4680BC704700BF93
:105AC000B00900200020024080B584B000AF7860AB
:105AD000FEF798FFF86010E07B68B3F1FF3F0CD051
