:020000040800F2
:1000000000500020952F0008BD280008C5280008D2
:10001000CD280008D5280008DD28000800000000D1
:10002000000000000000000000000000E5280008BB
:10003000F128000800000000FD2800080929000838
:10004000DD2F0008DD2F0008DD2F0008DD2F000860
:10005000DD2F0008DD2F0008DD2F0008DD2F000850
:10006000DD2F0008DD2F0008DD2F0008152900080E
:10007000DD2F0008DD2F000829290008DD2F0008EA
:10008000DD2F0008DD2F0008DD2F0008DD2F000820
:10009000DD2F0008DD2F0008DD2F0008DD2F000810
:1000A000DD2F0008DD2F0008DD2F0008DD2F000800
:1000B000DD2F00083D290008DD2F0008DD2F000896
:1000C000DD2F0008DD2F0008DD2F0008DD2F0008E0
:1000D000DD2F000851290008DD2F0008DD2F000862
:1000E000DD2F0008DD2F0008DD2F000800000000D4
:1000F0000000000000000000000000000000000000
:0C01000000000000000000005FF808F1A3
:1001100010B5054C237833B9044B13B10448AFF341
:1001200000800123237010BDF801002000000000B2
:1001300034C3000808B5034B1BB103490348AFF3B0
:10014000008008BD00000000FC01002034C300084E
:10015000034613F8012B002AFBD1181A0138704707
:1001600081F0004102E000BF83F0004330B54FEA68
:1001700041044FEA430594EA050F08BF90EA020FD5
:100180001FBF54EA000C55EA020C7FEA645C7FEA68
:10019000655C00F0E2804FEA5454D4EB5555B8BF8B
:1001A0006D420CDD2C4480EA020281EA030382EAFC
:1001B000000083EA010180EA020281EA0303362D8E
:1001C00088BF30BD11F0004F4FEA01314FF4801C61
:1001D0004CEA113102D0404261EB410113F0004F73
:1001E0004FEA03334CEA133302D0524263EB43032A
:1001F00094EA050F00F0A780A4F10104D5F1200EC8
:100200000DDB02FA0EFC22FA05F2801841F1000122
:1002100003FA0EF2801843FA05F359410EE0A5F1F6
:1002200020050EF1200E012A03FA0EFC28BF4CF027
:10023000020C43FA05F3C01851EBE37101F00045DD
:1002400007D54FF0000EDCF1000C7EEB00006EEBEA
:100250000101B1F5801F1BD3B1F5001F0CD3490874
:100260005FEA30004FEA3C0C04F101044FEA4452CB
:1002700012F5800F80F09A80BCF1004F08BF5FEA52
:10028000500C50F1000041EB045141EA050130BD32
:100290005FEA4C0C404141EB0101013C28BFB1F544
:1002A000801FE9D291F0000F04BF01460020B1FA8F
:1002B00081F308BF2033A3F10B03B3F120020CDA62
:1002C0000C3208DD02F1140CC2F10C0201FA0CF040
:1002D00021FA02F10CE002F11402D8BFC2F1200CA5
:1002E00001FA02F120FA0CFCDCBF41EA0C0190405B
:1002F000E41AA2BF01EB0451294330BD6FEA0404A4
:100300001F3C1CDA0C340EDC04F11404C4F120028E
:1003100020FA04F001FA02F340EA030021FA04F3A0
:1003200045EA030130BDC4F10C04C4F1200220FAF7
:1003300002F001FA04F340EA0300294630BD21FA35
:1003400004F0294630BD94F0000F83F4801306BFFB
:1003500081F480110134013D4EE77FEA645C18BFEF
:100360007FEA655C29D094EA050F08BF90EA020F86
:1003700005D054EA000C04BF1946104630BD91EA7E
:10038000030F1EBF0021002030BD5FEA545C05D181
:100390004000494128BF41F0004130BD14F58004C0
:1003A0003CBF01F5801130BD01F0004545F0FE4134
:1003B00041F470014FF0000030BD7FEA645C1ABF69
:1003C000194610467FEA655C1CBF0B46024650EAA0
:1003D000013406BF52EA033591EA030F41F40021CC
:1003E00030BD00BF90F0000F04BF0021704730B552
:1003F0004FF4806404F132044FF000054FF0000127
:1004000050E700BF90F0000F04BF0021704730B5E7
:100410004FF4806404F1320410F0004548BF4042BC
:100420004FF000013EE700BF42004FEAE2014FEA11
:1004300031014FEA02701FBF12F07F4393F07F4FEC
:1004400081F06051704732F07F4208BF704793F0EF
:100450007F4F04BF41F40021704730B54FF4607402
:1004600001F0004521F000411CE700BF50EA010205
:1004700008BF704730B54FF000050AE050EA0102AE
:1004800008BF704730B511F0004502D5404261EB1E
:1004900041014FF4806404F132045FEA915C3FF45F
:1004A000D8AE4FF003025FEADC0C18BF03325FEAFC
:1004B000DC0C18BF033202EBDC02C2F1200300FAAD
:1004C00003FC20FA02F001FA03FE40EA0E0021FAD2
:1004D00002F11444BDE600BF70B54FF0FF0C4CF4C0
:1004E000E06C1CEA11541DBF1CEA135594EA0C0F72
:1004F00095EA0C0F00F0DEF82C4481EA030621EAAD
:100500004C5123EA4C5350EA013518BF52EA0335E7
:1005100041F4801143F4801338D0A0FB02CE4FF099
:100520000005E1FB02E506F00042E0FB03E54FF0C9
:100530000006E1FB03569CF0000F18BF4EF0010EC1
:10054000A4F1FF04B6F5007F64F5407404D25FEABD
:100550004E0E6D4146EB060642EAC62141EA555170
:100560004FEAC52040EA5E504FEACE2EB4F1FD0CB2
:1005700088BFBCF5E06F1ED8BEF1004F08BF5FEA30
:10058000500E50F1000041EB045170BD06F00046E2
:1005900046EA010140EA020081EA0301B4EB5C048F
:1005A000C2BFD4EB0C0541EA045170BD41F4801187
:1005B0004FF0000E013C00F3AB8014F1360FDEBFAC
:1005C000002001F0004170BDC4F10004203C35DA88
:1005D0000C341BDC04F11404C4F1200500FA05F30B
:1005E00020FA04F001FA05F240EA020001F00042AC
:1005F00021F0004110EBD37021FA04F642EB060122
:100600005EEA430E08BF20EAD37070BDC4F10C044B
:10061000C4F1200500FA04F320FA05F001FA04F20F
:1006200040EA020001F0004110EBD37041F10001FB
:100630005EEA430E08BF20EAD37070BDC4F1200506
:1006400000FA05F24EEA020E20FA04F301FA05F26E
:1006500043EA020321FA04F001F0004121FA04F216
:1006600020EA020000EBD3705EEA430E08BF20EAE6
:10067000D37070BD94F0000F0FD101F00046400020
:1006800041EB010111F4801F08BF013CF7D041EAA2
:10069000060195F0000F18BF704703F000465200A6
:1006A00043EB030313F4801F08BF013DF7D043EA77
:1006B0000603704794EA0C0F0CEA135518BF95EA2D
:1006C0000C0F0CD050EA410618BF52EA4306D1D1B4
:1006D00081EA030101F000414FF0000070BD50EAD3
:1006E000410606BF1046194652EA430619D094EA5D
:1006F0000C0F02D150EA013613D195EA0C0F05D147
:1007000052EA03361CBF104619460AD181EA03019A
:1007100001F0004141F0FE4141F470014FF0000052
:1007200070BD41F0FE4141F4780170BD70B54FF0ED
:10073000FF0C4CF4E06C1CEA11541DBF1CEA13556D
:1007400094EA0C0F95EA0C0F00F0A7F8A4EB05044F
:1007500081EA030E52EA03354FEA013100F0888046
:100760004FEA03334FF0805545EA131343EA12630F
:100770004FEA022245EA111545EA10654FEA0026C4
:100780000EF000419D4208BF964244F1FD0404F57D
:10079000407402D25B084FEA3202B61A65EB0305D9
:1007A0005B084FEA32024FF480104FF4002CB6EB96
:1007B000020E75EB030E22BFB61A754640EA0C0016
:1007C0005B084FEA3202B6EB020E75EB030E22BF56
:1007D000B61A754640EA5C005B084FEA3202B6EB97
:1007E000020E75EB030E22BFB61A754640EA9C0056
:1007F0005B084FEA3202B6EB020E75EB030E22BF26
:10080000B61A754640EADC0055EA060E18D04FEAE3
:10081000051545EA16754FEA06164FEAC30343EA83
:1008200052734FEAC2025FEA1C1CC0D111F4801F50
:100830000BD141EA00014FF000004FF0004CB6E749
:1008400011F4801F04BF01430020B4F1FD0C88BFE8
:10085000BCF5E06F3FF6AFAEB5EB030C04BFB6EBF3
:10086000020C5FEA500C50F1000041EB045170BDE6
:100870000EF0004E4EEA113114EB5C04C2BFD4EB13
:100880000C0541EA045170BD41F480114FF0000E97
:10089000013C90E645EA060E8DE60CEA135594EA13
:1008A0000C0F08BF95EA0C0F3FF43BAF94EA0C0F16
:1008B0000AD150EA01347FF434AF95EA0C0F7FF48B
:1008C00025AF104619462CE795EA0C0F06D152EADF
:1008D00003353FF4FDAE1046194622E750EA4106C3
:1008E00018BF52EA43067FF4C5AE50EA41047FF4D4
:1008F0000DAF52EA43057FF4EBAE12E74FF0FF3C39
:1009000006E000BF4FF0010C02E000BF4FF0010C09
:100910004DF804CD4FEA410C7FEA6C5C4FEA430C82
:1009200018BF7FEA6C5C1BD001B050EA410C0CBFD1
:1009300052EA430C91EA030F02BF90EA020F002033
:10094000704710F1000F91EA030F58BF994208BF9A
:1009500090422CBFD8176FEAE37040F00100704757
:100960004FEA410C7FEA6C5C02D150EA013C07D1AE
:100970004FEA430C7FEA6C5CD6D152EA033CD3D0F9
:100980005DF8040B704700BF8446104662468C46F3
:100990001946634600E000BF01B5FFF7B7FF002826
:1009A00048BF10F1000F01BD4DF808EDFFF7F4FF4F
:1009B0000CBF012000205DF808FB00BF4DF808EDDA
:1009C000FFF7EAFF34BF012000205DF808FB00BFFD
:1009D0004DF808EDFFF7E0FF94BF012000205DF81F
:1009E00008FB00BF4DF808EDFFF7CEFF94BF0120D4
:1009F00000205DF808FB00BF4DF808EDFFF7C4FFCD
:100A000034BF012000205DF808FB00BF4FEA410C15
:100A10007FEA6C5C02D150EA013C0AD14FEA430CF8
:100A20007FEA6C5C02D152EA033C02D14FF0000035
:100A300070474FF0010070474FEA410212F5001273
:100A400015D211D56FF47873B3EB625212D94FEA15
:100A5000C12343F0004343EA505311F0004F23FAFF
:100A600002F018BF404270474FF00000704750EA54
:100A7000013005D111F0004008BF6FF00040704711
:100A80004FF00000704700BF4A0011D212F500126B
:100A900011D20DD56FF47873B3EB62520ED44FEAD6
:100AA000C12343F0004343EA505323FA02F0704756
:100AB0004FF00000704750EA013002D14FF0FF3094
:100AC00070474FF0000070474FEA4102B2F1E04337
:100AD00024BFB3F5001CDCF1FE5C0DD901F0004C25
:100AE0004FEAC0024CEA5070B2F1004F40EB830075
:100AF00008BF20F00100704711F0804F21D113F1A1
:100B00003872BCBF01F00040704741F480114FEAD9
:100B10005252C2F11802C2F1200C10FA0CF320FA62
:100B200002F018BF40F001004FEAC1234FEAD3237F
:100B300003FA0CFC40EA0C0023FA02F34FEA4303E9
:100B4000CCE77FEA625307D150EA01331EBF4FF072
:100B5000FE4040F44000704701F0004040F0FE408D
:100B600040F40000704700BF80F0004002E000BF8A
:100B700081F0004142001FBF5FEA410392EA030F88
:100B80007FEA226C7FEA236C6AD04FEA1262D2EBD2
:100B90001363C1BFD218414048404140B8BF5B42D7
:100BA000192B88BF704710F0004F40F4000020F070
:100BB0007F4018BF404211F0004F41F4000121F086
:100BC0007F4118BF494292EA030F3FD0A2F10102D0
:100BD00041FA03FC10EB0C00C3F1200301FA03F10E
:100BE00000F0004302D5494260EB4000B0F5000F31
:100BF00013D3B0F1807F06D340084FEA310102F1F0
:100C00000102FE2A51D2B1F1004F40EBC25008BFA1
:100C100020F0010040EA03007047490040EB00006B
:100C2000013A28BFB0F5000FEDD2B0FA80FCACF16C
:100C3000080CB2EB0C0200FA0CF0AABF00EBC25099
:100C400052421843BCBFD0401843704792F0000F87
:100C500081F4000106BF80F400000132013BB5E7DA
:100C60004FEA41037FEA226C18BF7FEA236C21D050
:100C700092EA030F04D092F0000F08BF08467047B5
:100C800090EA010F1CBF0020704712F07F4F04D183
:100C9000400028BF40F00040704712F100723CBF96
:100CA00000F50000704700F0004343F0FE4040F4C0
:100CB000000070477FEA226216BF08467FEA23637E
:100CC0000146420206BF5FEA412390EA010F40F469
:100CD000800070474FF0000304E000BF10F00043B5
:100CE00048BF40425FEA000C08BF704743F096439C
:100CF00001464FF000001CE050EA010208BF7047B7
:100D00004FF000030AE000BF50EA010208BF70473D
:100D100011F0004302D5404261EB41015FEA010C52
:100D200002BF84460146002043F0B64308BFA3F14A
:100D30008053A3F50003BCFA8CF2083AA3EBC2532C
:100D400010DB01FA02FC634400FA02FCC2F120024B
:100D5000BCF1004F20FA02F243EB020008BF20F082
:100D60000100704702F1200201FA02FCC2F12002E8
:100D700050EA4C0021FA02F243EB020008BF20EADD
:100D8000DC7070474FF0FF0C1CEAD0521EBF1CEA0B
:100D9000D15392EA0C0F93EA0C0F6FD01A4480EAF9
:100DA000010C400218BF5FEA41211ED04FF00063E2
:100DB00043EA501043EA5111A0FB01310CF000400E
:100DC000B1F5000F3EBF490041EAD3715B0040EA34
:100DD000010062F17F02FD2A1DD8B3F1004F40EB04
:100DE000C25008BF20F00100704790F0000F0CF0D7
:100DF000004C08BF49024CEA502040EA51207F3A9B
:100E0000C2BFD2F1FF0340EAC250704740F4000075
:100E10004FF00003013A5DDC12F1190FDCBF00F066
:100E200000407047C2F10002410021FA02F1C2F114
:100E3000200200FA02FC5FEA310040F1000053EAB0
:100E40004C0308BF20EADC70704792F0000F00F0FE
:100E5000004C02BF400010F4000F013AF9D040EA04
:100E60000C0093F0000F01F0004C02BF490011F498
:100E7000000F013BF9D041EA0C018FE70CEAD15396
:100E800092EA0C0F18BF93EA0C0F0AD030F0004C16
:100E900018BF31F0004CD8D180EA010000F00040CA
:100EA000704790F0000F17BF90F0004F084691F088
:100EB000000F91F0004F14D092EA0C0F01D14202C2
:100EC0000FD193EA0C0F03D14B0218BF084608D18B
:100ED00080EA010000F0004040F0FE4040F40000D5
:100EE000704740F0FE4040F4400070474FF0FF0C68
:100EF0001CEAD0521EBF1CEAD15392EA0C0F93EAAF
:100F00000C0F69D0A2EB030280EA010C49024FEA00
:100F1000402037D04FF0805343EA111143EA1013B9
:100F20000CF000408B4238BF5B0042F17D024FF471
:100F3000000C8B4224BF5B1A40EA0C00B3EB510F4C
:100F400024BFA3EB510340EA5C00B3EB910F24BF35
:100F5000A3EB910340EA9C00B3EBD10F24BFA3EBBA
:100F6000D10340EADC001B0118BF5FEA1C1CE0D182
:100F7000FD2A3FF650AF8B4240EBC25008BF20F035
:100F8000010070470CF0004C4CEA50207F32C2BF89
:100F9000D2F1FF0340EAC250704740F400004FF026
:100FA0000003013A37E792F0000F00F0004C02BF57
:100FB000400010F4000F013AF9D040EA0C0093F021
:100FC000000F01F0004C02BF490011F4000F013B7B
:100FD000F9D041EA0C0195E70CEAD15392EA0C0FE3
:100FE00008D142027FF47DAF93EA0C0F7FF470AF1B
:100FF000084676E793EA0C0F04D14B023FF44CAF5E
:1010000008466EE730F0004C18BF31F0004CCAD1F2
:1010100030F000427FF45CAF31F000437FF43CAF2E
:101020005FE700BF4FF0FF3C06E000BF4FF0010C50
:1010300002E000BF4FF0010C4DF804CD4FEA400232
:101040004FEA41037FEA226C18BF7FEA236C11D07C
:1010500001B052EA530C18BF90EA010F58BFB2EB2F
:10106000030088BFC81738BF6FEAE17018BF40F0AF
:10107000010070477FEA226C02D15FEA402C05D163
:101080007FEA236CE4D15FEA412CE1D05DF8040BE8
:10109000704700BF844608466146FFE70FB5FFF77B
:1010A000C9FF002848BF10F1000F0FBD4DF808ED33
:1010B000FFF7F4FF0CBF012000205DF808FB00BF24
:1010C0004DF808EDFFF7EAFF34BF012000205DF87E
:1010D00008FB00BF4DF808EDFFF7E0FF94BF0120CB
:1010E00000205DF808FB00BF4DF808EDFFF7D2FFC8
:1010F00094BF012000205DF808FB00BF4DF808ED0B
:10110000FFF7C8FF34BF012000205DF808FB00BFD7
:101110004FEA40024FEA41037FEA226C02D15FEAC4
:10112000402C08D17FEA236C02D15FEA412C02D126
:101130004FF0000070474FF0010070474FEA400247
:10114000B2F1FE4F0FD34FF09E03B3EB12620DD9F5
:101150004FEA002343F0004310F0004F23FA02F05F
:1011600018BF404270474FF00000704712F1610F06
:1011700001D1420205D110F0004008BF6FF00040DD
:1011800070474FF00000704742000ED2B2F1FE4FA0
:101190000BD34FF09E03B3EB126209D44FEA002346
:1011A00043F0004323FA02F070474FF0000070470D
:1011B00012F1610F01D1420202D14FF0FF307047AE
:1011C0004FF00000704700BF38B5002200230446EE
:1011D0000D46FFF7F3FB28B920462946BDE8384005
:1011E00000F00AB8204605F1004100F005F8404241
:1011F00061EB410138BD00BFD0B500220B4B064664
:101200000F46FFF769F9FFF73FFC0446FFF7EAF8DE
:101210000022074BFFF760F902460B46304639467D
:10122000FEF7A2FFFFF730FC2146D0BD0000F03DE5
:101230000000F04180B584B000AF3B1D00221A6071
:101240005A609A60184B194A1A60174B00229A602C
:10125000154B01221A73144B00221A75124B4FF4CE
:101260006022DA61104B00225A600F4B01221A6192
:101270000D4801F03BFF0346002B01D001F0E6FAD8
:1012800000237B600123BB600723FB603B1D1946E5
:10129000054802F0F3F80346002B01D001F0D6FA1E
:1012A00000BF1037BD4680BD14020020002401405D
:1012B00080B588B000AF786007F1100300221A6093
:1012C0005A609A60DA607B681B68284A934249D169
:1012D000274B9B69264A43F400739361244B9B6917
:1012E00003F40073FB60FB68214B9B69204A43F0C9
:1012F000040393611E4B9B6903F00403BB60BB684E
:1013000001233B6103237B6107F110031946194850
:1013100002F05EFE184B194A1A60174B00225A6001
:10132000154B00229A60144B8022DA60124B4FF466
:1013300080721A61104B4FF480625A610E4B00228A
:101340009A610D4B0022DA610B4802F09FFB0346C5
:10135000002B01D001F07AFA7B68074A1A62064A2C
:101360007B68536200BF2037BD4680BD002401402A
:101370000010024000080140440200200800024022
:1013800080B582B000AF104B5B690F4A43F0010398
:1013900053610D4B5B6903F001037B607B680022A6
:1013A00000210B2002F03BFB0B2002F054FB00223B
:1013B00000210E2002F033FB0E2002F04CFB00BF98
:1013C0000837BD4680BD00BF0010024080B588B020
:1013D00000AF07F1100300221A605A609A60DA60C9
:1013E0003A4B9B69394A43F020039361374B9B6921
:1013F00003F02003FB60FB68344B9B69334A43F0E6
:1014000004039361314B9B6903F00403BB60BB6829
:101410002E4B9B692D4A43F0080393612B4B9B692C
:1014200003F008037B607B6800222221284802F039
:101430006AFF00222021274802F065FF02233B615A
:1014400001237B610023BB610223FB6107F11003D1
:1014500019461F4802F0BCFD10233B6100237B614D
:101460000123BB6107F110031946194802F0B0FDD2
:1014700020233B6101237B610223BB610223FB61CB
:1014800007F110031946124802F0A2FD4FF48053F1
:101490003B6100237B610123BB6107F11003194607
:1014A0000C4802F095FD20233B6101237B61002362
:1014B000BB610223FB6107F110031946054802F0E6
:1014C00087FD00BF2037BD4680BD00BF0010024031
:1014D00000080140000C014080B586B002AF034611
:1014E000FB71FB7923F00F03FB73FB791B01BB73CB
:1014F000FB7B43F00C03DBB23B72FB7B43F0080346
:10150000DBB27B72BB7B43F00C03DBB2BB72BB7BF9
:1015100043F00803DBB2FB7207F108026423009377
:1015200004234E21034803F04BF800BF1037BD469B
:1015300080BD00BF8802002080B586B002AF0346A0
:10154000FB71FB7923F00F03FB73FB791B01BB736A
:10155000FB7B43F00D03DBB23B72FB7B43F00903E3
:10156000DBB27B72BB7B43F00D03DBB2BB72BB7B98
:1015700043F00903DBB2FB7207F108026423009316
:1015800004234E21034803F01BF800BF1037BD466B
:1015900080BD00BF8802002080B582B000AF8020EF
:1015A000FFF79AFF00237B6005E02020FFF7C4FFD0
:1015B0007B6801337B607B68452BF6DD00BF00BF95
:1015C0000837BD4680BD80B582B000AF7860396015
:1015D0007B68002B03D07B68012B05D009E03B68BA
:1015E00043F080033B6004E03B6843F0C0033B6092
:1015F00000BF3B68DBB21846FFF76EFF00BF08373D
:10160000BD4680BD80B500AF322001F04BFD3020DB
:10161000FFF762FF052001F045FD3020FFF75CFF7A
:10162000012001F03FFD3020FFF756FF0A2001F0B6
:1016300039FD2020FFF750FF0A2001F033FD28205C
:10164000FFF74AFF012001F02DFD0820FFF744FFBE
:10165000012001F027FD0120FFF73EFF012001F0EE
:1016600021FD012001F01EFD0620FFF735FF0120BE
:1016700001F018FD0C20FFF72FFF00BF80BD80B5E3
:1016800082B000AF786006E07B685A1C7A601B78F5
:101690001846FFF751FF7B681B78002BF4D100BF81
:1016A00000BF0837BD4680BD80B500AF124B134A5E
:1016B0001A60114B124A5A600F4B00229A600E4B6F
:1016C0000022DA600C4B4FF480421A610A4B002270
:1016D0005A61094B00229A61074B0022DA61064BDE
:1016E00000221A62044802F027FE0346002B01D0B4
:1016F00001F0ACF800BF80BD88020020005400401B
:10170000A086010080B588B000AF786007F11003B3
:1017100000221A605A609A60DA607B681B68154A7A
:10172000934223D1144B9B69134A43F008039361FE
:10173000114B9B6903F00803FB60FB68C0233B610E
:1017400012237B610323FB6107F1100319460B4849
:1017500002F03EFC084BDB69074A43F40013D361F7
:10176000054BDB6903F40013BB60BB6800BF203787
:10177000BD4680BD0054004000100240000C0140F6
:1017800080B582B000AF0346FB80FB881846FFF7A8
:10179000A5FA034606491846FFF7F4FA0346054939
:1017A0001846FFF7A3FB034618460837BD4680BD21
:1017B0003333534000F07F4590B587B000AF034608
:1017C000FB80FB881846FFF7DBFF3861304938693A
:1017D000FFF776FC0346002B06D12E493869FFF748
:1017E0008DFC0346002B01D02B4B4CE039692B4874
:1017F000FFF77CFB03464FF07E511846FFF7B8F920
:10180000034619462648FFF771FB0346FB604FF07D
:101810000001F868FFF75EFC0346002B01D01E4B69
:1018200031E02049F868FFF769FC0346002B02D03D
:101830001D4B7B6101E01D4B7B6179694FF07E5050
:10184000FFF754FB03461C461949F868FFF74EFBA7
:101850000346184609F054FE034619462046FFF792
:1018600091FA034613491846FFF784F90346BB6013
:10187000B9684FF07E50FFF739FB03460E49184612
:10188000FFF776F9034618461C37BD4690BD00BFEA
:10189000CDCC4C3D000050400000C07F333353405E
:1018A00000007A440080BB4400E076450080894512
:1018B000004AC4470FCF5B3B3393884380B582B067
:1018C00000AF0346FB71FB791A462021034802F062
:1018D0001AFD00BF0837BD4680BD00BF000C0140A7
:1018E00080B582B000AF0346FB71FB7983F0010342
:1018F000DBB21A462021034802F005FD00BF08377D
:10190000BD4680BD0008014080B485B000AF0346ED
:10191000FB80FB88312B01D83223FB80FB8844F607
:101920002062934202D944F62063FB80FB880B4A75
:10193000B2FBF3F3013BFB60094B1B68FA68DA6208
:10194000074AFB68D360064B1B68FA6852085A6363
:1019500000BF1437BD4680BC704700BF40420F0037
:10196000CC03002080B582B000AF78604FF000015A
:101970007868FFF7AFFB0346002B02D04FF000035F
:101980001FE04FF07E517868FFF7AEFB0346002B57
:1019900002D04FF07E5314E00C497868FFF7F2F95B
:1019A0000346184609F0D4FD034619464FF07E5011
:1019B000FFF7DEF803464FF080411846FFF796FA2E
:1019C000034618460837BD4680BD00BFDB0F4940BF
:1019D00080B584B000AF78604FF000017868FFF701
:1019E00079FB0346002B01D0002312E00B497868F5
:1019F000FFF7C8F90346FB600949F868FFF77EFB6B
:101A00000346002B01D0064BFB60F868FFF7BCFBD8
:101A1000034618461037BD4680BD00BFA5CDD7444C
:101A200000409C4680B483B000AF78607B681B6840
:101A3000054A934202D1054B01221A7000BF0C37B0
:101A4000BD4680BC704700BF002401405C030020FD
:101A500080B582B000AF78607B681B68204A9342F3
:101A60003AD1204B01221A701F4B1B8801339AB2C6
:101A70001D4B1A801C4B1B88632B05D91A4B002267
:101A80001A801A4B01221A70194B1B8801339AB223
:101A9000174B1A80164B1B88132B02D9144B0022AC
:101AA0001A80144B5B6914491846FFF71FFA034666
:101AB0001846FFF769FB03469AB20D4B1B889A4202
:101AC00005D9012220210D4802F01DFC04E000226E
:101AD00020210A4802F017FC00BF0837BD4680BD30
:101AE000000400405E030020BC0300205D030020D2
:101AF000BE030020080000200000A040000C0140B0
:101B000090B585B000AF0023FB600023BB600AE006
:101B1000214ABB6832F813301A46FB681344FB6055
:101B2000BB680133BB60BB683F2BF1DDFB689B09E1
:101B3000FB80FB881846FFF73FFE3860396838683D
:101B4000FFF7E6FA0346002B21D1144B1B68194618
:101B50001846FFF7DDFA0346002B03D00F4A3B6817
:101B6000136014E00E493868FFF70CF903461C4671
:101B70000A4B1B680B491846FFF704F90346194640
:101B80002046FEF7F7FF03461A46044B1A6000BFD3
:101B90001437BD4690BD00BFDC02002000000020CD
:101BA000CDCCCC3D6666663F90B597B000AF1021B6
:101BB0009C4802F091FB0346002B0CBF012300233D
:101BC00087F853304FF48051974802F085FB034665
:101BD000002B0CBF0123002387F85230934B1B6866
:101BE0000022144619461846FFF792FA0346002BC6
:101BF00001D101231C4687F8514097F85130002B42
:101C00000AD08A4B1B688A491846FFF76DFA0346CB
:101C1000002B01D0012300E0002387F8503097F813
:101C2000503003F0010387F85030824B1B68184690
:101C3000FFF7CEFE78657B6D312B01D832237B65B3
:101C40007D4B1B8801339AB27B4B1A807A4B1B88E1
:101C5000632B8CBF0123002387F84F3097F84F3058
:101C6000002B02D0744B00221A80744B1B78032B7C
:101C700000F2028201A252F823F000BF8D1C00087E
:101C8000011D0008691E0008691F00080020FFF7F9
:101C900027FE6B4B00221A706A4B00221A606A4BB7
:101CA00000221A8097F85330002B00F0DE8197F85D
:101CB0005030002B00F0D981604B01221A70604B2C
:101CC00001221A700120FFF70BFE00215F4803F08C
:101CD00087FD5D4B32221A803220FFF715FE594BEB
:101CE00000221A605A4B93F84130DBB2202B40F0AF
:101CF000BC81642315225749554804F0D6FCB4E151
:101D00000120FFF7EDFD4E4B01221A704D4B1B6871
:101D100001334C4A13604B4B1B68B3F5FA6F46D244
:101D2000484B1B681846FEF7D5FF03464A4918463C
:101D3000FFF7DCF80346BB63B86BFFF713FE78636D
:101D40007B6D323B1846FEF7C5FF0346796B18469C
:101D5000FFF718F803461846FFF716FA03469BB23A
:101D600032339AB2384B1A80374B1B881846FFF72C
:101D7000CBFD97F84F30002B34D0354B93F84130E2
:101D8000DBB2202B2ED12F4B1A682F4B1B883846E5
:101D9000324906F0FFFD3B461846FEF7D9F90346E7
:101DA0009AB2394664232A4804F07FFC1AE0234B98
:101DB00002221A707B6D9AB2234B1A80224B1B8829
:101DC0001846FFF7A1FD1F4B00221A60204B93F825
:101DD0004130DBB2202B05D16423132220491C485B
:101DE00004F063FC97F85230002B07D197F850307D
:101DF00083F00103DBB2002B00F039810F4B03228B
:101E00001A70104B00221A60114B93F84130DBB26C
:101E1000202B40F02C816423152212490C4804F039
:101E200044FC24E100080140000C014000000020B7
:101E30000000C84220000020C003002060030020F2
:101E4000680300206403002004000020CC0300206D
:101E5000A404002050C300080000FA4468C300082E
:101E600084C3000898C300080120FFF739FD844BA4
:101E700001221A707B6D834A12889B1A3B640523EA
:101E8000FB633B6C002BB8BF5B421A46FB6B934273
:101E90003BD23B6C002B08DDFB6B9AB2794B1B8865
:101EA00013449AB2774B1A8007E0764B1A88FB6B83
:101EB0009BB2D31A9AB2734B1A80724B1B88184686
:101EC000FFF722FD97F84F30002B2DD03B6C002BF5
:101ED000B8BF5B42642B27DD6B4B93F84130DBB21C
:101EE000202B21D1674B1B8838467A6D674906F055
:101EF00051FD3B461846FEF72BF903469AB2394688
:101F00006423614804F0D1FB0EE03B6C002BB8BFAA
:101F10005B42002B08DD7B6D9AB25A4B1A80594BFD
:101F20001B881846FFF7F0FC97F85230002B07D1BA
:101F300097F8503083F00103DBB2002B00F099805A
:101F4000534B03221A70534B00221A604E4B93F8E6
:101F50004130DBB2202B40F08C80642315224E49A7
:101F6000494804F0A2FB84E00120FFF7B9FC444B90
:101F700001221A70474B1B680133464A1360454BD8
:101F80001B68B3F5FA6F53D2424B1B681846FEF735
:101F9000A1FE034641491846FEF7A8FF0346BB646D
:101FA000B86CFFF7DFFC78643A4B1B68012B04D157
:101FB000344B1B881A463A4B1A60394B1B689CB24B
:101FC000374B1B68323B1846FEF784FE0346796C9C
:101FD0001846FEF7D7FE03461846FFF7D5F8034626
:101FE0009BB2E31A9AB2274B1A80264B1B881846DD
:101FF000FFF78AFC97F84F30002B3CD0224B93F828
:102000004130DBB2202B36D1224B1A681D4B1B8886
:102010003846244906F0BEFC3B461846FEF798F8C1
:1020200003469AB239466423174804F03EFB22E087
:10203000174B00221A7000211B4803F073FC00208C
:10204000FFF74EFC0E4B00221A700E4B00221A8036
:102050000D4B93F84130DBB2202B0CD164231A22B4
:102060001249094804F021FB05E000BF04E000BF6D
:1020700002E000BF00E000BF00BF5C37BD4690BD7E
:102080006803002004000020A4040020B0C300085E
:10209000600300206403002098C300080000FA4495
:1020A000C4030020D0C30008CC030020ECC3000808
:1020B00090B591B006AF394B1B6819461846FFF72B
:1020C00027F80346002B0BD007F114004FF0000255
:1020D000334BCDE90023334A112106F025FC1CE0E7
:1020E0002E4B1B681846FEF79FF902460B462E49F9
:1020F0000978002901D02A2100E0202107F11404E9
:1021000004914FF000002649CDE90201CDE90023FA
:10211000264A1121204606F007FC254B1B78002B90
:1021200016D11E4B1B6823491846FEF7C9FF03460C
:10213000002B06D03B46204A1121184606F0F4FB3E
:1021400017E03B461D4A1121184606F0EDFB10E052
:102150001B4B1B681846FEF767F902460B461949E8
:10216000098838460291CDE90023174A112106F06B
:10217000DBFB00210020FFF726FA07F114031846C5
:10218000FFF77DFA00210120FFF71DFA3B461846B4
:10219000FFF775FA00BF2C37BD4690BD0000002048
:1021A00000406F4008C400085F03002018C4000806
:1021B000600300200000C84228C4000834C400089E
:1021C000200000200400002044C400082DE9F0474E
:1021D0008EB00AAF00F004FF00F02EF9FFF7F6F81A
:1021E000FFF7CEF8FFF726F800F008FDFFF75CFADE
:1021F00000F050FD00F026FE00F07CFCFFF702FA34
:10220000FFF7CAF900210020FFF7DDF97348FFF757
:1022100036FA00210120FFF7D6F97148FFF72FFAAF
:102220004FF4FA6000F03EFFFFF7B6F940226D4927
:102230006D4801F033F86D4803F030FA0020FFF7E5
:102240004FFB6B4B1B781A4602216A4802F05BF881
:102250000020FFF733FB01226749684804F0B0FA19
:10226000674B1B78DBB2002B07D0654B00221A703E
:1022700040225C495C4801F011F8624B1B78DBB2EC
:10228000002B00F09F805F4B00221A70FFF738FC94
:102290005D4B1B680022144619461846FEF738FFAE
:1022A0000346002B01D101231C46FC73FB7B002B52
:1022B0000AD0554B1B6855491846FEF71FFF0346C9
:1022C000002B01D0012300E00023BB73BB7B03F094
:1022D0000103BB73FB7B83F00103DBB2002B02D154
:1022E000BB7B002B04D04A4B4FF000025A6109E03F
:1022F000454B1A68474B4849454800F001FA0346E8
:10230000434A5361424B5B69012214464FF07E51B0
:102310001846FEF7F3FE0346002B01D100231C46AE
:10232000E2B23E4B1A70354B93F84130DBB2202BB2
:1023300046D1354B1B6819463748FEF719FC034652
:10234000BB60374B1B881846FEF7C4FC0346354973
:102350001846FEF7CBFD03467B6000F099FE8246EF
:10236000294B1B681846FEF75FF804460D46284BBC
:102370005B691846FEF7E2FE06467868FEF754F8F9
:1023800080468946B868FEF74FF802460B46CDE90D
:102390000823CDE9068904964FF00002224BCDE9CF
:1023A0000223CDE9004552462049214806F0F2FAC1
:1023B00038603B689AB264231D49104804F075F9EF
:1023C000FFF776FE1B4B1B78DBB2002B3FF448AFC8
:1023D000184B00221A70FFF7E7FB41E754C40008CE
:1023E00064C40008DC020020140200205C04002009
:1023F0000600002000080140AC030020A4040020D7
:102400005D0300205C030020000000200080894361
:1024100008000020CDCCCC3D00007A435F030020B3
:1024200004000020A5CDD74400406F4070C40008D0
:102430006C0300205E03002080B594B000AF07F16C
:10244000280328220021184606F009FB07F114038F
:1024500000221A605A609A60DA601A613B1D0022FD
:102460001A605A609A60DA600123BB624FF48033CD
:10247000FB6200233B630123BB6302237B644FF4B5
:102480008033BB644FF4E013FB6407F12803184664
:1024900002F0EEFB0346002B01D000F0D7F90F232A
:1024A0007B610223BB610023FB614FF480633B62CD
:1024B00000237B6207F114030221184602F05AFE42
:1024C0000346002B01D000F0C1F902237B604FF4DA
:1024D0000043FB603B1D184602F0DAFF0346002B69
:1024E00001D000F0B3F900BF5037BD4680BD0000F9
:1024F00080B58CB000AF78607B681B686B4A9342F4
:1025000040F0CF806A4B1B780A2B04D0684B1B78B5
:102510000D2B40F0A880674B1B781A46664B0021B4
:102520009954644B1B78002B00F09980624B1B7808
:10253000762B03D0604B1B78562B3ED15F4804F0BE
:10254000CFFE02460B4610461946FEF7BDFA03467B
:10255000FB624FF07C51F86AFEF7C6FD0346002B84
:1025600024D05749F86AFEF7B5FD0346002B1DD06D
:10257000544AFB6A1360534B1B681846FDF754FF1F
:1025800002460B4607F10C004F4906F003FA07F12B
:102590000C031846FDF7DCFD03469AB207F10C0167
:1025A00064234A4804F081F800BF58E064231922EC
:1025B0004749464804F079F851E03F4B1B78732BAC
:1025C00003D03D4B1B78532B10D1424B1B78002B73
:1025D00045D0404B03221A703F4B00221A606423FF
:1025E0000E223E49394804F060F838E0324B1B783F
:1025F000722B03D0304B1B78522B2AD1354B1B78D2
:10260000002B1FD1364B1B6836491846FEF76CFD70
:102610000346002B16D02F4B01221A70324B012299
:102620001A700120FFF75CF90021304803F0D8F858
:102630003220FFF769F964230D222D49234804F065
:1026400034F80CE0642313222A49204804F02DF8C2
:1026500005E06423162228491C4804F026F8154B8F
:1026600000221A7018E0134B1B78082B0BD8114B63
:102670001B785A1CD1B20F4A11701A460C4B1978AC
:102680000D4B995408E00B4B00221A70642316225C
:102690001A490E4804F009F8012205490B4804F0D4
:1026A0008FF800BF3037BD4680BD00BF0038014005
:1026B000AC030020BA030020B0030020B1030020C7
:1026C0000000A0402000002090C40008A4040020C6
:1026D000A8C400086003002064030020C4C40008EC
:1026E000000000200000C84268030020CC03002046
:1026F000D4C40008E4C40008F8C4000810C50008E9
:1027000090B58BB000AFF860B9607A603B607968D3
:10271000B868FEF72DFA0346FB61FB681B68194693
:10272000F869FEF72FFB0346BB61FB6923F000430A
:1027300043491846FEF7C4FC0346002B0FD0FB6844
:102740001C693968F869FEF71DFB034619462046E7
:10275000FEF710FA03461A46FB681A6103E0FB68AD
:102760004FF000021A61FB685A68FB681B69194642
:102770001046FEF707FB03467B623249786AFEF794
:10278000BDFC0346002B0CD02E4B7B62FB685B68C4
:1027900019462C48FEF7AAFB03461A46FB681A6145
:1027A00012E02949786AFEF78BFC0346002B0BD018
:1027B000254B7B62FB685B6819462348FEF796FB56
:1027C00003461A46FB681A61FB68DB681946F8691C
:1027D000FEF7CEF9034639681846FEF787FB034635
:1027E0007B61FB689B6819467869FEF7CBFA034664
:1027F0003B61FB68FA69DA60796AB869FEF7BAF991
:10280000034619463869FEF7B5F903463B620D49A0
:10281000386AFEF773FC0346002B01D0094B3B627C
:102820004FF00001386AFEF74BFC0346002B02D044
:102830004FF000033B623B6A18462C37BD4690BD03
:10284000000070410000C8420000A0C180B400AF89
:1028500072B600BF00BFFDE780B485B000AF154B76
:102860009B69144A43F001039361124B9B6903F087
:102870000103BB60BB680F4BDB690E4A43F080531A
:10288000D3610C4BDB6903F080537B607B680A4BA0
:102890005B68FB60FB6823F0E063FB60FB6843F070
:1028A0008063FB60044AFB68536000BF1437BD4679
:1028B00080BC7047001002400000014080B400AFAF
:1028C00000BFFDE780B400AF00BFFDE780B400AFFC
:1028D00000BFFDE780B400AF00BFFDE780B400AFEC
:1028E00000BFFDE780B400AF00BFBD4680BC7047AD
:1028F00080B400AF00BFBD4680BC704780B400AF5D
:1029000000BFBD4680BC704780B500AF00F0AEFB95
:1029100000BF80BD80B500AF024801F025FA00BFBE
:1029200080BD00BF4402002080B500AF024801F026
:102930001BFA00BF80BD00BFEC04002080B500AFD3
:10294000024803F053F800BF80BD00BF5C040020C4
:1029500080B500AF024803F059FF00BF80BD00BF43
:10296000A404002080B400AF01231846BD4680BCFB
:10297000704780B582B000AF7860396006F0D4F857
:10298000034616221A604FF0FF3318460837BD463B
:1029900080BD80B582B000AF78604FF0FF317868BD
:1029A000FFF7E7FF00BFFDE780B586B000AFF86036
:1029B000B9607A6000237B610AE0AFF300800146D2
:1029C000BB685A1CBA60CAB21A707B6901337B615A
:1029D0007A697B689A42F0DB7B6818461837BD46F7
:1029E00080BD80B586B000AFF860B9607A60002322
:1029F0007B6109E0BB685A1CBA601B781846AFF3CC
:102A000000807B6901337B617A697B689A42F1DBE4
:102A10007B6818461837BD4680BD80B483B000AFD0
:102A200078604FF0FF3318460C37BD4680BC7047C6
:102A300080B483B000AF786039603B684FF40052D7
:102A40005A60002318460C37BD4680BC704780B4DE
:102A500083B000AF7860012318460C37BD4680BCB8
:102A6000704780B485B000AFF860B9607A60002329
:102A700018461437BD4680BC7047000080B586B04C
:102A800000AF7860144A154BD31A7B617B693B61B8
:102A9000134B1B68002B02D1114B124A1A60104BCA
:102AA0001A687B6813443A699A4207D206F03CF8E8
:102AB00003460C221A604FF0FF3309E0084B1B68F5
:102AC000FB60074B1A687B681344054A1360FB6878
:102AD00018461837BD4680BD005000200004000095
:102AE000C80300208006002080B400AF00BFBD46B0
:102AF00080BC704780B592B000AF07F14003002260
:102B00001A605A6007F1240300221A605A609A6022
:102B1000DA601A615A619A613B1D20220021184631
:102B200005F09DFF334B344A1A60324B47225A60FE
:102B3000304B00229A602F4B4FF6FF72DA602D4B1C
:102B400000221A612B4B00225A612A4B00229A6103
:102B5000284802F0F5FD0346002B01D0FFF776FE72
:102B600000233B6400237B6407F14003194621489E
:102B700003F08AFC0346002B01D0FFF767FE6023B9
:102B80007B620023BB620023FB6200233B630023C4
:102B90007B630023BB630023FB6307F12403002254
:102BA0001946144803F012F80346002B01D0FFF732
:102BB0004DFE00237B600023BB600023FB600023ED
:102BC0003B6100237B614FF40053BB6100233B62F8
:102BD0003B1D1946074803F0B5FC0346002B01D006
:102BE000FFF734FE034800F0F9F800BF4837BD4650
:102BF00080BD00BFCC030020002C014080B586B012
:102C000000AF07F1080300221A605A609A60DA6088
:102C10003B4600221A605A601D4B4FF080421A60FA
:102C20001B4B47225A601A4B00229A60184B40F205
:102C3000CF72DA60164B00221A61154B80229A611E
:102C4000134802F0DBFC0346002B01D0FFF7FEFD2A
:102C50004FF48053BB6007F1080319460C4803F09A
:102C600077F80346002B01D0FFF7F0FD00233B600F
:102C700000237B603B461946054803F005FC0346EC
:102C8000002B01D0FFF7E2FD00BF1837BD4680BD25
:102C90001404002080B586B000AF07F108030022BD
:102CA0001A605A609A60DA603B4600221A605A60E5
:102CB0001D4B1E4A1A601C4B41F61F425A601A4BAC
:102CC00000229A60184B0922DA60174B00221A6121
:102CD000154B80229A61144802F090FC0346002BA9
:102CE00001D0FFF7B3FD4FF48053BB6007F1080339
:102CF00019460D4803F02CF80346002B01D0FFF7CE
:102D0000A5FD00233B6000237B603B461946064837
:102D100003F0BAFB0346002B01D0FFF797FD00BF7D
:102D20001837BD4680BD00BF5C0400200004004091
:102D300080B485B000AF78607B681B68094A934215
:102D40000BD1094B9B69084A43F400639361064B1E
:102D50009B6903F40063FB60FB6800BF1437BD464A
:102D600080BC7047002C01400010024080B584B048
:102D700000AF78607B681B68B3F1804F0CD1154BB6
:102D8000DB69144A43F00103D361124BDB6903F0A2
:102D90000103FB60FB6818E07B681B680E4A9342E6
:102DA00013D10C4BDB690B4A43F00203D361094B8F
:102DB000DB6903F00203BB60BB68002200211D2019
:102DC00000F02DFE1D2000F046FE00BF1037BD466E
:102DD00080BD00BF001002400004004080B588B0F4
:102DE00000AF786007F1100300221A605A609A6001
:102DF000DA607B681B68104A934218D10F4B9B69BD
:102E00000E4A43F0040393610C4B9B6903F00403E7
:102E1000FB60FB684FF480733B6102237B610223FC
:102E2000FB6107F110031946054801F0D1F800BF16
:102E30002037BD4680BD00BF002C0140001002407D
:102E40000008014080B500AF114B124A1A60104BC8
:102E50004FF4E1325A600E4B00229A600C4B002274
:102E6000DA600B4B00221A61094B0C225A61084BA5
:102E700000229A61064B0022DA61054803F0C5FB87
:102E80000346002B01D0FFF7E1FC00BF80BD00BF6F
:102E9000A40400200038014080B588B000AF7860FD
:102EA00007F1100300221A605A609A60DA607B68AA
:102EB0001B68334A93425FD1324B9B69314A43F4DA
:102EC000804393612F4B9B6903F48043FB60FB6855
:102ED0002C4B9B692B4A43F004039361294B9B695C
:102EE00003F00403BB60BB684FF400733B61022333
:102EF0007B610323FB6107F110031946224801F0AF
:102F000067F84FF480633B6100237B610023BB6162
:102F100007F1100319461C4801F05AF81B4B1C4AD4
:102F20001A601A4B10225A60184B00229A60174BF5
:102F30008022DA60154B00221A61144B00225A617C
:102F4000124B00229A61114B0022DA610F4800F007
:102F50009DFD0346002B01D0FFF778FC7B680B4AF0
:102F60009A630A4A7B68536200220021252000F000
:102F700056FD252000F06FFD00BF2037BD4680BD07
:102F8000003801400010024000080140EC0400201D
:102F900044000240FFF7A8FD0B480C490C4A0023EF
:102FA00002E0D458C4500433C4188C42F9D3094AFF
:102FB000094C002301E013600432A242FBD305F068
:102FC000B9FDFFF703F9704700000020F801002069
:102FD0005CCD0008F801002080060020FEE700001C
:102FE00080B500AF084B1B68074A43F0100313601D
:102FF000032000F009FD0F2000F008F8FFF72CFC7B
:103000000023184680BD00BF0020024080B582B07A
:1030100000AF7860124B1A68124B1B7819464FF4B8
:103020007A73B3FBF1F3B2FBF3F3184600F021FD22
:103030000346002B01D001230EE07B680F2B0AD83A
:10304000002279684FF0FF3000F0E9FC064A7B6807
:103050001360002300E0012318460837BD4680BDF9
:10306000240000202C0000202800002080B400AFA5
:10307000054B1B781A46054B1B681344034A136023
:1030800000BFBD4680BC70472C00002030050020EA
:1030900080B400AF024B1B681846BD4680BC704729
:1030A0003005002080B584B000AF7860FFF7F0FFF6
:1030B000B8607B68FB60FB68B3F1FF3F05D00A4B4B
:1030C0001B781A46FB681344FB6000BFFFF7E0FF64
:1030D0000246BB68D31AFA689A42F7D800BF00BF0D
:1030E0001037BD4680BD00BF2C00002080B586B0E3
:1030F00000AF78600023FB7500233B610023BB60B9
:103100000023FB607B68002B01D10123BEE07B68BC
:103110009B68002B7B689B6A002B09D17B6800228F
:10312000DA627B68002283F824207868FEF7C0F812
:10313000786800F0F5FA0346FB757B689B6A03F03C
:103140001003002B40F09980FB7D002B40F0958010
:103150007B689B6A23F4885323F0020343F0020246
:103160007B689A627B685A687B68DB691A437B6874
:103170001B7B5B001343BA681343BB607B689B688F
:10318000B3F5807F03D07B689B68012B02D14FF49D
:10319000807300E000233A6913433B617B681B7D29
:1031A000012B19D17B681B7B002B09D17B689B69A4
:1031B000013B5A033B69134343F400633B610BE05B
:1031C0007B689B6A43F020027B689A627B68DB6ABB
:1031D00043F001027B68DA627B681B685B6823F45A
:1031E00069417B681B683A690A435A607B681B68BF
:1031F0009A68284B13407A681268B9680B43936049
:103200007B689B68B3F5807F03D07B689B68012B4C
:1032100004D17B681B69013B1B05FB607B681B6855
:10322000DB6A23F470017B681B68FA680A43DA6280
:103230007B681B689A68184B1340BA689A420BD196
:103240007B680022DA627B689B6A23F0030343F009
:1032500001027B689A6218E07B689B6A23F0120384
:1032600043F010027B689A627B68DB6A43F00102DC
:103270007B68DA620123FB7507E07B689B6A43F099
:1032800010027B689A620123FB75FB7D1846183794
:10329000BD4680BDFDF7E1FFFE0E1FFF80B586B085
:1032A00000AFF860B9607A600023FB75FB681B68AB
:1032B000644A934204D0FB681B68634A934206D178
:1032C000604B5B6803F47023002B40F0B380FB6815
:1032D00093F82430012B01D10223AEE0FB680122D8
:1032E00083F82420F86800F0C1F90346FB75FB7DE4
:1032F000002B40F09A80FB689B6A23F4706323F0F4
:10330000010343F48072FB689A62FB681B684E4AB3
:10331000934205D14B4B5B6803F47023002B15D10E
:10332000FB689B6A23F48012FB689A62FB681B6847
:103330005B6803F48063002B26D0FB689B6A23F450
:10334000405343F48052FB689A621DE0FB689B6A1D
:1033500043F48012FB689A62FB681B68394A934207
:1033600004D0FB681B68384A93420DD1354B5B682B
:1033700003F48063002B07D0FB689B6A23F440535F
:1033800043F48052FB689A62FB689B6A03F48053A3
:10339000002B06D0FB68DB6A23F00602FB68DA62CA
:1033A00002E0FB680022DA62FB68002283F8242036
:1033B000FB681B6A254A9A62FB681B6A244ADA6228
:1033C000FB681B6A234A1A63FB681B686FF00202E2
:1033D0001A60FB681B689A68FB681B6842F480727D
:1033E0009A60FB68186AFB681B684C331946BA6818
:1033F0007B6800F0A5FBFB681B689B6803F46023F7
:10340000B3F5602F08D1FB681B689A68FB681B68DE
:1034100042F4A0029A600FE0FB681B689A68FB68A0
:103420001B6842F480129A6006E0FB68002283F871
:10343000242001E00123FB75FB7D18461837BD46AB
:1034400080BD00BF0024014000280140A3370008D0
:103450001F3800083B38000880B483B000AF7860A4
:1034600000BF0C37BD4680BC704780B483B000AF4E
:10347000786000BF0C37BD4680BC704780B485B013
:1034800000AF786039600023FB730023BB607B686A
:1034900093F82430012B01D10223DCE07B68012268
:1034A00083F824203B685B68062B1CD87B681B686C
:1034B000596B3B685A6813469B001344053B1F2217
:1034C00002FA03F3DB4319403B6818683B685A680B
:1034D00013469B001344053B00FA03F27B681B680C
:1034E0000A435A633CE03B685B680C2B1CD87B6842
:1034F0001B68196B3B685A6813469B001344233BB7
:103500001F2202FA03F3DB4319403B6818683B684B
:103510005A6813469B001344233B00FA03F27B686E
:103520001B680A431A631BE07B681B68D96A3B6807
:103530005A6813469B001344413B1F2202FA03F3CF
:10354000DB4319403B6818683B685A6813469B0088
:103550001344413B00FA03F27B681B680A43DA62BA
:103560003B681B68092B1CD97B681B68D9683B68C2
:103570001A6813465B0013441E3B072202FA03F34A
:10358000DB4319403B6898683B681A6813465B0048
:1035900013441E3B00FA03F27B681B680A43DA609F
:1035A00019E07B681B6819693B681A6813465B0061
:1035B0001344072202FA03F3DB4319403B6898687F
:1035C0003B681A6813465B00134400FA03F27B68F9
:1035D0001B680A431A613B681B68102B03D03B68C9
:1035E0001B68112B32D17B681B681D4A934225D181
:1035F0007B681B689B6803F40003002B26D17B6863
:103600001B689A687B681B6842F400029A603B68FA
:103610001B68102B1AD1134B1B68134AA2FB032300
:103620009A0C13469B0013445B00BB6002E0BB682E
:10363000013BBB60BB68002BF9D107E07B689B6A4C
:1036400043F020027B689A620123FB737B680022AF
:1036500083F82420FB7B18461437BD4680BC704796
:10366000002401402400002083DE1B4380B584B089
:1036700000AF78600023FB600023BB607B681B68A1
:103680009B6803F00103012B40D07B681B689A689C
:103690007B681B6842F001029A601F4B1B681F4A3F
:1036A000A2FB03239B0CBB6002E0BB68013BBB6039
:1036B000BB68002BF9D1FFF7EBFCF8601FE0FFF7C8
:1036C000E7FC0246FB68D31A022B18D97B681B68FB
:1036D0009B6803F00103012B11D07B689B6A43F0C8
:1036E00010027B689A627B68DB6A43F001027B68A8
:1036F000DA627B68002283F82420012307E07B68DC
:103700001B689B6803F00103012BD8D100231846E6
:103710001037BD4680BD00BF2400002083DE1B4360
:1037200080B584B000AF78600023FB607B681B68C5
:103730009B6803F00103012B2ED17B681B689A68FC
:103740007B681B6822F001029A60FFF7A1FCF86019
:103750001BE0FFF79DFC0246FB68D31A022B14D92D
:103760007B681B689B6803F00103012B0DD17B680C
:103770009B6A43F010027B689A627B68DB6A43F0C5
:1037800001027B68DA62012307E07B681B689B68A3
:1037900003F00103012BDCD0002318461037BD468F
:1037A00080BD80B584B000AF78607B685B6AFB60E9
:1037B000FB689B6A03F05003002B27D1FB689B6AD0
:1037C00043F40072FB689A62FB681B689B6803F411
:1037D0006023B3F5602F15D1FB681B7B002B11D143
:1037E000FB689B6A23F48072FB689A62FB689B6AA1
:1037F00003F48053002B05D1FB689B6A43F0010260
:10380000FB689A62F868FEF70DF904E0FB681B6A32
:103810001B6B7868984700BF1037BD4680BD80B5E8
:1038200084B000AF78607B685B6AFB60F868FFF784
:1038300013FE00BF1037BD4680BD80B584B000AF19
:1038400078607B685B6AFB60FB689B6A43F04002C0
:10385000FB689A62FB68DB6A43F00402FB68DA6289
:10386000F868FFF702FE00BF1037BD4680BD0000BC
:1038700080B485B000AF78607B6803F00703FB601D
:103880000C4BDB68BB60BA684FF6FF031340BB60AC
:10389000FB681A02BB68134343F0BF6343F4003371
:1038A000BB60044ABB68D36000BF1437BD4680BC10
:1038B000704700BF00ED00E080B400AF044BDB6850
:1038C0001B0A03F007031846BD4680BC704700BFC3
:1038D00000ED00E080B483B000AF0346FB7197F9C0
:1038E0000730002B0BDBFB7903F01F02064997F929
:1038F00007305B09012000FA02F241F8232000BFE3
:103900000C37BD4680BC704700E100E080B483B056
:1039100000AF03463960FB7197F90730002B0ADBD3
:103920003B68DAB20C4997F907301201D2B20B4466
:1039300083F800230AE03B68DAB20849FB7903F018
:103940000F03043B1201D2B20B441A7600BF0C37AE
:10395000BD4680BC704700BF00E100E000ED00E024
:1039600080B489B000AFF860B9607A60FB6803F09A
:103970000703FB61FB69C3F10703042B28BF042382
:10398000BB61FB690433062B02D9FB69033B00E0F2
:1039900000237B614FF0FF32BB6902FA03F3DA4385
:1039A000BB681A407B699A404FF0FF317B6901FA8E
:1039B00003F3D9437B680B40134318462437BD46B5
:1039C00080BC704780B582B000AF78607B68013BF7
:1039D000B3F1807F01D301230FE00A4A7B68013BEA
:1039E00053600F214FF0FF30FFF790FF054B00228F
:1039F0009A60044B07221A60002318460837BD4618
:103A000080BD00BF10E000E080B582B000AF7860FC
:103A10007868FFF72DFF00BF0837BD4680BD80B531
:103A200086B000AF0346B9607A60FB7300237B6108
:103A3000FFF742FF78617A68B9687869FFF790FF0D
:103A4000024697F90F3011461846FFF75FFF00BF97
:103A50001837BD4680BD80B582B000AF0346FB710C
:103A600097F907301846FFF735FF00BF0837BD4606
:103A700080BD80B582B000AF78607868FFF7A2FFA4
:103A8000034618460837BD4680BD000080B485B0A7
:103A900000AF78600023FB607B68002B01D101231D
:103AA00043E07B681B681A46224B1344224AA2FB60
:103AB00003231B099A007B681A647B681F4ADA6338
:103AC0007B68022283F821207B681B681B68FB60EF
:103AD000FB6823F47F5323F03003FB607B685A6854
:103AE0007B689B681A437B68DB681A437B681B69A9
:103AF0001A437B685B691A437B689B691A437B683E
:103B0000DB691343FA681343FB607B681B68FA6840
:103B10001A607B6800229A637B68012283F8212067
:103B20007B68002283F82020002318461437BD4606
:103B300080BC7047F8FFFDBFCDCCCCCC000002406C
:103B400080B586B000AFF860B9607A603B60002352
:103B5000FB75FB6893F82030012B01D102234BE069
:103B6000FB68012283F82020FB6893F82130DBB248
:103B7000012B3AD1FB68022283F82120FB68002246
:103B80009A63FB681B681A68FB681B6822F00102D5
:103B90001A603B687A68B968F86800F0EBF9FB686E
:103BA000DB6A002B08D0FB681B681A68FB681B687F
:103BB00042F00E021A600FE0FB681B681A68FB688F
:103BC0001B6822F004021A60FB681B681A68FB6815
:103BD0001B6842F00A021A60FB681B681A68FB68DF
:103BE0001B6842F001021A6005E0FB68002283F8BE
:103BF00020200223FB75FB7D18461837BD4680BD8B
:103C000080B485B000AF78600023FB737B6893F8C5
:103C10002130DBB2022B08D07B6804229A637B68D8
:103C2000002283F82020012320E07B681B681A68AB
:103C30007B681B6822F00E021A607B681B681A689A
:103C40007B681B6822F001021A607B681A6C7B6833
:103C5000DB6B012101FA02F25A607B68012283F8D2
:103C600021207B68002283F82020FB7B1846143734
:103C7000BD4680BC7047000080B584B000AF78605E
:103C80000023FB737B6893F82130DBB2022B05D055
:103C90007B6804229A630123FB7351E07B681B68F5
:103CA0001A687B681B6822F00E021A607B681B682A
:103CB0001A687B681B6822F001021A607B681B6827
:103CC000224A934229D07B681B68214A934222D022
:103CD0007B681B681F4A93421AD07B681B681E4A88
:103CE000934212D07B681B681C4A93420AD07B68BF
:103CF0001B681B4A934202D14FF480130EE04FF031
:103D000080730BE04FF4803308E04FF4805305E0FC
:103D10004FF4807302E0102300E00123114A536046
:103D20007B68012283F821207B68002283F8202011
:103D30007B685B6B002B03D07B685B6B7868984774
:103D4000FB7B18461037BD4680BD00BF080002400F
:103D50001C00024030000240440002405800024073
:103D60006C0002400000024080B584B000AF786073
:103D70007B68DB6B1B68FB607B681B681B68BB6038
:103D80007B681B6C04229A40FB681340002B4FD0C9
:103D9000BB6803F00403002B4AD07B681B681B68D8
:103DA00003F02003002B07D17B681B681A687B682F
:103DB0001B6822F004021A607B681B68664A934203
:103DC00029D07B681B68654A934222D07B681B68B8
:103DD000634A93421AD07B681B68624A934212D0AE
:103DE0007B681B68604A93420AD07B681B685F4A05
:103DF000934202D14FF480030EE04FF080630BE05A
:103E00004FF4802308E04FF4804305E04FF48063D3
:103E100002E0402300E00423554A53607B68DB6ADC
:103E2000002B00F094807B68DB6A786898478EE00E
:103E30007B681B6C02229A40FB681340002B56D013
:103E4000BB6803F00203002B51D07B681B681B6822
:103E500003F02003002B0BD17B681B681A687B687A
:103E60001B6822F00A021A607B68012283F8212075
:103E70007B681B68384A934229D07B681B68374AA5
:103E8000934222D07B681B68354A93421AD07B68E4
:103E90001B68344A934212D07B681B68324A9342B3
:103EA0000AD07B681B68314A934202D14FF4001359
:103EB0000EE04FF000730BE04FF4003308E04FF4D6
:103EC000005305E04FF4007302E0202300E00223DA
:103ED000274A53607B68002283F820207B689B6A16
:103EE000002B34D07B689B6A786898472FE07B680A
:103EF0001B6C08229A40FB681340002B28D0BB683B
:103F000003F00803002B23D07B681B681A687B68CA
:103F10001B6822F00E021A607B681A6C7B68DB6BF0
:103F2000012101FA02F25A607B6801229A637B68E0
:103F3000012283F821207B68002283F820207B68FF
:103F40001B6B002B04D07B681B6B7868984700BF05
:103F500000BF1037BD4680BD080002401C00024073
:103F60003000024044000240580002406C00024011
:103F70000000024080B485B000AFF860B9607A609C
:103F80003B60FB681A6CFB68DB6B012101FA02F2F3
:103F90005A60FB681B683A685A60FB685B68102BC4
:103FA00008D1FB681B687A689A60FB681B68BA686E
:103FB000DA6007E0FB681B68BA689A60FB681B68F8
:103FC0007A68DA6000BF1437BD4680BC70470000D5
:103FD00080B48BB000AF7860396000237B6200232F
:103FE0003B6269E101227B6A02FA03F3FB613B68F1
:103FF0001B68FA691340BB61BA69FB699A4240F0D9
:1040000058813B685B689A4A93425ED0984A9342D3
:1040100075D8984A934258D0964A93426FD8964A98
:10402000934252D0944A934269D8944A93424CD0D6
:10403000924A934263D8924A934246D0904A93421E
:104040005DD8122B2AD8122B59D801A252F823F08E
:10405000CB400008A5400008B7400008F940000820
:10406000FF400008FF400008FF400008FF40000834
:10407000FF400008FF400008FF400008FF40000824
:10408000FF400008FF400008FF400008FF40000814
:10409000FF400008AD400008C1400008794A934243
:1040A00013D02CE03B68DB683B6229E03B68DB68AF
:1040B00004333B6224E03B68DB6808333B621FE06B
:1040C0003B68DB680C333B621AE03B689B68002B63
:1040D00002D104233B6213E03B689B68012B05D1AE
:1040E00008233B627B68FA691A6109E008233B6296
:1040F0007B68FA695A6103E000233B6200E000BF7D
:10410000BB69FF2B01D87B6801E07B6804337B61CE
:10411000BB69FF2B02D87B6A9B0002E07B6A083BED
:104120009B003B617B691A680F213B6901FA03F32D
:10413000DB431A40396A3B6901FA03F31A437B698E
:104140001A603B685B6803F08053002B00F0B1807D
:104150004D4B9B694C4A43F0010393614A4B9B6969
:1041600003F00103BB60BB68484A7B6A9B080233CB
:1041700052F82330FB607B6A03F003039B000F229D
:1041800002FA03F3DB43FA681340FB607B68404AA2
:10419000934213D07B683F4A93420DD07B683E4ADE
:1041A000934207D07B683D4A934201D1032306E046
:1041B000042304E0022302E0012300E000237A6AE2
:1041C00002F0030292009340FA681343FB602F4908
:1041D0007B6A9B080233FA6841F823203B685B68DE
:1041E00003F48013002B06D02D4B9A682C49BB6931
:1041F00013438B6006E02A4B9A68BB69DB4328496E
:1042000013408B603B685B6803F40013002B06D0FF
:10421000234BDA682249BB691343CB6006E0204B8D
:10422000DA68BB69DB431E491340CB603B685B68BF
:1042300003F40033002B06D0194B5A681849BB69A8
:1042400013434B6006E0164B5A68BB69DB431449C5
:1042500013404B603B685B6803F48033002B21D034
:104260000F4B1A680E49BB6913430B6021E000BF76
:104270000000321000003110000022100000211058
:104280000000121000001110001002400000014058
:1042900000080140000C01400010014000140140E2
:1042A000000401400B4B1A68BB69DB43094913400A
:1042B0000B607B6A01337B623B681A687B6A22FA77
:1042C00003F3002B7FF48EAE00BF00BF2C37BD463A
:1042D00080BC70470004014080B485B000AF7860B6
:1042E0000B467B807B689A687B881340002B02D04A
:1042F0000123FB7301E00023FB73FB7B184614379B
:10430000BD4680BC704780B483B000AF78600B4678
:104310007B8013467B707B78002B03D07A887B6888
:104320001A6103E07B881A047B681A6100BF0C37AE
:10433000BD4680BC7047000080B584B000AF786097
:104340007B68002B01D101232BE17B6893F83D3082
:10435000DBB2002B06D17B68002283F83C20786812
:10436000FDF7D0F97B68242283F83D207B681B6829
:104370001A687B681B6822F001021A607B681B6860
:104380001A687B681B6842F400421A607B681B68ED
:104390001A687B681B6822F400421A6001F032F848
:1043A000F8607B685B68814A934207D8FB68804A63
:1043B000934294BF01230023DBB206E0FB687D4AF1
:1043C000934294BF01230023DBB2002B01D00123D1
:1043D000E7E0FB68784AA2FB03239B0CBB607B6889
:1043E0001B685B6823F03F017B681B68BA680A435F
:1043F0005A607B681B681B6A23F03F017B685B681F
:104400006A4A934202D8BB68013309E0BB684FF4A3
:10441000967202FB03F3694AA2FB03239B09013353
:104420007A6812680B4313627B681B68DB6923F4AC
:104430004F4222F0FF027B685B685C498B4219D8CF
:10444000FB68591E7B685B685B00B1FBF3F3591C8A
:1044500040F6FC730B40002B0AD0FB68591E7B68AA
:104460005B685B00B1FBF3F30133C3F30B0351E073
:1044700004234FE07B689B68002B11D1FB68581E1A
:104480007B6859680B465B000B44B0FBF3F30133C8
:10449000C3F30B03002B0CBF01230023DBB212E09C
:1044A000FB68581E7B6859680B469B000B449900BB
:1044B0000B44B0FBF3F30133C3F30B03002B0CBF2E
:1044C00001230023DBB2002B01D0012322E07B6813
:1044D0009B68002B0ED1FB68581E7B6859680B4601
:1044E0005B000B44B0FBF3F30133C3F30B0343F462
:1044F00000430FE0FB68581E7B6859680B469B0021
:104500000B4499000B44B0FBF3F30133C3F30B03EB
:1045100043F44043796809681343CB617B681B68A7
:104520001B6823F0C0017B68DA697B681B6A1A4349
:104530007B681B680A431A607B681B689B6823F4CE
:10454000034323F0FF037A6811697A68D268114344
:104550007A6812680B4393607B681B68DB6823F002
:10456000FF017B685A697B689B691A437B681B68FB
:104570000A43DA607B681B681A687B681B6842F034
:1045800001021A607B6800221A647B68202283F88B
:104590003D207B6800221A637B68002283F83E205E
:1045A000002318461037BD4680BD00BFA08601001D
:1045B0007F841E00FF083D0083DE1B43D34D621045
:1045C00080B588B002AFF8607A601A460B467B81EE
:1045D00013463B81FEF75CFD7861FB6893F83D3044
:1045E000DBB2202B40F0E0807B690093192301228D
:1045F0007049F86800F064F90346002B01D00223EB
:10460000D3E0FB6893F83C30012B01D10223CCE0CE
:10461000FB68012283F83C20FB681B681B6803F0E1
:104620000103012B07D0FB681B681A68FB681B6835
:1046300042F001021A60FB681B681A68FB681B687D
:1046400022F400621A60FB68212283F83D20FB6897
:10465000102283F83E20FB6800221A64FB687A6807
:104660005A62FB683A895A85FB685B8D9AB2FB688F
:104670001A85FB68504ADA6279897B693A6AF86878
:1046800000F09CF80346002B01D001238DE00023AD
:104690003B61FB681B685B693B61FB681B689B694E
:1046A0003B613B6966E07A69396AF86800F022FA92
:1046B0000346002B0DD0FB681B6C042B07D1FB6855
:1046C0001B681A68FB681B6842F400721A600123B9
:1046D0006BE0FB685B6A1A78FB681B681A61FB6811
:1046E0005B6A5A1CFB685A62FB685B8D9BB2013B9C
:1046F0009AB2FB685A85FB681B8D013B9AB2FB6836
:104700001A85FB681B685B6903F00403042B1BD14B
:10471000FB681B8D002B17D0FB685B6A1A78FB685F
:104720001B681A61FB685B6A5A1CFB685A62FB686B
:104730005B8D9BB2013B9AB2FB685A85FB681B8D6F
:10474000013B9AB2FB681A857A69396AF86800F009
:1047500019FA0346002B0DD0FB681B6C042B07D104
:10476000FB681B681A68FB681B6842F400721A60D9
:1047700001231AE0FB681B8D002B94D1FB681B689A
:104780001A68FB681B6842F400721A60FB682022FA
:1047900083F83D20FB68002283F83E20FB6800225E
:1047A00083F83C20002300E0022318461837BD465A
:1047B00080BD00BF020010000000FFFF80B588B080
:1047C00002AFF8607A603B600B467B81FB68DB6A76
:1047D0007B617B69082B06D07B69012B03D07B6949
:1047E00013F5803F08D1FB681B681A68FB681B68DB
:1047F00042F480721A600BE0FB681B6B122B07D12E
:10480000FB681B681A68FB681B6842F480721A60B8
:104810003B6800937B6800224FF00111F86800F0BC
:104820004FF80346002B0DD0FB681B681B6803F490
:104830008073B3F5807F03D1FB684FF400721A6474
:10484000032335E0FB681B69B3F5804F08D17B89F2
:10485000DBB21A46FB681B6802F0FE021A611BE01D
:104860007B89DB11DBB203F00603DBB263F00F03DD
:10487000DAB2FB681B681A613B687A680E49F8680F
:1048800000F098F80346002B01D0012310E07B894B
:10489000DAB2FB681B681A613B687A680749F868F6
:1048A00000F088F80346002B01D0012300E000232C
:1048B00018461837BD4680BD0800010002000100FF
:1048C00080B584B000AFF860B9603B601346FB71FF
:1048D00048E03B68B3F1FF3F44D0FEF7D9FB024606
:1048E000BB69D31A3A689A4202D33B68002B39D18C
:1048F000BB681B0CDBB2012B0DD1FB681B685B692D
:10490000DA43BB6813409BB2002B0CBF012300238A
:10491000DBB21A460CE0FB681B689B69DA43BB6894
:1049200013409BB2002B0CBF01230023DBB21A46BD
:10493000FB799A4216D1FB6800221A63FB68202299
:1049400083F83D20FB68002283F83E20FB681B6C47
:1049500043F02002FB681A64FB68002283F83C20C5
:10496000012323E0BB681B0CDBB2012B0DD1FB68DC
:104970001B685B69DA43BB6813409BB2002B0CBF1A
:1049800001230023DBB21A460CE0FB681B689B691D
:10499000DA43BB6813409BB2002B0CBF01230023FA
:1049A000DBB21A46FB799A4293D00023184610379F
:1049B000BD4680BD80B584B000AFF860B9607A6054
:1049C0003B6071E0FB681B685B6903F48063B3F5CF
:1049D000806F23D1FB681B681A68FB681B6842F470
:1049E00000721A60FB681B686FF480625A61FB6892
:1049F00000221A63FB68202283F83D20FB68002216
:104A000083F83E20FB681B6C43F00402FB681A64C9
:104A1000FB68002283F83C20012367E07B68B3F148
:104A2000FF3F41D0FEF734FB02463B68D31A7A6859
:104A30009A4202D37B68002B36D1BB681B0CDBB2D9
:104A4000012B0CD1FB681B685B69DA43BB68134020
:104A50009BB2002B14BF01230023DBB20BE0FB68E9
:104A60001B689B69DA43BB6813409BB2002B14BFE1
:104A700001230023DBB2002B16D0FB6800221A634F
:104A8000FB68202283F83D20FB68002283F83E204B
:104A9000FB681B6C43F02002FB681A64FB68002271
:104AA00083F83C20012321E0BB681B0CDBB2012B07
:104AB0000CD1FB681B685B69DA43BB6813409BB28F
:104AC000002B14BF01230023DBB20BE0FB681B6843
:104AD0009B69DA43BB6813409BB2002B14BF0123D0
:104AE0000023DBB2002B7FF46DAF00231846103794
:104AF000BD4680BD80B584B000AFF860B9607A6013
:104B000034E0F86800F086F80346002B01D001235A
:104B100034E0BB68B3F1FF3F28D0FEF7B9FA024694
:104B20007B68D31ABA689A4202D3BB68002B1DD1A6
:104B3000FB681B685B6903F08003802B16D0FB6861
:104B400000221A63FB68202283F83D20FB680022C4
:104B500083F83E20FB681B6C43F02002FB681A645C
:104B6000FB68002283F83C20012307E0FB681B68F8
:104B70005B6903F08003802BC3D1002318461037F4
:104B8000BD4680BD80B584B000AFF860B9607A6082
:104B900034E0F86800F03EF80346002B01D0012312
:104BA00034E0BB68B3F1FF3F28D0FEF771FA02464C
:104BB0007B68D31ABA689A4202D3BB68002B1DD116
:104BC000FB681B685B6903F00403042B16D0FB68C9
:104BD00000221A63FB68202283F83D20FB68002234
:104BE00083F83E20FB681B6C43F02002FB681A64CC
:104BF000FB68002283F83C20012307E0FB681B6868
:104C00005B6903F00403042BC3D10023184610375B
:104C1000BD4680BD80B483B000AF78607B681B6800
:104C20005B6903F48063B3F5806F1BD17B681B68FD
:104C30006FF480625A617B6800221A637B682022CD
:104C400083F83D207B68002283F83E207B681B6C44
:104C500043F004027B681A647B68002283F83C20DE
:104C6000012300E0002318460C37BD4680BC704786
:104C700080B586B000AF78607B68002B01D101233E
:104C800072E27B681B6803F00103002B00F0878051
:104C9000924B5B6803F00C03042B0CD08F4B5B68CA
:104CA00003F00C03082B12D18C4B5B6803F48033A8
:104CB000B3F5803F0BD1894B1B6803F40033002B05
:104CC0006CD07B685B68002B68D101234CE27B6869
:104CD0005B68B3F5803F06D1804B1B687F4A43F485
:104CE000803313602EE07B685B68002B0CD17B4B1C
:104CF0001B687A4A23F480331360784B1B68774A29
:104D000023F4802313601DE07B685B68B3F5A02F5C
:104D10000CD1724B1B68714A43F4802313606F4BB4
:104D20001B686E4A43F4803313600BE06B4B1B68C7
:104D30006A4A23F480331360684B1B68674A23F484
:104D4000802313607B685B68002B13D0FEF7A0F90B
:104D5000386108E0FEF79CF902463B69D31A642BE0
:104D600001D9032300E25D4B1B6803F40033002BE1
:104D7000F0D014E0FEF78CF9386108E0FEF788F90E
:104D800002463B69D31A642B01D90323ECE1534B50
:104D90001B6803F40033002BF0D100E000BF7B68F8
:104DA0001B6803F00203002B63D04C4B5B6803F0DD
:104DB0000C03002B0BD0494B5B6803F00C03082B52
:104DC0001CD1464B5B6803F48033002B16D1434B58
:104DD0001B6803F00203002B05D07B681B69012BC5
:104DE00001D00123C0E13D4B1B6823F0F8027B6832
:104DF0005B69DB00394913430B603AE07B681B6950
:104E0000002B20D0364B01221A60FEF741F93861A1
:104E100008E0FEF73DF902463B69D31A022B01D99F
:104E20000323A1E12D4B1B6803F00203002BF0D0FC
:104E30002A4B1B6823F0F8027B685B69DB0027497B
:104E400013430B6015E0264B00221A60FEF720F991
:104E5000386108E0FEF71CF902463B69D31A022BC1
:104E600001D9032380E11D4B1B6803F00203002BD3
:104E7000F0D17B681B6803F00803002B3AD07B68F5
:104E80009B69002B19D0174B01221A60FEF700F91D
:104E9000386108E0FEF7FCF802463B69D31A022BA2
:104EA00001D9032360E10D4B5B6A03F00203002B81
:104EB000F0D0012000F0CEFA1CE00A4B00221A606C
:104EC000FEF7E6F838610FE0FEF7E2F802463B69CC
:104ED000D31A022B08D9032346E100BF0010024079
:104EE0000000424280044242924B5B6A03F002039C
:104EF000002BE9D17B681B6803F00403002B00F052
:104F0000A6800023FB758B4BDB6903F08053002BDD
:104F10000DD1884BDB69874A43F08053D361854BC1
:104F2000DB6903F08053BB60BB680123FB75824BD8
:104F30001B6803F48073002B18D17F4B1B687E4ADB
:104F400043F480731360FEF7A3F8386108E0FEF7BE
:104F50009FF802463B69D31A642B01D9032303E16E
:104F6000754B1B6803F48073002BF0D07B68DB6803
:104F7000012B06D16F4B1B6A6E4A43F0010313628B
:104F80002DE07B68DB68002B0CD16A4B1B6A694AF9
:104F900023F001031362674B1B6A664A23F0040384
:104FA00013621CE07B68DB68052B0CD1614B1B6A2C
:104FB000604A43F0040313625E4B1B6A5D4A43F090
:104FC000010313620BE05B4B1B6A5A4A23F0010397
:104FD0001362584B1B6A574A23F0040313627B6821
:104FE000DB68002B15D0FEF753F838610AE0FEF7B6
:104FF0004FF802463B69D31A41F28832934201D9F5
:105000000323B1E04B4B1B6A03F00203002BEED0ED
:1050100014E0FEF73DF838610AE0FEF739F8024681
:105020003B69D31A41F28832934201D903239BE0B2
:10503000404B1B6A03F00203002BEED1FB7D012BDA
:1050400005D13C4BDB693B4A23F08053D3617B683D
:10505000DB69002B00F08780364B5B6803F00C03A4
:10506000082B61D07B68DB69022B46D1334B0022D1
:105070001A60FEF70DF8386108E0FEF709F80246FD
:105080003B69D31A022B01D903236DE0294B1B681E
:1050900003F00073002BF0D17B681B6AB3F5803FEF
:1050A00008D1244B5B6823F400327B689B6821495C
:1050B00013434B601F4B5B6823F474127B68196ABF
:1050C0007B685B6A0B431B4913434B601B4B0122FC
:1050D0001A60FDF7DDFF386108E0FDF7D9FF0246F1
:1050E0003B69D31A022B01D903233DE0114B1B6806
:1050F00003F00073002BF0D035E0104B00221A6053
:10510000FDF7C6FF386108E0FDF7C2FF02463B69C4
:10511000D31A022B01D9032326E0064B1B6803F0A8
:105120000073002BF0D11EE07B68DB69012B07D1F7
:10513000012319E00010024000700040600042426C
:105140000B4B5B68FB60FB6803F480327B681B6A77
:105150009A4206D1FB6803F470127B685B6A9A423C
:1051600001D0012300E0002318461837BD4680BD5A
:105170000010024080B584B000AF786039607B6871
:10518000002B01D10123D0E06A4B1B6803F0070319
:105190003A689A4210D9674B1B6823F007026549A9
:1051A0003B6813430B60634B1B6803F007033A68CB
:1051B0009A4201D00123B8E07B681B6803F0020328
:1051C000002B20D07B681B6803F00403002B05D064
:1051D000594B5B68584A43F4E06353607B681B6833
:1051E00003F00803002B05D0534B5B68524A43F48D
:1051F00060535360504B5B6823F0F0027B689B6800
:105200004D4913434B607B681B6803F00103002B7F
:1052100040D07B685B68012B07D1474B1B6803F4C8
:105220000033002B15D101237FE07B685B68022BE4
:1052300007D1414B1B6803F00073002B09D10123F8
:1052400073E03D4B1B6803F00203002B01D10123E7
:105250006BE0394B5B6823F003027B685B6836497F
:1052600013434B60FDF714FFF8600AE0FDF710FFF1
:105270000246FB68D31A41F28832934201D90323D4
:1052800053E02D4B5B6803F00C027B685B689B006E
:105290009A42EBD1274B1B6803F007033A689A4206
:1052A00010D2244B1B6823F0070222493B681343AA
:1052B0000B60204B1B6803F007033A689A4201D049
:1052C000012332E07B681B6803F00403002B08D045
:1052D000194B5B6823F4E0627B68DB681649134373
:1052E0004B607B681B6803F00803002B09D0124B4E
:1052F0005B6823F460527B681B69DB000E49134333
:105300004B6000F021F802460B4B5B681B0903F071
:105310000F030A49CB5C22FA03F3094A1360094BD5
:105320001B681846FDF772FE002318461037BD466D
:1053300080BD00BF002002400010024028C50008C8
:10534000240000202800002080B487B000AF002394
:10535000FB600023BB6000237B6100237B60002394
:105360003B611E4B5B68FB60FB6803F00C03042B86
:1053700002D0082B03D027E0194B3B6127E0FB68E4
:105380009B0C03F00F03174AD35C7B60FB6803F4AC
:105390008033002B10D0114B5B685B0C03F00103D2
:1053A000114AD35CBB607B680D4A03FB02F2BB6809
:1053B000B2FBF3F37B6104E07B680C4A02FB03F36E
:1053C0007B617B693B6102E0054B3B6100BF3B6950
:1053D00018461C37BD4680BC704700BF0010024015
:1053E00000127A0040C5000850C5000800093D00C1
:1053F00080B400AF024B1B681846BD4680BC7047A6
:105400002400002080B500AFFFF7F2FF0246054BF5
:105410005B681B0A03F007030349CB5C22FA03F322
:10542000184680BD0010024038C5000880B500AFA6
:10543000FFF7DEFF0246054B5B68DB0A03F007035C
:105440000349CB5C22FA03F3184680BD00100240EA
:1054500038C5000880B485B000AF78600A4B1B687F
:105460000A4AA2FB03235B0A7A6802FB03F3FB6090
:1054700000BFFB685A1EFA60002BF9D100BF00BFC5
:105480001437BD4680BC704724000020D34D621005
:1054900080B586B000AF786000233B610023FB60DD
:1054A0007B681B6803F00103002B7DD00023FB7594
:1054B0004F4BDB6903F08053002B0DD14C4BDB6964
:1054C0004B4A43F08053D361494BDB6903F080536F
:1054D000BB60BB680123FB75464B1B6803F48073FC
:1054E000002B18D1434B1B68424A43F4807313606E
:1054F000FDF7CEFD386108E0FDF7CAFD02463B69C5
:10550000D31A642B01D903236DE03A4B1B6803F4D3
:105510008073002BF0D0364B1B6A03F44073FB60A2
:10552000FB68002B2ED07B685B6803F44073FA683D
:105530009A4227D02E4B1B6A23F44073FB602E4BFC
:1055400001221A602C4B00221A60294AFB68136260
:10555000FB6803F00103002B14D0FDF799FD3861BF
:105560000AE0FDF795FD02463B69D31A41F2883205
:10557000934201D9032336E01D4B1B6A03F002035B
:10558000002BEED01A4B1B6A23F440727B685B68D9
:10559000174913430B62FB7D012B05D1144BDB69CB
:1055A000134A23F08053D3617B681B6803F0020326
:1055B000002B08D00E4B5B6823F440427B689B684D
:1055C0000B4913434B607B681B6803F01003002BEF
:1055D00008D0074B5B6823F480027B68DB680449D2
:1055E00013434B60002318461837BD4680BD00BFEB
:1055F00000100240007000404004424280B582B07A
:1056000000AF78607B68002B01D1012341E07B680B
:1056100093F83D30DBB2002B06D17B68002283F883
:105620003C207868FDF7A2FB7B68022283F83D20CE
:105630007B681A687B6804331946104600F074FCD6
:105640007B68012283F846207B68012283F83E2094
:105650007B68012283F83F207B68012283F8402089
:105660007B68012283F841207B68012283F8422075
:105670007B68012283F843207B68012283F8442061
:105680007B68012283F845207B68012283F83D2056
:10569000002318460837BD4680BD000080B485B0A1
:1056A00000AF78607B6893F83D30DBB2012B01D00E
:1056B00001233AE07B68022283F83D207B681B6867
:1056C000DA687B681B6842F00102DA607B681B685D
:1056D000184A93420ED07B681B68B3F1804F09D003
:1056E0007B681B68144A934204D07B681B68134A8A
:1056F000934211D17B681B689B6803F00703FB6032
:10570000FB68062B10D07B681B681A687B681B68D7
:1057100042F001021A6007E07B681B681A687B6828
:105720001B6842F001021A60002318461437BD4678
:1057300080BC7047002C014000040040000800407D
:1057400080B582B000AF78607B68002B01D1012367
:1057500041E07B6893F83D30DBB2002B06D17B68DB
:10576000002283F83C207868FDF7E2FA7B68022289
:1057700083F83D207B681A687B680433194610461D
:1057800000F0D2FB7B68012283F846207B6801226F
:1057900083F83E207B68012283F83F207B6801224A
:1057A00083F840207B68012283F841207B68012236
:1057B00083F842207B68012283F843207B68012222
:1057C00083F844207B68012283F845207B6801220E
:1057D00083F83D20002318460837BD4680BD0000F1
:1057E00080B584B000AF786039603B68002B09D188
:1057F0007B6893F83E30DBB2012B14BF01230023FA
:10580000DBB222E03B68042B09D17B6893F83F3080
:10581000DBB2012B14BF01230023DBB215E03B6890
:10582000082B09D17B6893F84030DBB2012B14BF01
:1058300001230023DBB208E07B6893F84130DBB240
:10584000012B14BF01230023DBB2002B01D0012365
:105850005EE03B68002B04D17B68022283F83E2087
:1058600013E03B68042B04D17B68022283F83F20BD
:105870000BE03B68082B04D17B68022283F84020B0
:1058800003E07B68022283F841207B681B680122C9
:105890003968184600F0D4FD7B681B681E4A9342A5
:1058A00007D17B681B685A6C7B681B6842F4004216
:1058B0005A647B681B68184A93420ED07B681B6849
:1058C000B3F1804F09D07B681B68144A934204D01F
:1058D0007B681B68124A934211D17B681B689B68E6
:1058E00003F00703FB60FB68062B10D07B681B6886
:1058F0001A687B681B6842F001021A6007E07B6847
:105900001B681A687B681B6842F001021A6000235A
:1059100018461037BD4680BD002C014000040040F1
:105920000008004080B582B000AF786039607B68C5
:105930001B6800223968184600F082FD7B681B68EE
:10594000294A934217D17B681B681A6A41F21113E6
:105950001340002B0FD17B681B681A6A40F2444346
:105960001340002B07D17B681B685A6C7B681B684F
:1059700022F400425A647B681B681A6A41F21113D0
:105980001340002B0FD17B681B681A6A40F2444316
:105990001340002B07D17B681B681A687B681B6863
:1059A00022F001021A603B68002B04D17B680122BF
:1059B00083F83E2013E03B68042B04D17B6801226E
:1059C00083F83F200BE03B68082B04D17B68012261
:1059D00083F8402003E07B68012283F84120002304
:1059E00018460837BD4680BD002C014080B584B004
:1059F00000AF78607B681B68DB68FB607B681B68B6
:105A00001B69BB60BB6803F00203002B20D0FB685E
:105A100003F00203002B1BD07B681B686FF00202AF
:105A20001A617B6801221A777B681B689B6903F007
:105A30000303002B03D0786800F05AFA05E0786879
:105A400000F04DFA786800F05CFA7B6800221A7763
:105A5000BB6803F00403002B20D0FB6803F00403B1
:105A6000002B1BD07B681B686FF004021A617B68F7
:105A700002221A777B681B689B6903F44073002B32
:105A800003D0786800F034FA05E0786800F027FA6F
:105A9000786800F036FA7B6800221A77BB6803F05A
:105AA0000803002B20D0FB6803F00803002B1BD059
:105AB0007B681B686FF008021A617B6804221A7702
:105AC0007B681B68DB6903F00303002B03D0786855
:105AD00000F00EFA05E0786800F001FA786800F04E
