:020000040800F2
:1000000000500020454B0008454300084D430008C0
:10001000554300085D4300086543000800000000E8
:100020000000000000000000000000006D43000818
:100030007943000800000000854300089143000850
:100040008D4B00088D4B00088D4B00088D4B000830
:100050008D4B00088D4B00088D4B00088D4B000820
:100060008D4B00088D4B00088D4B00089D43000808
:100070008D4B00088D4B0008B14300088D4B0008E4
:100080008D4B00088D4B00088D4B00088D4B0008F0
:100090008D4B00088D4B00088D4B00088D4B0008E0
:1000A0008D4B00088D4B00088D4B00088D4B0008D0
:1000B0008D4B0008C54300088D4B00088D4B000890
:1000C0008D4B00088D4B00088D4B00088D4B0008B0
:1000D0008D4B0008814400088D4B00088D4B0008B3
:1000E000954400088D4B00088D4B0008000000006F
:1000F0000000000000000000000000000000000000
:0C01000000000000000000005FF808F1A3
:1001100010B5054C237833B9044B13B10448AFF341
:1001200000800123237010BDC005002000000000E6
:10013000D4E3000808B5034B1BB103490348AFF3F0
:10014000008008BD00000000C4050020D4E30008C2
:10015000034613F8012B002AFBD1181A0138704707
:1001600081F0004102E000BF83F0004330B54FEA68
:1001700041044FEA430594EA050F08BF90EA020FD5
:100180001FBF54EA000C55EA020C7FEA645C7FEA68
:10019000655C00F0E2804FEA5454D4EB5555B8BF8B
:1001A0006D420CDD2C4480EA020281EA030382EAFC
:1001B000000083EA010180EA020281EA0303362D8E
:1001C00088BF30BD11F0004F4FEA01314FF4801C61
:1001D0004CEA113102D0404261EB410113F0004F73
:1001E0004FEA03334CEA133302D0524263EB43032A
:1001F00094EA050F00F0A780A4F10104D5F1200EC8
:100200000DDB02FA0EFC22FA05F2801841F1000122
:1002100003FA0EF2801843FA05F359410EE0A5F1F6
:1002200020050EF1200E012A03FA0EFC28BF4CF027
:10023000020C43FA05F3C01851EBE37101F00045DD
:1002400007D54FF0000EDCF1000C7EEB00006EEBEA
:100250000101B1F5801F1BD3B1F5001F0CD3490874
:100260005FEA30004FEA3C0C04F101044FEA4452CB
:1002700012F5800F80F09A80BCF1004F08BF5FEA52
:10028000500C50F1000041EB045141EA050130BD32
:100290005FEA4C0C404141EB0101013C28BFB1F544
:1002A000801FE9D291F0000F04BF01460020B1FA8F
:1002B00081F308BF2033A3F10B03B3F120020CDA62
:1002C0000C3208DD02F1140CC2F10C0201FA0CF040
:1002D00021FA02F10CE002F11402D8BFC2F1200CA5
:1002E00001FA02F120FA0CFCDCBF41EA0C0190405B
:1002F000E41AA2BF01EB0451294330BD6FEA0404A4
:100300001F3C1CDA0C340EDC04F11404C4F120028E
:1003100020FA04F001FA02F340EA030021FA04F3A0
:1003200045EA030130BDC4F10C04C4F1200220FAF7
:1003300002F001FA04F340EA0300294630BD21FA35
:1003400004F0294630BD94F0000F83F4801306BFFB
:1003500081F480110134013D4EE77FEA645C18BFEF
:100360007FEA655C29D094EA050F08BF90EA020F86
:1003700005D054EA000C04BF1946104630BD91EA7E
:10038000030F1EBF0021002030BD5FEA545C05D181
:100390004000494128BF41F0004130BD14F58004C0
:1003A0003CBF01F5801130BD01F0004545F0FE4134
:1003B00041F470014FF0000030BD7FEA645C1ABF69
:1003C000194610467FEA655C1CBF0B46024650EAA0
:1003D000013406BF52EA033591EA030F41F40021CC
:1003E00030BD00BF90F0000F04BF0021704730B552
:1003F0004FF4806404F132044FF000054FF0000127
:1004000050E700BF90F0000F04BF0021704730B5E7
:100410004FF4806404F1320410F0004548BF4042BC
:100420004FF000013EE700BF42004FEAE2014FEA11
:1004300031014FEA02701FBF12F07F4393F07F4FEC
:1004400081F06051704732F07F4208BF704793F0EF
:100450007F4F04BF41F40021704730B54FF4607402
:1004600001F0004521F000411CE700BF50EA010205
:1004700008BF704730B54FF000050AE050EA0102AE
:1004800008BF704730B511F0004502D5404261EB1E
:1004900041014FF4806404F132045FEA915C3FF45F
:1004A000D8AE4FF003025FEADC0C18BF03325FEAFC
:1004B000DC0C18BF033202EBDC02C2F1200300FAAD
:1004C00003FC20FA02F001FA03FE40EA0E0021FAD2
:1004D00002F11444BDE600BF70B54FF0FF0C4CF4C0
:1004E000E06C1CEA11541DBF1CEA135594EA0C0F72
:1004F00095EA0C0F00F0DEF82C4481EA030621EAAD
:100500004C5123EA4C5350EA013518BF52EA0335E7
:1005100041F4801143F4801338D0A0FB02CE4FF099
:100520000005E1FB02E506F00042E0FB03E54FF0C9
:100530000006E1FB03569CF0000F18BF4EF0010EC1
:10054000A4F1FF04B6F5007F64F5407404D25FEABD
:100550004E0E6D4146EB060642EAC62141EA555170
:100560004FEAC52040EA5E504FEACE2EB4F1FD0CB2
:1005700088BFBCF5E06F1ED8BEF1004F08BF5FEA30
:10058000500E50F1000041EB045170BD06F00046E2
:1005900046EA010140EA020081EA0301B4EB5C048F
:1005A000C2BFD4EB0C0541EA045170BD41F4801187
:1005B0004FF0000E013C00F3AB8014F1360FDEBFAC
:1005C000002001F0004170BDC4F10004203C35DA88
:1005D0000C341BDC04F11404C4F1200500FA05F30B
:1005E00020FA04F001FA05F240EA020001F00042AC
:1005F00021F0004110EBD37021FA04F642EB060122
:100600005EEA430E08BF20EAD37070BDC4F10C044B
:10061000C4F1200500FA04F320FA05F001FA04F20F
:1006200040EA020001F0004110EBD37041F10001FB
:100630005EEA430E08BF20EAD37070BDC4F1200506
:1006400000FA05F24EEA020E20FA04F301FA05F26E
:1006500043EA020321FA04F001F0004121FA04F216
:1006600020EA020000EBD3705EEA430E08BF20EAE6
:10067000D37070BD94F0000F0FD101F00046400020
:1006800041EB010111F4801F08BF013CF7D041EAA2
:10069000060195F0000F18BF704703F000465200A6
:1006A00043EB030313F4801F08BF013DF7D043EA77
:1006B0000603704794EA0C0F0CEA135518BF95EA2D
:1006C0000C0F0CD050EA410618BF52EA4306D1D1B4
:1006D00081EA030101F000414FF0000070BD50EAD3
:1006E000410606BF1046194652EA430619D094EA5D
:1006F0000C0F02D150EA013613D195EA0C0F05D147
:1007000052EA03361CBF104619460AD181EA03019A
:1007100001F0004141F0FE4141F470014FF0000052
:1007200070BD41F0FE4141F4780170BD70B54FF0ED
:10073000FF0C4CF4E06C1CEA11541DBF1CEA13556D
:1007400094EA0C0F95EA0C0F00F0A7F8A4EB05044F
:1007500081EA030E52EA03354FEA013100F0888046
:100760004FEA03334FF0805545EA131343EA12630F
:100770004FEA022245EA111545EA10654FEA0026C4
:100780000EF000419D4208BF964244F1FD0404F57D
:10079000407402D25B084FEA3202B61A65EB0305D9
:1007A0005B084FEA32024FF480104FF4002CB6EB96
:1007B000020E75EB030E22BFB61A754640EA0C0016
:1007C0005B084FEA3202B6EB020E75EB030E22BF56
:1007D000B61A754640EA5C005B084FEA3202B6EB97
:1007E000020E75EB030E22BFB61A754640EA9C0056
:1007F0005B084FEA3202B6EB020E75EB030E22BF26
:10080000B61A754640EADC0055EA060E18D04FEAE3
:10081000051545EA16754FEA06164FEAC30343EA83
:1008200052734FEAC2025FEA1C1CC0D111F4801F50
:100830000BD141EA00014FF000004FF0004CB6E749
:1008400011F4801F04BF01430020B4F1FD0C88BFE8
:10085000BCF5E06F3FF6AFAEB5EB030C04BFB6EBF3
:10086000020C5FEA500C50F1000041EB045170BDE6
:100870000EF0004E4EEA113114EB5C04C2BFD4EB13
:100880000C0541EA045170BD41F480114FF0000E97
:10089000013C90E645EA060E8DE60CEA135594EA13
:1008A0000C0F08BF95EA0C0F3FF43BAF94EA0C0F16
:1008B0000AD150EA01347FF434AF95EA0C0F7FF48B
:1008C00025AF104619462CE795EA0C0F06D152EADF
:1008D00003353FF4FDAE1046194622E750EA4106C3
:1008E00018BF52EA43067FF4C5AE50EA41047FF4D4
:1008F0000DAF52EA43057FF4EBAE12E74FF0FF3C39
:1009000006E000BF4FF0010C02E000BF4FF0010C09
:100910004DF804CD4FEA410C7FEA6C5C4FEA430C82
:1009200018BF7FEA6C5C1BD001B050EA410C0CBFD1
:1009300052EA430C91EA030F02BF90EA020F002033
:10094000704710F1000F91EA030F58BF994208BF9A
:1009500090422CBFD8176FEAE37040F00100704757
:100960004FEA410C7FEA6C5C02D150EA013C07D1AE
:100970004FEA430C7FEA6C5CD6D152EA033CD3D0F9
:100980005DF8040B704700BF8446104662468C46F3
:100990001946634600E000BF01B5FFF7B7FF002826
:1009A00048BF10F1000F01BD4DF808EDFFF7F4FF4F
:1009B0000CBF012000205DF808FB00BF4DF808EDDA
:1009C000FFF7EAFF34BF012000205DF808FB00BFFD
:1009D0004DF808EDFFF7E0FF94BF012000205DF81F
:1009E00008FB00BF4DF808EDFFF7CEFF94BF0120D4
:1009F00000205DF808FB00BF4DF808EDFFF7C4FFCD
:100A000034BF012000205DF808FB00BF4FEA410C15
:100A10007FEA6C5C02D150EA013C0AD14FEA430CF8
:100A20007FEA6C5C02D152EA033C02D14FF0000035
:100A300070474FF0010070474FEA410212F5001273
:100A400015D211D56FF47873B3EB625212D94FEA15
:100A5000C12343F0004343EA505311F0004F23FAFF
:100A600002F018BF404270474FF00000704750EA54
:100A7000013005D111F0004008BF6FF00040704711
:100A80004FF00000704700BF4A0011D212F500126B
:100A900011D20DD56FF47873B3EB62520ED44FEAD6
:100AA000C12343F0004343EA505323FA02F0704756
:100AB0004FF00000704750EA013002D14FF0FF3094
:100AC00070474FF0000070474FEA4102B2F1E04337
:100AD00024BFB3F5001CDCF1FE5C0DD901F0004C25
:100AE0004FEAC0024CEA5070B2F1004F40EB830075
:100AF00008BF20F00100704711F0804F21D113F1A1
:100B00003872BCBF01F00040704741F480114FEAD9
:100B10005252C2F11802C2F1200C10FA0CF320FA62
:100B200002F018BF40F001004FEAC1234FEAD3237F
:100B300003FA0CFC40EA0C0023FA02F34FEA4303E9
:100B4000CCE77FEA625307D150EA01331EBF4FF072
:100B5000FE4040F44000704701F0004040F0FE408D
:100B600040F40000704700BF80F0004002E000BF8A
:100B700081F0004142001FBF5FEA410392EA030F88
:100B80007FEA226C7FEA236C6AD04FEA1262D2EBD2
:100B90001363C1BFD218414048404140B8BF5B42D7
:100BA000192B88BF704710F0004F40F4000020F070
:100BB0007F4018BF404211F0004F41F4000121F086
:100BC0007F4118BF494292EA030F3FD0A2F10102D0
:100BD00041FA03FC10EB0C00C3F1200301FA03F10E
:100BE00000F0004302D5494260EB4000B0F5000F31
:100BF00013D3B0F1807F06D340084FEA310102F1F0
:100C00000102FE2A51D2B1F1004F40EBC25008BFA1
:100C100020F0010040EA03007047490040EB00006B
:100C2000013A28BFB0F5000FEDD2B0FA80FCACF16C
:100C3000080CB2EB0C0200FA0CF0AABF00EBC25099
:100C400052421843BCBFD0401843704792F0000F87
:100C500081F4000106BF80F400000132013BB5E7DA
:100C60004FEA41037FEA226C18BF7FEA236C21D050
:100C700092EA030F04D092F0000F08BF08467047B5
:100C800090EA010F1CBF0020704712F07F4F04D183
:100C9000400028BF40F00040704712F100723CBF96
:100CA00000F50000704700F0004343F0FE4040F4C0
:100CB000000070477FEA226216BF08467FEA23637E
:100CC0000146420206BF5FEA412390EA010F40F469
:100CD000800070474FF0000304E000BF10F00043B5
:100CE00048BF40425FEA000C08BF704743F096439C
:100CF00001464FF000001CE050EA010208BF7047B7
:100D00004FF000030AE000BF50EA010208BF70473D
:100D100011F0004302D5404261EB41015FEA010C52
:100D200002BF84460146002043F0B64308BFA3F14A
:100D30008053A3F50003BCFA8CF2083AA3EBC2532C
:100D400010DB01FA02FC634400FA02FCC2F120024B
:100D5000BCF1004F20FA02F243EB020008BF20F082
:100D60000100704702F1200201FA02FCC2F12002E8
:100D700050EA4C0021FA02F243EB020008BF20EADD
:100D8000DC7070474FF0FF0C1CEAD0521EBF1CEA0B
:100D9000D15392EA0C0F93EA0C0F6FD01A4480EAF9
:100DA000010C400218BF5FEA41211ED04FF00063E2
:100DB00043EA501043EA5111A0FB01310CF000400E
:100DC000B1F5000F3EBF490041EAD3715B0040EA34
:100DD000010062F17F02FD2A1DD8B3F1004F40EB04
:100DE000C25008BF20F00100704790F0000F0CF0D7
:100DF000004C08BF49024CEA502040EA51207F3A9B
:100E0000C2BFD2F1FF0340EAC250704740F4000075
:100E10004FF00003013A5DDC12F1190FDCBF00F066
:100E200000407047C2F10002410021FA02F1C2F114
:100E3000200200FA02FC5FEA310040F1000053EAB0
:100E40004C0308BF20EADC70704792F0000F00F0FE
:100E5000004C02BF400010F4000F013AF9D040EA04
:100E60000C0093F0000F01F0004C02BF490011F498
:100E7000000F013BF9D041EA0C018FE70CEAD15396
:100E800092EA0C0F18BF93EA0C0F0AD030F0004C16
:100E900018BF31F0004CD8D180EA010000F00040CA
:100EA000704790F0000F17BF90F0004F084691F088
:100EB000000F91F0004F14D092EA0C0F01D14202C2
:100EC0000FD193EA0C0F03D14B0218BF084608D18B
:100ED00080EA010000F0004040F0FE4040F40000D5
:100EE000704740F0FE4040F4400070474FF0FF0C68
:100EF0001CEAD0521EBF1CEAD15392EA0C0F93EAAF
:100F00000C0F69D0A2EB030280EA010C49024FEA00
:100F1000402037D04FF0805343EA111143EA1013B9
:100F20000CF000408B4238BF5B0042F17D024FF471
:100F3000000C8B4224BF5B1A40EA0C00B3EB510F4C
:100F400024BFA3EB510340EA5C00B3EB910F24BF35
:100F5000A3EB910340EA9C00B3EBD10F24BFA3EBBA
:100F6000D10340EADC001B0118BF5FEA1C1CE0D182
:100F7000FD2A3FF650AF8B4240EBC25008BF20F035
:100F8000010070470CF0004C4CEA50207F32C2BF89
:100F9000D2F1FF0340EAC250704740F400004FF026
:100FA0000003013A37E792F0000F00F0004C02BF57
:100FB000400010F4000F013AF9D040EA0C0093F021
:100FC000000F01F0004C02BF490011F4000F013B7B
:100FD000F9D041EA0C0195E70CEAD15392EA0C0FE3
:100FE00008D142027FF47DAF93EA0C0F7FF470AF1B
:100FF000084676E793EA0C0F04D14B023FF44CAF5E
:1010000008466EE730F0004C18BF31F0004CCAD1F2
:1010100030F000427FF45CAF31F000437FF43CAF2E
:101020005FE700BF4FF0FF3C06E000BF4FF0010C50
:1010300002E000BF4FF0010C4DF804CD4FEA400232
:101040004FEA41037FEA226C18BF7FEA236C11D07C
:1010500001B052EA530C18BF90EA010F58BFB2EB2F
:10106000030088BFC81738BF6FEAE17018BF40F0AF
:10107000010070477FEA226C02D15FEA402C05D163
:101080007FEA236CE4D15FEA412CE1D05DF8040BE8
:10109000704700BF844608466146FFE70FB5FFF77B
:1010A000C9FF002848BF10F1000F0FBD4DF808ED33
:1010B000FFF7F4FF0CBF012000205DF808FB00BF24
:1010C0004DF808EDFFF7EAFF34BF012000205DF87E
:1010D00008FB00BF4DF808EDFFF7E0FF94BF0120CB
:1010E00000205DF808FB00BF4DF808EDFFF7D2FFC8
:1010F00094BF012000205DF808FB00BF4DF808ED0B
:10110000FFF7C8FF34BF012000205DF808FB00BFD7
:101110004FEA40024FEA41037FEA226C02D15FEAC4
:10112000402C08D17FEA236C02D15FEA412C02D126
:101130004FF0000070474FF0010070474FEA400247
:10114000B2F1FE4F0FD34FF09E03B3EB12620DD9F5
:101150004FEA002343F0004310F0004F23FA02F05F
:1011600018BF404270474FF00000704712F1610F06
:1011700001D1420205D110F0004008BF6FF00040DD
:1011800070474FF00000704742000ED2B2F1FE4FA0
:101190000BD34FF09E03B3EB126209D44FEA002346
:1011A00043F0004323FA02F070474FF0000070470D
:1011B00012F1610F01D1420202D14FF0FF307047AE
:1011C0004FF00000704700BF38B5002200230446EE
:1011D0000D46FFF7F3FB28B920462946BDE8384005
:1011E00000F00AB8204605F1004100F005F8404241
:1011F00061EB410138BD00BFD0B500220B4B064664
:101200000F46FFF769F9FFF73FFC0446FFF7EAF8DE
:101210000022074BFFF760F902460B46304639467D
:10122000FEF7A2FFFFF730FC2146D0BD0000F03DE5
:101230000000F04180B584B000AF3B1D00221A6071
:101240005A609A60184B194A1A60174B00229A602C
:10125000154B01221A73144B00221A75124B4FF4CE
:101260006022DA61104B00225A600F4B01221A6192
:101270000D4803F013FD0346002B01D002F042FBA2
:1012800000237B600123BB600723FB603B1D1946E5
:10129000054803F0CBFE0346002B01D002F032FBE1
:1012A00000BF1037BD4680BDDC0500200024014092
:1012B00080B588B000AF786007F1100300221A6093
:1012C0005A609A60DA607B681B68284A934249D169
:1012D000274B9B69264A43F400739361244B9B6917
:1012E00003F40073FB60FB68214B9B69204A43F0C9
:1012F000040393611E4B9B6903F00403BB60BB684E
:1013000001233B6103237B6107F110031946194850
:1013100004F036FE184B194A1A60174B00225A6027
:10132000154B00229A60144B8022DA60124B4FF466
:1013300080721A61104B4FF480625A610E4B00228A
:101340009A610D4B0022DA610B4804F077F90346ED
:10135000002B01D002F0D6FA7B68074A1A62064ACF
:101360007B68536200BF2037BD4680BD002401402A
:1013700000100240000801400C0600200800024056
:1013800080B582B000AF104B5B690F4A43F0010398
:1013900053610D4B5B6903F001037B607B680022A6
:1013A00000210B2004F013F90B2004F02CF900228B
:1013B00000210E2004F00BF90E2004F024F900BFE8
:1013C0000837BD4680BD00BF0010024080B500AFA9
:1013D000114B00221A60114B00221A70104B002290
:1013E0001A70104B00221A700F4B00221A600F4B1C
:1013F00000221A700E4B00221A704FF480410D48E3
:1014000004F042FF0346002B14BF01230023DAB28D
:10141000094B1A7000BF80BD500600205406002002
:101420005506002056060020580600205C060020C5
:101430005D060020000C01400000002080B400AFD9
:10144000024B1B681846BD4680BC70475006002002
:1014500080B400AF034B00221A6000BFBD4680BCC1
:10146000704700BF5006002080B400AF074B1B78C8
:10147000DBB2002B04D0054B00221A70012300E0E0
:1014800000231846BD4680BC704700BF55060020AB
:1014900080B400AF074B1B78DBB2002B04D0054BA8
:1014A00000221A70012300E000231846BD4680BCCC
:1014B000704700BF5606002080B582B000AF244BB5
:1014C0001B680133224A136003F0BAFB7860214B9A
:1014D0001B687A68D31A012B36D91E4A7B681360C1
:1014E0004FF480411C4804F0CFFE0346002B14BF8C
:1014F00001230023FB704FF40041174804F0C4FEA1
:101500000346002B14BF01230023BB70134B1B7831
:10151000FA789A4219D0FA78BB789A4208D1104BDF
:101520001B68013B0E4A13600E4B02221A7007E043
:101530000B4B1B6801330A4A13600A4B01221A70D5
:10154000064AFB78137000E000BF0837BD4680BD37
:101550006406002060060020000C0140000000200E
:10156000500600205406002080B400AF044B1B68D6
:101570000133034A136000BFBD4680BC704700BF03
:101580006806002080B584B000AF03F059FBF86016
:101590004FF40051344804F077FE0346002B14BF8B
:1015A00001230023FB72FB7A002B14BF01230023CD
:1015B000DBB283F00103DBB2BB72BB7A03F0010341
:1015C000BB72BB7A002B10D0284B1B7883F0010331
:1015D000DBB2002B09D0254B01221A70244AFB688C
:1015E0001360244B00221A701EE0BB7A83F00103C3
:1015F000DBB2002B18D01D4B1B78002B14D01B4BDB
:1016000000221A701B4B1B7883F00103DBB2002B06
:101610000AD0174B1B68FA68D31A7B607B68322BA1
:1016200002D9154B01221A70104B1B78002B16D0D3
:10163000104B1B7883F00103DBB2002B0FD00C4B57
:101640001B68FA68D31A3B603B6840F2DB52934256
:1016500005D90A4B01221A70064B01221A7000BFED
:101660001037BD4680BD00BF000C01405C06002065
:10167000580600205D060020550600205606002072
:1016800080B588B000AF07F1100300221A605A60DD
:101690009A60DA60514B9B69504A43F02003936192
:1016A0004E4B9B6903F02003FB60FB684B4B9B692F
:1016B0004A4A43F004039361484B9B6903F00403D7
:1016C000BB60BB68454B9B69444A43F00803936188
:1016D000424B9B6903F008037B607B6800222E214C
:1016E0003F4804F0E8FD002223213E4804F0E3FDDA
:1016F0000E233B6101237B610023BB610223FB615D
:1017000007F110031946364804F03AFC10233B61F8
:1017100000237B610123BB6107F1100319463048A8
:1017200004F02EFC20233B6101237B610223BB617B
:101730000223FB6107F110031946294804F020FC3D
:1017400023233B6101237B610023BB610223FB61F7
:1017500007F110031946234804F012FC4FF4184314
:101760003B6100237B610123BB6107F11003194634
:101770001C4804F005FC4FF400533B611A4B7B619D
:101780000123BB6107F110031946164804F0F8FB6A
:101790004FF480433B61154B7B610123BB6107F133
:1017A000100319460F4804F0EBFB4FF400633B6154
:1017B0000D4B7B610123BB6107F1100319460848FB
:1017C00004F0DEFB00220021282003F000FF282087
:1017D00003F019FF00BF2037BD4680BD0010024056
:1017E00000080140000C01400000211000003110F1
:1017F00080B586B002AF0346FB71FB7923F00F037F
:10180000FB73FB791B01BB73FB7B43F00C03DBB267
:101810003B72FB7B43F00803DBB27B72BB7B43F084
:101820000C03DBB2BB72BB7B43F00803DBB2FB7281
:1018300007F108026423009304234E21034804F0B7
:10184000B9FE00BF1037BD4680BD00BF6C0600204A
:1018500080B586B002AF0346FB71FB7923F00F031E
:10186000FB73FB791B01BB73FB7B43F00D03DBB206
:101870003B72FB7B43F00903DBB27B72BB7B43F023
:101880000D03DBB2BB72BB7B43F00903DBB2FB721F
:1018900007F108026423009304234E21034804F057
:1018A00089FE00BF1037BD4680BD00BF6C0600201A
:1018B00080B582B000AF8020FFF79AFF00237B60E5
:1018C00005E02020FFF7C4FF7B6801337B607B6865
:1018D000452BF6DD00BF00BF0837BD4680BD80B593
:1018E00082B000AF786039607B68002B03D07B68E2
:1018F000012B05D009E03B6843F080033B6004E026
:101900003B6843F0C0033B6000BF3B68DBB2184656
:10191000FFF76EFF00BF0837BD4680BD80B500AF42
:10192000322003F097F93020FFF762FF052003F023
:1019300091F93020FFF75CFF012003F08BF9302094
:10194000FFF756FF0A2003F085F92020FFF750FF2C
:101950000A2003F07FF92820FFF74AFF012003F057
:1019600079F90820FFF744FF012003F073F9012003
:10197000FFF73EFF012003F06DF9012003F06AF943
:101980000620FFF735FF012003F064F90C20FFF774
:101990002FFF00BF80BD80B582B000AF786006E049
:1019A0007B685A1C7A601B781846FFF751FF7B68EA
:1019B0001B78002BF4D100BF00BF0837BD4680BDA7
:1019C00080B500AF124B134A1A60114B124A5A608D
:1019D0000F4B00229A600E4B0022DA600C4B4FF442
:1019E00080421A610A4B00225A61094B00229A6117
:1019F000074B0022DA61064B00221A62044804F009
:101A000095FC0346002B01D001F07CFF00BF80BD98
:101A10006C06002000540040A086010080B588B00C
:101A200000AF786007F1100300221A605A609A60D4
:101A3000DA607B681B68154A934223D1144B9B697B
:101A4000134A43F008039361114B9B6903F00803A9
:101A5000FB60FB68C0233B6112237B610323FB61B6
:101A600007F1100319460B4804F08AFA084BDB69AA
:101A7000074A43F40013D361054BDB6903F40013F9
:101A8000BB60BB6800BF2037BD4680BD005400402E
:101A900000100240000C014080B500AF094B0A4A1B
:101AA0001A60084B04225A60064B40F6C4129A6032
:101AB000044805F0D7F80346002B01D001F022FFBF
:101AC00000BF80BDC00600200030004080B582B05D
:101AD00000AF0346FB80FB881846FFF7FFF803467C
:101AE00006491846FFF74EF9034605491846FFF721
:101AF000FDF9034618460837BD4680BD33335340D1
:101B000000F07F4590B587B000AF0346FB80FB88AF
:101B10001846FFF7DBFF78612F497869FFF7D0FAA5
:101B20000346002B06D12D497869FFF7E7FA0346F3
:101B3000002B01D02A4B4BE079692A48FFF7D6F9F0
:101B400003464FF07E511846FFF712F80346194638
:101B50002548FFF7CBF903463B614FF00001386998
:101B6000FFF7B8FA0346002B01D01D4B30E01F49A8
:101B70003869FFF7C3FA0346002B01D01C4B00E085
:101B80001C4BFB60F9684FF07E50FFF7AFF903463E
:101B90001C4619493869FFF7A9F9034618460BF0A6
:101BA000FFFC034619462046FFF7ECF803461349AD
:101BB0001846FEF7DFFF0346BB60B9684FF07E5062
:101BC000FFF794F903460E491846FEF7D1FF034686
:101BD00018461C37BD4690BDCDCC4C3D0000504052
:101BE0000000C07F3333534000007A440080BB4480
:101BF00000E0764500D08945004AC4470FCF5B3BE3
:101C00003393884380B582B000AF0346FB71FB7904
:101C10001A462021034804F04EFB00BF0837BD469A
:101C200080BD00BF000C014080B582B000AF03460C
:101C3000FB71FB7983F00103DBB21A4620210348D4
:101C400004F039FB00BF0837BD4680BD00080140E5
:101C500080B485B000AF0346FB80FB88312B01D8F0
:101C60003223FB80FB8844F62062934202D944F67B
:101C70002063FB80FB880B4AB2FBF3F3013BFB6064
:101C8000094B1B68FA68DA62074AFB68D360064BA7
:101C90001B68FA6852085A6300BF1437BD4680BCFF
:101CA000704700BF40420F004C08002080B582B052
:101CB00000AF786001220421064804F0FCFA02F02B
:101CC000BFFF02467B681344034A136000BF083716
:101CD000BD4680BD00080140C807002080B582B025
:101CE00000AF0346FB710B46BB7113467B71FB795A
:101CF000002B14BF01230023DBB21A4601210E483A
:101D000004F0D9FABB79002B14BF01230023DBB206
:101D10001A460221084804F0CEFA7B79002B14BF42
:101D200001230023DBB21A460821044804F0C3FA59
:101D300000BF0837BD4680BD000C014000080140CF
:101D4000B0B58EB000AF03F08BFF0023FB61254BD5
:101D50007B620123BB6207F1180207F11C031146E5
:101D6000184604F065F80346002B02D003F09EFFEE
:101D700035E01D4B1B683B601C4B1B687B601C4B9C
:101D80001B68BB601A4B5B68FB60194B9B683B612F
:101D9000184B7B613B467B63124B3B630023FB622A
:101DA00016E07B6B1B6800221C46154622462B461C
:101DB000396B022003F0E4FE0346002B0CD13B6B91
:101DC00004333B637B6B04337B63FB6A0133FB624D
:101DD000FB6A052BE5D900E000BF03F067FF383749
:101DE000BD46B0BD00FC0008040000202800002013
:101DF00010000020BEBAFECA80B483B000AF104B02
:101E00007B607B685B690F4A934213D17B681B68D8
:101E10000D4A13607B685B680C4A13607B689B68A3
:101E20000B4A13607B68DB68094A53607B681B6957
:101E3000074A936000BF0C37BD4680BC704700BFA7
:101E400000FC0008BEBAFECA0400002028000020E2
:101E50001000002080B500AF094B0A4A1A600A4BF7
:101E60000A4A1A600A4B4FF081421A60084B094A2D
:101E70005A60074B084A9A60FFF762FF00BF80BDB7
:101E80000400002000007A432800002000004040A9
:101E9000100000209A99193E0000204190B5ADB085
:101EA00008AF704B1B681846FFF748F90346C7F8A0
:101EB0008C306C4B1C68D7F88C00FEF70FFF034684
:101EC00019462046FEF754FE034623F00043184609
:101ED000FEF7AAFA4FF00002634BFEF7FDFA024646
:101EE0000B4610461946FEF7A7FD0346C7F8883093
:101EF0005E4B1B681846FFF721F90346C7F884308C
:101F00005A4B1C68D7F88400FEF7E8FE03461946D2
:101F10002046FEF72DFE034623F000431846FEF749
:101F200083FA4FF00002504BFEF7D6FA02460B46FA
:101F300010461946FEF780FD0346C7F880304C4B2B
:101F40001B681846FFF7FAF80346FB67484B1C6806
:101F5000F86FFEF7C3FE034619462046FEF708FE5B
:101F6000034623F000431846FEF75EFA4FF00002E6
:101F7000404BFEF7B1FA02460B4610461946FEF7F3
:101F80005BFD0346BB673A4B5B681846FFF7D6F824
:101F900003467B67364B5C68786FFEF79FFE03460F
:101FA00019462046FEF7E4FD034623F00043184699
:101FB000FEF73AFA4FF000022E4BFEF78DFA02467A
:101FC0000B4610461946FEF737FD03463B67284B84
:101FD0009B681846FFF7B2F80346FB66244B9C68E3
:101FE000F86EFEF77BFE034619462046FEF7C0FD5D
:101FF000034623F000431846FEF716FA4FF000029E
:102000001C4BFEF769FA02460B4610461946FEF7CE
:1020100013FD0346BB663846BB6E0793FB6E069303
:102020003B6F05937B6F0493BB6F0393FB6F02932E
:10203000D7F880300193D7F884300093D7F88830F0
:10204000D7F88C200C4908F0F5FC78667B6E9AB2C4
:1020500039466423094806F076FB00BF9437BD4635
:1020600090BD00BF04000020000024402800002094
:102070001000002000005940F0E30008240900206F
:1020800080B582B000AF78604FF000017868FFF74C
:1020900021F80346002B02D04FF000031FE04FF061
:1020A0007E517868FFF720F80346002B02D04FF0EE
:1020B0007E5314E00C497868FEF764FE0346184628
:1020C0000BF096FA034619464FF07E50FEF750FD8E
:1020D00003464FF080411846FEF708FF03461846B6
:1020E0000837BD4680BD00BFDB0F494080B584B0D6
:1020F00000AF78604FF000017868FEF7EBFF034611
:10210000002B01D0002312E00B497868FEF73AFE5D
:102110000346FB600949F868FEF7F0FF0346002B11
:1021200001D0064BFB60F868FFF72EF8034618460F
:102130001037BD4680BD00BFA5CDD74400409C46AA
:1021400080B584B000AF0023FB600023BB600AE0D1
:102150004F4ABB6832F813301A46FB681344FB60E1
:10216000BB680133BB60BB683F2BF1DDFB689B099B
:10217000FB80FB88632B0CD9FB88B3F57A6F08D8FA
:10218000444B1B6819461846FEF7C2FF0346002B56
:102190001BD0414B1B78012B71D03F4B01221A7091
:1021A0003E4B03221A703E4B4FF000025A61002052
:1021B000FFF728FD3B4B00221A700020FFF734FD8B
:1021C0000021394805F0FCFB59E0324B1B681946E9
:1021D0001846FEF79DFF0346002B24D12D4B1B68AC
:1021E00032491846FEF78AFF0346002B1BD02A4BC4
:1021F0001B78022B45D0284B02221A70274B032252
:102200001A70274B4FF000025A610020FFF7FAFCCA
:10221000244B00221A700020FFF706FD00212248FF
:1022200005F0CEFB2DE0224B1B78002B2CD0194B58
:102230001B6820491846FEF757FF0346002B03D0C2
:102240001B4B00221A701FE002F0FAFC02461A4BE8
:102250001B68D31A194A934216D90F4B1B78032BCC
:1022600011D00D4B03221A700C4B03221A700C4B29
:102270004FF000025A610020FFF7C4FC03E000BFEA
:1022800002E000BF00E000BF1037BD4680BD00BFC8
:10229000D006002008000020B307002055070020CA
:1022A00010000020540700204C0800200000874345
:1022B000B80700200000C842B4070020E0930400E3
:1022C00090B585B000AF0023FB600023BB600AE03F
:1022D000234ABB6832F813301A46FB681344FB608C
:1022E000BB680133BB60BB683F2BF1DDFB689B091A
:1022F000FB80FB881846FFF705FC386039683868B2
:10230000FEF706FF0346002B03D0164B164A1A6051
:1023100021E0144B1B6819461846FEF7F9FE0346E8
:10232000002B03D00F4A3B68136014E00F49386854
:10233000FEF728FD03461C460A4B1B680C4918464D
:10234000FEF720FD034619462046FEF713FC034620
:102350001A46044B1A6000BF1437BD4690BD00BF3B
:10236000D0060020080000200000C07FCDCCCC3D6E
:102370006666663F90B589B000AF9F4B1B68002230
:10238000144619461846FEF7C3FE0346002B01D13A
:1023900001231C46FC76FB7E002B0AD0964B1B6863
:1023A00096491846FEF7A0FE0346002B01D00123F4
:1023B00000E00023BB76BB7E03F00103BB76904BAD
:1023C0001B681846FFF792FEF861FB69312B01D8B4
:1023D0003223FB618B4B1B78032B00F2A68101A2F9
:1023E00052F823F0F5230008C724000899250008B7
:1023F000932600080020FFF717FC834B00221A7079
:10240000824B00221A80824B1B78002B04D1814B17
:102410001B78DBB2002B23D0BB7E002B20D0794B66
:1024200001221A70784B01221A700120FFF7FCFB81
:10243000764B32221A80754B1B881846FFF708FC32
:102440000021754805F01AFA744B00221A60714B8E
:1024500000221A706E4B00221A7000F087F921E0FA
:102460006B4B1B78002B04D16A4B1B78DBB2002B23
:1024700018D0BB7E83F00103DBB2002B12D0002109
:102480000120FFF72CFA6648FFF785FA614B00221E
:102490001A705F4B00221A704FF4487002F0DAFB9A
:1024A00000F064F95F4B1B78002B02D05D4B0022DB
:1024B0001A705D4B1B78DBB2002B00F03A815A4B4F
:1024C00000221A7035E10120FFF7AEFB4E4B0122CE
:1024D0001A70524B1B68B3F5FA6F2ED24F4B1B6824
:1024E0001846FEF7F7FB034650491846FEF7FEFC78
:1024F00003467B607868FFF7C3FD3860FB69323BB9
:102500001846FEF7E7FB034639681846FEF73AFC23
:1025100003461846FEF738FE03469BB232339AB2A2
:102520003A4B1A80394B1B881846FFF791FB3B4BFF
:102530001B680133394A13600BE0324B02221A70D8
:10254000FB699AB2314B1A80304B1B881846FFF753
:102550007FFB344B1B78002B0BD1334B1B78DBB24A
:10256000002B06D1BB7E83F00103DBB2002B00F011
:10257000E280244B03221A70284B00221A60254B5C
:1025800000221A70224B00221A70274B00221A7068
:10259000244B00221A70CEE00120FFF745FB1A4BB6
:1025A00001221A70FB69194A12889B1AFB600523E5
:1025B000BB60FB68002BB8BF5B421A46BB68934206
:1025C00036D2FB68002B08DDBB689AB20F4B1B8824
:1025D00013449AB20D4B1A8007E00C4B1A88BB6863
:1025E0009BB2D31A9AB2094B1A80084B1B88184623
:1025F000FFF72EFB2BE000BF080000200000664321
:1026000028000020540700205C0700200C00002058
:10261000C0070020C60700204C08002058070020F3
:1026200024E40008C1070020C70700200000FA4486
:10263000FB68002BB8BF5B42002B08DDFB699AB238
:10264000404B1A803F4B1B881846FFF701FB3E4B5F
:102650001B78002B0AD13D4B1B78DBB2002B05D138
:10266000BB7E83F00103DBB2002B66D0384B032224
:102670001A70384B00221A60374B00221A70374B01
:1026800000221A70314B00221A702F4B00221A7050
:1026900053E0304B1B68B3F5FA6F35D22D4B1B68F6
:1026A0001846FEF717FB03462D491846FEF71EFC99
:1026B00003467B617869FFF7E3FC034619464FF058
:1026C0007E50FEF755FA03463B61FB69323B1846E4
:1026D000FEF700FB034639691846FEF753FB034635
:1026E0001846FEF751FD03469BB232339AB2154BA2
:1026F0001A80144B1B881846FFF7AAFA154B1B6863
:102700000133144A136019E00021164805F058F906
:102710000F4B00221A700020FFF786FA124B00229E
:102720001A70084B00221A8008E00020FFF77CFA9C
:1027300004E000BF02E000BF00E000BF00BF24379C
:10274000BD4690BD0C000020C1070020C707002037
:102750005407002058070020C6070020C0070020AB
:102760000000FA444C0800205C070020F0B59FB040
:1027700006AF744B1B78002B20D0724B1B78012BBB
:1027800007D107F14C03704A1121184608F01CF9D3
:1027900074E06C4B1B78022B07D107F14C036B4A9A
:1027A0001121184608F010F968E0664B1B7807F114
:1027B0004C00674A112108F007F95FE0654B1B6880
:1027C00019461846FEF7A4FC0346002B0FD0624BB7
:1027D0001B681846FDF728FE02460B4607F14C0021
:1027E000CDE900235D4A112108F0EEF846E05C4B8C
:1027F0001B78022B0ED0022B10DC002B02D0012BF9
:1028000004D00BE02D2387F85F300BE05E2387F8C0
:102810005F3007E02A2387F85F3003E03F2387F823
:102820005F3000BF4B4B1B681846FDF7FDFD0446AB
:102830000D46494B1B681846FDF7F6FD02460B4650
:1028400097F85F1047480078002801D0482000E042
:10285000202007F1240605900491CDE90223CDE95B
:102860000045414A1121304608F0AEF807F1240333
:1028700007F14C003D4A112108F0A6F83C4B1B78AB
:10288000002B30D1364B1B78002B07D107F13803D2
:10289000384A1121184608F097F83CE0304B1B7875
:1028A000012B0CD1344B5B691846FEF747FC0346FD
:1028B00007F13800314A112108F086F82BE0284B47
:1028C0001B78022B07D107F138032D4A1121184636
:1028D00008F07AF81FE007F138032A4A1121184658
:1028E00008F072F817E0284B1B681846FDF79CFDAE
:1028F00002460B4625490988381D0291CDE900237F
:10290000234A202108F060F83B1D07F13800174AE0
:10291000112108F059F800210020FEF7E0FF07F12F
:102920004C031846FFF737F800210120FEF7D7FFC8
:1029300007F138031846FFF72EF800BF6437BD468D
:10294000F0BD00BFB307002038E400084CE40008E5
:1029500060E40008080000200400002074E400087F
:10296000550700205307002088E400089CE4000875
:1029700054070020A8E4000810000020B4E4000878
:10298000C8E40008DCE40008280000200C00002057
:10299000F0E4000890B59BB00AAF02F0F9F800F03F
:1029A000E9FBFEF76DFEFEF7EBFCFEF743FC01F0E2
:1029B000FDFEFFF705F801F045FF02F01BF801F0FE
:1029C00071FEFFF769F8FEF7A9FFFEF771FFFEF74A
:1029D000FDFC01F001F9FFF70FFA40229C499D48E8
:1029E00002F034FA9C4804F0A7FE0020FFF71CF91F
:1029F0009A4B1B781A460221994803F05CFC002090
:102A0000FFF700F901229749974805F027FF9748FB
:102A100004F06CF9FEF7B6FD954B1B68002B0ED049
:102A200002F00EF90246924B1B689A4207D9002227
:102A300004218B4803F03FFC8D4B00221A6000F00C
:102A4000D3FD8C4B1B78002B24D002F0F9F8B8632F
:102A5000BB6B894AA2FB03235B0903F00103002B34
:102A60000AD1002200210120FFF738F901220421B8
:102A70007B4803F020FC09E0002200210020FFF742
:102A80002DF900220421764803F015FC784B002232
:102A90001A6053E0794B1B6819461846FEF738FB5D
:102AA0000346002B1BD1754B1B68754A12681146F3
:102AB0001846FEF75DF8034623F0004371491846B7
:102AC000FEF708FB0346002B09D06F4B1B78002B49
:102AD00005D0002201210020FFF700F925E06A4B14
:102AE0001B78012B1CD1664B1B6868491846FEF702
:102AF0003FF803461A46614B1B6819461046FEF71D
:102B0000DFFA0346002B05D0012201210020FFF748
:102B1000E5F80AE0012200210020FFF7DFF804E0D9
:102B2000002201210120FFF7D9F8514B1B68002B2F
:102B300004D1002204214A4803F0BDFB544B1B780A
:102B4000DBB2002B04D0FFF715FC514B00221A70AA
:102B500001F0B6FB0346002B13D001F099FA01F007
:102B6000EDFAFEF781FC0346002B01D001F0B2F92B
:102B7000FEF78EFC0346002B3FF449AF01F03CFA10
:102B800045E7FEF785FC0346002B02D001F06EF806
:102B9000D4E2404B1B78DBB2002B07D03D4B002228
:102BA0001A7040222A492B4802F050F93A4B1B7800
:102BB000DBB2002B03D0FFF783FBFFF7C1FA324BE8
:102BC0001B78032B00F2728101A252F823F000BFA0
:102BD000E12B0008B92C00089D2D0008332E0008B9
:102BE0002E4B4FF000025A612D4B00221A702D4BD4
:102BF0001B78002B05D12C4B1B78DBB2002B00F08F
:102C00004E811E4B1B6819461846FEF781FA034693
:102C1000002B40F044811C4B01221A70234B0122EF
:102C20001A7002F00DF80346214A13601E4B002271
:102C30001A700D4B93F84130DBB2202B40F02F81FE
:102C400064230C221B49084805F07DFD27E100BFE5
:102C5000D0060020DC050020DC0800200E0000204B
:102C600000080140A407002024090020C00600201D
:102C7000C8070020B3070020D34D621008000020D1
:102C8000040000200000A040550700200000A041E3
:102C9000520700205107002050070020100000209C
:102CA00053070020C2070020C4070020B8070020F7
:102CB000B407002000E500088C4B1B78DBB2002B2A
:102CC00048D08B4B19688B4B1A688B4B8B4800F0A4
:102CD00045FD0346894A5361884B5B6901221446CE
:102CE0004FF07E511846FEF709FA0346002B01D13A
:102CF00000231C46E2B2824B1A707E4B1B681946B9
:102D00001846FEF705FA0346002B23D1794B1B68C2
:102D1000774A126811461846FDF72AFF034623F04A
:102D2000004378491846FEF7CBF90346002B11D033
:102D3000754B02221A70754B00221A70744B93F86F
:102D40004130DBB2202B05D164230C22714970483D
:102D500005F0F9FC704B1B78002B04D16F4B1B78EE
:102D6000DBB2002B11D0684B00221A706B4B002293
:102D70001A70674B93F84130DBB2202B05D16423E6
:102D80000C226749624805F0DEFC664B1B78002B7D
:102D900000F087805C4B03221A7082E0534B1B7853
:102DA000DBB2002B1BD0524B1968524B1A68524BA6
:102DB000524800F0D3FC0346504A53614F4B5B69C5
:102DC000012214464FF07E511846FEF797F903464C
:102DD000002B01D100231C46E2B2494B1A704E4B26
:102DE0001B78002B04D14D4B1B78DBB2002B18D085
:102DF000454B00221A70414B4FF000025A61404B84
:102E000000221A70454B00221A70414B93F8413052
:102E1000DBB2202B05D164230C2241493C4805F04C
:102E200092FC404B1B78002B3DD0374B03221A708D
:102E300039E0324B4FF000025A61314B00221A70D8
:102E4000394B1B78002B10D0364B00221A702E4BBA
:102E500000221A70344B00221A70344B00221A7070
:102E6000334B00221A70FEF723FD324B00221A70FA
:102E7000294B00221A702E4B00221A702B4B1B7804
:102E8000DBB2002B11D0274B00221A701E4B002200
:102E90001A70264B00221A70FEF70AFD05E000BFEB
:102EA00004E000BF02E000BF00E000BF144B1B784D
:102EB0001846FEF7A7FE0D4B1B78DBB2002B00F087
:102EC00032810B4B1B680B4A126811461846FDF7FE
:102ED0004FFE03467B630C4B1B78002B2CD0074B1B
:102EE0005B691846FEF72AF9034626E050070020E2
:102EF0000400002008000020CDCCCC3D10000020B4
:102F0000530700200000A04055070020B80700200C
:102F10002409002010E50008C3070020C507002091
:102F200020E50008B3070020C0070020C6070020E6
:102F3000C2070020C107002000233B63804B1B8891
:102F40001846FDF7C7FE03467E491846FDF7CEFF3B
:102F50000346FB627C4B1B681846FEF7EFF80346FE
:102F6000BB62794B1C68B86AFDF7B8FE0346194688
:102F70002046FDF7FDFD034623F000431846FDF70C
:102F800053FA4FF00002714BFDF7A6FA02460B46CA
:102F900010461946FDF750FD03467B626C4B1B68DB
:102FA0001846FEF7CBF803463B62694B1C68386A4B
:102FB000FDF794FE034619462046FDF7D9FD03466A
:102FC00023F000431846FDF72FFA4FF000025F4B45
:102FD000FDF782FA02460B4610461946FDF72CFD16
:102FE0000346FB61F86AFEF7A9F80346BB61B869BE
:102FF000FDF774FE03461946F86AFDF7B9FD03466E
:1030000023F000431846FDF70FFA4FF000024F4B34
:10301000FDF762FA02460B4610461946FDF70CFD15
:1030200003467B61786BFEF789F803463B6138699C
:10303000FDF754FE03461946786BFDF799FD0346EC
:1030400023F000431846FDF7EFF94FF000023F4B25
:10305000FDF742FA02460B4610461946FDF7ECFC16
:103060000346FB60384B1B6819461846FEF750F8BC
:103070000346002B0AD1344B1B6836491846FEF72D
:1030800033F80346002B01D0012300E00023FB723C
:10309000FB7A03F00103FB72002387F83F302E4BCD
:1030A0001B78002B05D097F83F3043F0010387F8D9
:1030B0003F302A4B1B78002B05D097F83F3043F068
:1030C000020387F83F30FB7A002B05D097F83F309A
:1030D00043F0040387F83F3001F0B2FD0246204B75
:1030E0001B78194697F83F3009930891FB680793BE
:1030F0003B6906937B690593BB6904933B6B039320
:10310000FB6902933B6A01937B6A0093BB6A154992
:10311000154807F08FFC78607B689AB23223124919
:10312000124805F010FB124B1B78DBB2002B3FF46A
:103130006EAC0F4B00221A70FFF718FB67E400BF5C
:103140000C000020A5CDD744080000200000594005
:103150000400002000006643530700205C070020A5
:10316000B30700202CE50008600700202409002098
:103170005007002080B594B000AF07F12803282243
:103180000021184607F0BBFC07F1140300221A6067
:103190005A609A60DA601A613B1D00221A605A6018
:1031A0009A60DA600923BB624FF48033FB6200232C
:1031B0003B630123BB6301233B6402237B644FF425
:1031C0008033BB644FF4E013FB6407F12803184617
:1031D00003F09CFD0346002B01D000F093FB0F236E
:1031E0007B610223BB610023FB614FF480633B6280
:1031F00000237B6207F114030221184604F008F84B
:103200000346002B01D000F07DFB02237B604FF4CE
:103210000043FB603B1D184604F088F90346002B71
:1032200001D000F06FFB00BF5037BD4680BD0000ED
:1032300080B590B000AF78607B681B68AA4A934263
:1032400040F0C281A94B1B780A2B04D0A74B1B78F6
:103250000D2B40F0A181A64B1B781A46A54B0021EF
:103260009954A34B1B78002B00F09281A14B1B7843
:1032700087F83F3097F83F30742B03D097F83F30F2
:10328000542B25D19C4806F079F802460B4610468F
:103290001946FDF719FC0346BB624FF00001B86AFE
:1032A000FDF722FF0346002B00D171E19349B86A74
:1032B000FDF710FF0346002B00D169E1904ABB6A7D
:1032C0001360642312228F498F4805F03CFA5FE1B6
:1032D00097F83F30682B03D097F83F30482B17D131
:1032E000844B5B78312B09D1884B01221A706423FF
:1032F0000F228749844805F026FA49E1854B0122CF
:103300001A706423102284497F4805F01CFA3FE1BB
:1033100097F83F30762B03D097F83F30562B37D1B4
:10332000754806F02BF802460B4610461946FDF785
:10333000CBFB0346FB627949F86AFDF7D5FE0346ED
:10334000002B00D124E17649F86AFDF7C3FE03465D
:10335000002B00D11CE1734AFB6A1360714B1B68A0
:103360001846FDF761F802460B4607F108006E4962
:1033700007F060FB07F108031846FCF7E9FE034677
:103380009AB207F1080164235F4805F0DCF9FFE019
:1033900097F83F30732B03D097F83F30532B09D168
:1033A000624B01221A70642310226149564805F0CD
:1033B000CAF9EDE097F83F30722B03D097F83F3011
:1033C000522B09D15B4B01221A70642311225A49F6
:1033D0004D4805F0B8F9DBE097F83F30702B03D08B
:1033E00097F83F30502B1DD1434805F0C7FF0246E8
:1033F0000B4610461946FDF767FB03463B634FF04B
:103400000001386BFDF770FE0346002B00D1BFE0D2
:103410004A4A3B6B13606423102249493A4805F03D
:1034200092F9B5E097F83F30692B03D097F83F3019
:10343000492B21D1304805F0A1FF02460B4610462A
:103440001946FDF741FB03467B634FF00001786BA3
:10345000FDF74AFE0346002B00D199E0374A7B6B0B
:103460005360364B4FF000021A6164231022354935
:10347000254805F068F98BE097F83F30642B03D0BE
:1034800097F83F30442B1DD11B4805F077FF0246CB
:103490000B4610461946FDF717FB0346BB634FF07A
:1034A0000001B86BFDF720FE0346002B00D16FE052
:1034B000224ABB6B9360642310222349124805F013
:1034C00042F965E097F83F30772B03D097F83F300B
:1034D000572B3DD1FEF734FC642312221B490A48C6
:1034E00005F031F954E000BF00380140A407002086
:1034F000B2070020A8070020A9070020000087438A
:10350000040000205CE5000824090020C407002016
:1035100070E50008C507002080E50008CDCCCC3D53
:10352000000070412800002094E50008C707002033
:10353000A8E50008C6070020BCE500081000002030
:10354000D0E50008E4E50008F8E500080CE600080E
:1035500097F83F30782B03D097F83F30582B0AD19B
:10356000FEF778FCFEF79AFC6423172218491948E5
:1035700005F0E9F80CE097F83F303F2B02D1FEF759
:103580008DFC05E064230E221349124805F0DBF898
:10359000124B00221A7012E0104B1B78082B0BD82C
:1035A0000E4B1B785A1CD1B20C4A11701A460C4BA8
:1035B00019780C4B995402E0084B00221A70012232
:1035C0000749044805F04AF900BF4037BD4680BDB1
:1035D00020E600082409002038E60008B207002091
:1035E000A4070020A807002080B582B000AF01F03A
:1035F00027FB786010214C4802F046FE0346002B62
:103600000CBF01230023FB70FB78002B16D0474B27
:103610001B78002B12D0464B1B687A68D31AC82B34
:1036200015D96420FEF742FB424B01221A70404A32
:103630007B6813603D4B00221A7008E0FB7883F032
:103640000103DBB2002B02D0384B01221A704FF479
:103650008051394802F018FE0346002B0CBF0123AD
:103660000023BB70BB78002B16D0344B1B78002B8B
:1036700012D0334B1B687A68D31AC82B15D9642033
:10368000FEF714FB2F4B01221A702D4A7B68136042
:103690002A4B00221A7008E0BB7883F00103DBB2EA
:1036A000002B02D0254B01221A704FF400612248F2
:1036B00002F0EAFD0346002B0CBF012300237B70C0
:1036C0007B78002B23D0204B1B78002B1FD01F4B67
:1036D0001B687A68D31AB3F5967F14D93220FEF7A7
:1036E000E5FA1B4B1B78002B03D0194B1B78032BDF
:1036F00003D1184B01221A7002E0174B01221A70F5
:10370000124A7B681360104B00221A7008E07B7825
:1037100083F00103DBB2002B02D00B4B01221A70A5
:1037200000BF0837BD4680BD000801402D000020C5
:10373000CC070020C0070020000C01402E00002014
:10374000D0070020C10700202C000020BC0700206B
:1037500055070020C2070020C307002090B58BB09A
:1037600000AFF860B9607A603B607968B868FDF7CF
:10377000FFF90346FB61FB681B681946F869FDF712
:1037800001FB0346BB61FB6923F000434349184634
:10379000FDF796FC0346002B0FD0FB681C693968C7
:1037A000F869FDF7EFFA034619462046FDF7E2F9FE
:1037B00003461A46FB681A6103E0FB684FF00002FB
:1037C0001A61FB685A68FB681B6919461046FDF7C9
:1037D000D9FA03467B623249786AFDF78FFC0346CB
:1037E000002B0CD02E4B7B62FB685B6819462C4883
:1037F000FDF77CFB03461A46FB681A6112E0294973
:10380000786AFDF75DFC0346002B0BD0254B7B62ED
:10381000FB685B6819462348FDF768FB03461A46B8
:10382000FB681A61FB68DB681946F869FDF7A0F9C7
:10383000034639681846FDF759FB03467B61FB6870
:103840009B6819467869FDF79DFA03463B61FB6862
:10385000FA69DA60796AB869FDF78CF903461946A6
:103860003869FDF787F903463B620D49386AFDF771
:1038700045FC0346002B01D0094B3B624FF0000191
:10388000386AFDF71DFC0346002B02D04FF0000301
:103890003B623B6A18462C37BD4690BD0000704124
:1038A0000000C8420000A0C180B483B000AF7860BF
:1038B0007B681B680E4A934214D10E4B01221A708A
:1038C0000D4B1B6801330C4A13600B4B1B68632BB9
:1038D00008D90A4B01221A70094B01221A70064BB3
:1038E00000221A6000BF0C37BD4680BC704700BF85
:1038F0000004004052070020D40700205107002098
:103900005007002080B400AF72B600BF00BFFDE7D3
:1039100080B500AFFDF7CCFF00210020FDF7DFFFF1
:103920000A48FEF738F8FEF70BFA4FF4FA7001F088
:1039300091F900210120FDF7D2FF0548FEF72BF891
:103940004FF47A7001F086F900BF80BD68E7000887
:1039500078E7000880B500AF084B00221A60FDF739
:10396000A7FF00210020FDF7BAFF0548FEF713F876
:1039700040F2DC5001F06EF900BF80BDCC060020A3
:1039800088E7000880B500AF0A4B1B680A4A13603D
:10399000FEF784FAFDF78CFF00210020FDF79FFF62
:1039A0000648FDF7F8FF40F2DC5001F053F900BF84
:1039B00080BD00BF34000020280000209CE70008E4
:1039C00080B500AF124B1B681846FDF787F9034618
:1039D000104A1360104B1B68104A1360104B1B6891
:1039E0000E4A53600F4B1B680C4A9360FEF756FA61
:1039F000FDF75EFF00210020FDF771FF0A48FDF78B
:103A0000CAFF40F2DC5001F025F900BF80BD00BFC5
:103A100030000020040000203800002010000020AA
:103A20003C000020400000209CE7000880B500AF6B
:103A3000FDF73EFF00210020FDF751FF0B48FDF789
:103A4000AAFFFEF707FAFEF729FA4FF47A7001F0A1
:103A500001F900210120FDF742FF0548FDF79BFF1A
:103A60004FF47A7001F0F6F800BF80BDACE70008B3
:103A7000C0E70008B0B586B004AF374B5B68374A83
:103A800093422BD1364B1B681846FCF7CDFC0446FD
:103A90000D46344B1B681846FCF7C6FC02460B4625
:103AA000CDE90223CDE900452F4A10212F4806F029
:103AB0008BFF2A4B2D4A1A602D4B1B681846FCF7CA
:103AC000B3FC02460B46CDE900232A4A10212A48BE
:103AD00006F07AFF214B284A1A6238E01E4B5B68D9
:103AE000264A934233D101F0ABF80346244AA2FBA5
:103AF00003239B097B6001F0A3F80346214A1021B0
:103B0000214806F061FF7B683B2B06D87B681F4A83
:103B100010211D4806F058FF09E07B681C4AA2FBF3
:103B200003235B091B4A1021174806F04DFF134B76
:103B3000154A1A60184B1B68184A12780092184AE6
:103B40001021184806F040FF0C4B164A1A6200BFBD
:103B50000837BD46B0BD00BFD80700204800002090
:103B60000800002004000020D4E70008F807002027
:103B700028000020E4E700080C080020480200208C
:103B8000D34D6210F0E7000820080020FCE7000891
:103B90008988888808E80008CC060020B307002040
:103BA00014E800083408002080B485B000AF7860C5
:103BB0000023FB7302E0FB7B0133FB73FB7B5B01A8
:103BC0007A6813441B68002BF5D1FB7B1846143729
:103BD000BD4680BC7047000080B500AF194B002285
:103BE0001A70184B00225A60164B00221A72154B9D
:103BF00000225A72134B0022DA60124B00221A7410
:103C0000104B00225A61FDF719FC03460E4A13605F
:103C10000E4B1B681846FDF791FA03460C4A1360D9
:103C20000C4B1B680C4A13600C4B1B680C4A13604E
:103C30000A4B5B680B4A1360084B9B680A4A136087
:103C400000BF80BDD8070020F4070020040000203A
:103C50003000002028000020340000201000002048
:103C6000380000203C0000204000002080B500AF5C
:103C70001C4B1B78002B33D11A4B01221A70194BA5
:103C8000194A5A60174B00221A721748FFF78CFF27
:103C900003461A46134B5A7200F0D2FF0346114AEC
:103CA000D360124B1B681846FDF748FA0346104ACA
:103CB0001360104B1B68104A1360104B1B68104AAE
:103CC00013600E4B5B680F4A13600C4B9B680E4AE7
:103CD0001360FDF7BDFB0D4B00221A60FDF7E8FDF8
:103CE00000BF80BDD8070020E802002004000020AB
:103CF00030000020280000203400002010000020A8
:103D0000380000203C00002040000020F407002084
:103D100080B500AF044B00221A70034B00225A609A
:103D2000FDF7C6FD00BF80BDD807002090B58BB061
:103D300000AF786000F084FF0346644AD360634BB1
:103D40001B78012B1AD1614B1B7A1A467B681344EE
:103D50007B627B6A002B04DA5C4B5B7A013B7B6203
:103D600007E05A4B5B7A1A467B6A934201DB0023D9
:103D70007B627B6ADAB2554B1A72A2E0534B1B7816
:103D8000022B40F09E80514B5A68504B1B7A5B01CE
:103D90001344BB61BB691B79022B1FD1BB699B68B4
:103DA000FB60FB681A68BB695B69796801FB03F318
:103DB00013443B62BB69DB683A6A9A4202DABB6928
:103DC000DB683B62BB691B693A6A9A4202DDBB69E8
:103DD0001B693B62FB683A6A1A6072E0BB691B7937
:103DE000032B58D1BB699B683B613B691C68BB696D
:103DF0005B697A6802FB03F31846FCF76FFF034622
:103E000033491846FCF7BEFF034619462046FCF727
:103E1000B1FE0346FB61BB69DB681846FCF75EFF39
:103E200003462B491846FCF7ADFF03461946F869CF
:103E3000FDF746F90346002B0BD0BB69DB6818463B
:103E4000FCF74CFF034622491846FCF79BFF03464C
:103E5000FB61BB691B691846FCF740FF03461C4920
:103E60001846FCF78FFF03461946F869FDF746F937
:103E70000346002B0BD0BB691B691846FCF72EFFCD
:103E8000034613491846FCF77DFF0346FB613B6977
:103E9000FA691A6015E0BB691B79042B11D1BB6963
:103EA0009B687B617B691B78002B14BF0123002377
:103EB000DBB283F00103DBB203F00103DAB27B690A
:103EC0001A7000BF2C37BD4690BD00BFD807002038
:103ED0000AD7233C80B582B000AF00F0B1FE0346A4
:103EE000434AD360424B1B78002B7BD0404B1B785E
:103EF000012B68D13E4B5A683D4B1B7A5B01134442
:103F00007B607B681B79052B6FD801A252F823F0E8
:103F1000293F0008593F0008693F0008693F000831
:103F2000693F0008893F00087B689B68304A5360FE
:103F30002F4B00221A727B689B681846FFF734FEED
:103F400003461A462A4B5A72FDF782FA294B002281
:103F50001A60FDF7ADFC48E07B689B68002B43D0FE
:103F60007B689B6898473FE0214B02221A707B6870
:103F70009B681B681E4A9361FDF76AFA1D4B00227D
:103F80001A60FDF795FC30E07B68DB69002B10D0F0
:103F90007B68DB69164A5360154B00221A727B68F6
:103FA000DB691846FFF700FE03461A46104B5A72AB
:103FB00001E0FFF7ADFEFDF74BFA0E4B00221A6051
:103FC000FDF776FC11E00A4B1B78022B0DD1084B54
:103FD00001221A70FDF73CFA064B00221A60FDF729
:103FE00067FC02E000BF00E000BF0837BD4680BDAF
:103FF000D8070020F407002080B582B000AF224B24
:104000001B78022B16D1204B5A681F4B1B7A5B0181
:1040100013443B603B689B681B4A92691A601A4BC9
:1040200001221A70FDF714FA184B00221A60FDF7EE
:104030003FFC24E0144B1B78012B20D1124B5B6812
:104040007B607B68DB69002B10D07B68DB690E4AE4
:1040500053600D4B00221A727B68DB691846FFF72C
:10406000A3FD03461A46084B5A7201E0FFF750FEC3
:10407000FDF7EEF9054B00221A60FDF719FC00BFB1
:104080000837BD4680BD00BFD8070020F4070020D8
:1040900080B582B000AF274B1B78002B01D0FFF713
:1040A000E9FC244B1B78002B3FD000F0C9FD0246F1
:1040B000204BDB68D31A47F23052934202D9FFF704
:1040C00027FE33E01B4B1B78022B1CD100F0B8FD00
:1040D0000246184B5B69D31AB3F5FA7F13D9154B17
:1040E0001B7C002B14BF01230023DBB283F00103F0
:1040F000DBB203F00103DAB20E4B1A7400F0A0FD3C
:1041000003460C4A5361FDF799F978600A4B1B6826
:104110007A68D31A3B603B68002B07D03868FFF7FA
:1041200005FE054A7B68136000E000BF0837BD4606
:1041300080BD00BFD8070020F407002080B598B0EC
:1041400004AF554B1B78002B00F0A180524B5A68EE
:10415000514B1B7A5B011344FB644F4B1B78012BC3
:1041600035D100210020FDF7BAFBFB6C1B6807F17D
:1041700028004A4A112106F027FC07F128031846B7
:10418000FDF709FC00210120FDF7A9FB424B1B7A3A
:104190000133414A527A934215DA3F4B5A683E4BFB
:1041A0001B7A01335B011344FB63FB6B1B6807F154
:1041B00014003B4A112106F007FC07F114031846CE
:1041C000FDF7E9FB64E03748FDF7E5FB60E0324BC3
:1041D0001B78022B5CD100210020FDF780FBFB6CDB
:1041E0001B681846FDF7D7FB2F48FDF7D4FB0021CD
:1041F0000120FDF774FBFB6C1B79022B0DD1FB6CCE
:104200009B681B683B64FB6C9B69384600933B6C66
:10421000264A112106F0D8FB2CE0FB6C1B79032BFE
:1042200013D1FB6C9B681B687B64786CFCF7FCF813
:1042300002460B46F96C896938460291CDE90023A4
:104240001B4A112106F0C0FB14E0FB6C1B79042B08
:1042500010D1FB6C9B681B7887F84B3097F84B307C
:10426000002B01D0134B00E0134B3846134A1121A9
:1042700006F0AAFB084B1B7C002B04D03B461846DB
:10428000FDF789FB04E00748FDF785FB00E000BF70
:104290005037BD4680BD00BFD807002020E8000889
:1042A00028E8000830E8000844E8000848E800086A
:1042B00054E8000860E8000864E8000868E80008BE
:1042C00080B400AF054B1B78002B14BF01230023E3
:1042D000DBB21846BD4680BC704700BFD80700203F
:1042E00080B485B000AF154B9B69144A43F00103BD
:1042F0009361124B9B6903F00103BB60BB680F4BDA
:10430000DB690E4A43F08053D3610C4BDB6903F049
:1043100080537B607B680A4B5B68FB60FB6823F023
:10432000E063FB60FB6843F08063FB60044AFB686A
:10433000536000BF1437BD4680BC70470010024078
:104340000000014080B400AF00BFFDE780B400AFC3
:1043500000BFFDE780B400AF00BFFDE780B400AF51
:1043600000BFFDE780B400AF00BFFDE780B400AF41
:1043700000BFBD4680BC704780B400AF00BFBD46E3
:1043800080BC704780B400AF00BFBD4680BC7047A2
:1043900080B500AF00F042FC00BF80BD80B500AF2B
:1043A000024801F0B9FA00BF80BD00BF0C06002032
:1043B00080B500AF024801F0AFFA00BF80BD00BF7A
:1043C0006C09002080B582B000AF244B01221A7026
:1043D000234B1B780133DAB2214B1A70204B1B7828
:1043E000632B05D91E4B00221A701E4B01221A7036
:1043F00000F026FC02461C4B1B68D31A7B607B68CE
:10440000132B04D900F01CFC0346174A1360174B0A
:104410001B78002B16D0164B5B6916491846FCF723
:10442000B1FC03461846FCF7AFFE02467B68934298
:1044300034BF01230023DBB21A4620210E4801F0CD
:104440003AFF04E0002220210B4801F034FF0B4822
:1044500003F01AFB00BF0837BD4680BD520700209D
:104460004508002051070020A00700205307002026
:1044700010000020CDCC4C3E000C0140DC08002098
:1044800080B500AF024804F00FFA00BF80BD00BF46
:104490002409002080B500AF124B5B6903F4804310
:1044A000002B05D0FDF708F80E4B4FF480425A61FF
:1044B0000C4B5B6903F40053002B05D0FDF754F857
:1044C000084B4FF400525A614FF4006001F00CFFAA
:1044D0004FF4005001F008FF4FF4804001F004FF5A
:1044E00000BF80BD0004014080B483B000AF78609D
:1044F0007B681B68054A934202D1054B01221A7062
:1045000000BF0C37BD4680BC704700BF002401408F
:104510005007002080B400AF01231846BD4680BC80
:10452000704780B582B000AF7860396006F04CFB10
:10453000034616221A604FF0FF3318460837BD466F
:1045400080BD80B582B000AF78604FF0FF317868F1
:10455000FFF7E7FF00BFFDE780B586B000AFF8606A
:10456000B9607A6000237B610AE0AFF30080014606
:10457000BB685A1CBA60CAB21A707B6901337B618E
:104580007A697B689A42F0DB7B6818461837BD462B
:1045900080BD80B586B000AFF860B9607A60002356
:1045A0007B6109E0BB685A1CBA601B781846AFF300
:1045B00000807B6901337B617A697B689A42F1DB19
:1045C0007B6818461837BD4680BD80B483B000AF05
:1045D00078604FF0FF3318460C37BD4680BC7047FB
:1045E00080B483B000AF786039603B684FF400520C
:1045F0005A60002318460C37BD4680BC704780B413
:1046000083B000AF7860012318460C37BD4680BCEC
:10461000704780B485B000AFF860B9607A6000235D
:1046200018461437BD4680BC7047000080B586B080
:1046300000AF7860144A154BD31A7B617B693B61EC
:10464000134B1B68002B02D1114B124A1A60104BFE
:104650001A687B6813443A699A4207D206F0B4FAA2
:1046600003460C221A604FF0FF3309E0084B1B6829
:10467000FB60074B1A687B681344054A1360FB68AC
:1046800018461837BD4680BD0050002000040000C9
:1046900048080020280B002080B400AF00BFBD46B2
:1046A00080BC704780B592B000AF07F14003002294
:1046B0001A605A6007F1240300221A605A609A6057
:1046C000DA601A615A619A613B1D20220021184666
:1046D00006F015FA334B344A1A60324B47225A60BF
:1046E000304B00229A602F4B4FF6FF72DA602D4B51
:1046F00000221A612B4B00225A612A4B00229A6138
:10470000284803F06BF80346002B01D0FFF7FAF8B6
:1047100000233B6400237B6407F1400319462148D2
:1047200003F000FF0346002B01D0FFF7EBF86023F6
:104730007B620023BB620023FB6200233B630023F8
:104740007B630023BB630023FB6307F12403002288
:104750001946144803F088FA0346002B01D0FFF7EE
:10476000D1F800237B600023BB600023FB600023A3
:104770003B6100237B614FF40053BB6100233B622C
:104780003B1D1946074803F02BFF0346002B01D0C1
:10479000FFF7B8F8034800F0F9F800BF4837BD4606
:1047A00080BD00BF4C080020002C014080B586B0C1
:1047B00000AF07F1080300221A605A609A60DA60BD
:1047C0003B4600221A605A601D4B4FF080421A602F
:1047D0001B4B47225A601A4B00229A60184B40F23A
:1047E000CF72DA60164B00221A61154B80229A6153
:1047F000134802F051FF0346002B01D0FFF782F867
:104800004FF48053BB6007F1080319460C4803F0CE
:10481000EDFA0346002B01D0FFF774F800233B604C
:1048200000237B603B461946054803F07BFE0346A8
:10483000002B01D0FFF766F800BF1837BD4680BDDA
:104840009408002080B586B000AF07F1080300226D
:104850001A605A609A60DA603B4600221A605A6019
:104860001D4B1E4A1A601C4B41F61F425A601A4BE0
:1048700000229A60184B0922DA60174B00221A6155
:10488000154B80229A61144802F006FF0346002B64
:1048900001D0FFF737F84FF48053BB6007F10803EE
:1048A00019460D4803F0A2FA0346002B01D0FFF78A
:1048B00029F800233B6000237B603B4619460648ED
:1048C00003F030FE0346002B01D0FFF71BF800BFBA
:1048D0001837BD4680BD00BFDC0800200004004042
:1048E00080B485B000AF78607B681B68094A93424A
:1048F0000BD1094B9B69084A43F400639361064B53
:104900009B6903F40063FB60FB6800BF1437BD467E
:1049100080BC7047002C01400010024080B584B07C
:1049200000AF78607B681B68B3F1804F0CD1154BEA
:10493000DB69144A43F00103D361124BDB6903F0D6
:104940000103FB60FB6818E07B681B680E4A93421A
:1049500013D10C4BDB690B4A43F00203D361094BC3
:10496000DB6903F00203BB60BB68002200211D204D
:1049700000F02DFE1D2000F046FE00BF1037BD46A2
:1049800080BD00BF001002400004004080B588B028
:1049900000AF786007F1100300221A605A609A6035
:1049A000DA607B681B68104A934218D10F4B9B69F1
:1049B0000E4A43F0040393610C4B9B6903F004031C
:1049C000FB60FB684FF480733B6102237B61022331
:1049D000FB6107F110031946054801F0D1FA00BF49
:1049E0002037BD4680BD00BF002C014000100240B2
:1049F0000008014080B500AF114B124A1A60104BFD
:104A00004FF4E1325A600E4B00229A600C4B0022A8
:104A1000DA600B4B00221A61094B0C225A61084BD9
:104A200000229A61064B0022DA61054803F03BFE42
:104A30000346002B01D0FEF765FF00BF80BD00BF1D
:104A4000240900200038014080B588B000AF7860AC
:104A500007F1100300221A605A609A60DA607B68DE
:104A60001B68334A93425FD1324B9B69314A43F40E
:104A7000804393612F4B9B6903F48043FB60FB6889
:104A80002C4B9B692B4A43F004039361294B9B6990
:104A900003F00403BB60BB684FF400733B61022367
:104AA0007B610323FB6107F110031946224801F0E3
:104AB00067FA4FF480633B6100237B610023BB6195
:104AC00007F1100319461C4801F05AFA1B4B1C4A07
:104AD0001A601A4B10225A60184B00229A60174B2A
:104AE0008022DA60154B00221A61144B00225A61B1
:104AF000124B00229A61114B0022DA610F4800F03C
:104B00009DFD0346002B01D0FEF7FCFE7B680B4A9F
:104B10009A630A4A7B68536200220021252000F034
:104B200056FD252000F06FFD00BF2037BD4680BD3B
:104B30000038014000100240000801406C090020CC
:104B400044000240FFF7A8FD0B480C490C4A002323
:104B500002E0D458C4500433C4188C42F9D3094A33
:104B6000094C002301E013600432A242FBD306F09B
:104B700031F8FDF70FFF704700000020BC05002052
:104B8000A4F00008C0050020240B0020FEE7000070
:104B900080B500AF084B1B68074A43F01003136051
:104BA000032000F009FD0F2000F008F8FFF798FB44
:104BB0000023184680BD00BF0020024080B582B0AF
:104BC00000AF7860124B1A68124B1B7819464FF4ED
:104BD0007A73B3FBF1F3B2FBF3F3184600F021FD57
:104BE0000346002B01D001230EE07B680F2B0AD86F
:104BF000002279684FF0FF3000F0E9FC064A7B683C
:104C00001360002300E0012318460837BD4680BD2D
:104C1000E8030020F0030020EC03002080B400AF84
:104C2000054B1B781A46054B1B681344034A136057
:104C300000BFBD4680BC7047F0030020B0090020D3
:104C400080B400AF024B1B681846BD4680BC70475D
:104C5000B009002080B584B000AF7860FFF7F0FFA6
:104C6000B8607B68FB60FB68B3F1FF3F05D00A4B7F
:104C70001B781A46FB681344FB6000BFFFF7E0FF98
:104C80000246BB68D31AFA689A42F7D800BF00BF41
:104C90001037BD4680BD00BFF003002080B586B050
:104CA00000AF78600023FB7500233B610023BB60ED
:104CB0000023FB607B68002B01D10123BEE07B68F1
:104CC0009B68002B7B689B6A002B09D17B680022C4
:104CD000DA627B68002283F824207868FCF7E8FA1F
:104CE000786800F0F5FA0346FB757B689B6A03F071
:104CF0001003002B40F09980FB7D002B40F0958045
:104D00007B689B6A23F4885323F0020343F002027A
:104D10007B689A627B685A687B68DB691A437B68A8
:104D20001B7B5B001343BA681343BB607B689B68C3
:104D3000B3F5807F03D07B689B68012B02D14FF4D1
:104D4000807300E000233A6913433B617B681B7D5D
:104D5000012B19D17B681B7B002B09D17B689B69D8
:104D6000013B5A033B69134343F400633B610BE08F
:104D70007B689B6A43F020027B689A627B68DB6AEF
:104D800043F001027B68DA627B681B685B6823F48E
:104D900069417B681B683A690A435A607B681B68F3
:104DA0009A68284B13407A681268B9680B4393607D
:104DB0007B689B68B3F5807F03D07B689B68012B81
:104DC00004D17B681B69013B1B05FB607B681B688A
:104DD000DB6A23F470017B681B68FA680A43DA62B5
:104DE0007B681B689A68184B1340BA689A420BD1CB
:104DF0007B680022DA627B689B6A23F0030343F03E
:104E000001027B689A6218E07B689B6A23F01203B8
:104E100043F010027B689A627B68DB6A43F0010210
:104E20007B68DA620123FB7507E07B689B6A43F0CD
:104E300010027B689A620123FB75FB7D18461837C8
:104E4000BD4680BDFDF7E1FFFE0E1FFF80B586B0B9
:104E500000AFF860B9607A600023FB75FB681B68DF
:104E6000644A934204D0FB681B68634A934206D1AC
:104E7000604B5B6803F47023002B40F0B380FB6849
:104E800093F82430012B01D10223AEE0FB6801220C
:104E900083F82420F86800F0C1F90346FB75FB7D18
:104EA000002B40F09A80FB689B6A23F4706323F028
:104EB000010343F48072FB689A62FB681B684E4AE8
:104EC000934205D14B4B5B6803F47023002B15D143
:104ED000FB689B6A23F48012FB689A62FB681B687C
:104EE0005B6803F48063002B26D0FB689B6A23F485
:104EF000405343F48052FB689A621DE0FB689B6A52
:104F000043F48012FB689A62FB681B68394A93423B
:104F100004D0FB681B68384A93420DD1354B5B685F
:104F200003F48063002B07D0FB689B6A23F4405393
:104F300043F48052FB689A62FB689B6A03F48053D7
:104F4000002B06D0FB68DB6A23F00602FB68DA62FE
:104F500002E0FB680022DA62FB68002283F824206A
:104F6000FB681B6A254A9A62FB681B6A244ADA625C
:104F7000FB681B6A234A1A63FB681B686FF0020216
:104F80001A60FB681B689A68FB681B6842F48072B1
:104F90009A60FB68186AFB681B684C331946BA684C
:104FA0007B6800F0A5FBFB681B689B6803F460232B
:104FB000B3F5602F08D1FB681B689A68FB681B6813
:104FC00042F4A0029A600FE0FB681B689A68FB68D5
:104FD0001B6842F480129A6006E0FB68002283F8A6
:104FE000242001E00123FB75FB7D18461837BD46E0
:104FF00080BD00BF00240140002801405353000839
:10500000CF530008EB53000880B483B000AF786042
:1050100000BF0C37BD4680BC704780B483B000AF82
:10502000786000BF0C37BD4680BC704780B485B047
:1050300000AF786039600023FB730023BB607B689E
:1050400093F82430012B01D10223DCE07B6801229C
:1050500083F824203B685B68062B1CD87B681B68A0
:10506000596B3B685A6813469B001344053B1F224B
:1050700002FA03F3DB4319403B6818683B685A683F
:1050800013469B001344053B00FA03F27B681B6840
:105090000A435A633CE03B685B680C2B1CD87B6876
:1050A0001B68196B3B685A6813469B001344233BEB
:1050B0001F2202FA03F3DB4319403B6818683B6880
:1050C0005A6813469B001344233B00FA03F27B68A3
:1050D0001B680A431A631BE07B681B68D96A3B683C
:1050E0005A6813469B001344413B1F2202FA03F304
:1050F000DB4319403B6818683B685A6813469B00BD
:105100001344413B00FA03F27B681B680A43DA62EE
:105110003B681B68092B1CD97B681B68D9683B68F6
:105120001A6813465B0013441E3B072202FA03F37E
:10513000DB4319403B6898683B681A6813465B007C
:1051400013441E3B00FA03F27B681B680A43DA60D3
:1051500019E07B681B6819693B681A6813465B0095
:105160001344072202FA03F3DB4319403B689868B3
:105170003B681A6813465B00134400FA03F27B682D
:105180001B680A431A613B681B68102B03D03B68FD
:105190001B68112B32D17B681B681D4A934225D1B5
:1051A0007B681B689B6803F40003002B26D17B6897
:1051B0001B689A687B681B6842F400029A603B682F
:1051C0001B68102B1AD1134B1B68134AA2FB032335
:1051D0009A0C13469B0013445B00BB6002E0BB6863
:1051E000013BBB60BB68002BF9D107E07B689B6A81
:1051F00043F020027B689A620123FB737B680022E4
:1052000083F82420FB7B18461437BD4680BC7047CA
:1052100000240140E803002083DE1B4380B584B0F6
:1052200000AF78600023FB600023BB607B681B68D5
:105230009B6803F00103012B40D07B681B689A68D0
:105240007B681B6842F001029A601F4B1B681F4A73
:10525000A2FB03239B0CBB6002E0BB68013BBB606D
:10526000BB68002BF9D1FFF7EBFCF8601FE0FFF7FC
:10527000E7FC0246FB68D31A022B18D97B681B682F
:105280009B6803F00103012B11D07B689B6A43F0FC
:1052900010027B689A627B68DB6A43F001027B68DC
:1052A000DA627B68002283F82420012307E07B6810
:1052B0001B689B6803F00103012BD8D1002318461B
:1052C0001037BD4680BD00BFE803002083DE1B43CE
:1052D00080B584B000AF78600023FB607B681B68FA
:1052E0009B6803F00103012B2ED17B681B689A6831
:1052F0007B681B6822F001029A60FFF7A1FCF8604E
:105300001BE0FFF79DFC0246FB68D31A022B14D961
:105310007B681B689B6803F00103012B0DD17B6840
:105320009B6A43F010027B689A627B68DB6A43F0F9
:1053300001027B68DA62012307E07B681B689B68D7
:1053400003F00103012BDCD0002318461037BD46C3
:1053500080BD80B584B000AF78607B685B6AFB601D
:10536000FB689B6A03F05003002B27D1FB689B6A04
:1053700043F40072FB689A62FB681B689B6803F445
:105380006023B3F5602F15D1FB681B7B002B11D177
:10539000FB689B6A23F48072FB689A62FB689B6AD5
:1053A00003F48053002B05D1FB689B6A43F0010294
:1053B000FB689A62F868FFF797F804E0FB681B6ADD
:1053C0001B6B7868984700BF1037BD4680BD80B51D
:1053D00084B000AF78607B685B6AFB60F868FFF7B9
:1053E00013FE00BF1037BD4680BD80B584B000AF4E
:1053F00078607B685B6AFB60FB689B6A43F04002F5
:10540000FB689A62FB68DB6A43F00402FB68DA62BD
:10541000F868FFF702FE00BF1037BD4680BD0000F0
:1054200080B485B000AF78607B6803F00703FB6051
:105430000C4BDB68BB60BA684FF6FF031340BB60E0
:10544000FB681A02BB68134343F0BF6343F40033A5
:10545000BB60044ABB68D36000BF1437BD4680BC44
:10546000704700BF00ED00E080B400AF044BDB6884
:105470001B0A03F007031846BD4680BC704700BFF7
:1054800000ED00E080B483B000AF0346FB7197F9F4
:105490000730002B0BDBFB7903F01F02064997F95D
:1054A00007305B09012000FA02F241F8232000BF17
:1054B0000C37BD4680BC704700E100E080B483B08B
:1054C00000AF03463960FB7197F90730002B0ADB08
:1054D0003B68DAB20C4997F907301201D2B20B449B
:1054E00083F800230AE03B68DAB20849FB7903F04D
:1054F0000F03043B1201D2B20B441A7600BF0C37E3
:10550000BD4680BC704700BF00E100E000ED00E058
:1055100080B489B000AFF860B9607A60FB6803F0CE
:105520000703FB61FB69C3F10703042B28BF0423B6
:10553000BB61FB690433062B02D9FB69033B00E026
:1055400000237B614FF0FF32BB6902FA03F3DA43B9
:10555000BB681A407B699A404FF0FF317B6901FAC2
:1055600003F3D9437B680B40134318462437BD46E9
:1055700080BC704780B582B000AF78607B68013B2B
:10558000B3F1807F01D301230FE00A4A7B68013B1E
:1055900053600F214FF0FF30FFF790FF054B0022C3
:1055A0009A60044B07221A60002318460837BD464C
:1055B00080BD00BF10E000E080B582B000AF786031
:1055C0007868FFF72DFF00BF0837BD4680BD80B566
:1055D00086B000AF0346B9607A60FB7300237B613D
:1055E000FFF742FF78617A68B9687869FFF790FF42
:1055F000024697F90F3011461846FFF75FFF00BFCC
:105600001837BD4680BD80B582B000AF0346FB7140
:1056100097F907301846FFF735FF00BF0837BD463A
:1056200080BD80B582B000AF78607868FFF7A2FFD8
:10563000034618460837BD4680BD000080B485B0DB
:1056400000AF78600023FB607B68002B01D1012351
:1056500043E07B681B681A46224B1344224AA2FB94
:1056600003231B099A007B681A647B681F4ADA636C
:105670007B68022283F821207B681B681B68FB6023
:10568000FB6823F47F5323F03003FB607B685A6888
:105690007B689B681A437B68DB681A437B681B69DD
:1056A0001A437B685B691A437B689B691A437B6872
:1056B000DB691343FA681343FB607B681B68FA6875
:1056C0001A607B6800229A637B68012283F821209C
:1056D0007B68002283F82020002318461437BD463B
:1056E00080BC7047F8FFFDBFCDCCCCCC00000240A1
:1056F00080B586B000AFF860B9607A603B60002387
:10570000FB75FB6893F82030012B01D102234BE09D
:10571000FB68012283F82020FB6893F82130DBB27C
:10572000012B3AD1FB68022283F82120FB6800227A
:105730009A63FB681B681A68FB681B6822F0010209
:105740001A603B687A68B968F86800F0EBF9FB68A2
:10575000DB6A002B08D0FB681B681A68FB681B68B3
:1057600042F00E021A600FE0FB681B681A68FB68C3
:105770001B6822F004021A60FB681B681A68FB6849
:105780001B6842F00A021A60FB681B681A68FB6813
:105790001B6842F001021A6005E0FB68002283F8F2
:1057A00020200223FB75FB7D18461837BD4680BDBF
:1057B00080B485B000AF78600023FB737B6893F8FA
:1057C0002130DBB2022B08D07B6804229A637B680D
:1057D000002283F82020012320E07B681B681A68E0
:1057E0007B681B6822F00E021A607B681B681A68CF
:1057F0007B681B6822F001021A607B681A6C7B6868
:10580000DB6B012101FA02F25A607B68012283F806
:1058100021207B68002283F82020FB7B1846143768
:10582000BD4680BC7047000080B584B000AF786092
:105830000023FB737B6893F82130DBB2022B05D089
:105840007B6804229A630123FB7351E07B681B6829
:105850001A687B681B6822F00E021A607B681B685E
:105860001A687B681B6822F001021A607B681B685B
:10587000224A934229D07B681B68214A934222D056
:105880007B681B681F4A93421AD07B681B681E4ABC
:10589000934212D07B681B681C4A93420AD07B68F3
:1058A0001B681B4A934202D14FF480130EE04FF065
:1058B00080730BE04FF4803308E04FF4805305E031
:1058C0004FF4807302E0102300E00123114A53607B
:1058D0007B68012283F821207B68002283F8202046
:1058E0007B685B6B002B03D07B685B6B78689847A9
:1058F000FB7B18461037BD4680BD00BF0800024044
:105900001C000240300002404400024058000240A7
:105910006C0002400000024080B584B000AF7860A7
:105920007B68DB6B1B68FB607B681B681B68BB606C
:105930007B681B6C04229A40FB681340002B4FD0FD
:10594000BB6803F00403002B4AD07B681B681B680C
:1059500003F02003002B07D17B681B681A687B6863
:105960001B6822F004021A607B681B68664A934237
:1059700029D07B681B68654A934222D07B681B68EC
:10598000634A93421AD07B681B68624A934212D0E2
:105990007B681B68604A93420AD07B681B685F4A39
:1059A000934202D14FF480030EE04FF080630BE08E
:1059B0004FF4802308E04FF4804305E04FF4806308
:1059C00002E0402300E00423554A53607B68DB6A11
:1059D000002B00F094807B68DB6A786898478EE043
:1059E0007B681B6C02229A40FB681340002B56D048
:1059F000BB6803F00203002B51D07B681B681B6857
:105A000003F02003002B0BD17B681B681A687B68AE
:105A10001B6822F00A021A607B68012283F82120A9
:105A20007B681B68384A934229D07B681B68374AD9
:105A3000934222D07B681B68354A93421AD07B6818
:105A40001B68344A934212D07B681B68324A9342E7
:105A50000AD07B681B68314A934202D14FF400138D
:105A60000EE04FF000730BE04FF4003308E04FF40A
:105A7000005305E04FF4007302E0202300E002230E
:105A8000274A53607B68002283F820207B689B6A4A
:105A9000002B34D07B689B6A786898472FE07B683E
:105AA0001B6C08229A40FB681340002B28D0BB686F
:105AB00003F00803002B23D07B681B681A687B68FF
:105AC0001B6822F00E021A607B681A6C7B68DB6B25
:105AD000012101FA02F25A607B6801229A637B6815
