:020000040800F2
:1000000000500020654D00084144000849440008A4
:1000100051440008594400086144000800000000F1
:10002000000000000000000000000000694400081B
:100030007544000800000000814400088D44000859
:10004000AD4D0008AD4D0008AD4D0008AD4D0008A8
:10005000AD4D0008AD4D0008AD4D0008AD4D000898
:10006000AD4D0008AD4D0008AD4D000899440008A5
:10007000AD4D0008AD4D0008AD440008AD4D000881
:10008000AD4D0008AD4D0008AD4D0008AD4D000868
:10009000AD4D0008AD4D0008AD4D0008AD4D000858
:1000A000AD4D0008AD4D0008AD4D0008AD4D000848
:1000B000AD4D0008C1440008AD4D0008AD4D00082D
:1000C000AD4D0008AD4D0008AD4D0008AD4D000828
:1000D000AD4D000881450008AD4D0008AD4D00084C
:1000E00095450008AD4D0008AD4D0008000000002A
:1000F0000000000000000000000000000000000000
:0C01000000000000000000005FF808F1A3
:1001100010B5054C237833B9044B13B10448AFF341
:1001200000800123237010BDC005002000000000E6
:10013000F4E5000808B5034B1BB103490348AFF3CE
:10014000008008BD00000000C4050020F4E50008A0
:10015000034613F8012B002AFBD1181A0138704707
:1001600081F0004102E000BF83F0004330B54FEA68
:1001700041044FEA430594EA050F08BF90EA020FD5
:100180001FBF54EA000C55EA020C7FEA645C7FEA68
:10019000655C00F0E2804FEA5454D4EB5555B8BF8B
:1001A0006D420CDD2C4480EA020281EA030382EAFC
:1001B000000083EA010180EA020281EA0303362D8E
:1001C00088BF30BD11F0004F4FEA01314FF4801C61
:1001D0004CEA113102D0404261EB410113F0004F73
:1001E0004FEA03334CEA133302D0524263EB43032A
:1001F00094EA050F00F0A780A4F10104D5F1200EC8
:100200000DDB02FA0EFC22FA05F2801841F1000122
:1002100003FA0EF2801843FA05F359410EE0A5F1F6
:1002200020050EF1200E012A03FA0EFC28BF4CF027
:10023000020C43FA05F3C01851EBE37101F00045DD
:1002400007D54FF0000EDCF1000C7EEB00006EEBEA
:100250000101B1F5801F1BD3B1F5001F0CD3490874
:100260005FEA30004FEA3C0C04F101044FEA4452CB
:1002700012F5800F80F09A80BCF1004F08BF5FEA52
:10028000500C50F1000041EB045141EA050130BD32
:100290005FEA4C0C404141EB0101013C28BFB1F544
:1002A000801FE9D291F0000F04BF01460020B1FA8F
:1002B00081F308BF2033A3F10B03B3F120020CDA62
:1002C0000C3208DD02F1140CC2F10C0201FA0CF040
:1002D00021FA02F10CE002F11402D8BFC2F1200CA5
:1002E00001FA02F120FA0CFCDCBF41EA0C0190405B
:1002F000E41AA2BF01EB0451294330BD6FEA0404A4
:100300001F3C1CDA0C340EDC04F11404C4F120028E
:1003100020FA04F001FA02F340EA030021FA04F3A0
:1003200045EA030130BDC4F10C04C4F1200220FAF7
:1003300002F001FA04F340EA0300294630BD21FA35
:1003400004F0294630BD94F0000F83F4801306BFFB
:1003500081F480110134013D4EE77FEA645C18BFEF
:100360007FEA655C29D094EA050F08BF90EA020F86
:1003700005D054EA000C04BF1946104630BD91EA7E
:10038000030F1EBF0021002030BD5FEA545C05D181
:100390004000494128BF41F0004130BD14F58004C0
:1003A0003CBF01F5801130BD01F0004545F0FE4134
:1003B00041F470014FF0000030BD7FEA645C1ABF69
:1003C000194610467FEA655C1CBF0B46024650EAA0
:1003D000013406BF52EA033591EA030F41F40021CC
:1003E00030BD00BF90F0000F04BF0021704730B552
:1003F0004FF4806404F132044FF000054FF0000127
:1004000050E700BF90F0000F04BF0021704730B5E7
:100410004FF4806404F1320410F0004548BF4042BC
:100420004FF000013EE700BF42004FEAE2014FEA11
:1004300031014FEA02701FBF12F07F4393F07F4FEC
:1004400081F06051704732F07F4208BF704793F0EF
:100450007F4F04BF41F40021704730B54FF4607402
:1004600001F0004521F000411CE700BF50EA010205
:1004700008BF704730B54FF000050AE050EA0102AE
:1004800008BF704730B511F0004502D5404261EB1E
:1004900041014FF4806404F132045FEA915C3FF45F
:1004A000D8AE4FF003025FEADC0C18BF03325FEAFC
:1004B000DC0C18BF033202EBDC02C2F1200300FAAD
:1004C00003FC20FA02F001FA03FE40EA0E0021FAD2
:1004D00002F11444BDE600BF70B54FF0FF0C4CF4C0
:1004E000E06C1CEA11541DBF1CEA135594EA0C0F72
:1004F00095EA0C0F00F0DEF82C4481EA030621EAAD
:100500004C5123EA4C5350EA013518BF52EA0335E7
:1005100041F4801143F4801338D0A0FB02CE4FF099
:100520000005E1FB02E506F00042E0FB03E54FF0C9
:100530000006E1FB03569CF0000F18BF4EF0010EC1
:10054000A4F1FF04B6F5007F64F5407404D25FEABD
:100550004E0E6D4146EB060642EAC62141EA555170
:100560004FEAC52040EA5E504FEACE2EB4F1FD0CB2
:1005700088BFBCF5E06F1ED8BEF1004F08BF5FEA30
:10058000500E50F1000041EB045170BD06F00046E2
:1005900046EA010140EA020081EA0301B4EB5C048F
:1005A000C2BFD4EB0C0541EA045170BD41F4801187
:1005B0004FF0000E013C00F3AB8014F1360FDEBFAC
:1005C000002001F0004170BDC4F10004203C35DA88
:1005D0000C341BDC04F11404C4F1200500FA05F30B
:1005E00020FA04F001FA05F240EA020001F00042AC
:1005F00021F0004110EBD37021FA04F642EB060122
:100600005EEA430E08BF20EAD37070BDC4F10C044B
:10061000C4F1200500FA04F320FA05F001FA04F20F
:1006200040EA020001F0004110EBD37041F10001FB
:100630005EEA430E08BF20EAD37070BDC4F1200506
:1006400000FA05F24EEA020E20FA04F301FA05F26E
:1006500043EA020321FA04F001F0004121FA04F216
:1006600020EA020000EBD3705EEA430E08BF20EAE6
:10067000D37070BD94F0000F0FD101F00046400020
:1006800041EB010111F4801F08BF013CF7D041EAA2
:10069000060195F0000F18BF704703F000465200A6
:1006A00043EB030313F4801F08BF013DF7D043EA77
:1006B0000603704794EA0C0F0CEA135518BF95EA2D
:1006C0000C0F0CD050EA410618BF52EA4306D1D1B4
:1006D00081EA030101F000414FF0000070BD50EAD3
:1006E000410606BF1046194652EA430619D094EA5D
:1006F0000C0F02D150EA013613D195EA0C0F05D147
:1007000052EA03361CBF104619460AD181EA03019A
:1007100001F0004141F0FE4141F470014FF0000052
:1007200070BD41F0FE4141F4780170BD70B54FF0ED
:10073000FF0C4CF4E06C1CEA11541DBF1CEA13556D
:1007400094EA0C0F95EA0C0F00F0A7F8A4EB05044F
:1007500081EA030E52EA03354FEA013100F0888046
:100760004FEA03334FF0805545EA131343EA12630F
:100770004FEA022245EA111545EA10654FEA0026C4
:100780000EF000419D4208BF964244F1FD0404F57D
:10079000407402D25B084FEA3202B61A65EB0305D9
:1007A0005B084FEA32024FF480104FF4002CB6EB96
:1007B000020E75EB030E22BFB61A754640EA0C0016
:1007C0005B084FEA3202B6EB020E75EB030E22BF56
:1007D000B61A754640EA5C005B084FEA3202B6EB97
:1007E000020E75EB030E22BFB61A754640EA9C0056
:1007F0005B084FEA3202B6EB020E75EB030E22BF26
:10080000B61A754640EADC0055EA060E18D04FEAE3
:10081000051545EA16754FEA06164FEAC30343EA83
:1008200052734FEAC2025FEA1C1CC0D111F4801F50
:100830000BD141EA00014FF000004FF0004CB6E749
:1008400011F4801F04BF01430020B4F1FD0C88BFE8
:10085000BCF5E06F3FF6AFAEB5EB030C04BFB6EBF3
:10086000020C5FEA500C50F1000041EB045170BDE6
:100870000EF0004E4EEA113114EB5C04C2BFD4EB13
:100880000C0541EA045170BD41F480114FF0000E97
:10089000013C90E645EA060E8DE60CEA135594EA13
:1008A0000C0F08BF95EA0C0F3FF43BAF94EA0C0F16
:1008B0000AD150EA01347FF434AF95EA0C0F7FF48B
:1008C00025AF104619462CE795EA0C0F06D152EADF
:1008D00003353FF4FDAE1046194622E750EA4106C3
:1008E00018BF52EA43067FF4C5AE50EA41047FF4D4
:1008F0000DAF52EA43057FF4EBAE12E74FF0FF3C39
:1009000006E000BF4FF0010C02E000BF4FF0010C09
:100910004DF804CD4FEA410C7FEA6C5C4FEA430C82
:1009200018BF7FEA6C5C1BD001B050EA410C0CBFD1
:1009300052EA430C91EA030F02BF90EA020F002033
:10094000704710F1000F91EA030F58BF994208BF9A
:1009500090422CBFD8176FEAE37040F00100704757
:100960004FEA410C7FEA6C5C02D150EA013C07D1AE
:100970004FEA430C7FEA6C5CD6D152EA033CD3D0F9
:100980005DF8040B704700BF8446104662468C46F3
:100990001946634600E000BF01B5FFF7B7FF002826
:1009A00048BF10F1000F01BD4DF808EDFFF7F4FF4F
:1009B0000CBF012000205DF808FB00BF4DF808EDDA
:1009C000FFF7EAFF34BF012000205DF808FB00BFFD
:1009D0004DF808EDFFF7E0FF94BF012000205DF81F
:1009E00008FB00BF4DF808EDFFF7CEFF94BF0120D4
:1009F00000205DF808FB00BF4DF808EDFFF7C4FFCD
:100A000034BF012000205DF808FB00BF4FEA410C15
:100A10007FEA6C5C02D150EA013C0AD14FEA430CF8
:100A20007FEA6C5C02D152EA033C02D14FF0000035
:100A300070474FF0010070474FEA410212F5001273
:100A400015D211D56FF47873B3EB625212D94FEA15
:100A5000C12343F0004343EA505311F0004F23FAFF
:100A600002F018BF404270474FF00000704750EA54
:100A7000013005D111F0004008BF6FF00040704711
:100A80004FF00000704700BF4A0011D212F500126B
:100A900011D20DD56FF47873B3EB62520ED44FEAD6
:100AA000C12343F0004343EA505323FA02F0704756
:100AB0004FF00000704750EA013002D14FF0FF3094
:100AC00070474FF0000070474FEA4102B2F1E04337
:100AD00024BFB3F5001CDCF1FE5C0DD901F0004C25
:100AE0004FEAC0024CEA5070B2F1004F40EB830075
:100AF00008BF20F00100704711F0804F21D113F1A1
:100B00003872BCBF01F00040704741F480114FEAD9
:100B10005252C2F11802C2F1200C10FA0CF320FA62
:100B200002F018BF40F001004FEAC1234FEAD3237F
:100B300003FA0CFC40EA0C0023FA02F34FEA4303E9
:100B4000CCE77FEA625307D150EA01331EBF4FF072
:100B5000FE4040F44000704701F0004040F0FE408D
:100B600040F40000704700BF80F0004002E000BF8A
:100B700081F0004142001FBF5FEA410392EA030F88
:100B80007FEA226C7FEA236C6AD04FEA1262D2EBD2
:100B90001363C1BFD218414048404140B8BF5B42D7
:100BA000192B88BF704710F0004F40F4000020F070
:100BB0007F4018BF404211F0004F41F4000121F086
:100BC0007F4118BF494292EA030F3FD0A2F10102D0
:100BD00041FA03FC10EB0C00C3F1200301FA03F10E
:100BE00000F0004302D5494260EB4000B0F5000F31
:100BF00013D3B0F1807F06D340084FEA310102F1F0
:100C00000102FE2A51D2B1F1004F40EBC25008BFA1
:100C100020F0010040EA03007047490040EB00006B
:100C2000013A28BFB0F5000FEDD2B0FA80FCACF16C
:100C3000080CB2EB0C0200FA0CF0AABF00EBC25099
:100C400052421843BCBFD0401843704792F0000F87
:100C500081F4000106BF80F400000132013BB5E7DA
:100C60004FEA41037FEA226C18BF7FEA236C21D050
:100C700092EA030F04D092F0000F08BF08467047B5
:100C800090EA010F1CBF0020704712F07F4F04D183
:100C9000400028BF40F00040704712F100723CBF96
:100CA00000F50000704700F0004343F0FE4040F4C0
:100CB000000070477FEA226216BF08467FEA23637E
:100CC0000146420206BF5FEA412390EA010F40F469
:100CD000800070474FF0000304E000BF10F00043B5
:100CE00048BF40425FEA000C08BF704743F096439C
:100CF00001464FF000001CE050EA010208BF7047B7
:100D00004FF000030AE000BF50EA010208BF70473D
:100D100011F0004302D5404261EB41015FEA010C52
:100D200002BF84460146002043F0B64308BFA3F14A
:100D30008053A3F50003BCFA8CF2083AA3EBC2532C
:100D400010DB01FA02FC634400FA02FCC2F120024B
:100D5000BCF1004F20FA02F243EB020008BF20F082
:100D60000100704702F1200201FA02FCC2F12002E8
:100D700050EA4C0021FA02F243EB020008BF20EADD
:100D8000DC7070474FF0FF0C1CEAD0521EBF1CEA0B
:100D9000D15392EA0C0F93EA0C0F6FD01A4480EAF9
:100DA000010C400218BF5FEA41211ED04FF00063E2
:100DB00043EA501043EA5111A0FB01310CF000400E
:100DC000B1F5000F3EBF490041EAD3715B0040EA34
:100DD000010062F17F02FD2A1DD8B3F1004F40EB04
:100DE000C25008BF20F00100704790F0000F0CF0D7
:100DF000004C08BF49024CEA502040EA51207F3A9B
:100E0000C2BFD2F1FF0340EAC250704740F4000075
:100E10004FF00003013A5DDC12F1190FDCBF00F066
:100E200000407047C2F10002410021FA02F1C2F114
:100E3000200200FA02FC5FEA310040F1000053EAB0
:100E40004C0308BF20EADC70704792F0000F00F0FE
:100E5000004C02BF400010F4000F013AF9D040EA04
:100E60000C0093F0000F01F0004C02BF490011F498
:100E7000000F013BF9D041EA0C018FE70CEAD15396
:100E800092EA0C0F18BF93EA0C0F0AD030F0004C16
:100E900018BF31F0004CD8D180EA010000F00040CA
:100EA000704790F0000F17BF90F0004F084691F088
:100EB000000F91F0004F14D092EA0C0F01D14202C2
:100EC0000FD193EA0C0F03D14B0218BF084608D18B
:100ED00080EA010000F0004040F0FE4040F40000D5
:100EE000704740F0FE4040F4400070474FF0FF0C68
:100EF0001CEAD0521EBF1CEAD15392EA0C0F93EAAF
:100F00000C0F69D0A2EB030280EA010C49024FEA00
:100F1000402037D04FF0805343EA111143EA1013B9
:100F20000CF000408B4238BF5B0042F17D024FF471
:100F3000000C8B4224BF5B1A40EA0C00B3EB510F4C
:100F400024BFA3EB510340EA5C00B3EB910F24BF35
:100F5000A3EB910340EA9C00B3EBD10F24BFA3EBBA
:100F6000D10340EADC001B0118BF5FEA1C1CE0D182
:100F7000FD2A3FF650AF8B4240EBC25008BF20F035
:100F8000010070470CF0004C4CEA50207F32C2BF89
:100F9000D2F1FF0340EAC250704740F400004FF026
:100FA0000003013A37E792F0000F00F0004C02BF57
:100FB000400010F4000F013AF9D040EA0C0093F021
:100FC000000F01F0004C02BF490011F4000F013B7B
:100FD000F9D041EA0C0195E70CEAD15392EA0C0FE3
:100FE00008D142027FF47DAF93EA0C0F7FF470AF1B
:100FF000084676E793EA0C0F04D14B023FF44CAF5E
:1010000008466EE730F0004C18BF31F0004CCAD1F2
:1010100030F000427FF45CAF31F000437FF43CAF2E
:101020005FE700BF4FF0FF3C06E000BF4FF0010C50
:1010300002E000BF4FF0010C4DF804CD4FEA400232
:101040004FEA41037FEA226C18BF7FEA236C11D07C
:1010500001B052EA530C18BF90EA010F58BFB2EB2F
:10106000030088BFC81738BF6FEAE17018BF40F0AF
:10107000010070477FEA226C02D15FEA402C05D163
:101080007FEA236CE4D15FEA412CE1D05DF8040BE8
:10109000704700BF844608466146FFE70FB5FFF77B
:1010A000C9FF002848BF10F1000F0FBD4DF808ED33
:1010B000FFF7F4FF0CBF012000205DF808FB00BF24
:1010C0004DF808EDFFF7EAFF34BF012000205DF87E
:1010D00008FB00BF4DF808EDFFF7E0FF94BF0120CB
:1010E00000205DF808FB00BF4DF808EDFFF7D2FFC8
:1010F00094BF012000205DF808FB00BF4DF808ED0B
:10110000FFF7C8FF34BF012000205DF808FB00BFD7
:101110004FEA40024FEA41037FEA226C02D15FEAC4
:10112000402C08D17FEA236C02D15FEA412C02D126
:101130004FF0000070474FF0010070474FEA400247
:10114000B2F1FE4F0FD34FF09E03B3EB12620DD9F5
:101150004FEA002343F0004310F0004F23FA02F05F
:1011600018BF404270474FF00000704712F1610F06
:1011700001D1420205D110F0004008BF6FF00040DD
:1011800070474FF00000704742000ED2B2F1FE4FA0
:101190000BD34FF09E03B3EB126209D44FEA002346
:1011A00043F0004323FA02F070474FF0000070470D
:1011B00012F1610F01D1420202D14FF0FF307047AE
:1011C0004FF00000704700BF38B5002200230446EE
:1011D0000D46FFF7F3FB28B920462946BDE8384005
:1011E00000F00AB8204605F1004100F005F8404241
:1011F00061EB410138BD00BFD0B500220B4B064664
:101200000F46FFF769F9FFF73FFC0446FFF7EAF8DE
:101210000022074BFFF760F902460B46304639467D
:10122000FEF7A2FFFFF730FC2146D0BD0000F03DE5
:101230000000F04180B584B000AF3B1D00221A6071
:101240005A609A60184B194A1A60174B00229A602C
:10125000154B01221A73144B00221A75124B4FF4CE
:101260006022DA61104B00225A600F4B01221A6192
:101270000D4803F023FE0346002B01D002F0C0FB13
:1012800000237B600123BB600723FB603B1D1946E5
:10129000054803F0DBFF0346002B01D002F0B0FB52
:1012A00000BF1037BD4680BDDC0500200024014092
:1012B00080B588B000AF786007F1100300221A6093
:1012C0005A609A60DA607B681B68284A934249D169
:1012D000274B9B69264A43F400739361244B9B6917
:1012E00003F40073FB60FB68214B9B69204A43F0C9
:1012F000040393611E4B9B6903F00403BB60BB684E
:1013000001233B6103237B6107F110031946194850
:1013100004F046FF184B194A1A60174B00225A6016
:10132000154B00229A60144B8022DA60124B4FF466
:1013300080721A61104B4FF480625A610E4B00228A
:101340009A610D4B0022DA610B4804F087FA0346DC
:10135000002B01D002F054FB7B68074A1A62064A50
:101360007B68536200BF2037BD4680BD002401402A
:1013700000100240000801400C0600200800024056
:1013800080B582B000AF104B5B690F4A43F0010398
:1013900053610D4B5B6903F001037B607B680022A6
:1013A00000210B2004F023FA0B2004F03CFA002269
:1013B00000210E2004F01BFA0E2004F034FA00BFC6
:1013C0000837BD4680BD00BF0010024080B500AFA9
:1013D000114B00221A60114B00221A70104B002290
:1013E0001A70104B00221A700F4B00221A600F4B1C
:1013F00000221A700E4B00221A704FF480410D48E3
:1014000005F052F80346002B14BF01230023DAB283
:10141000094B1A7000BF80BD500600205406002002
:101420005506002056060020580600205C060020C5
:101430005D060020000C01400000002080B400AFD9
:10144000024B1B681846BD4680BC70475006002002
:1014500080B400AF034B00221A6000BFBD4680BCC1
:10146000704700BF5006002080B400AF074B1B78C8
:10147000DBB2002B04D0054B00221A70012300E0E0
:1014800000231846BD4680BC704700BF55060020AB
:1014900080B400AF074B1B78DBB2002B04D0054BA8
:1014A00000221A70012300E000231846BD4680BCCC
:1014B000704700BF5606002080B582B000AF244BB5
:1014C0001B680133224A136003F0CAFC7860214B89
:1014D0001B687A68D31A012B36D91E4A7B681360C1
:1014E0004FF480411C4804F0DFFF0346002B14BF7B
:1014F00001230023FB704FF40041174804F0D4FF90
:101500000346002B14BF01230023BB70134B1B7831
:10151000FA789A4219D0FA78BB789A4208D1104BDF
:101520001B68013B0E4A13600E4B02221A7007E043
:101530000B4B1B6801330A4A13600A4B01221A70D5
:10154000064AFB78137000E000BF0837BD4680BD37
:101550006406002060060020000C0140000000200E
:10156000500600205406002080B400AF044B1B68D6
:101570000133034A136000BFBD4680BC704700BF03
:101580006806002080B584B000AF03F069FCF86005
:101590004FF40051344804F087FF0346002B14BF7A
:1015A00001230023FB72FB7A002B14BF01230023CD
:1015B000DBB283F00103DBB2BB72BB7A03F0010341
:1015C000BB72BB7A002B10D0284B1B7883F0010331
:1015D000DBB2002B09D0254B01221A70244AFB688C
:1015E0001360244B00221A701EE0BB7A83F00103C3
:1015F000DBB2002B18D01D4B1B78002B14D01B4BDB
:1016000000221A701B4B1B7883F00103DBB2002B06
:101610000AD0174B1B68FA68D31A7B607B68322BA1
:1016200002D9154B01221A70104B1B78002B16D0D3
:10163000104B1B7883F00103DBB2002B0FD00C4B57
:101640001B68FA68D31A3B603B6840F2DB52934256
:1016500005D90A4B01221A70064B01221A7000BFED
:101660001037BD4680BD00BF000C01405C06002065
:10167000580600205D060020550600205606002072
:1016800080B588B000AF07F1100300221A605A60DD
:101690009A60DA60514B9B69504A43F02003936192
:1016A0004E4B9B6903F02003FB60FB684B4B9B692F
:1016B0004A4A43F004039361484B9B6903F00403D7
:1016C000BB60BB68454B9B69444A43F00803936188
:1016D000424B9B6903F008037B607B6800222E214C
:1016E0003F4804F0F8FE002203213E4804F0F3FED8
:1016F0000E233B6101237B610023BB610223FB615D
:1017000007F110031946364804F04AFD10233B61E7
:1017100000237B610123BB6107F1100319463048A8
:1017200004F03EFD20233B6101237B610223BB616A
:101730000223FB6107F110031946294804F030FD2C
:1017400003233B6101237B610023BB610223FB6117
:1017500007F110031946234804F022FD4FF4184303
:101760003B6100237B610123BB6107F11003194634
:101770001C4804F015FD4FF400533B611A4B7B618C
:101780000123BB6107F110031946164804F008FD58
:101790004FF480433B61154B7B610123BB6107F133
:1017A000100319460F4804F0FBFC4FF400633B6143
:1017B0000D4B7B610123BB6107F1100319460848FB
:1017C00004F0EEFC00220021282004F010F828206C
:1017D00004F029F800BF2037BD4680BD001002404C
:1017E00000080140000C01400000211000003110F1
:1017F00080B586B002AF0346FB71FB7923F00F037F
:10180000FB73FB791B01BB73FB7B43F00C03DBB267
:101810003B72FB7B43F00803DBB27B72BB7B43F084
:101820000C03DBB2BB72BB7B43F00803DBB2FB7281
:1018300007F108026423009304234E21034804F0B7
:10184000C9FF00BF1037BD4680BD00BF6C06002039
:1018500080B586B002AF0346FB71FB7923F00F031E
:10186000FB73FB791B01BB73FB7B43F00D03DBB206
:101870003B72FB7B43F00903DBB27B72BB7B43F023
:101880000D03DBB2BB72BB7B43F00903DBB2FB721F
:1018900007F108026423009304234E21034804F057
:1018A00099FF00BF1037BD4680BD00BF6C06002009
:1018B00080B582B000AF8020FFF79AFF00237B60E5
:1018C00005E02020FFF7C4FF7B6801337B607B6865
:1018D000452BF6DD00BF00BF0837BD4680BD80B593
:1018E00082B000AF786039607B68002B03D07B68E2
:1018F000012B05D009E03B6843F080033B6004E026
:101900003B6843F0C0033B6000BF3B68DBB2184656
:10191000FFF76EFF00BF0837BD4680BD80B500AF42
:10192000322003F0A7FA3020FFF762FF052003F012
:10193000A1FA3020FFF75CFF012003F09BFA302072
:10194000FFF756FF0A2003F095FA2020FFF750FF1B
:101950000A2003F08FFA2820FFF74AFF012003F046
:1019600089FA0820FFF744FF012003F083FA0120E1
:10197000FFF73EFF012003F07DFA012003F07AFA21
:101980000620FFF735FF012003F074FA0C20FFF763
:101990002FFF00BF80BD80B582B000AF786006E049
:1019A0007B685A1C7A601B781846FFF751FF7B68EA
:1019B0001B78002BF4D100BF00BF0837BD4680BDA7
:1019C00080B500AF124B134A1A60114B124A5A608D
:1019D0000F4B00229A600E4B0022DA600C4B4FF442
:1019E00080421A610A4B00225A61094B00229A6117
:1019F000074B0022DA61064B00221A62044804F009
:101A0000A5FD0346002B01D001F0FAFF00BF80BD09
:101A10006C06002000540040A086010080B588B00C
:101A200000AF786007F1100300221A605A609A60D4
:101A3000DA607B681B68154A934223D1144B9B697B
:101A4000134A43F008039361114B9B6903F00803A9
:101A5000FB60FB68C0233B6112237B610323FB61B6
:101A600007F1100319460B4804F09AFB084BDB6999
:101A7000074A43F40013D361054BDB6903F40013F9
:101A8000BB60BB6800BF2037BD4680BD005400402E
:101A900000100240000C014080B500AF094B0A4A1B
:101AA0001A60084B04225A60064B40F6C4129A6032
:101AB000044805F0E7F90346002B01D001F0A0FF30
:101AC00000BF80BDC00600200030004080B582B05D
:101AD00000AF0346FB80FB881846FFF7FFF803467C
:101AE00006491846FFF74EF9034605491846FFF721
:101AF000FDF9034618460837BD4680BD33335340D1
:101B000000F07F4590B587B000AF0346FB80FB88AF
:101B10001846FFF7DBFF78612F497869FFF7D0FAA5
:101B20000346002B06D12D497869FFF7E7FA0346F3
:101B3000002B01D02A4B4BE079692A48FFF7D6F9F0
:101B400003464FF07E511846FFF712F80346194638
:101B50002548FFF7CBF903463B614FF00001386998
:101B6000FFF7B8FA0346002B01D01D4B30E01F49A8
:101B70003869FFF7C3FA0346002B01D01C4B00E085
:101B80001C4BFB60F9684FF07E50FFF7AFF903463E
:101B90001C4619493869FFF7A9F9034618460BF0A6
:101BA0000FFE034619462046FFF7ECF8034613499B
:101BB0001846FEF7DFFF0346BB60B9684FF07E5062
:101BC000FFF794F903460E491846FEF7D1FF034686
:101BD00018461C37BD4690BDCDCC4C3D0000504052
:101BE0000000C07F3333534000007A440080BB4480
:101BF00000E0764500D08945004AC4470FCF5B3BE3
:101C00003393884380B584B000AF78604FF0000113
:101C10007868FFF755FA0346002B02D04FF0000317
:101C20007B600D497868FFF769FA0346002B01D005
:101C3000094B7B6008497868FFF7A4F8034618460B
:101C4000FFF7A2FA0346FB60044B1B68FA68DA63ED
:101C500000BF1037BD4680BD0000C84228090020E3
:101C600080B582B000AF0346FB71FB7983F00103BE
:101C7000DBB21A462021034804F02DFC00BF0837D0
:101C8000BD4680BD0008014080B485B000AF03466A
:101C9000FB80FB88312B01D83223FB80FB8844F684
:101CA0002062934202D944F62063FB80FB880B4AF2
:101CB000B2FBF3F3013BFB60094B1B68FA68DA6285
:101CC000074AFB68D360064B1B68FA6852085A63E0
:101CD00000BF1437BD4680BC704700BF40420F00B4
:101CE0005008002080B582B000AF78600122042146
:101CF000064804F0F0FB03F0B3F802467B68134497
:101D0000034A136000BF0837BD4680BD000801408C
:101D1000C807002080B582B000AF0346FB710B46B8
:101D2000BB7113467B71FB79002B14BF0123002389
:101D3000DBB21A4601210E4804F0CDFBBB79002B23
:101D400014BF01230023DBB21A460221084804F025
:101D5000C2FB7B79002B14BF01230023DBB21A46A0
:101D60000821044804F0B7FB00BF0837BD4680BD1A
:101D7000000C014000080140B0B58EB000AF04F087
:101D80007FF80023FB61254B7B620123BB6207F1D7
:101D9000180207F11C031146184604F059F90346CE
:101DA000002B02D004F092F835E01D4B1B683B601D
:101DB0001C4B1B687B601C4B1B68BB601A4B5B6831
:101DC000FB60194B9B683B61184B7B613B467B6317
:101DD000124B3B630023FB6216E07B6B1B68002207
:101DE0001C46154622462B46396B022003F0D8FFCD
:101DF0000346002B0CD13B6B04333B637B6B0433FA
:101E00007B63FB6A0133FB62FB6A052BE5D900E0CB
:101E100000BF04F05BF83837BD46B0BD00FC0008D9
:101E2000040000202800002010000020BEBAFECAD6
:101E300080B483B000AF104B7B607B685B690F4A56
:101E4000934213D17B681B680D4A13607B685B6803
:101E50000C4A13607B689B680B4A13607B68DB68E5
:101E6000094A53607B681B69074A936000BF0C37BF
:101E7000BD4680BC704700BF00FC0008BEBAFECA69
:101E800004000020280000201000002080B500AFD2
:101E9000094B0A4A1A600A4B0A4A1A600A4B4FF069
:101EA0007E521A60084B094A5A60074B084A9A60EA
:101EB000FFF762FF00BF80BD0400002000007543F3
:101EC0002800002000004040100000209A99193E90
:101ED0000000704290B5ADB008AF704B1B6818465B
:101EE000FFF72CF90346C7F88C306C4B1C68D7F809
:101EF0008C00FEF7F3FE034619462046FEF738FE37
:101F0000034623F000431846FEF78EFA4FF0000216
:101F1000634BFEF7E1FA02460B4610461946FEF700
:101F20008BFD0346C7F888305E4B1B681846FFF7E9
:101F300005F90346C7F884305A4B1C68D7F884006B
:101F4000FEF7CCFE034619462046FEF711FE034677
:101F500023F000431846FEF767FA4FF00002504B9B
:101F6000FEF7BAFA02460B4610461946FEF764FD24
:101F70000346C7F880304C4B1B681846FFF7DEF865
:101F80000346FB67484B1C68F86FFEF7A7FE034645
:101F900019462046FEF7ECFD034623F000431846A1
:101FA000FEF742FA4FF00002404BFEF795FA024668
:101FB0000B4610461946FEF73FFD0346BB673A4BFA
:101FC0005B681846FFF7BAF803467B67364B5C68D8
:101FD000786FFEF783FE034619462046FEF7C8FDDC
:101FE000034623F000431846FEF71EFA4FF00002A6
:101FF0002E4BFEF771FA02460B4610461946FEF7C5
:102000001BFD03463B67284B9B681846FFF796F875
:102010000346FB66244B9C68F86EFEF75FFE0346A2
:1020200019462046FEF7A4FD034623F00043184658
:10203000FEF7FAF94FF000021C4BFEF74DFA02468C
:102040000B4610461946FEF7F7FC0346BB663846BA
:10205000BB6E0793FB6E06933B6F05937B6F0493F8
:10206000BB6F0393FB6F0293D7F880300193D7F8CF
:1020700084300093D7F88830D7F88C200C4908F0CA
:10208000E9FD78667B6E9AB239466423094806F00A
:102090006AFC00BF9437BD4690BD00BF040000201D
:1020A00000002440280000201000002000005940BB
:1020B00010E600087009002080B582B000AF78609B
:1020C0004FF000017868FFF705F80346002B02D0B7
:1020D0004FF000031FE04FF07E517868FFF704F8DF
:1020E0000346002B02D04FF07E5314E00C49786871
:1020F000FEF748FE034618460BF08AFB03461946D6
:102100004FF07E50FEF734FD03464FF080411846F5
:10211000FEF7ECFE034618460837BD4680BD00BFFB
:10212000DB0F494080B584B000AF78604FF000010C
:102130007868FEF7CFFF0346002B01D0002312E0A2
:102140000B497868FEF71EFE0346FB600949F868F4
:10215000FEF7D4FF0346002B01D0064BFB60F86866
:10216000FFF712F8034618461037BD4680BD00BF82
:10217000A5CDD74400409C4680B584B000AF002375
:10218000FB600023BB600AE0504ABB6832F81330A2
:102190001A46FB681344FB60BB680133BB60BB6835
:1021A0003F2BF1DDFB689B09FB80FB88632B0CD97F
:1021B000FB88B3F57A6F08D8454B1B68194618465B
:1021C000FEF7A6FF0346002B1CD0424B1B78012BC9
:1021D00074D0404B01221A703F4B03221A703F4BC0
:1021E0004FF000025A614FF00000FFF70BFD3C4B2F
:1021F00000221A700020FFF733FD0021394805F056
:10220000EFFC5BE0324B1B6819461846FEF780FF77
:102210000346002B25D12E4B1B6833491846FEF789
:102220006DFF0346002B1CD02A4B1B78022B47D096
:10223000284B02221A70284B03221A70274B4FF0AA
:1022400000025A614FF00000FFF7DCFC244B002233
:102250001A700020FFF704FD0021224805F0C0FCA1
:102260002EE0224B1B78002B2DD0194B1B682049E8
:102270001846FEF739FF0346002B03D01B4B002204
:102280001A7020E002F0ECFD02461A4B1B68D31ACC
:10229000194A934217D90F4B1B78032B12D00D4BC1
:1022A00003221A700C4B03221A700C4B4FF00002E1
:1022B0005A614FF00000FFF7A5FC03E000BF02E009
:1022C00000BF00E000BF1037BD4680BDD006002033
:1022D00008000020B3070020550700201000002050
:1022E000540700205008002000008743B807002052
:1022F0000000C842B4070020E093040090B585B008
:1023000000AF0023FB600023BB600AE0234ABB68E8
:1023100032F813301A46FB681344FB60BB68013384
:10232000BB60BB683F2BF1DDFB689B09FB80FB8832
:102330001846FFF7E7FB386039683868FEF7E8FEB3
:102340000346002B03D0164B164A1A6021E0144BAB
:102350001B6819461846FEF7DBFE0346002B03D028
:102360000F4A3B68136014E00F493868FEF70AFD16
:1023700003461C460A4B1B680C491846FEF702FD33
:10238000034619462046FEF7F5FB03461A46044B62
:102390001A6000BF1437BD4690BD00BFD0060020B4
:1023A000080000200000C07FCDCCCC3D6666663FB3
:1023B00090B589B000AF9E4B1B68002214461946A9
:1023C0001846FEF7A5FE0346002B01D101231C464B
:1023D000FC76FB7E002B0AD0954B1B68954918466E
:1023E000FEF782FE0346002B01D0012300E000230C
:1023F000BB76BB7E03F00103BB768F4B1B68184690
:10240000FFF790FEF861FB69312B01D83223FB61A5
:102410008A4B1B78032B00F2A68101A252F823F00D
:102420003124000801250008D3250008CF26000824
:102430000020FFF715FC824B00221A70814B00220E
:102440001A80814B1B78002B04D1804B1B78DBB2A8
:10245000002B23D0BB7E002B20D0784B01221A709A
:10246000774B01221A700120FFF7FAFB754B3222DD
:102470001A80744B1B881846FFF706FC002174482D
:1024800005F00CFB734B00221A60704B00221A708F
:102490006D4B00221A7000F087F920E06A4B1B7820
:1024A000002B04D1694B1B78DBB2002B17D0BB7E0D
:1024B00083F00103DBB2002B11D000210120FFF7D4
:1024C0000EFA6548FFF767FA02F0CAFC0346634A52
:1024D00013605E4B00221A705B4B00221A70604B37
:1024E0001B78002B02D05E4B00221A705D4B1B78CC
:1024F000DBB2002B00F03B815A4B00221A7036E110
:102500000120FFF7ADFB4E4B01221A70514B1B68A7
:10251000B3F5FA6F2ED24F4B1B681846FEF7DAFB65
:10252000034651491846FEF7E1FC03467B60786894
:10253000FFF7C2FD3860FB69323B1846FEF7CAFB65
:10254000034639681846FEF71DFC03461846FEF799
:102550001BFE03469BB232339AB23A4B1A80394B78
:102560001B881846FFF790FB3A4B1B680133394A2A
:1025700013600BE0314B02221A70FB699AB2314BA7
:102580001A80304B1B881846FFF77EFB344B1B78B4
:10259000002B0BD1334B1B78DBB2002B06D1BB7E5B
:1025A00083F00103DBB2002B00F0E380234B032216
:1025B0001A70284B00221A60244B00221A70224BFA
:1025C00000221A70274B00221A70254B00221A7025
:1025D000CFE00120FFF744FB194B01221A70FB6981
:1025E000184A12889B1AFB600523BB60FB68002B0E
:1025F000B8BF5B421A46BB68934237D2FB68002BD8
:1026000008DDBB689AB20F4B1B8813449AB20D4B7E
:102610001A8007E00B4B1A88BB689BB2D31A9AB298
:10262000084B1A80074B1B881846FFF72DFB2CE040
:102630000800002000006643280000205407002006
:102640005C0700200C000020C0070020C607002007
:10265000500800205807002044E60008CC0700205E
:10266000C1070020C70700200000FA44FB68002BC8
:10267000B8BF5B42002B08DDFB699AB2404B1A8061
:102680003F4B1B881846FFF7FFFA3E4B1B78002B89
:102690000AD13D4B1B78DBB2002B05D1BB7E83F00A
:1026A0000103DBB2002B66D0384B03221A70384B83
:1026B00000221A60374B00221A70374B00221A7022
:1026C000314B00221A702F4B00221A7053E0304B0E
:1026D0001B68B3F5FA6F35D22D4B1B681846FEF711
:1026E000F9FA03462D491846FEF700FC03467B61C4
:1026F0007869FFF7E1FC034619464FF07E50FEF77C
:1027000037FA03463B61FB69323B1846FEF7E2FAB3
:10271000034639691846FEF735FB03461846FEF7AF
:1027200033FD03469BB232339AB2154B1A80144BD9
:102730001B881846FFF7A8FA154B1B680133144A8B
:10274000136019E00021164805F04AFA0F4B0022E9
:102750001A700020FFF784FA124B00221A70084BFF
:1027600000221A8008E00020FFF77AFA04E000BF98
:1027700002E000BF00E000BF00BF2437BD4690BDAF
:102780000C000020C1070020C707002054070020CC
:1027900058070020C6070020C00700200000FA44A8
:1027A000500800205C070020F0B59FB006AF744BC6
:1027B0001B78002B20D0724B1B78012B07D107F11F
:1027C0004C03704A1121184608F00EFA74E06C4B65
:1027D0001B78022B07D107F14C036B4A11211846D5
:1027E00008F002FA68E0664B1B7807F14C00674A74
:1027F000112108F0F9F95FE0654B1B68194618468E
:10280000FEF786FC0346002B0FD0624B1B68184670
:10281000FDF70AFE02460B4607F14C00CDE9002306
:102820005D4A112108F0E0F946E05C4B1B78022B71
:102830000ED0022B10DC002B02D0012B04D00BE0B9
:102840002D2387F85F300BE05E2387F85F3007E0C9
:102850002A2387F85F3003E03F2387F85F3000BF0B
:102860004B4B1B681846FDF7DFFD04460D46494BF0
:102870001B681846FDF7D8FD02460B4697F85F1017
:1028800047480078002801D0482000E0202007F1C8
:10289000240605900491CDE90223CDE90045414A83
:1028A0001121304608F0A0F907F1240307F14C008C
:1028B0003D4A112108F098F93C4B1B78002B30D190
:1028C000364B1B78002B07D107F13803384A11210A
:1028D000184608F089F93CE0304B1B78012B0CD1ED
:1028E000344B5B691846FEF729FC034607F13800B4
:1028F000314A112108F078F92BE0284B1B78022B84
:1029000007D107F138032D4A1121184608F06CF958
:102910001FE007F138032A4A1121184608F064F92C
:1029200017E0284B1B681846FDF77EFD02460B4654
:1029300025490988381D0291CDE90023234A202129
:1029400008F052F93B1D07F13800174A112108F031
:102950004BF900210020FEF7C2FF07F14C03184697
:10296000FFF719F800210120FEF7B9FF07F138033E
:102970001846FFF710F800BF6437BD46F0BD00BF32
:10298000B307002058E600086CE6000880E600085F
:10299000080000200400002094E6000855070020ED
:1029A00053070020A8E60008BCE6000854070020F2
:1029B000C8E6000810000020DCE60008F0E6000889
:1029C00004E70008280000200C00002018E7000899
:1029D00090B59BB00AAF02F0EBF900F04FFCFEF7A8
:1029E0004FFEFEF7CDFCFEF725FC01F05FFFFEF782
:1029F000E7FF01F0A7FF02F00DF901F0D3FEFFF7AA
:102A00004BF801F0EDFFFEF789FFFEF751FFFEF7EF
:102A1000DDFC01F05FF9FFF70BFA4022A649A74859
:102A200002F024FBA64804F097FF0020FFF718F9F6
:102A3000A44B1B781A460221A34803F04CFD4FF02B
:102A40000000FFF7DFF80122A049A14806F016F8C0
:102A5000A04804F05BFAA04B1B68002B0ED002F0DC
:102A6000FFF902469C4B1B689A4207D900220421B9
:102A7000954803F030FD984B00221A60974B1B7865
:102A8000002B24D002F0ECF9B863BB6B944AA2FB94
:102A900003235B0903F00103002B0AD1002200216C
:102AA0000120FFF737F901220421874803F013FDC5
:102AB00009E0002200210020FFF72CF90022042168
:102AC000814803F008FD844B00221A6053E0854BD7
:102AD0001B6819461846FEF71BFB0346002B1BD14B
:102AE000804B1B68804A126811461846FEF740F872
:102AF000034623F000437D491846FEF7EBFA0346F0
:102B0000002B09D07A4B1B78002B05D00022012125
:102B10000020FFF7FFF825E0754B1B78012B1CD137
:102B2000714B1B6873491846FEF722F803461A4694
:102B30006C4B1B6819461046FEF7C2FA0346002B81
:102B400005D0012201210020FFF7E4F80AE001226C
:102B500000210020FFF7DEF804E00022012101201F
:102B6000FFF7D8F85C4B1B68002B04D1002204212E
:102B7000554803F0B0FCFEF705FD00F0B9FD5E4BD3
:102B80001B78DBB2002B04D0FFF712FC5A4B00225B
:102B90001A7001F013FC0346002B13D001F0F6FA73
:102BA00001F04AFBFEF760FC0346002B01D001F068
:102BB0000FFAFEF76DFC0346002B3FF449AF01F01E
:102BC00099FA45E7FEF764FC0346002B02D001F0BA
:102BD000CBF832E3494B1B78DBB2002B07D0474BD5
:102BE00000221A7040223449344802F03FFA444B24
:102BF0001B78DBB2002B03D0FFF780FBFFF7BCFA9A
:102C00003B4B1B78032B00F2B18101A252F823F059
:102C1000212C0008292D0008352E0008F32E00086D
:102C2000384B4FF000025A61374B00221A70374B75
:102C300000221A70364B1B78002B02D0344B002236
:102C40001A70344B1B78DBB2002B02D0314B0022C0
:102C50001A70314B1B78002B05D1304B1B78DBB23F
:102C6000002B00F07C811F4B1B6819461846FEF7AD
:102C70004FFA0346002B40F072811D4B01221A705F
:102C8000224B01221A7002F0EBF80346244A13602B
:102C9000214B00221A70214B00221A700C4B93F822
:102CA0004130DBB2202B40F05A8164230C221D49B5
:102CB000074805F058FE52E1D0060020DC05002050
:102CC000E00800200E00002000080140A4070020BA
:102CD00070090020C0060020C8070020B3070020AC
:102CE000D34D621008000020040000200000A04026
:102CF000550700200000A041520700205107002086
:102D0000500700201000002053070020B8070020C3
:102D1000C3070020C5070020C2070020C407002009
:102D2000B407002028E70008944B1B78002B02D042
:102D3000924B00221A70924B1B78DBB2002B02D010
:102D40008F4B00221A708F4B1B78DBB2002B47D0C1
:102D50008D4B19688D4B1A688D4B8E4800F082FDA3
:102D600003468C4A53618B4B5B69012214468A49A6
:102D70001846FEF7C3F90346002B01D100231C4679
:102D8000E2B2864B1A70814B1B6819461846FEF753
:102D9000BFF90346002B23D17C4B1B687A4A12688B
:102DA00011461846FDF7E4FE034623F000437C4934
:102DB0001846FEF785F90346002B11D0794B022205
:102DC0001A70794B00221A70784B93F84130DBB2BD
:102DD000202B05D164230C227549744805F0C3FDEE
:102DE000744B1B78002B04D1734B1B78DBB2002B88
:102DF00017D06C4B00221A706B4B00221A706D4B6F
:102E000000221A706C4B00221A70684B93F8413004
:102E1000DBB2202B05D164230C226849634805F0FE
:102E2000A2FD674B1B78002B00F09B805D4B0322BB
:102E30001A7096E0514B1B78002B02D04F4B0022AA
:102E40001A704F4B1B78DBB2002B02D04C4B002288
:102E50001A704C4B1B78DBB2002B1AD04A4B196806
:102E60004A4B1A684A4B4B4800F0FCFC0346494A5F
:102E70005361484B5B690122144647491846FEF7E7
:102E80003DF90346002B01D100231C46E2B2434B1F
:102E90001A70484B1B78002B04D1474B1B78DBB2D0
:102EA000002B1ED03F4B00221A703A4B4FF000020D
:102EB0005A613A4B00221A703B4B00221A703D4B6C
:102EC00000221A703C4B00221A70384B93F84130A4
:102ED000DBB2202B05D164230C223849334805F09E
:102EE00042FD374B1B78002B3DD02E4B03221A702E
:102EF00039E0284B4FF000025A61284B00221A702B
:102F0000304B1B78002B10D02D4B00221A70254B14
:102F100000221A702B4B00221A702B4B00221A70C1
:102F2000164B00221A70FEF7C3FC284B00221A70C1
:102F3000204B00221A70114B00221A70224B1B7872
:102F4000DBB2002B11D01E4B00221A70154B002251
:102F50001A701D4B00221A70FEF7AAFC05E000BF94
:102F600004E000BF02E000BF00E000BF0D4B1B7893
:102F7000002B2DD0074B5B692CE000BFC20700205F
:102F8000C407002050070020040000200800002093
:102F9000CDCCCC3D10000020000040405307002065
:102FA0000000A04055070020B8070020700900204D
:102FB00038E70008C3070020C507002048E70008DD
:102FC000B3070020C0070020C6070020C10700206B
:102FD0004FF000031846FEF715FE984B1B78DBB246
:102FE000002B00F00C81964B1B68964A1268114624
:102FF0001846FDF7BDFD03467B63934B1B78002B02
:1030000006D0924B5B691846FEF798F8034600E03D
:1030100000233B638E4B1B881846FDF75BFE03467F
:103020008C491846FDF762FF0346FB62854B1B681F
:103030001846FEF783F80346BB62824B1C68B86AE9
:10304000FDF74CFE034619462046FDF791FD034669
:1030500023F000431846FDF7E7F94FF000027E4BDE
:10306000FDF73AFA02460B4610461946FDF7E4FC16
:1030700003467B62724B1B681846FEF75FF80346F7
:103080003B626F4B1C68386AFDF728FE0346194601
:103090002046FDF76DFD034623F000431846FDF77B
:1030A000C3F94FF000026C4BFDF716FA02460B46CF
:1030B00010461946FDF7C0FC0346FB61F86AFEF7AF
:1030C0003DF80346BB61B869FDF708FE03461946A3
:1030D000F86AFDF74DFD034623F000431846FDF75F
:1030E000A3F94FF000025C4BFDF7F6F902460B46E0
:1030F00010461946FDF7A0FC03467B61786BFEF78E
:103100001DF803463B613869FDF7E8FD03461946A3
:10311000786BFDF72DFD034623F000431846FDF7BD
:1031200083F94FF000024C4BFDF7D6F902460B46EF
:1031300010461946FDF780FC0346FB60414B1B68B7
:1031400019461846FDF7E4FF0346002B0AD13D4B14
:103150001B6842491846FDF7C7FF0346002B01D004
:10316000012300E00023FB72FB7A03F00103FB72F2
:10317000002387F83F303A4B1B78002B05D097F897
:103180003F3043F0010387F83F30364B1B78002B6C
:1031900005D097F83F3043F0020387F83F30FB7AC1
:1031A000002B05D097F83F3043F0040387F83F30F9
:1031B00001F056FE02462C4B1B78194697F83F301B
:1031C00009930891FB6807933B6906937B69059314
:1031D000BB6904933B6B0393FB6902933B6A0193C6
:1031E0007B6A0093BB6A2149214807F033FD786070
:1031F0007B689AB232231E491E4805F0B4FB0F4B80
:103200001B78DBB2002B04D00C4B00221A70FFF7A6
:10321000CBFA194B1B68002B3FF41AAC01F020FECF
:103220000246154B1B68D31AB3F5487F7FF610ACE6
:10323000114B00221A60FFF7B7FA09E4500700208B
:103240000400002008000020550700201000002086
:103250000C000020A5CDD744000059400000664373
:10326000530700205C070020B307002054E7000844
:103270006007002070090020CC07002080B594B0C2
:1032800000AF07F1280328220021184607F047FD68
:1032900007F1140300221A605A609A60DA601A611A
:1032A0003B1D00221A605A609A60DA600923BB62F3
:1032B0004FF48033FB6200233B630123BB63012394
:1032C0003B6402237B644FF48033BB644FF4E01310
:1032D000FB6407F12803184603F028FE0346002B81
:1032E00001D000F08DFB0F237B610223BB61002323
:1032F000FB614FF480633B6200237B6207F11403A0
:103300000221184604F094F80346002B01D000F087
:1033100077FB02237B604FF40043FB603B1D1846A4
:1033200004F014FA0346002B01D000F069FB00BF43
:103330005037BD4680BD000080B590B000AF7860CA
:103340007B681B68AA4A934240F0C281A94B1B7854
:103350000A2B04D0A74B1B780D2B40F0A181A64B64
:103360001B781A46A54B00219954A34B1B78002BC0
:1033700000F09281A14B1B7887F83F3097F83F30DF
:10338000742B03D097F83F30542B25D19C4806F07E
:1033900005F902460B4610461946FDF795FB034614
:1033A000BB624FF00001B86AFDF79EFE0346002B9A
:1033B00000D171E19349B86AFDF78CFE0346002BFA
:1033C00000D169E1904ABB6A1360642312228F49DD
:1033D0008F4805F0C8FA5FE197F83F30682B03D0BB
:1033E00097F83F30482B17D1844B5B78312B09D1AC
:1033F000884B01221A7064230F228749844805F004
:10340000B2FA49E1854B01221A70642310228449E3
:103410007F4805F0A8FA3FE197F83F30762B03D0BC
:1034200097F83F30562B37D1754806F0B7F802466B
:103430000B4610461946FDF747FB0346FB627949E8
:10344000F86AFDF751FE0346002B00D124E17649CE
:10345000F86AFDF73FFE0346002B00D11CE1734ADA
:10346000FB6A1360714B1B681846FCF7DDFF0246D0
:103470000B4607F108006E4907F0ECFB07F1080363
:103480001846FCF765FE03469AB207F1080164236B
:103490005F4805F068FAFFE097F83F30732B03D0E0
:1034A00097F83F30532B09D1624B01221A706423E5
:1034B00010226149564805F056FAEDE097F83F3082
:1034C000722B03D097F83F30522B09D15B4B01226E
:1034D0001A70642311225A494D4805F044FADBE082
:1034E00097F83F30702B03D097F83F30502B1DD109
:1034F000434806F053F802460B4610461946FDF7BE
:10350000E3FA03463B634FF00001386BFDF7ECFD37
:103510000346002B00D1BFE04A4A3B6B1360642393
:10352000102249493A4805F01EFAB5E097F83F30B5
:10353000692B03D097F83F30492B21D1304806F052
:103540002DF802460B4610461946FDF7BDFA034614
:103550007B634FF00001786BFDF7C6FD0346002B3F
:1035600000D199E0374A7B6B5360364B4FF0000235
:103570001A61642310223549254805F0F4F98BE0DF
:1035800097F83F30642B03D097F83F30442B1DD180
:103590001B4806F003F802460B4610461946FDF795
:1035A00093FA0346BB634FF00001B86BFDF79CFD37
:1035B0000346002B00D16FE0224ABB6B936064236B
:1035C00010222349124805F0CEF965E097F83F3004
:1035D000772B03D097F83F30572B3DD1FEF7CCFB2C
:1035E000642312221B490A4805F0BDF954E000BFCC
:1035F00000380140A4070020B2070020A8070020DF
:10360000A9070020000087430400002084E7000889
:1036100070090020C407002098E70008C5070020B3
:10362000A8E70008CDCCCC3D000070412800002068
:10363000BCE70008C7070020D0E70008C607002045
:10364000E4E7000810000020F8E700080CE8000894
:1036500020E8000834E8000897F83F30782B03D0C2
:1036600097F83F30582B0AD1FEF710FCFEF732FCDA
:10367000642317221849194805F075F90CE097F8EA
:103680003F303F2B02D1FEF725FC05E064230E22DC
:103690001349124805F067F9124B00221A7012E024
:1036A000104B1B78082B0BD80E4B1B785A1CD1B231
:1036B0000C4A11701A460C4B19780C4B995402E0C5
:1036C000084B00221A7001220749044805F0D6F978
:1036D00000BF4037BD4680BD48E8000870090020A3
:1036E00060E80008B2070020A4070020A807002017
:1036F00080B582B000AF01F0B3FB786010214C4878
:1037000002F0D2FE0346002B0CBF01230023FB7006
:10371000FB78002B16D0474B1B78002B12D0464B62
:103720001B687A68D31AC82B15D96420FEF7DAFA19
:10373000424B01221A70404A7B6813603D4B0022C5
:103740001A7008E0FB7883F00103DBB2002B02D093
:10375000384B01221A704FF48051394802F0A4FE10
:103760000346002B0CBF01230023BB70BB78002B4A
:1037700016D0344B1B78002B12D0334B1B687A6861
:10378000D31AC82B15D96420FEF7ACFA2F4B0122AF
:103790001A702D4A7B6813602A4B00221A7008E0C9
:1037A000BB7883F00103DBB2002B02D0254B012252
:1037B0001A704FF40061224802F076FE0346002B97
:1037C0000CBF012300237B707B78002B23D0204B80
:1037D0001B78002B1FD01F4B1B687A68D31AB3F5D8
:1037E000967F14D93220FEF77DFA1B4B1B78002BF5
:1037F00003D0194B1B78032B03D1184B01221A70ED
:1038000002E0174B01221A70124A7B681360104BBA
:1038100000221A7008E07B7883F00103DBB2002BF2
:1038200002D00B4B01221A7000BF0837BD4680BD85
:10383000000801402D000020D0070020C007002014
:10384000000C01402E000020D4070020C1070020FA
:103850002C000020BC07002055070020C2070020D4
:10386000C307002090B58BB000AFF860B9607A60F4
:103870003B607968B868FDF77BF90346FB61FB683C
:103880001B681946F869FDF77DFA0346BB61FB69C1
:1038900023F0004343491846FDF712FC0346002B72
:1038A0000FD0FB681C693968F869FDF76BFA0346AD
:1038B00019462046FDF75EF903461A46FB681A6171
:1038C00003E0FB684FF000021A61FB685A68FB686E
:1038D0001B6919461046FDF755FA03467B623249CB
:1038E000786AFDF70BFC0346002B0CD02E4B7B6255
:1038F000FB685B6819462C48FDF7F8FA03461A4640
:10390000FB681A6112E02949786AFDF7D9FB034682
:10391000002B0BD0254B7B62FB685B681946234864
:10392000FDF7E4FA03461A46FB681A61FB68DB6898
:103930001946F869FDF71CF9034639681846FDF782
:10394000D5FA03467B61FB689B6819467869FDF7E9
:1039500019FA03463B61FB68FA69DA60796AB8696B
:10396000FDF708F9034619463869FDF703F90346E0
:103970003B620D49386AFDF7C1FB0346002B01D0BD
:10398000094B3B624FF00001386AFDF799FB034693
:10399000002B02D04FF000033B623B6A18462C37E5
:1039A000BD4690BD000070410000C8420000A0C1AB
:1039B00080B483B000AF78607B681B680C4A934288
:1039C00011D10C4B01221A700B4B1B6801330A4AB0
:1039D0001360094B1B68632B05D9084B01221A7031
:1039E000054B00221A6000BF0C37BD4680BC7047F3
:1039F0000004004052070020D80700205107002093
:103A000080B400AF72B600BF00BFFDE780B500AF65
:103A1000FDF74EFF00210020FDF761FF0A48FDF78A
:103A2000BAFFFEF7A9F94FF4FA7001F023FA00216A
:103A30000120FDF754FF0548FDF7ADFF4FF47A7004
:103A400001F018FA00BF80BD90E90008A0E9000865
:103A500080B500AF084B00221A60FDF729FF002156
:103A60000020FDF73CFF0548FDF795FF40F2DC50D4
:103A700001F000FA00BF80BDCC060020B0E90008CC
:103A800080B500AF0A4B1B680A4A1360FEF722FAA2
:103A9000FDF70EFF00210020FDF721FF0648FDF78E
:103AA0007AFF40F2DC5001F0E5F900BF80BD00BFB5
:103AB0003400002028000020C4E9000880B500AFD1
:103AC000124B1B681846FDF709F90346104A1360AC
:103AD000104B1B68104A1360104B1B680E4A536052
:103AE0000F4B1B680C4A9360FEF7F4F9FDF7E0FEFC
:103AF00000210020FDF7F3FE0A48FDF74CFF40F2DD
:103B0000DC5001F0B7F900BF80BD00BF30000020DD
:103B10000400002038000020100000203C0000209D
:103B200040000020C4E9000880B500AFFDF7C0FEEA
:103B300000210020FDF7D3FE0B48FDF72CFFFEF718
:103B4000A5F9FEF7C7F94FF47A7001F093F9002157
:103B50000120FDF7C4FE0548FDF71DFF4FF47A7004
:103B600001F088F900BF80BDD4E90008E8E9000849
:103B7000B0B586B004AF374B5B68374A93422BD160
:103B8000364B1B681846FCF74FFC04460D46344B79
:103B90001B681846FCF748FC02460B46CDE9022399
:103BA000CDE900452F4A10212F4807F01DF82A4B78
:103BB0002D4A1A602D4B1B681846FCF735FC02464F
:103BC0000B46CDE900232A4A10212A4807F00CF8B9
:103BD000214B284A1A6238E01E4B5B68264A934202
:103BE00033D101F03DF90346244AA2FB03239B098C
:103BF0007B6001F035F90346214A1021214806F087
:103C0000F3FF7B683B2B06D87B681F4A10211D48B9
:103C100006F0EAFF09E07B681C4AA2FB03235B096C
:103C20001B4A1021174806F0DFFF134B154A1A6094
:103C3000184B1B68184A12780092184A102118482D
:103C400006F0D2FF0C4B164A1A6200BF0837BD4679
:103C5000B0BD00BFDC0700204800002008000020A5
:103C600004000020FCE90008FC07002028000020D8
:103C70000CEA00081008002048020020D34D621012
:103C800018EA00082408002024EA000889888888A7
:103C900030EA0008CC060020B30700203CEA000808
:103CA0003808002080B485B000AF78600023FB7333
:103CB00002E0FB7B0133FB73FB7B5B017A681344FF
:103CC0001B68002BF5D1FB7B18461437BD4680BC22
:103CD0007047000080B500AF194B00221A70184BD6
:103CE00000225A60164B00221A72154B00225A729B
:103CF000134B0022DA60124B00221A74104B002280
:103D00005A61FDF79BFB03460E4A13600E4B1B687E
:103D10001846FDF713FA03460C4A13600C4B1B6858
:103D20000C4A13600C4B1B680C4A13600A4B5B680F
:103D30000B4A1360084B9B680A4A136000BF80BDA2
:103D4000DC070020F80700200400002030000020DD
:103D5000280000203400002010000020380000203F
:103D60003C0000204000002080B500AF1C4B1B78B9
:103D7000002B33D11A4B01221A70194B194A5A6081
:103D8000174B00221A721748FFF78CFF03461A469A
:103D9000134B5A7201F064F80346114AD360124B78
:103DA0001B681846FDF7CAF90346104A1360104B0A
:103DB0001B68104A1360104B1B68104A13600E4BAF
:103DC0005B680F4A13600C4B9B680E4A1360FDF74B
:103DD0003FFB0D4B00221A60FDF76AFD00BF80BD5E
:103DE000DC070020E8020020040000203000002052
:103DF000280000203400002010000020380000209F
:103E00003C00002040000020F807002080B500AFF3
:103E1000044B00221A70034B00225A60FDF748FD44
:103E200000BF80BDDC07002090B58BB000AF78608C
:103E300001F016F80346644AD360634B1B78012BEC
:103E40001AD1614B1B7A1A467B6813447B627B6AEA
:103E5000002B04DA5C4B5B7A013B7B6207E05A4B38
:103E60005B7A1A467B6A934201DB00237B627B6AA2
:103E7000DAB2554B1A72A2E0534B1B78022B40F07A
:103E80009E80514B5A68504B1B7A5B011344BB61B7
:103E9000BB691B79022B1FD1BB699B68FB60FB6868
:103EA0001A68BB695B69796801FB03F313443B62E1
:103EB000BB69DB683A6A9A4202DABB69DB683B623B
:103EC000BB691B693A6A9A4202DDBB691B693B62A6
:103ED000FB683A6A1A6072E0BB691B79032B58D100
:103EE000BB699B683B613B691C68BB695B697A681D
:103EF00002FB03F31846FCF7F1FE0346334918466C
:103F0000FCF740FF034619462046FCF733FE034604
:103F1000FB61BB69DB681846FCF7E0FE03462B49F2
:103F20001846FCF72FFF03461946F869FDF7C8F855
:103F30000346002B0BD0BB69DB681846FCF7CEFEAE
:103F4000034622491846FCF71DFF0346FB61BB6987
:103F50001B691846FCF7C2FE03461C491846FCF7CD
:103F600011FF03461946F869FDF7C8F80346002B10
:103F70000BD0BB691B691846FCF7B0FE034613491A
:103F80001846FCF7FFFE0346FB613B69FA691A60BD
:103F900015E0BB691B79042B11D1BB699B687B6160
:103FA0007B691B78002B14BF01230023DBB283F055
:103FB0000103DBB203F00103DAB27B691A7000BFC0
:103FC0002C37BD4690BD00BFDC0700200AD7233C3C
:103FD00080B582B000AF00F043FF0346434AD36090
:103FE000424B1B78002B7BD0404B1B78012B68D1B8
:103FF0003E4B5A683D4B1B7A5B0113447B607B68E8
:104000001B79052B6FD801A252F823F02540000838
:1040100055400008654000086540000865400008FC
:10402000854000087B689B68304A53602F4B002214
:104030001A727B689B681846FFF734FE03461A46DF
:104040002A4B5A72FDF704FA294B00221A60FDF739
:104050002FFC48E07B689B68002B43D07B689B6803
:1040600098473FE0214B02221A707B689B681B68CF
:104070001E4A9361FDF7ECF91D4B00221A60FDF713
:1040800017FC30E07B68DB69002B10D07B68DB69B4
:10409000164A5360154B00221A727B68DB6918467A
:1040A000FFF700FE03461A46104B5A7201E0FFF775
:1040B000ADFEFDF7CDF90E4B00221A60FDF7F8FBBF
:1040C00011E00A4B1B78022B0DD1084B01221A700C
:1040D000FDF7BEF9064B00221A60FDF7E9FB02E08E
:1040E00000BF00E000BF0837BD4680BDDC070020F0
:1040F000F807002080B582B000AF224B1B78022B5E
:1041000016D1204B5A681F4B1B7A5B0113443B604E
:104110003B689B681B4A92691A601A4B01221A700D
:10412000FDF796F9184B00221A60FDF7C1FB24E059
:10413000144B1B78012B20D1124B5B687B607B6892
:10414000DB69002B10D07B68DB690E4A53600D4B96
:1041500000221A727B68DB691846FFF7A3FD03464D
:104160001A46084B5A7201E0FFF750FEFDF770F94E
:10417000054B00221A60FDF79BFB00BF0837BD46C8
:1041800080BD00BFDC070020F807002080B582B0AA
:1041900000AF274B1B78002B01D0FFF7E9FC244B25
:1041A0001B78002B3FD000F05BFE0246204BDB6803
:1041B000D31A47F23052934202D9FFF727FE33E079
:1041C0001B4B1B78022B1CD100F04AFE0246184BF9
:1041D0005B69D31AB3F5FA7F13D9154B1B7C002BFF
:1041E00014BF01230023DBB283F00103DBB203F031
:1041F0000103DAB20E4B1A7400F032FE03460C4A89
:104200005361FDF71BF978600A4B1B687A68D31A73
:104210003B603B68002B07D03868FFF705FE054A76
:104220007B68136000E000BF0837BD4680BD00BF5B
:10423000DC070020F807002080B598B004AF554B8C
:104240001B78002B00F0A180524B5A68514B1B7A0F
:104250005B011344FB644F4B1B78012B35D10021CC
:104260000020FDF73CFBFB6C1B6807F128004A4A65
:10427000112106F0B9FC07F128031846FDF78BFB66
:1042800000210120FDF72BFB424B1B7A0133414AF1
:10429000527A934215DA3F4B5A683E4B1B7A0133F0
:1042A0005B011344FB63FB6B1B6807F114003B4A83
:1042B000112106F099FC07F114031846FDF76BFB7A
:1042C00064E03748FDF767FB60E0324B1B78022B58
:1042D0005CD100210020FDF702FBFB6C1B68184637
:1042E000FDF759FB2F48FDF756FB00210120FDF794
:1042F000F6FAFB6C1B79022B0DD1FB6C9B681B68DB
:104300003B64FB6C9B69384600933B6C264A112149
:1043100006F06AFC2CE0FB6C1B79032B13D1FB6CC1
:104320009B681B687B64786CFCF77EF802460B4642
:10433000F96C896938460291CDE900231B4A1121A5
:1043400006F052FC14E0FB6C1B79042B10D1FB6CC3
:104350009B681B7887F84B3097F84B30002B01D0C7
:10436000134B00E0134B3846134A112106F03CFC76
:10437000084B1B7C002B04D03B461846FDF70BFB7B
:1043800004E00748FDF707FB00E000BF5037BD46DB
:1043900080BD00BFDC07002048EA000850EA0008A2
:1043A00058EA00086CEA000870EA00087CEA000895
:1043B00088EA00088CEA000890EA000880B400AFA0
:1043C000054B1B78002B14BF01230023DBB21846DA
:1043D000BD4680BC704700BFDC07002080B485B0BC
:1043E00000AF154B9B69144A43F001039361124BD4
:1043F0009B6903F00103BB60BB680F4BDB690E4A8E
:1044000043F08053D3610C4BDB6903F080537B6036
:104410007B680A4B5B68FB60FB6823F0E063FB6032
:10442000FB6843F08063FB60044AFB68536000BF95
:104430001437BD4680BC70470010024000000140A8
:1044400080B400AF00BFFDE780B400AF00BFFDE760
:1044500080B400AF00BFFDE780B400AF00BFFDE750
:1044600080B400AF00BFFDE780B400AF00BFBD4621
:1044700080BC704780B400AF00BFBD4680BC7047B1
:1044800080B400AF00BFBD4680BC704780B500AFB0
:1044900000F0D4FC00BF80BD80B500AF024801F041
:1044A0004BFB00BF80BD00BF0C06002080B500AFF5
:1044B000024801F041FB00BF80BD00BFB8090020E9
:1044C00080B582B000AF254B01221A70244B1B78B7
:1044D0000133DAB2224B1A70214B1B78632B05D9BA
:1044E0001F4B00221A701F4B01221A7000F0B8FCFB
:1044F00002461D4B1B68D31A7B607B68132B04D9C3
:1045000000F0AEFC0346184A1360184B1B78002BD2
:1045100017D0174B5B6917491846FCF733FC034665
:104520001846FCF731FE02467B68934234BF0123F4
:104530000023DBB21A464FF480710F4801F0CBFF25
:1045400005E000224FF480710B4801F0C4FF0B48D6
:1045500003F0AAFB00BF0837BD4680BD520700200C
:104560004908002051070020A00700205307002021
:1045700010000020CDCC4C3E000C0140E008002093
:1045800080B500AF024804F09FFA00BF80BD00BFB5
:104590007009002080B500AF124B5B6903F48043C3
:1045A000002B05D0FCF788FF0E4B4FF480425A6178
:1045B0000C4B5B6903F40053002B05D0FCF7D4FFD0
:1045C000084B4FF400525A614FF4006001F09CFF19
:1045D0004FF4005001F098FF4FF4804001F094FF39
:1045E00000BF80BD0004014080B483B000AF78609C
:1045F0007B681B68054A934202D1054B01221A7061
:1046000000BF0C37BD4680BC704700BF002401408E
:104610005007002080B400AF01231846BD4680BC7F
:10462000704780B582B000AF7860396006F0DCFB7F
:10463000034616221A604FF0FF3318460837BD466E
:1046400080BD80B582B000AF78604FF0FF317868F0
:10465000FFF7E7FF00BFFDE780B586B000AFF86069
:10466000B9607A6000237B610AE0AFF30080014605
:10467000BB685A1CBA60CAB21A707B6901337B618D
:104680007A697B689A42F0DB7B6818461837BD462A
:1046900080BD80B586B000AFF860B9607A60002355
:1046A0007B6109E0BB685A1CBA601B781846AFF3FF
:1046B00000807B6901337B617A697B689A42F1DB18
:1046C0007B6818461837BD4680BD80B483B000AF04
:1046D00078604FF0FF3318460C37BD4680BC7047FA
:1046E00080B483B000AF786039603B684FF400520B
:1046F0005A60002318460C37BD4680BC704780B412
:1047000083B000AF7860012318460C37BD4680BCEB
:10471000704780B485B000AFF860B9607A6000235C
:1047200018461437BD4680BC7047000080B586B07F
:1047300000AF7860144A154BD31A7B617B693B61EB
:10474000134B1B68002B02D1114B124A1A60104BFD
:104750001A687B6813443A699A4207D206F044FB10
:1047600003460C221A604FF0FF3309E0084B1B6828
:10477000FB60074B1A687B681344054A1360FB68AB
:1047800018461837BD4680BD0050002000040000C8
:104790004C080020700B002080B400AF00BFBD4665
:1047A00080BC704780B592B000AF07F14003002293
:1047B0001A605A6007F1240300221A605A609A6056
:1047C000DA601A615A619A613B1D20220021184665
:1047D00006F0A5FA334B344A1A60324B47225A602E
:1047E000304B00229A602F4B4FF6FF72DA602D4B50
:1047F00000221A612B4B00225A612A4B00229A6137
:10480000284803F0FBF80346002B01D0FFF7F8F827
:1048100000233B6400237B6407F1400319462148D1
:1048200003F090FF0346002B01D0FFF7E9F8602367
:104830007B620023BB620023FB6200233B630023F7
:104840007B630023BB630023FB6307F12403002287
:104850001946144803F018FB0346002B01D0FFF75C
:10486000CFF800237B600023BB600023FB600023A4
:104870003B6100237B614FF40053BB6100233B622B
:104880003B1D1946074803F0BBFF0346002B01D030
:10489000FFF7B6F8034800F067F900BF4837BD4698
:1048A00080BD00BF50080020002C014080B586B0BC
:1048B00000AF07F1080300221A605A609A60DA60BC
:1048C0003B4600221A605A601D4B4FF080421A602E
:1048D0001B4B00225A601A4B00229A60184B4FF66D
:1048E000FF72DA60164B00221A61154B00229A61A2
:1048F000134802F0E1FF0346002B01D0FFF780F8D8
:104900004FF48053BB6007F1080319460C4803F0CD
:104910007DFB0346002B01D0FFF772F800233B60BC
:1049200000237B603B461946054803F00BFF034616
:10493000002B01D0FFF764F800BF1837BD4680BDDB
:104940009808002080B586B000AF07F10803002268
:104950001A605A609A60DA603B4600221A605A6018
:104960001D4B1E4A1A601C4B41F61F425A601A4BDF
:1049700000229A60184B0922DA60174B00221A6154
:10498000154B80229A61144802F096FF0346002BD3
:1049900001D0FFF735F84FF48053BB6007F10803EF
:1049A00019460D4803F032FB0346002B01D0FFF7F8
:1049B00027F800233B6000237B603B4619460648EE
:1049C00003F0C0FE0346002B01D0FFF719F800BF2B
:1049D0001837BD4680BD00BFE0080020000400403D
:1049E00080B58AB000AF07F1200300221A605A6038
:1049F0003B1D00221A605A609A60DA601A615A619F
:104A00009A61224B224A1A60204B40F2CF225A6010
:104A10001E4B00229A601D4B42F20F72DA601B4B54
:104A200000221A61194B80229A61184802F0E6FFB1
:104A30000346002B01D0FEF7E3FF00233B62002377
:104A40007B6207F120031946104803F07BFE034602
:104A5000002B01D0FEF7D4FF60237B600023BB60F6
:104A60000023FB6000237B613B1D08221946074899
:104A700003F00AFA0346002B01D0FEF7C1FF0348FA
:104A800000F072F800BF2837BD4680BD280900201D
:104A90000008004080B485B000AF78607B681B6878
:104AA000124A93420CD1124B9B69114A43F40063A2
:104AB00093610F4B9B6903F40063FB60FB6810E09C
:104AC0007B681B680B4A93420BD1094BDB69084A90
:104AD00043F00403D361064BDB6903F00403BB60BE
:104AE000BB6800BF1437BD4680BC7047002C014036
:104AF000001002400008004080B584B000AF78602C
:104B00007B681B68B3F1804F0CD1154BDB69144AED
:104B100043F00103D361124BDB6903F00103FB6037
:104B2000FB6818E07B681B680E4A934213D10C4B5C
:104B3000DB690B4A43F00203D361094BDB6903F0E5
:104B40000203BB60BB68002200211D2000F04FFE65
:104B50001D2000F068FE00BF1037BD4680BD00BFBD
:104B6000001002400004004080B588B000AF7860BB
:104B700007F1100300221A605A609A60DA607B68BD
:104B80001B681F4A934219D11E4B9B691D4A43F073
:104B9000040393611B4B9B6903F00403FB60FB68F8
:104BA0004FF480733B6102237B610223FB6107F1B9
:104BB00010031946144801F0F3FA1DE07B681B68E6
:104BC000124A934218D10F4B9B690E4A43F00803D7
:104BD00093610C4B9B6903F00803BB60BB684FF407
:104BE00080733B6102237B610223FB6107F11003A9
:104BF0001946074801F0D4FA00BF2037BD4680BDF2
:104C0000002C014000100240000801400008004054
:104C1000000C014080B500AF114B124A1A60104BD6
:104C20004FF4E1325A600E4B00229A600C4B002286
:104C3000DA600B4B00221A61094B0C225A61084BB7
:104C400000229A61064B0022DA61054803F03BFE20
:104C50000346002B01D0FEF7D3FE00BF80BD00BF8E
:104C6000700900200038014080B588B000AF78603E
:104C700007F1100300221A605A609A60DA607B68BC
:104C80001B68334A93425FD1324B9B69314A43F4EC
:104C9000804393612F4B9B6903F48043FB60FB6867
:104CA0002C4B9B692B4A43F004039361294B9B696E
:104CB00003F00403BB60BB684FF400733B61022345
:104CC0007B610323FB6107F110031946224801F0C1
:104CD00067FA4FF480633B6100237B610023BB6173
:104CE00007F1100319461C4801F05AFA1B4B1C4AE5
:104CF0001A601A4B10225A60184B00229A60174B08
:104D00008022DA60154B00221A61144B00225A618E
:104D1000124B00229A61114B0022DA610F4800F019
:104D20009DFD0346002B01D0FEF76AFE7B680B4A0F
:104D30009A630A4A7B68536200220021252000F012
:104D400056FD252000F06FFD00BF2037BD4680BD19
:104D5000003801400010024000080140B80900205E
:104D600044000240FFF718FD0B480C490C4A002391
:104D700002E0D458C4500433C4188C42F9D3094A11
:104D8000094C002301E013600432A242FBD306F079
:104D900031F8FDF71DFE704700000020BC05002023
:104DA000CCF20008C00500206C0B0020FEE70000DC
:104DB00080B500AF084B1B68074A43F0100313602F
:104DC000032000F009FD0F2000F008F8FFF706FBB4
:104DD0000023184680BD00BF0020024080B582B08D
:104DE00000AF7860124B1A68124B1B7819464FF4CB
:104DF0007A73B3FBF1F3B2FBF3F3184600F021FD35
:104E00000346002B01D001230EE07B680F2B0AD84C
:104E1000002279684FF0FF3000F0E9FC064A7B6819
:104E20001360002300E0012318460837BD4680BD0B
:104E3000E8030020F0030020EC03002080B400AF62
:104E4000054B1B781A46054B1B681344034A136035
:104E500000BFBD4680BC7047F0030020FC09002065
:104E600080B400AF024B1B681846BD4680BC70473B
:104E7000FC09002080B584B000AF7860FFF7F0FF38
:104E8000B8607B68FB60FB68B3F1FF3F05D00A4B5D
:104E90001B781A46FB681344FB6000BFFFF7E0FF76
:104EA0000246BB68D31AFA689A42F7D800BF00BF1F
:104EB0001037BD4680BD00BFF003002080B586B02E
:104EC00000AF78600023FB7500233B610023BB60CB
:104ED0000023FB607B68002B01D10123BEE07B68CF
:104EE0009B68002B7B689B6A002B09D17B680022A2
:104EF000DA627B68002283F824207868FCF7D8F90E
:104F0000786800F0F5FA0346FB757B689B6A03F04E
:104F10001003002B40F09980FB7D002B40F0958022
:104F20007B689B6A23F4885323F0020343F0020258
:104F30007B689A627B685A687B68DB691A437B6886
:104F40001B7B5B001343BA681343BB607B689B68A1
:104F5000B3F5807F03D07B689B68012B02D14FF4AF
:104F6000807300E000233A6913433B617B681B7D3B
:104F7000012B19D17B681B7B002B09D17B689B69B6
:104F8000013B5A033B69134343F400633B610BE06D
:104F90007B689B6A43F020027B689A627B68DB6ACD
:104FA00043F001027B68DA627B681B685B6823F46C
:104FB00069417B681B683A690A435A607B681B68D1
:104FC0009A68284B13407A681268B9680B4393605B
:104FD0007B689B68B3F5807F03D07B689B68012B5F
:104FE00004D17B681B69013B1B05FB607B681B6868
:104FF000DB6A23F470017B681B68FA680A43DA6293
:105000007B681B689A68184B1340BA689A420BD1A8
:105010007B680022DA627B689B6A23F0030343F01B
:1050200001027B689A6218E07B689B6A23F0120396
:1050300043F010027B689A627B68DB6A43F00102EE
:105040007B68DA620123FB7507E07B689B6A43F0AB
:1050500010027B689A620123FB75FB7D18461837A6
:10506000BD4680BDFDF7E1FFFE0E1FFF80B586B097
:1050700000AFF860B9607A600023FB75FB681B68BD
:10508000644A934204D0FB681B68634A934206D18A
:10509000604B5B6803F47023002B40F0B380FB6827
:1050A00093F82430012B01D10223AEE0FB680122EA
:1050B00083F82420F86800F0C1F90346FB75FB7DF6
:1050C000002B40F09A80FB689B6A23F4706323F006
:1050D000010343F48072FB689A62FB681B684E4AC6
:1050E000934205D14B4B5B6803F47023002B15D121
:1050F000FB689B6A23F48012FB689A62FB681B685A
:105100005B6803F48063002B26D0FB689B6A23F462
:10511000405343F48052FB689A621DE0FB689B6A2F
:1051200043F48012FB689A62FB681B68394A934219
:1051300004D0FB681B68384A93420DD1354B5B683D
:1051400003F48063002B07D0FB689B6A23F4405371
:1051500043F48052FB689A62FB689B6A03F48053B5
:10516000002B06D0FB68DB6A23F00602FB68DA62DC
:1051700002E0FB680022DA62FB68002283F8242048
:10518000FB681B6A254A9A62FB681B6A244ADA623A
:10519000FB681B6A234A1A63FB681B686FF00202F4
:1051A0001A60FB681B689A68FB681B6842F480728F
:1051B0009A60FB68186AFB681B684C331946BA682A
:1051C0007B6800F0A5FBFB681B689B6803F4602309
:1051D000B3F5602F08D1FB681B689A68FB681B68F1
:1051E00042F4A0029A600FE0FB681B689A68FB68B3
:1051F0001B6842F480129A6006E0FB68002283F884
:10520000242001E00123FB75FB7D18461837BD46BD
:1052100080BD00BF002401400028014073550008F4
:10522000EF5500080B56000880B483B000AF7860DB
:1052300000BF0C37BD4680BC704780B483B000AF60
:10524000786000BF0C37BD4680BC704780B485B025
:1052500000AF786039600023FB730023BB607B687C
:1052600093F82430012B01D10223DCE07B6801227A
:1052700083F824203B685B68062B1CD87B681B687E
:10528000596B3B685A6813469B001344053B1F2229
:1052900002FA03F3DB4319403B6818683B685A681D
:1052A00013469B001344053B00FA03F27B681B681E
:1052B0000A435A633CE03B685B680C2B1CD87B6854
:1052C0001B68196B3B685A6813469B001344233BC9
:1052D0001F2202FA03F3DB4319403B6818683B685E
:1052E0005A6813469B001344233B00FA03F27B6881
:1052F0001B680A431A631BE07B681B68D96A3B681A
:105300005A6813469B001344413B1F2202FA03F3E1
:10531000DB4319403B6818683B685A6813469B009A
:105320001344413B00FA03F27B681B680A43DA62CC
:105330003B681B68092B1CD97B681B68D9683B68D4
:105340001A6813465B0013441E3B072202FA03F35C
:10535000DB4319403B6898683B681A6813465B005A
:1053600013441E3B00FA03F27B681B680A43DA60B1
:1053700019E07B681B6819693B681A6813465B0073
:105380001344072202FA03F3DB4319403B68986891
:105390003B681A6813465B00134400FA03F27B680B
:1053A0001B680A431A613B681B68102B03D03B68DB
:1053B0001B68112B32D17B681B681D4A934225D193
:1053C0007B681B689B6803F40003002B26D17B6875
:1053D0001B689A687B681B6842F400029A603B680D
:1053E0001B68102B1AD1134B1B68134AA2FB032313
:1053F0009A0C13469B0013445B00BB6002E0BB6841
:10540000013BBB60BB68002BF9D107E07B689B6A5E
:1054100043F020027B689A620123FB737B680022C1
:1054200083F82420FB7B18461437BD4680BC7047A8
:1054300000240140E803002083DE1B4380B584B0D4
:1054400000AF78600023FB600023BB607B681B68B3
:105450009B6803F00103012B40D07B681B689A68AE
:105460007B681B6842F001029A601F4B1B681F4A51
:10547000A2FB03239B0CBB6002E0BB68013BBB604B
:10548000BB68002BF9D1FFF7EBFCF8601FE0FFF7DA
:10549000E7FC0246FB68D31A022B18D97B681B680D
:1054A0009B6803F00103012B11D07B689B6A43F0DA
:1054B00010027B689A627B68DB6A43F001027B68BA
:1054C000DA627B68002283F82420012307E07B68EE
:1054D0001B689B6803F00103012BD8D100231846F9
:1054E0001037BD4680BD00BFE803002083DE1B43AC
:1054F00080B584B000AF78600023FB607B681B68D8
:105500009B6803F00103012B2ED17B681B689A680E
:105510007B681B6822F001029A60FFF7A1FCF8602B
:105520001BE0FFF79DFC0246FB68D31A022B14D93F
:105530007B681B689B6803F00103012B0DD17B681E
:105540009B6A43F010027B689A627B68DB6A43F0D7
:1055500001027B68DA62012307E07B681B689B68B5
:1055600003F00103012BDCD0002318461037BD46A1
:1055700080BD80B584B000AF78607B685B6AFB60FB
:10558000FB689B6A03F05003002B27D1FB689B6AE2
:1055900043F40072FB689A62FB681B689B6803F423
:1055A0006023B3F5602F15D1FB681B7B002B11D155
:1055B000FB689B6A23F48072FB689A62FB689B6AB3
:1055C00003F48053002B05D1FB689B6A43F0010272
:1055D000FB689A62F868FFF707F804E0FB681B6A4B
:1055E0001B6B7868984700BF1037BD4680BD80B5FB
:1055F00084B000AF78607B685B6AFB60F868FFF797
:1056000013FE00BF1037BD4680BD80B584B000AF2B
:1056100078607B685B6AFB60FB689B6A43F04002D2
:10562000FB689A62FB68DB6A43F00402FB68DA629B
:10563000F868FFF702FE00BF1037BD4680BD0000CE
:1056400080B485B000AF78607B6803F00703FB602F
:105650000C4BDB68BB60BA684FF6FF031340BB60BE
:10566000FB681A02BB68134343F0BF6343F4003383
:10567000BB60044ABB68D36000BF1437BD4680BC22
:10568000704700BF00ED00E080B400AF044BDB6862
:105690001B0A03F007031846BD4680BC704700BFD5
:1056A00000ED00E080B483B000AF0346FB7197F9D2
:1056B0000730002B0BDBFB7903F01F02064997F93B
:1056C00007305B09012000FA02F241F8232000BFF5
:1056D0000C37BD4680BC704700E100E080B483B069
:1056E00000AF03463960FB7197F90730002B0ADBE6
:1056F0003B68DAB20C4997F907301201D2B20B4479
:1057000083F800230AE03B68DAB20849FB7903F02A
:105710000F03043B1201D2B20B441A7600BF0C37C0
:10572000BD4680BC704700BF00E100E000ED00E036
:1057300080B489B000AFF860B9607A60FB6803F0AC
:105740000703FB61FB69C3F10703042B28BF042394
:10575000BB61FB690433062B02D9FB69033B00E004
:1057600000237B614FF0FF32BB6902FA03F3DA4397
:10577000BB681A407B699A404FF0FF317B6901FAA0
:1057800003F3D9437B680B40134318462437BD46C7
:1057900080BC704780B582B000AF78607B68013B09
:1057A000B3F1807F01D301230FE00A4A7B68013BFC
:1057B00053600F214FF0FF30FFF790FF054B0022A1
:1057C0009A60044B07221A60002318460837BD462A
:1057D00080BD00BF10E000E080B582B000AF78600F
:1057E0007868FFF72DFF00BF0837BD4680BD80B544
:1057F00086B000AF0346B9607A60FB7300237B611B
:10580000FFF742FF78617A68B9687869FFF790FF1F
:10581000024697F90F3011461846FFF75FFF00BFA9
:105820001837BD4680BD80B582B000AF0346FB711E
:1058300097F907301846FFF735FF00BF0837BD4618
:1058400080BD80B582B000AF78607868FFF7A2FFB6
:10585000034618460837BD4680BD000080B485B0B9
:1058600000AF78600023FB607B68002B01D101232F
:1058700043E07B681B681A46224B1344224AA2FB72
:1058800003231B099A007B681A647B681F4ADA634A
:105890007B68022283F821207B681B681B68FB6001
:1058A000FB6823F47F5323F03003FB607B685A6866
:1058B0007B689B681A437B68DB681A437B681B69BB
:1058C0001A437B685B691A437B689B691A437B6850
:1058D000DB691343FA681343FB607B681B68FA6853
:1058E0001A607B6800229A637B68012283F821207A
:1058F0007B68002283F82020002318461437BD4619
:1059000080BC7047F8FFFDBFCDCCCCCC000002407E
:1059100080B586B000AFF860B9607A603B60002364
:10592000FB75FB6893F82030012B01D102234BE07B
:10593000FB68012283F82020FB6893F82130DBB25A
:10594000012B3AD1FB68022283F82120FB68002258
:105950009A63FB681B681A68FB681B6822F00102E7
:105960001A603B687A68B968F86800F0EBF9FB6880
:10597000DB6A002B08D0FB681B681A68FB681B6891
:1059800042F00E021A600FE0FB681B681A68FB68A1
:105990001B6822F004021A60FB681B681A68FB6827
:1059A0001B6842F00A021A60FB681B681A68FB68F1
:1059B0001B6842F001021A6005E0FB68002283F8D0
:1059C00020200223FB75FB7D18461837BD4680BD9D
:1059D00080B485B000AF78600023FB737B6893F8D8
:1059E0002130DBB2022B08D07B6804229A637B68EB
:1059F000002283F82020012320E07B681B681A68BE
:105A00007B681B6822F00E021A607B681B681A68AC
:105A10007B681B6822F001021A607B681A6C7B6845
:105A2000DB6B012101FA02F25A607B68012283F8E4
:105A300021207B68002283F82020FB7B1846143746
:105A4000BD4680BC7047000080B584B000AF786070
:105A50000023FB737B6893F82130DBB2022B05D067
:105A60007B6804229A630123FB7351E07B681B6807
:105A70001A687B681B6822F00E021A607B681B683C
:105A80001A687B681B6822F001021A607B681B6839
:105A9000224A934229D07B681B68214A934222D034
:105AA0007B681B681F4A93421AD07B681B681E4A9A
:105AB000934212D07B681B681C4A93420AD07B68D1
:105AC0001B681B4A934202D14FF480130EE04FF043
:105AD00080730BE04FF4803308E04FF4805305E00F
